:040046000233000081
:04004E0043B1402258
:0407FA0053B1BF2216
:040E9F0063B14022D9
:0A0E700090E740E0F580A3E0F59064
:070E7A0053B1F543B10A2258
:0E0E8100C28C538EF75389F1438901C2A92216
:100D7C00120E81D200120E977580FF7590FF75B21E
:100D8C00FF75B3FF75B18A75B67F1207FA020E7A3A
:100E3700853880853990120E7AE4F50CF50DF508A2
:050E4700F509C28C2238
:100A8300D3E50D9537E50C95364003120E37E53B5C
:100A9300603AE4F50CF50DE5344533700675332FF4
:100AA3007534FFE534153470021533E5344533707E
:100AB30004F53B800FAE33AF347C0B7DFF12075E32
:100AC300EF20E0051207FA800312004EE5B190E62D
:0D0AD3008020E705E04408F022E054F7F031
:010AE00022F3
:02004000D322C9
:0207FE00D32204
:020EA700D32254
:0800030090E6BAE0F53CD322BF
:100E4C0090E740E53CF0E490E68AF090E68B04F005
:020E5C00D3229F
:080E8F0090E6BAE0F535D3222C
:100E5E0090E740E535F0E490E68AF090E68B04F0FA
:020E6E00D3228D
:020EA900D32252
:020EAB00D32250
:020EAD00D3224E
:10005600753B0190E678E05410FFC4540F4450F508
:100066003A13E433F53D90E6B9E01207B30202070E
:1000760001821001A01101B412021F2002252102E3
:10008600252303E12803E12C03E12D03E12E00B92A
:100096002F01CD3001CD31025DA2025DA30257A929
:1000A600022DAC03E1F000ECF100F9F203E1F300FC
:1000B6000003DF90E6BBE0FE90E6BAE07C00240099
:1000C600F537EC3EF53690E6BDE0F53990E6BCE056
:1000D600F538E53745367007C28CC2A9020225D22B
:1000E6008CD2A902022590E6BAE0F580A3E0F5904D
:1000F60002022590E6BEE0752700F528A3E0FEEE95
:100106004227E5284527700490E68BF0E528452729
:1001160070030203E190E6A0E020E1F9C3E528942C
:1001260040E5279400500885272985282A800675EA
:100136002900752A40E4F52BF52CC3E52C952AE514
:100146002B9529501DAF2CC3E5289FFE74402FF533
:1001560082E434E7F583EEF0052CE52C70DC052B04
:1001660080D8E490E68AF090E68BE52AF0C3E5288D
:10017600952AF528E5279529F527809090E6BEE093
:10018600D3940050030203E1E090E68BF090E6A0E2
:10019600E020E1F9120E700203E190E740E580F0FD
:1001A600A3E590F0A3E5A0F0A3E5B0F0801690E6F5
:1001B600BEE0D3940050030203E190E6A0E020E104
:1001C600F9120E70E4802F90E740E580F0A3E590E9
:1001D600F0A3E5A0F0A3E5B0F0E5B130E0047F01BF
:1001E60080027F0090E6BAEFF090E7457469F0E48C
:1001F600A3F0A3F0A3F090E68AF0801D90E6BAE0A3
:10020600FF120D24AA06A9077B01EA494B6008EEF6
:1002160090E6B3F0EF8033D32290E6BEE08001E4AF
:1002260090E68BF00203E190E6B5E054FEF090E62E
:10023600BFE090E68AF090E6BEE090E68BF090E6AE
:10024600BBE090E6B3F090E6BAE090E6B4F00203C5
:10025600E1753D01433A0190E6BAE0752500F526C1
:10026600A3E0FEEE422590E6BEE0752700F528A342
:10027600E0FEEE422790E6B8E064C0600302034960
:10028600E528452770030203E190E6A0E020E1F9A6
:10029600C3E5289440E5279400500885272985283A
:1002A6002A8006752900752A4090E6B9E0B4A33580
:1002B600E4F52BF52CC3E52C952AE52B9529505E04
:1002C600E526252CF582E525352BF583E0FF7440E0
:1002D600252CF582E434E7F583EFF0052CE52C7048
:1002E600D4052B80D0E4F52BF52CC3E52C952AE517
:1002F6002B952950187440252CF582E434E7F583B4
:1003060074CDF0052CE52C70E1052B80DDAD2A7A45
:10031600E779407F40AB07AF26AE25120AE1E490AD
:10032600E68AF090E68BE52AF02526F526E52935BE
:1003360025F525C3E528952AF528E5279529F527E6
:1003460002028690E6B8E0644060030203E1E52815
:10035600452770030203E1E490E68AF090E68BF00D
:1003660090E6A0E020E1F990E68BE0752900F52AF9
:1003760090E6B9E0B4A335E4F52BF52CC3E52C954E
:100386002AE52B952950367440252CF582E434E76E
:10039600F583E0FFE526252CF582E525352BF5834B
:1003A600EFF0052CE52C70D4052B80D0AD2A7AE72A
:1003B60079407F40AB07AF26AE25120C5AE52A25B9
:1003C60026F526E5293525F525C3E528952AF528B8
:0C03D600E5279529F527020354D322C324
:0103E20022F8
:100D9C00C0E0C083C08290E6B5E04401F0D20153BC
:0F0DAC0091EF90E65D7401F0D082D083D0E032F9
:100E0B00C0E0C083C0825391EF90E65D7404F0D0D4
:060E1B0082D083D0E0321A
:100E2100C0E0C083C0825391EF90E65D7402F0D0C0
:060E310082D083D0E03204
:100BB600C0E0C083C08290E680E030E70E850A1070
:100BC600850B11851412851513800C851410851557
:100BD60011850A12850B135391EF90E65D7410F0A0
:070BE600D082D083D0E03281
:100DF300C0E0C083C082D2035391EF90E65D7408D4
:080E0300F0D082D083D0E03270
:100BED00C0E0C083C08290E680E030E70E850A1039
:100BFD00850B11851412851513800C851410851520
:100C0D0011850A12850B135391EF90E65D7420F058
:070C1D00D082D083D0E03249
:01004200328B
:01005200327B
:010EAF003210
:010EB000320F
:010EB100320E
:010EB200320D
:010EB300320C
:010EB400320B
:010EB500320A
:010EB6003209
:010EB7003208
:010EB8003207
:010EB9003206
:010EBA003205
:010EBB003204
:010EBC003203
:010EBD003202
:010EBE003201
:010EBF003200
:010EC00032FF
:010EC10032FE
:010EC20032FD
:010EC30032FC
:010EC40032FB
:010EC50032FA
:010EC60032F9
:010EC70032F8
:010EC80032F7
:010EC90032F6
:010ECA0032F5
:010ECB0032F4
:010ECC0032F3
:010ECD0032F2
:010ECE0032F1
:010ECF0032F0
:010ED00032EF
:060B2900AB07AA06AC05B3
:100B2F00E4FDE53D600F7E000DEE2400F582E43418
:100B3F0000F583EAF0AE050D74002EF582E4340063
:100B4F00F583EBF0AF050D74002FF582E43400F55B
:100B5F0083ECF07A007B00AF3A120DD7AF3A020C5C
:010B6F002461
:0A0C5A008E2D8F2E8D2F8A308B31E6
:100C6400E4F532E532C3952F5020052EE52EAE2D46
:100C74007002052D14FFE5312532F582E43530F597
:0A0C840083E0FD120B29053280D930
:010C8E002243
:0A0AE1008E2D8F2E8D2F8A308B3161
:100AEB00E4FDF532E53D6012E52DFF7E000DEE24B1
:100AFB0000F582E43400F583EFF0AE050D74002EA3
:100B0B00F582E43400F583E52EF07A007B00AF3AF2
:0E0B1B00120DD7AB31AA30AD2FAF3A020DBB91
:1008B800120100020000004005161080010001022C
:1008C80000010A06000200000040010009022000A1
:1008D800010100A0320904000002FF000000070522
:1008E8000202000200070586020002000902200039
:1008F800010100A0320904000002FF000000070502
:1009080001024000000705810240000004030904B9
:1009180026034100430043004500530020004900DE
:100928002F004F002000500072006F006400750017
:1009380063007400730026035500530042002D0025
:100948004900490052004F002D00310036002000B8
:0E095800460061006D0069006C00790000002F
:080E9700E4F51FD2E9D2AF22FD
:100C240090E678E020E6F9C2E990E678E04480F0C6
:100C3400EF25E090E679F090E678E030E0F990E690
:100C440078E04440F090E678E020E6F990E678E039
:060C540030E1D6D2E922D6
:100CC300A90790E678E020E6F9E51F702390E6781F
:100CD300E04480F0E925E090E679F08D1AAF03A9AE
:100CE30007751B018A1C891DE4F51E751F01D3229C
:020CF300C3221A
:100C8F00A90790E678E020E6F9E51F702590E67851
:100C9F00E04480F0E925E0440190E679F08D1AAF49
:100CAF0003A907751B018A1C891DE4F51E751F0317
:040CBF00D322C32257
:03004B00020607A3
:10060700C0E0C083C082C085C084C086758600C034
:10061700D075D000C000C001C002C003C006C0072B
:1006270090E678E030E206751F060206F190E6785C
:10063700E020E10CE51F64026006751F070206F162
:10064700E51F24FE605F14603624FE70030206E295
:1006570024FC70030206EE240860030206F1AB1BBC
:10066700AA1CA91DAF1E051E8F8275830012070FD6
:1006770090E679F0E51E651A7070751F05806B901E
:10068700E679E0AB1BAA1CA91DAE1E8E82758300FE
:1006970012073C751F02E51A6401704E90E678E078
:1006A7004420F08045E51A24FEB51E0790E678E061
:1006B7004420F0E51A14B51E0A90E678E04440F0AD
:1006C700751F0090E679E0AB1BAA1CA91DAE1E8E14
:1006D7008275830012073C051E800F90E678E04480
:1006E70040F0751F008003751F005391DFD007D0BE
:1006F70006D003D002D001D000D0D0D086D084D08D
:0807070085D082D083D0E032DE
:020D2400A9071D
:100D2600AE18AF198F828E83A3E064037017AD01EE
:100D360019ED7001228F828E83E07C002FFDEC3E40
:090D4600FEAF0580DF7E007F0096
:010D4F002281
:100DBB00120C8FE51F24FA600E146006240770F3E3
:0C0DCB00D322E4F51FD322E4F51FD3224D
:100DD700120CC3E51F24FA600E146006240770F393
:0C0DE700D322E4F51FD322E4F51FD32231
:03004300020800B0
:03005300020800A0
:10080000020D9C00020E2100020E0B00020DF300EF
:10081000020BB600020BED00020042000200520083
:10082000020EAF00020EB000020EB100020EB200C6
:10083000020EB300020EB400020EB500020EB600A6
:10084000020EB70002005200020EB800020EB900FC
:10085000020EBA00020EBB00020EBC00020EBD006A
:10086000020EBE00020052000200520002005200BE
:10087000020EBF00020EC000020EC100020EC20036
:10088000020EC300020EC400020EC500020EC60016
:10089000020EC700020EC800020EC900020ECA00F6
:1008A000020ECB00020ECC00020ECD00020ECE00D6
:0808B000020ECF00020ED00081
:0A00360000010202030304040505A3
:03000B000207D910
:1007D900C0E00509E50970020508640F4508700EB7
:1007E900050DE50D7002050C750800750900D0E0CE
:0107F90032CD
:10096600E4F524F523F522F521C203C200C202C232
:1009760001120D7C750E08750FB87516087517CA25
:10098600750A08750BD47514087515F4751809756C
:100996001914D2E843D82090E668E04409F090E6BE
:1009A6005CE0443DF0D2AFD204120CF590E680E054
:1009B60054F7F0538EF8C2033001051203E3C20167
:1009C6003003291200405024C20312000E200016E4
:1009D60090E682E030E704E020E1EF90E682E03046
:1009E600E604E020E0E4120D501207FE120A8380AE
:0109F600C739
:1003E30090E6B9E07003020494147003020511242B
:1003F300FE700302059424FB700302048E14700341
:10040300020488146073146076240560030205F304
:10041300120EA740030205FF90E6BBE024FE602214
:1004230014603324FD601114602224067048E50E25
:1004330090E6B3F0E50F8037E51690E6B3F0E517E5
:10044300802DE51090E6B3F0E5118023E51290E6E8
:10045300B3F0E513801990E6BAE0FF120D24AA0663
:10046300A9077B01EA494B600DEE90E6B3F0EF90EC
:10047300E6B4F00205FF0205F8120E5E0205FF1254
:100483000E8F0205FF1200030205FF120E4C020538
:10049300FF120EA940030205FF90E6B8E0247F6037
:1004A3001514601924027063A200E43325E0FFA24F
:1004B30002E4334F8041E490E740F0803F90E6BC94
:1004C300E0547EFF7E00E0D394807C0040047D01F5
:1004D30080027D00EC4EFEED4F2436F58274003E23
:1004E300F583E493FF3395E0FEEF24A1FFEE34E6BA
:1004F3008F82F583E0540190E740F0E4A3F090E6A7
:100503008AF090E68B7402F00205FF0205F8120EE2
:10051300AB40030205FF90E6B8E024FE6016240218
:1005230060030205FF90E6BAE0B40105C2000205CC
:10053300FF0205F890E6BAE0705590E6BCE0547E01
:10054300FF7E00E0D394807C0040047D0180027D27
:1005530000EC4EFEED4F2436F58274003EF583E445
:1005630093FF3395E0FEEF24A1FFEE34E68F82F58F
:1005730083E054FEF090E6BCE05480131313541F41
:10058300FFE0540F2F90E683F0E04420F0806D806D
:1005930064120EAD506690E6B8E024FE60192402A2
:1005A300705A90E6BAE0B40104D200804F90E6BAE4
:1005B300E064026047803E90E6BCE0547EFF7E002C
:1005C300E0D394807C0040047D0180027D00EC4EEA
:1005D300FEED4F2436F58274003EF583E493FF333A
:1005E30095E0FEEF24A1FFEE34E68F82F5838008C9
:1005F300120056500790E6A0E04401F090E6A0E018
:030603004480F040
:0106060022D1
:03003300020EA317
:040EA30053D8EF32FF
:100D500090E682E030E004E020E60B90E682E030AE
:100D6000E119E030E71590E680E04401F07F147E61
:0C0D700000120B7090E680E054FEF022B0
:10000E0090E682E044C0F090E681F0438701000064
:04001E0000000022BC
:100CF50030040990E680E0440AF0800790E680E041
:100D05004408F07FDC7E05120B7090E65D74FFF001
:0F0D150090E65FF05391EF90E680E054F7F02204
:100B70008E258F2690E600E054187012E526240199
:100B8000FFE43525C313F525EF13F526801590E610
:100B900000E05418FFBF100BE52625E0F526E525FB
:100BA00033F525E5261526AE25700215254E600580
:060BB00012002280EE227B
:100022007400F58690FDA57C05A3E582458370F9F1
:0100320022AB
:030000000209F7FB
:0C09F700787FE4F6D8FD75813D020A3ED1
:10070F00BB010CE58229F582E5833AF583E022509F
:10071F0006E92582F8E622BBFE06E92582F8E222E9
:0D072F00E58229F582E5833AF583E4932203
:10073C00F8BB010DE58229F582E5833AF583E8F0F3
:10074C00225006E92582C8F622BBFE05E92582C89F
:02075C00F22287
:10075E00BC000BBE0029EF8DF084FFADF022E4CC7F
:10076E00F875F008EF2FFFEE33FEEC33FCEE9DEC48
:10077E00984005FCEE9DFE0FD5F0E9E4CEFD22ED8E
:10078E00F8F5F0EE8420D21CFEADF075F008EF2FD8
:10079E00FFED33FD4007985006D5F0F222C398FDC9
:0507AE000FD5F0EA2266
:1007B300D083D082F8E4937012740193700DA3A3D5
:1007C30093F8740193F5828883E4737402936860E9
:0607D300EFA3A3A380DFE9
:100A0300020966E493A3F8E493A34003F68001F29A
:100A130008DFF48029E493A3F85407240CC8C333F4
:100A2300C4540F4420C8834004F456800146F6DFC3
:100A3300E4800B0102040810204080900046E47E0D
:100A4300019360BCA3FF543F30E509541FFEE493B8
:100A5300A360010ECF54C025E060A840B8E493A37F
:100A6300FAE493A3F8E493A3C8C582C8CAC583CAAA
:100A7300F0A3C8C582C8CAC583CADFE9DEE780BE62
:01004A0000B5
:00000001FF
