:03000000020200F9
:1002000090E600E054E74410F075080075090075A9
:100210000B00750A00750C00750D00750E00750F4A
:100220000075815F7A007B007C007D007E0075B0E8
:100230000075B50F7580FF75B20675B37FD296D283
:1002400082D2B3C295743690C003F0758200749068
:10025000F07401F0D295C2B3C0E0D2B39040007404
:1002600080F0C2B3D0E0D290D293D292D291C29217
:100270007E037159C2937E037159C2907E037159F6
:10028000C2917E037159D2927E037159D2937E033B
:100290007159D2907E037159D2917E037159C290E7
:1002A0000090E6047480F00090E6047400F0009082
:1002B000E6047402F00090E6047404F00090E60492
:1002C0007406F00090E6047408F00090E6047400F0
:1002D000F00090E69074FFF00090E69174FFF090CB
:1002E000E68B74FFF090E6A07480F090E6B57401A0
:1002F000F020B70BE509B4010675080075090090F8
:10030000E6A3E020E202C1C690E65DE030E204E44C
:10031000D2E2F020E00930E604E4D2E6F080D2E454
:10032000D2E0F090E6A0E04480F090E6B9E0B4B00E
:1003300002802DB4B1028065B4B202807BB4B302F6
:1003400061C8B4B402814CB4B5028150B4A2028138
:100350005290E68B74FFF08098DCFEDDFCDEFA2222
:1003600090E6BAE030E717C0E0D2B3904000748066
:10037000F0C2B3D0E0750900D291D293D29230E6A8
:100380000030E017D294904000D2907401D2B3F0C4
:10039000750901C2B3A2B492E0F50F816690E6BC84
:1003A000E0F50A90E6BDE0F50B90E6BBE05407F5FA
:1003B0000DF19D750801816690E6BCE0C5F090E600
:1003C000BDE0C5F0F1838166758600D294D2B3900A
:1003D00080107401F090E6BEE0B4001F90E6BBE030
:1003E000F50090E6BAE0F50190E6BCE023F58275F1
:1003F0008380E501F0A3E500F0804390E68B74FF75
:10040000F090E6A0E05402B400F775858075840092
:1004100090E740E0A38006A3A305840584B400020E
:10042000801CC31350F1C0E0E00586F00586A305EB
:1004300084E00586F00586A30584D0E080DF908007
:1004400012F09080107400F0C2B3801AF1C38016CD
:10045000801490E6B8E0B4C004916E8009B4400402
:10046000B1978002800090E68B74FFF041F190E636
:10047000BEE0F9B400012290E6BAE0FAA3E0FBC0C6
:10048000E0C082C08390E678E0D2E7F0D083D082EB
:10049000D0E090E67974A2F0C0E0C082C08390E61C
:1004A00078E030E0FCA2E1D083D082D0E0EBF0C075
:1004B000E0C082C08390E678E030E0FCA2E1D08327
:1004C000D082D0E0EAF0C0E0C082C08390E678E05D
:1004D00030E0FCA2E1D083D082D0E090E740AA8255
:1004E0007800C0E0C082C08390E678E0D2E7F0D028
:1004F00083D082D0E090E67974A3F0C0E0C082C0DF
:100500008390E678E030E0FCA2E1D083D082D0E0B6
:10051000E0B90113C0E0C082C08390E678E0D2E584
:10052000F0D083D082D0E0C0E0C082C08390E67873
:10053000E030E0FCA2E1D083D082D0E0E9C398C0F3
:10054000E0B40213C0E0C082C08390E678E0D2E558
:10055000F0D083D082D0E0B40113C0E0C082C08369
:1005600090E678E0D2E6F0D083D082D0E090E679D1
:0D057000E090E7408A82F0080AD0E0B40174
:10057D00A990E68BE9F0C0E0C083C08290E678E0F8
:10058D0020E6FCD082D083D0E02290E6BEE0F9B424
:10059D00001922C0E0C082C08390E678E0D2E6F078
:1005AD00E020E6FCD083D082D0E02290E68B74FF71
:1005BD00F090E6A0E05402B400F790E6BAE0FAA39A
:1005CD00E0FBC0E0C082C08390E678E0D2E7F0D0D7
:1005DD0083D082D0E090E67974A2F0C0E0C082C0F2
:1005ED008390E678E030E0FCA2E1D083D082D0E0C9
:1005FD00EBF0C0E0C082C08390E678E030E0FCA272
:10060D00E1D083D082D0E0EAF0C0E0C082C0839018
:10061D00E678E030E0FCA2E1D083D082D0E090E734
:10062D00407A00E5822AF582E090E679F0C0E0C0DC
:10063D0082C08390E678E030E0FCA2E1D083D082E6
:10064D00D0E00A19E9B400DBC0E0C082C08390E6B7
:10065D0078E0D2E6F0E020E6FCD083D082D0E0C096
:10066D00E0C082C08390E678E0D2E7F0D083D082FC
:10067D00D0E090E67974A2F0C0E0C082C08390E62D
:10068D0078E030E0FCA2E1D083D082D0E0C0E0C0C1
:10069D0082C08390E678E0D2E6F0E020E6FCD083DD
:1006AD00D082D0E0C0E0C082C08390E678E0A2E1C5
:1006BD00D083D082D0E050A722C293E50820E0027B
:1006CD00801590E691E0F990E690E0F8B40006E927
:1006DD00B400028002D1F40090E69074FFF0009017
:1006ED00E69174FFF041F1E50B543F4440F5F0AA5B
:1006FD000AE9250AF50AE8350B543FF50B75860016
:10070D0090F00085F0858A8409D902801BE0A3054D
:10071D0086F0A3E58530E70C758540E50D0454079B
:10072D00F50DF19D0586D9E508D802801DE0A305DC
:10073D0086F0A3E58530E70C758540E50D0454077B
:10074D00F50DF19D0586D9E5D8E322C4C0F0C0E0D2
:10075D00540FF5F0E59054F045F0F5907E1E71596B
:10076D00D0E0C4540FF5F0E59054F045F0F5907ECF
:10077D001E7159D0F022D2B3C295C0E0743690C02C
:10078D0003F0758200D0E0F0E5F0F0D295C2B3220F
:10079D00C0E0E50D1392B01392B11392B2E50DB412
:1007AD00000CE50EB40707E50930E002F1C3850D35
:1007BD000ED0E0D29122C0E0E50FB29130B712A277
:1007CD00B44007D29220E00980F0C29230E002805E
:0807DD00E992E0F50FD0E022E3
:00000001FF
