:1019000012010002000000400516408000000102A4
:1019100000010A06000200000040010009022E003A
:1019200001010080F00904000004FF000000070529
:1019300002020002000705040200020007058602F9
:101940000002000705880200020009022E000101C2
:101950000080F00904000004FF00000007050202F7
:101960004000000705040240000007058602400011
:101970000007058802400000040309040C0341002D
:101980004300430045005300260355005300420026
:101990002D004100490020002000200020002000F0
:1019A00020002000000000000000000000000000F7
:1012D90060803E70013F0101010101070003020224
:1012E90002020200F5F7F7F7F7F7F7F70000000039
:1012F9000000003F013F0101010101070205000053
:1013090000000000F6F7F7F7F7F7F7F7000000001D
:101319000000003F0113012101390107000100010B
:10132900000B0200F7F7F3F7F5F7F7F7003600F0CF
:101339000012003F010138010101010702020D00FD
:1013490000000000F2F7F7F7F7F7F7F700002D00B4
:101359000000003F60243EF700000000000000008C
:101369000000000000000000000000000000000074
:10137900000000000000000000000000473EF0E00F
:101389008000F7AA4E0060803F1B013F0101010167
:1013990001070003020202020200F5F7F7F7F7F767
:1013A900F7F7000000000000003F013F01010101C3
:1013B90001070205000000000000F6F7F7F7F7F74C
:1013C900F7F7000000000000003F01130121013977
:1013D900010700010001000B0200F7F7F3F7F5F729
:1013E900F7F7003600F0002D003F01013801010137
:1013F900010702020D0000000000F2F7F7F7F7F706
:10140900F7F700002D000000003F60243FA2000014
:1014190000000000000000000000000000000000C3
:1014290000000000000000000000000000000000B3
:0C1439000000473F9BE08000F7AA4E0037
:1024650090E60174AAF090E6F574FFF022F59B75ED
:102475009DE4E4F59EFF2290E67BE090E67CF00F7C
:012485002234
:101A5800122465903F9BE090E6F3F0903F9CE09065
:101A6800E6C3F0903F9DE090E6C1F0903F9EE09085
:101A7800E6C2F0903FA0E090E6C0F0903FA1E09071
:101A8800E6F4F075AF07743FF59A741B12247212CE
:101A9800247CBF80FA000000E490E6C4F000000057
:101AA80090E6C5F0903FA2E090E6C6F0903FA3E034
:101AB80090E6C7F0903FA4E090E6C8F0903FA5E01C
:101AC80090E6C9F0903FA6E090E6CAF0903FA7E004
:101AD80090E6CBF0903FA8E090E6CCF0903FA9E0EC
:051AE80090E6CDF022A4
:101AED00122465903EF0E090E6F3F0903EF1E09028
:101AFD00E6C3F0903EF2E090E6C1F0903EF3E09048
:101B0D00E6C2F0903EF5E090E6C0F0903EF6E09033
:101B1D00E6F4F075AF07743EF59A747012247212E4
:101B2D00247CBF80FA000000E490E6C4F0000000C1
:101B3D0090E6C5F0903EF7E090E6C6F0903EF8E0F6
:101B4D0090E6C7F0903EF9E090E6C8F0903EFAE0DE
:101B5D0090E6C9F0903EFBE090E6CAF0903EFCE0C6
:101B6D0090E6CBF0903EFDE090E6CCF0903EFEE0AE
:051B7D0090E6CDF0220E
:0A262800000102020303040405058B
:10212D00EC4EFEED4F2428F58274263EF583E493A4
:10213D00FF3395E0FEEF24A1FFEE34E68F82F583A9
:10214D002290E6BCE0547EFF7E00E0D394807C00BC
:01215D00225F
:101C1500E4F530F52FF52EF52DC20CC209C20BC225
:101C25000A120C7E750A19750B00751219751312B7
:101C350075081975091C75101975114A75141975EA
:101C45001578D2E843D82090E668E04409F090E69C
:101C55005CE0443DF0D2AFD21112215E90E680E007
:101C650054F7F0538EF8C20C300A0512112FC20A30
:101C7500300C291226505024C20C1222822009163B
:101C850090E682E030E704E020E1EF90E682E03084
:101C9500E604E020E0E412218D1226591216658033
:011CA500C777
:10112F0090E6B9E070030211E01470030212342448
:10113F00FE700302128E24FB70030211DA14700387
:10114F000211D4146073146076240560030212C573
:10115F001218FE40030212D190E6BBE024FE60227B
:10116F0014603324FD601114602224067048E50AD0
:10117F0090E6B3F0E50B8037E51290E6B3F0E51398
:10118F00802DE50C90E6B3F0E50D8023E50E90E69B
:10119F00B3F0E50F801990E6BAE0FF1221B9AA0665
:1011AF00A9077B01EA494B600DEE90E6B3F0EF9093
:1011BF00E6B4F00212D10212CA1226460212D1125E
:1011CF00263C0212D1121F6F0212D11226320212C6
:1011DF00D11226B440030212D190E6B8E0247F600A
:1011EF00151460192402703AA209E43325E0FFA216
:1011FF000BE4334F8018E490E740F0801612214E35
:10120F0040047D0180027D0012212DE0540190E702
:10121F0040F0E4A3F090E68AF090E68B7402F002BF
:10122F0012D10212CA1226B640030212D190E6B8AA
:10123F00E024FE6016240260030212D190E6BAE0A9
:10124F00B40105C2090212D10212CA90E6BAE070C7
:10125F002C12214E40047D0180027D0012212DE0D1
:10126F0054FEF090E6BCE05480131313541FFFE0BC
:10127F00540F2F90E683F0E04420F08045803C121D
:10128F0026B8503E90E6B8E024FE601A2402703271
:10129F0090E6BAE0B40104D209802790E6BAE0B430
:1012AF000202801E801512214E40047D0180027DB6
:1012BF000012212D8008120080500790E6A0E04414
:0A12CF0001F090E6A0E04480F02258
:0300330002269E04
:04269E0053D8EF32EC
:10172F00362D31364100362D31364500322D3136CA
:10173F004100322D313600322D31364500362D36EF
:10174F00344D4100362D36344D4500322D36344D53
:10175F004100322D36344D00322D36344D45003692
:10176F002D33324100362D33324500322D33324185
:10177F0000322D333200322D33324500362D3634C0
:10178F004100362D36344500322D36344100322D8E
:10179F00363400322D36344500362D393641003679
:1017AF002D39364500322D39364100322D3936006C
:1017BF00322D39364500362D3132384100362D3134
:1017CF0032384500322D3132384100322D31323826
:0F17DF0000322D31323845002D4F54484552000D
:10144500413FCA00413FD0FF413FCBFE413FE9004C
:10145500413FD300024F0000C104C106C102C108CB
:10146500C103C101413FCCFB413FCD50024D0000BE
:02147500C100B4
:100F01007A1779537BFFE4F53A753B01227A177919
:100F11004C7BFF753A01753B0122E490E68AF09023
:100F2100E6BEE090E68BF02290E6BAE075F008A408
:100F3100FFA3E07C002FFFEC35F0FEE42FF5827477
:100F4100503EF583E02290E6BBE0C41313540375D1
:100F51003D005403F53EE0C313753D005407F53ED3
:100F6100E490E68BF090E6BBE0905003227586009A
:100F71005391EF22AD3A7AE779407F40AB07229057
:100F8100E678E04401F0E05410FFC4540F4450905F
:100F91003FC9F0E013E433903FD2F02274D42FF52F
:100FA10082E4343FF583E4F02FF582E43440F583A5
:100FB10022E090E740F0E490E68AF090E68B227A16
:100FC1001779357BFFE4F53AF53B22FF90E6BAE06D
:100FD10075F008A42403F582E5F03450F583EFF0B1
:100FE10022F090E6BCE0FF90E6BBE0222536F53624
:100FF100E5393535F535C3E538953AF538E53795B1
:1010010039F537227A17792F7BFF753A01E4F53BE1
:101011002290401C7401F0E4F0904011F022E54070
:1010210075F002A42488F9741935F0227440253C26
:10103100F58274E7353BF5832290E671F090E67214
:10104100F075B4FF75B6FF22903FD0EFF0E0FF449A
:101051004090190AF0EF541F2290E740E0904015AC
:10106100F090E741E0904016F022904017E090E7C1
:1010710040F0904018E090E741F022C205903FE532
:10108100E0904011F0227A1779467BFFE4F53AF5BA
:101091003B22C3E53C953AE53B95392290E6047441
:1010A10080F0223EF583E0FBED25E0FFEC33FE22EC
:1010B100E536253CF582E535353BF583225391EF45
:1010C10090E65D2290E6C37480F090E6C214F022AF
:1010D10090E684E0FE90E685E0FDEE22F582E434C0
:1010E1003FF5832290401DE4F012255FC211227466
:1010F100412FF58274E73EF58322850D82850C83AD
:10110100A37402F022850F82850E83A37407F02257
:10111100F07A3F7BEAAD407F0E22FEE07C002400A6
:0E112100FFEC3E22E490E68AF090E6BEE0226B
:10223700754003903FEA7430F0E4A3F0A3740312EF
:1022470011111224DD903FEA7438F0E4A3F0A304DF
:062257001211110224DD4A
:0C261C00C007EDAD03FCEBD007021E066A
:0126BA0022FD
:0126BB0022FC
:0426A200438002224D
:0426A6005380FD223E
:0426AA006380022225
:1017EE0012109D0000007406F0000000E4F00000EE
:0217FE000022C7
:10254800C20890E61474E0F000000090E61A7409DE
:07255800F00000000217EE85
:1025B20012109D0000007402F0000000E4F0000020
:0225C2000022F5
:101EED0090E61274A0F000000090E6187411F00056
:101EFD0000001225B290E6917480F0000000F00011
:101F0D000000F0000000F000000090E6497482F03F
:101F1D00000000F0000000F0000000F000000002E2
:021F2D0025B2DB
:06268E00121EED022548BA
:0F25E500D20512101275B3FF75B5FF12103A220E
:0D260200121012D205F5B3F5B512103A22F0
:1024A40090401C7401F0E4F012107CE4F5B3F5B52F
:0D24B40090E671F090E672F0F5B4F5B622F6
:1024F90012101212107C75B3FF75B5FF90E6717456
:0B250900FFF090E67274801210412277
:0721E500904010F01225E507
:1021EC00E4FEFD7801AF05EF08800103D8FDF5B1E1
:1021FC008DB08EA08E9090401BEEF00EEE70E40D24
:04220C00ED70E0226F
:101F2F00E4FEFD7801AF05EF08800103D8FDF5B1A0
:101F3F008EA090401C7401F0AF90ACB0E4F0EFB500
:101F4F000604EC6D6008903FCB7401F080040EEE38
:101F5F0070D10DED70CD903FCBE0B4FE02E4F022D6
:10255F0074011221E574051221E5122602121F2FB4
:06256F00904010E4F02290
:101B82008B3C8A3D893EE4F53F7540071225758FEF
:101B920041120F777D017F047E00121E5A90E740AA
:101BA200E0448090190BF090E740E0B4010C121071
:101BB2001F8982F583744FF0054012101F8982F548
:101BC200837431F00540E541254025E0901988F005
:101BD200E4F53FAF41EF3395E0FEC3E53F9FEE648E
:101BE20080F8748098502BAB3CAA3DA93E853F8279
:101BF20075830012159BFDE53F121021FAE5407531
:101C0200F002A429F9EA35F08982F583EDF0053F67
:031C120080C1226C
:1022100090401374AAF0E064AA70197455F0E06459
:10222000557011744FF0E0B44F0A7449F0E0B449AE
:07223000037F00227F012261
:101D3200122210EF14601B04705A120F777D017F7C
:101D4200037E00121E5A90E740E0541F903FD0F0ED
:101D52008042120F777D027FF67E1D121E5A90E797
:101D620040E0FF780208800123D8FDF53690E74174
:101D7200E0903FD0F0120F777D017F037E00121EAC
:101D82005A90E740E0653660037F042290E740E026
:0A1D9200541FFF22903FD0E0FF2213
:10258A0090401AEDF0903FE9E53AF0903FD3E53BF1
:04259A00F0021B82AE
:100C7E00E4F53590E6017480F0122686120F80900E
:100C8E00E6007410F090E61074A0F090E611F000FB
:100C9E00000090E612F0000000E490E613F0000071
:100CAE000090E61474E0F0000000E490E615F012F7
:100CBE00109D0000007402F00000007406F00000A9
:100CCE0000E4F000000090E618F00000007411F04F
:100CDE0000000090E61A7409F0000000121D321296
:100CEE001049B41E004003020ED0900CFFF82828C5
:100CFE0073020D59020D60020D68020D74020D8013
:100D0E00020D88020D90020D98020DA4020DB00284
:100D1E000DBE020DCC020DDA020DE8020DF6020E2A
:100D2E0004020E12020E20020E2E020E3C020E4A7B
:100D3E00020E58020E65020E72020E7F020E8C0219
:100D4E000E99020EA6020EB3020EC0121005FD027F
:100D5E000ECB120FC07D01020ECB7A17793B12100B
:100D6E00097D02020ECB7A177941120FC47D030260
:100D7E000ECB1210877D04020ECB120F0E7D0802D1
:100D8E000ECB120F017D09020ECB7A17795A120F74
:100D9E00127D0A020ECB7A177961120F057D0B02B6
:100DAE000ECB7BFF7A177967120F077D0C020ECBE5
:100DBE007BFF7A17796E120F147D10020ECB7BFF1C
:100DCE007A177974120F077D11020ECB7BFF7A17FB
:100DDE00797A120F147D12020ECB7BFF7A1779806F
:100DEE00120F077D13020ECB7BFF7A177985120F38
:100DFE00077D14020ECB7BFF7A17798B120F147DB1
:100E0E0010020ECB7BFF7A177991120F077D11021C
:100E1E000ECB7BFF7A177997120F147D12020ECB31
:100E2E007BFF7A17799D120F077D13020ECB7BFF86
:100E3E007A1779A2120F077D14020ECB7BFF7A1759
:100E4E0079A8120F147D10020ECB7BFF7A1779AEA4
:100E5E00120F077D1180667BFF7A1779B4120F147B
:100E6E007D1280597BFF7A1779BA120F077D138096
:100E7E004C7BFF7A1779BF120F077D14803F7BFFE3
:100E8E007A1779C5120F147D1080327BFF7A17798D
:100E9E00CC120F077D1180257BFF7A1779D3120FA5
:100EAE00147D1280187BFF7A1779DA120F077D13E3
:100EBE00800B7BFF7A1779E0120F077D1412258ABB
:100ECE0080097BFF7A1779E7121B82E4FF120F9DD0
:100EDE00E4F00FBF15F71210E51225141210C5001D
:100EEE00000090E6E27402F043B202D2097551019D
:030EFE000224A427
:1009CB00E4F5481210D1F549EDF54AD204C206C23E
:1009DB0007C205C208C203C20190401FE4F0121007
:1009EB00C590E600E054E74410F090E6017480F007
:1009FB0090E67AE04401F0122686120F8090E61002
:100A0B0074A0F000000090E611F0000000E490E606
:100A1B0013F000000090E615F000000012268E1275
:100A2B001D32121049B41E004003020C16900A3FEF
:100A3B00F8282873020A99020AA0020AA8020AB629
:100A4B00020AC2020ACA020AD2020ADA020AE8023D
:100A5B000AF6020B04020B12020B20020B2E020BE6
:100A6B003C020B4A020B58020B66020B74020B8200
:100A7B00020B90020B9E020BAB020BB8020BC502D2
:100A8B000BD2020BDF020BEC020BF9020C0612105D
:100A9B0005FD020C11120FC07D01020C117BFF7AB8
:100AAB0017793B12100B7D02020C117A1779411248
:100ABB00108B7D03020C111210877D04020C111296
:100ACB000F0E7D08020C11120F017D09020C117B18
:100ADB00FF7A17795A120F147D0A020C117BFF7AD9
:100AEB00177961120F077D0B020C117BFF7A1779B7
:100AFB0067120F077D0C020C117BFF7A17796E12B0
:100B0B000F147D10020C117BFF7A177974120F07EB
:100B1B007D11020C117BFF7A17797A120F147D125B
:100B2B00020C117BFF7A177980120F077D13020CD1
:100B3B00117BFF7A177985120F077D14020C117B3D
:100B4B00FF7A17798B120F147D10020C117BFF7A31
:100B5B00177991120F077D11020C117BFF7A177910
:100B6B0097120F147D12020C117BFF7A17799D12CD
:100B7B000F077D13020C117BFF7A1779A2120F0757
:100B8B007D14020C117BFF7A1779A8120F147D10BC
:100B9B00020C117BFF7A1779AE120F077D1180665D
:100BAB007BFF7A1779B4120F147D1280597BFF7A71
:100BBB001779BA120F077D13804C7BFF7A1779BF19
:100BCB00120F077D14803F7BFF7A1779C5120F1424
:100BDB007D1080327BFF7A1779CC120F077D118045
:100BEB00257BFF7A1779D3120F147D1280187BFFA8
:100BFB007A1779DA120F077D13800B7BFF7A17793F
:100C0B00E0120F077D1412258A80097BFF7A177972
:100C1B00E7121B82E4FF120F9DE4F00FBF15F712D2
:100C2B0010E512251490E6E27402F000000043B2C6
:100C3B0002D20990E65EE04450F000000090E65AC4
:100C4B00E04450F000000090E658E04450F0000003
:100C5B000090E650E04403F000000090E654E044BE
:100C6B0003F00000001210D1F54BEDF54C7551015E
:030C7B00D204227E
:10166500E58070047F0180027F00EF90E68030E026
:1016750006E04408F08004E054F7F0E551700330CB
:101685000035E54E454D7006754D08754EFFE54E26
:10169500154E7002154DE54E454D7004F551800F00
:1016A500AE4DAF4E7C027D3F1215EAEF20E00512EC
:1016B50026A680031226A230084090401FE030E0A5
:1016C50039C208E4F090E6F574FFF0C20612109DE9
:1016D500E490E6CEF000000090E6CFF00000009028
:1016E500E6D0F000000090E6D1F000000090E6049E
:1016F500F00000001217EE1226AA30082CE5BB30C8
:10170500E72700000090E6AFE090E6B012111BFE5F
:10171500D3EF9400EE9400400EEE9402500990E64B
:0A172500487406F0000000C208221C
:1019B000E4FF9040117404F0A374F0F0A37401F0FC
:1019C000E490E6CEF000000090E6CFF0000000903A
:1019D000E6D0F000000090E6D17420F00000007521
:1019E000BB06000000904019E4F01FEF600AE5BB61
:1019F00020E70500000080F2E4FDFCEDAE04780273
:101A0000C333CE33CED8F92402F58274F81210A471
:101A100074402FF58274E73EF583EBF0EDAE047869
:101A200002C333CE33CED8F92403F58274F81210F2
:101A3000A41210F0EBF00DBD00010CED64104C7021
:101A4000BA1217EE12107E903FE6E0904012F0902E
:081A50003FE7E0904013F02293
:101D9C00E4FF9040117404F0904013E4F090401E66
:101DAC007481F0E490E6CEF000000090E6CFF000F5
:101DBC00000090E6D0F000000090E6BEE0C3139067
:101DCC00E6D1F075BB06000000904019E4F01FEF5F
:101DDC00600AE5BB20E70500000080F2E4FF90E616
:101DEC00BEE0FEEFC39E500F74402FF582E434E743
:0A1DFC00F583E4F00F80E70217EE14
:10008000E4F53DF53E75510120030B90E6B9E064BF
:10009000D460031226BA30030A90E6B9E0B4BE0376
:1000A0001226BA90E6B9E012163F03BF1003CF1133
:1000B00003E61202B520030B2103122203182305C5
:1000C000DA3505D43801163906359107C4A207C4BC
:1000D000A307B7A90796AC0934B30918B40102B64F
:1000E00008EDB7064CBA066BBB0167BC0400BE0541
:1000F000E0BF0104C30400D20135D40918FB00009D
:1001000009C0800C120FE3FD90E6BAE0FB12261C3A
:100110001219B002063D90E6B8E020E73890E6BC40
:10012000E0600A1460030209C2D2118002C21112F7
:10013000252E0209C290E6B8E020E71990E6A0E07B
:1001400020E1F990E740E0FF90E6BCE0FEE42E12EB
:100150000FAAEF800E90E6BCE0FFE42F120FAAE09A
:1001600090E740F00208F490E6B8E030E7030202BE
:100170002CD20190E6BEE0D39400400F120F1B90EA
:10018000E6A0E020E1F9C2111226BB90E6BEE0C372
:100190009404402090E740E030E20A90E743E01307
:1001A000921112252E90E740E030E10890E742E0FE
:1001B00090401FF090E6BEE0600790E740E030E03E
:1001C00066E5AC5401FFE5BB54804F90E740F0E09A
:1001D00030E754E020E050120FE34FFF90E6BDE01F
:1001E0004FFF90E6BAE04F7003D38001C3920690B0
:1001F000E6BBE090E6CEF000000090E6BAE090E6C4
:10020000CFF000000090E6BDE090E6D0F0000000E6
:10021000A206E433FF90E6BCE04F90E6D1F0000088
:100220000075BB06000000D2080209C290E6B0E0EB
:1002300090E740F090E6AFE090E741F090E699E07B
:1002400090E742F000000090E698E090E743F0006D
:10025000000090E614E090E744F090E61AE090E7A2
:1002600045F000000090E635E090E746F000000021
:1002700090E634E090E747F0000000A3E5ACF09092
:10028000E6A9E090E749F090E654E090E74AF000F4
:10029000000090E655E090E74BF0000000300704C6
:1002A0007F0180027F0090E760EFF0E490E68A1221
:1002B00009C402078990E6BEE0B4020E90E6BBE0F6
:1002C000C4333354C0120FCC802690E6BEE06403E2
:1002D000701E90E6BBE0FF7401A807088002C333DC
:1002E000D8FC25E044C0120FCC120F2990E742F051
:1002F000120F2990E740F090E6BAE075F008A4FFED
:10030000A3E0120F3690E7410205CE120F47F0022C
:1003100009C2E490E68B802090E6B8E030E7030263
:1003200009C290E6BFE070047F0180027F0090E682
:10033000BEE04F602F120F47120FE2C41313540395
:100340007C005403FDE42DF582EC120FDB90E6BD3A
:10035000120FE6C413135403FDE42DF582EC120FC3
:10036000DB0209C290E6BEE06408701C120F1C900C
:10037000E6A0E020E1F9744044E760030209C2907E
:1003800050037474F00209C290E6BEE06404600396
:100390000209C29050037474F074B4F090E742E024
:1003A000905002F090E743E0905002F090E740E078
:1003B000905001F090E741E0905001F00209C21224
:1003C0000F1B90E6A0E020E1F912105A02051F90E1
:1003D0004015E090E740F0904016E090E741F0E4EF
:1003E00090E68A0205CE120F1B90E6A0E020E1F90C
:1003F00090E742E05403904014F012105A0209C2F0
:1004000090E6B8E030E703020527C203120F1B9005
:10041000E6A0E020E1F990E740E0903FD4F0904082
:1004200000F090E741E0903FD5F0904001F090E778
:1004300042E0903FD6F0904002F090E743E0903FDA
:10044000D7F0904003F090E744E0903FD8F0904020
:1004500004F090E745E0903FD9F0904005F090E738
:1004600046E0903FDAF0904006F090E747E0903F9A
:10047000DBF0904007F090E748E0903FDCF09040E0
:1004800008F090E749E0903FDDF0904009F090E7F8
:100490004AE0903FDEF090400AF090E74BE0903F5A
:1004A000DFF090400BF090E74CE0903FE0F09040A0
:1004B0000CF090E74DE0903FE1F090400DF090E7B8
:1004C0004EE0903FE2F090400EF090E74FE0903F1A
:1004D000E3F090400FF090E750E0903FE4F0904060
:1004E00010F090E751E0903FE5F0904011F090E778
:1004F00052E0903FE6F0904012F090E753E0FF901A
:100500003FE7F0904013F0903FD0E0541FD39404A5
:10051000400D90E754E0FF903FE8F090401DF0D28E
:10052000111226BB0209C2903FD4E090E740F09040
:100530003FD5E090E741F0903FD6E090E742F09061
:100540003FD7E090E743F0903FD8E090E744F09049
:100550003FD9E090E745F0903FDAE090E746F09031
:100560003FDBE090E747F0903FDCE090E748F09019
:100570003FDDE090E749F0903FDEE090E74AF09001
:100580003FDFE090E74BF0903FE0E090E74CF090E9
:100590003FE1E090E74DF0903FE2E090E74EF090D1
:1005A0003FE3E090E74FF0903FE4E090E750F090B9
:1005B0003FE5E090E751F0903FE6E090E752F090A1
:1005C0003FE7E090E753F0903FE8E090E7541209EE
:1005D000C402064590E6F574FFF01217EE0209C258
:1005E00090E6BEE07007904019F00209BA90E6BEAE
:1005F000E06404702A904019F012106B904019E4E6
:10060000F0904017E090E742F0904018E090E74308
:10061000F0D2111226BB90E68B7404F00209C212CC
:10062000106BD2111226BB90E68B7402F090401929
:10063000E4F00209C2903FCBE090E740F090E6BFC3
:10064000E090E68AF090E6BEE00209BA903FE9E069
:10065000B4010890E74074BBF08008903FD0E09070
:10066000E740F0120FB704F00209C290E6B8E0309C
:10067000E71990E6BEE0B4011290E7407401F01271
:10068000255F90E68B7401F00209C2200309D203B2
:10069000C211122514C201903FE9E0640160030217
:1006A00007761224F990E74074BBF090E6BBE0C3F4
:1006B00013FFE5B154802FF5B1E090E6C4F090E669
:1006C000BAE090E6C5F090E6BDE090E6BC12111BE2
:1006D000903FCEF0A3EFF0903FCEE0FEA3E0FF4EC0
:1006E000700302077EE5BB30E7EDE5AB20E1E830C3
:1006F000044CD3EF9400EE9402401C90E6D07402B8
:10070000F0000000E490E6D1F0000000903FC674D5
:1007100002F0A3E4F08027903FCEE0FCA3E0FDECE4
:1007200090E6D0F0000000ED90E6D1F000000090DF
:100730003FCEE0FFA3E0903FC6CFF0A3EFF0E4F59B
:10074000BB000000E5BB20E7030080F800000000CC
:1007500000903FC6E0FEA3E0FFC3903FCFE09FF0D4
:10076000903FCEE09EF0E5B1547F04FFE5B15480A8
:100770002FF5B10206D7903FD0E090E740F0122469
:10078000A490E6BFE090E68AF0120F2090E6A0E089
:100790004480F00209C290E6B5E054FEF090E6BF56
:1007A000E0120F1C90E6BBE090E6B3F090E6BAE0F2
:1007B00090E6B4F00209C2903FD27401F0903FC9B4
:1007C000E04401F090E6BAE0753500F536A3E0FEAE
:1007D000EE423590E6BEE0753700F538A3E0FEEE58
:1007E000423790E6B8E064C0600302088EE5384501
:1007F0003770030209C290E6A0E020E1F9C3E538B2
:100800009440E5379400500885373985383A80069A
:10081000753900753A4090E6B9E064A3704090E6FF
:10082000BCE0B4011BA3E0701790E6BBE030E7101A
:1008300090E7407403F0A37401F0A37407F08042C2
:10084000E4F53BF53C12109350381210B1E0FF1262
:10085000102DEFF0053CE53C70EB053B80E7E4F53F
:100860003BF53C121093501012102D74CDF0053C46
:10087000E53C70EF053B80EB120F75AF36AE3512DD
:100880001E5A120FB7E53AF0120FED0207ED90E68F
:10089000B8E0644060030209C2E5384537700302DE
:1008A00009C2120FB7F090E6A0E020E1F990E68BC4
:1008B000E0753900F53A90E6B9E0B4A31EE4F53BE3
:1008C000F53C121093501E12102DE0FF1210B1EFE4
:1008D000F0053CE53C70EB053B80E7120F75AF3649
:1008E000AE3512205EE53A120FED02089990E6B897
:1008F000E030E7061211250209BA90E6BEE0D39473
:10090000004005E090E68BF0903FCAE044809040C4
:100910001EF01222370209C290E6B8E020E70F125B
:100920000F1B90E6A0E020E1030209C280F412113F
:10093000250209BA90E6BEE07013E090E68B120F34
:10094000E2FD90E6BAE0FB12261C0209C290E6BE68
:10095000E064117061120F1C90E6A0E020E1F9D272
:10096000111226BBE4F53BF53C90E740E0F53FE58E
:100970003F604FC3E53C9402E53B94005044E53FA3
:1009800030E023AF3CC007E53C25E0FFE53B33FE0C
:1009900074422FF58274E73EF583E0FD1210F0E01B
:1009A000FBD00712261C053CE53C7002053BE53FE9
:1009B000C313F53F80B990E6BEE090E68BF080026D
:0B09C000D322C322F0D2111226BB226A
:092650007F017E001218B8D322AC
:092659007F017E001218B8D322A3
:0218FE00D322F3
:101F6F0090E680E030E71800000090E6247402F05D
:101F7F00000000E490E625F0000000D20480160077
:101F8F000000E490E624F000000090E6257440F095
:0F1F9F00000000C20490E6BAE0903FD1F0D322D8
:0A263200903FD1120FB204F0D32242
:0A263C0090E6BAE0903FC8F0D32208
:0A264600903FC8120FB204F0D32237
:0226B400D3222F
:0226B600D3222D
:0226B800D3222B
:1022A700C0E0C083C082C085C084C086758600D266
:1022B7000A1210BE7401F0D086D084D085D082D0A7
:0422C70083D0E032AE
:1022EF00C0E0C083C082C085C084C086120F6E90CC
:1022FF00E65D7404F0D086D084D085D082D083D0B0
:02230F00E032BA
:10231100C0E0C083C082C085C084C086120F6E90A9
:10232100E65D7402F0D086D084D085D082D083D08F
:02233100E03298
:10209300C0E0C083C082C085C084C08675860085C9
:1020A300100C85110D1210FB85080E85090F1211F6
:1020B300061210BE7410F0D086D084D085D082D0A2
:0420C30083D0E032B4
:1022CB00C0E0C083C082C085C084C086758600D242
:1022DB000C1210BE7408F0D086D084D085D082D07A
:0422EB0083D0E0328A
:101FED00C0E0C083C082C085C084C0867586009065
:101FFD00E680E030E71285080C85090D1210FB858F
:10200D00100E85110F1211061210BE7420F0D0861D
:0B201D00D084D085D082D083D0E03288
:0126BC0032EB
:0126BD0032EA
:0126BE0032E9
:0126BF0032E8
:0126C00032E7
:0126C10032E6
:10233300C0E0C083C082C085C084C086120F6E9087
:10234300E65F7410F0D086D084D085D082D083D05D
:02235300E03276
:0126C20032E5
:10235500C0E0C083C082C085C084C086120F6E9065
:10236500E65F7440F0D086D084D085D082D083D00B
:02237500E03254
:0126C30032E4
:10237700C0E0C083C082C085C084C086120F6E9043
:10238700E65B7401F0D086D084D085D082D083D02C
:02239700E03232
:0126C40032E3
:0126C50032E2
:10239900C0E0C083C082C085C084C086120F6E9021
:1023A900E65B7410F0D086D084D085D082D083D0FB
:0223B900E03210
:0126C60032E1
:1023BB00C0E0C083C082C085C084C086120F6E90FF
:1023CB00E65B7440F0D086D084D085D082D083D0A9
:0223DB00E032EE
:0126C70032E0
:0126C80032DF
:0126C90032DE
:0126CA0032DD
:0126CB0032DC
:0126CC0032DB
:0126CD0032DA
:0126CE0032D9
:0126CF0032D8
:0126D00032D7
:1023DD00C0E0C083C082C085C084C086120F6E90DD
:1023ED00E6517402F0D086D084D085D082D083D0CF
:0223FD00E032CC
:0126D10032D6
:1023FF00C0E0C083C082C085C084C086120F6E90BB
:10240F00E6557402F0D086D084D085D082D083D0A8
:02241F00E032A9
:0126D20032D5
:10242100C0E0C083C082C085C084C086120F6E9098
:10243100E6517401F0D086D084D085D082D083D08B
:02244100E03287
:0126D30032D4
:10244300C0E0C083C082C085C084C086120F6E9076
:10245300E6557401F0D086D084D085D082D083D065
:02246300E03265
:0126D40032D3
:0126D50032D2
:0126D60032D1
:101EAA00AB07AA06AC05E4FD903FD2E0600B7E00CA
:101EBA000DEE24EA1210DDEAF0AE050D74EA2E12D8
:101ECA0010DDEBF0AF050D74EA2F1210DDECF09087
:101EDA003FC9E0FF7A3F7BEA1224DD903FC9E0FF69
:031EEA00022028AB
:10205E008E408F418D428A438B44E4F545E545C35E
:10206E00954250200541E541AE407002054014FFF7
:10207E00E5442545F582E43543F583E0FD121EAABD
:05208E00054580D92288
:101E5A008E428F438D448A458B46E4FDF547903F79
:101E6A00D2E06012E542FF7E000DEE24EAF582E43C
:101E7A00343FF583EFF0AE050D74EA2EF582E434B3
:101E8A003FF583E543F0903FC9E0FF7A3F7BEA12D2
:101E9A0024DD903FC9E0FFAB46AA45AD440224C108
:10251400A211920790401F300707E4F0121AED80D1
:0A252400067402F0121A580217EEB6
:10252E00A211920790401F300707E4F0121AED80B7
:0A253E00067402F0121A580217EE9C
:101E060090E67AE04401F0C2E990E678E04480F09A
:101E160090E679741CF090E678E030E0F9EF44182B
:101E260090E679F090E678E030E0F9EC90E679F02B
:101E360090E678E030E0F9ED90E679F090E678E02B
:101E46004440F090E678E030E0F990E678E020E66D
:041E5600F9D2E922B2
:092662000550E5507002054F22FD
:02147700C10DA5
:10225D00903FCCEFF0F5CB8FCDAF05903FCDEFF0AC
:10226D00F5CA8FCCE4F5C8758E19D2BDD2AFD2ADFB
:05227D00D2CAF51C228D
:0D260F00903FCCE0FF903FCDE0FD02225D4A
:09266B00A20E920FD20EA20F2262
:09267400A20E9210C20EA2102267
:0326AE00AF1C223C
:0326B100A20E2254
:1025D500AD07AC06C3E49DFBE49CFFEBFD02225D69
:05269400C2CAC2AD2224
:03002B0002248626
:10248600C0E0300E0E300D04051C8007D20D12265A
:0E24960062C20D300203122662C2CFD0E032C5
:03004300021800A0
:0300530002180090
:101800000222A700022311000222EF000222CB00D5
:1018100002209300021FED000226BC000226BD003C
:101820000226BE000226BF000226C0000226C1001A
:10183000022333000226C200022355000226C30001
:10184000022377000226BD000226C4000226C5003E
:10185000022399000226C6000223BB000226C7000D
:101860000226C8000226BD000226BD000226BD00D9
:101870000226C9000226CA000226CB000226CC009E
:101880000226CD000226CE000226CF000226D0007E
:101890000223DD000226D1000223FF000226D2002F
:1018A000022421000226D300022443000226D40091
:0818B0000226D5000226D60035
:10218D0090E682E030E004E020E60B90E682E0305D
:10219D00E119E030E71590E680E04401F07F147E10
:0C21AD00001218B890E680E054FEF0220A
:1022820090E682E044C0F090E681F04387010000CE
:042292000000002226
:10215E0030110990E680E0440AF0800790E680E0B6
:10216E004408F07FDC7E051218B890E65D74FFF02F
:0F217E0090E65FF05391EF90E680E054F7F02287
:1018B8008E358F3690E600E054187012E536240114
:1018C800FFE43535C313F535EF13F536801590E68B
:1018D80000E05418FFBF100BE53625E0F536E53576
:1018E80033F535E5361536AE35700215354E6005DB
:0618F80012229680EE2290
:08268600E4F51BD2E9D2AF22FA
:1020280090E678E020E6F9C2E990E678E04480F0AE
:10203800EF25E090E679F090E678E030E0F990E678
:1020480078E04440F090E678E020E6F990E678E021
:0620580030E1D6D2E922BE
:1020FB00A90790E678E020E6F9E51B702390E678D7
:10210B00E04480F0E925E090E679F08D16AF03A965
:10211B00077517018A188919E4F51A751B01D32263
:02212B00C322CD
:1020C700A90790E678E020E6F9E51B702590E67809
:1020D700E04480F0E925E0440190E679F08D16AF01
:1020E70003A9077517018A188919E4F51A751B03DF
:0420F700D322C3220B
:03004B0002147A22
:10147A00C0E0C083C082C085C084C086758600C0B3
:10148A00D075D000C000C001C002C003C006C007AA
:10149A0090E678E030E206751B0602156490E6785D
:1014AA00E020E10CE51B64026006751B0702156467
:1014BA00E51B24FE605F14603624FE700302155596
:1014CA0024FC700302156124086003021564AB173B
:1014DA00AA18A919AF1A051A8F8275830012159BCB
:1014EA0090E679F0E51A65167070751B05806B90A9
:1014FA00E679E0AB17AA18A919AE1A8E827583008D
:10150A001215C8751B02E5166401704E90E678E064
:10151A004420F08045E51624FEB51A0790E678E0E7
:10152A004420F0E51614B51A0A90E678E04440F033
:10153A00751B0090E679E0AB17AA18A919AE1A8EA6
:10154A00827583001215C8051A800F90E678E04468
:10155A0040F0751B008003751B005391DFD007D044
:10156A0006D003D002D001D000D0D0D086D084D00B
:08157A0085D082D083D0E0325D
:0221B900A90774
:1021BB00AE14AF158F828E83A3E064037017AD014D
:1021CB0019ED7001228F828E83E07C002FFDEC3E97
:0921DB00FEAF0580DF7E007F00ED
:0121E40022D8
:1024C1001220C7E51B24FA600E146006240770F37E
:0C24D100D322E4F51BD322E4F51BD32238
:1024DD001220FBE51B24FA600E146006240770F32E
:0C24ED00D322E4F51BD322E4F51BD3221C
:102296007400F58690FDA57C05A3E582458370F95B
:0122A6002215
:0126D70022E0
:09267D00151DA81DA607051D226C
:052699007F0D02267D0B
:10259E00AE07EEC3940AEE5004243080022437FFB7
:0425AE0012267D2252
:1025C400AD07EDC4540FFF12259EED540FFF0225F5
:0125D4009E68
:0E25F400AB07AA06AF021225C4AF030225C42E
:101FAE00151D151D151DA81DA60308A60208A601C0
:101FBE00A81D860308E6FA08E6F91215826019A82C
:101FCE001D8603080806E618860270010614F9122B
:0F1FDE001582FF12267D80D8051D051D051D22C9
:03000000021CA639
:0C1CA600787FE4F6D8FD758151021CED3A
:10158200BB010689828A83E0225002E722BBFE0267
:09159200E32289828A83E493229A
:10159B00BB010CE58229F582E5833AF583E0225005
:1015AB0006E92582F8E622BBFE06E92582F8E2224F
:0D15BB00E58229F582E5833AF583E4932269
:1015C800F8BB010DE58229F582E5833AF583E8F059
:1015D800225006E92582C8F622BBFE05E92582C805
:0215E800F222ED
:1015EA00BC000BBE0029EF8DF084FFADF022E4CCE5
:1015FA00F875F008EF2FFFEE33FEEC33FCEE9DECAE
:10160A00984005FCEE9DFE0FD5F0E9E4CEFD22EDF3
:10161A00F8F5F0EE8420D21CFEADF075F008EF2F3D
:10162A00FFED33FD4007985006D5F0F222C398FD2E
:05163A000FD5F0EA22CB
:10163F00D083D082F8E4937012740193700DA3A33A
:10164F0093F8740193F5828883E47374029368604E
:06165F00EFA3A3A380DF4E
:10257500E4FFFE121582600C0FEF70010E09E97081
:05258500F20A80EF22C4
:101CB200021C15E493A3F8E493A34003F68001F217
:101CC20008DFF48029E493A3F85407240CC8C33333
:101CD200C4540F4420C8834004F456800146F6DF02
:101CE200E4800B01020408102040809012D9E47EA7
:101CF200019360BCA3FF543F30E509541FFEE493F7
:101D0200A360010ECF54C025E060A840B8E493A3BD
:101D1200FAE493A3F8E493A3C8C582C8CAC583CAE8
:101D2200F0A3C8C582C8CAC583CADFE9DEE780BEA0
:011479000072
:00000001FF
