:100AB8001201000200000040051606800100010234
:100AC80000010A060002000000400100090220009F
:100AD800010100A0320904000002FF000000070520
:100AE8000202000200070586020002000902200037
:100AF800010100A0320904000002FF000000070500
:100B08000102400000070581024000001203410075
:100B180042004300440045004600470048002603C1
:100B280041004300430045005300200049002F00C6
:100B38004F002000500072006F00640075006300D1
:100B4800740073001E035500530042002D0044003A
:100B580049004F00320034002D0043005400520079
:040B68003600000053
:0A00360000010202030304040505A3
:100B6C00E4F50BF50AF509F508C203C200C202C28E
:100B7C000112099175230A7524B8752B0A752CCAB4
:100B8C0075210A7522D475290A752AF4752D0B75F1
:100B9C002E14D2E843D82090E668E04409F090E6A1
:100BAC005CE0443DF0D2AFD20512101A90E680E022
:100BBC0054F7F0538EF8C203300105120581C201BF
:100BCC003003291200285024C203120003200016FF
:100BDC0090E682E030E704E020E1EF90E682E0303E
:100BEC00E604E020E0E4121049120040120D4580AA
:010BFC00C731
:1005810090E6B9E070030206321470030206AF244C
:10059100FE700302073224FB700302062C14700361
:1005A1000206261460731460762405600302079224
:1005B1001211CC400302079E90E6BBE024FE6022AC
:1005C10014603324FD601114602224067048E52371
:1005D10090E6B3F0E5248037E52B90E6B3F0E52C07
:1005E100802DE52590E6B3F0E5268023E52790E60A
:1005F100B3F0E528801990E6BAE0FF121075AA065B
:10060100A9077B01EA494B600DEE90E6B3F0EF904C
:10061100E6B4F002079E02079712118E02079E129E
:1006210011B802079E1211B002079E12117C020737
:100631009E1211CE400302079E90E6B8E0247F602F
:100641001514601924027063A200E43325E0FFA2AF
:1006510002E4334F8041E490E740F0803F90E6BCF4
:10066100E0547EFF7E00E0D394807C0040047D0155
:1006710080027D00EC4EFEED4F2436F58274003E83
:10068100F583E493FF3395E0FEEF24A1FFEE34E61A
:100691008F82F583E0540190E740F0E4A3F090E607
:1006A1008AF090E68B7402F002079E0207971211FE
:1006B100D0400302079E90E6B8E024FE60162402B3
:1006C100600302079E90E6BAE0B40105C20002078A
:1006D1009E02079790E6BAE0705590E6BCE0547E22
:1006E100FF7E00E0D394807C0040047D0180027D88
:1006F10000EC4EFEED4F2436F58274003EF583E4A6
:1007010093FF3395E0FEEF24A1FFEE34E68F82F5EF
:1007110083E054FEF090E6BCE05480131313541FA1
:10072100FFE0540F2F90E683F0E04420F0806E80CC
:10073100651211D2506790E6B8E024FE601A2402D7
:10074100705B90E6BAE0B40104D200805090E6BA42
:10075100E0B402028047803E90E6BCE0547EFF7E1A
:1007610000E0D394807C0040047D0180027D00EC98
:100771004EFEED4F2436F58274003EF583E493FF7F
:100781003395E0FEEF24A1FFEE34E68F82F58380FE
:1007910008120056500790E6A0E04401F090E6A050
:0407A100E04480F0C0
:0107A5002231
:0300330002004682
:0400460053D8EF326A
:100E1E00EF603B75CDFA75CBFA75CCCB75CACBE4CA
:100E2E00F5B2F5B3F5B4F5B575B10375B2FF75B39B
:100E3E00FFF5C8D2BDD2AFD2ADD2CA8F2F8F308DB3
:0F0E4E00328B35851736F531F533F534C2042272
:1011A000C2CAC2ADE4F5B2F5B3F5B4F5B5F5B122F6
:03002B00020C893B
:090C8900C0E0C0D075D000C00726
:100C9200E4FFE5A06005E5A0F47048D52F16853085
:100CA2002F853231A204B392043004058535338096
:100CB200038536347F10E5316003430709E533606D
:100CC20003430702E5346003430704E5316002157C
:100CD20031E53360021533E534600215348F80EF5D
:050CE200F4F590C2CF03
:070CE700D007D0D0D0E032AD
:1010490090E682E030E004E020E60B90E682E030B2
:10105900E119E030E71590E680E04401F07F147E65
:0C10690000120DD890E680E054FEF0224A
:1000030090E682E044C0F090E681F043870100006F
:0400130000000022C7
:10101A0030050990E680E0440AF0800790E680E017
:10102A004408F07FDC7E05120DD890E65D74FFF06F
:0F103A0090E65FF05391EF90E680E054F7F022DC
:02107500A907C9
:10107700AE2DAF2E8F828E83A3E064037017AD0170
:1010870019ED7001228F828E83E07C002FFDEC3EEC
:09109700FEAF0580DF7E007F0042
:0110A000222D
:100DD8008E0C8F0D90E600E054187012E50D24017A
:100DE800FFE4350CC313F50CEF13F50D801590E6F1
:100DF80000E05418FFBF100BE50D25E0F50DE50CDC
:100E080033F50CE50D150DAE0C7002150C4E600592
:060E180012001780EE221B
:100017007400F58690FDA57C05A3E582458370F9FC
:0100270022B6
:03004300020A00AE
:03005300020A009E
:100A00000210CC000211510002113B000211230020
:100A1000020EDB00020F120002002A000200420058
:100A200002004A00020052000211D4000211D50057
:100A30000211D6000211D7000211D8000211D9000C
:100A40000211DA00020042000211DB000211DC0098
:100A50000211DD000211DE000211DF000211E000D0
:100A60000211E100020042000200420002004200C6
:100A70000211E2000211E3000211E4000211E5009C
:100A80000211E6000211E7000211E8000211E9007C
:100A90000211EA000211EB000211EC000211ED005C
:100AA0000211EE000211EF000211F0000211F1003C
:080AB0000211F2000211F30033
:1010A1005553422D44494F32342D43545236005545
:1010B10053422D44494F2D3234004143434553207F
:0B10C1005553422D44494F32342D009E
:04002E000237000095
:060CEE008B0C8A0D890E3B
:100CF400E4F50F1211678F10E51025E02402900B24
:100D04004CF0E4F50FAF10EF3395E0FEC3E50F9F11
:100D1400EE6480F87480985027AB0CAA0DA90E8558
:100D24000F827583001208AEFDE50F75F002A4244E
:100D34004EF9740B35F08982F583EDF0050F80C50B
:010D4400228C
:100E5D00E4F50C7AE779407F40AB077D087FF87E9B
:100E6D001D120D90E4F50C7440250CF582E434E769
:100E7D00F583E0FDE50C75F002A42416F9740B352D
:0E0E8D00F08982F583EDF0050CE50CB408D970
:010E9B002234
:1009910090E600E054E74410F090E678E05410FF50
:1009A100C4540F4450F53A13E433F53DD20012110B
:1009B100C07AE779407F40AB077D017F037E00125B
:1009C1000D9090E740E064D06005E0900AC2F0909D
:1009D100E740E024FB600B1470107BFF7A1079A1D3
:1009E100800E7BFF7A1079B080067BFF7A1079BB8D
:0F09F100120CEE120E5DE4F5B175B63FC2CA22CC
:04004E0043B1202278
:0411C80053B1DF221E
:100D4500E53B6035E5384537700675372F7538FF53
:100D5500E538153870021537E53845377004F53B29
:100D6500800FAE37AF387C0B7DFF1208FDEF20E01A
:100D7500051211C8800312004EE5B190E68020E708
:0A0D850005E04408F022E054F7F006
:010D8F002241
:02002800C322F1
:02004000D322C9
:0211CC00D3222C
:0811B00090E6BAE0F53CD32201
:10117C0090E740E53CF0E490E68AF090E68B04F0D2
:02118C00D3226C
:0811B80090E6BAE0F539D322FC
:10118E0090E740E539F0E490E68AF090E68B04F0C3
:02119E00D3225A
:0211CE00D3222A
:0211D000D32228
:0211D200D32226
:10005600753B0190E678E05410FFC4540F4450F508
:100066003A13E433F53D90E6B9E0120952024D0722
:10007600017810018A1101A812026B20032F2103B7
:100086005022035623057F28057F2C057F2D057FEB
:100096002E021D30021D3103FBA203FBA303F5A9AB
:1000A60003CBAC00BCC4057FF000DDF100EFF20528
:1000B6007FF30000057D90E6BAE070061211A002FB
:1000C600057F90E6BAE0FFA3E0FDA3E0FBA3E0F521
:1000D60017120E1E02057F90E6BAE0F580A3E0F542
:1000E60090A3E0F5A0E402032890E6BEE0750E00BA
:1000F600F50FA3E0FEEE420EE50F450E700490E606
:100106008BF0E50F450E700302057F90E6A0E02018
:10011600E1F9C3E50F9440E50E94005008850E10F2
:10012600850F118006751000751140E4F512F51360
:10013600C3E5139511E5129510501DAF13C3E50FD6
:100146009FFE74402FF582E434E7F583EEF0051345
:10015600E51370DC051280D8E490E68AF090E68B11
:10016600E511F0C3E50F9511F50FE50E9510F50EA7
:10017600809090E6BEE090E68BF090E6A0E020E16D
:10018600F902020C90E740E580F0A3E590F0A3E5C4
:10019600A0F0A3E5B0F0E490E68AF090E6BEE002B7
:1001A6000328E490E68AF090E6BEE090E68BF090B5
:1001B600E6A0E020E1F990E743E030E0047FFF802D
:1001C600027F008FB290E743E030E1047FFF8002B8
:1001D6007F008FB390E743E030E2047F0F80027F19
:1001E6000090E743E030E3047EF080027E00EE42BA
:1001F600078FB490E6BAE05401C454F0FF90E74389
:10020600E0540F4FF5B190E740E0F580A3E0F5909C
:10021600A3E0F5A002057F90E740E580F0A3E59016
:10022600F0A3E5A0F0E5B130E4047F0180027F0091
:1002360090E743EFF0E5B1540FA3F0E490E68AF0BF
:1002460090E6BEE002032890E6BAE0FF121075AA17
:1002560006A9077B01EA494B6009EE90E6B3F0EF89
:100266000203EED32290E6BEE0B4022090E6BBE0A5
:10027600C4333354C0FF90E6BAE075F008A42403F3
:10028600F582E5F03480F583EFF0805290E6BEE02B
:100296006403704A90E6BBE0FF7401A80708800279
:1002A600C333D8FC25E044C0FF90E6BAE075F008F9
:1002B600A42403F582E5F03480F583EFF090E6BAE6
:1002C600E075F008A4FFA3E07C002FFFEC35F0FEFC
:1002D600E42FF58274803EF583E090E742F090E6E5
:1002E600BAE075F008A4FFA3E07C002FFFEC35F020
:1002F600FEE42FF58274803EF583E090E740F090AF
:10030600E6BAE075F008A4FFA3E02FFFEC35F0FE97
:10031600E42FF58274803EF583E090E741F090E6A5
:10032600BEE090E68BF002057FE490E68BF090E667
:10033600BBE0FF90E6BAE075F008A42403F582E579
:10034600F03480F583EFF002057FE490E68B801DA4
:10035600E490E68BF090E6BBE0FF90E6BAE075F03D
:1003660008A42403F582E5F03480F583EFF090E6E7
:10037600BCE0FD90E6BBE0C4131354037A005403BB
:10038600FB90E6BAE075F008A42BFFEA35F0FEE430
:100396002FF58274803EF583EDF090E6BDE0FD908A
:1003A600E6BBE0C413135403FB90E6BAE075F0080D
:1003B600A42BFFEA35F0FEE42FF58274803EF58328
:1003C600EDF002057F90E6B5E054FEF090E6BFE062
:1003D60090E68AF090E6BEE090E68BF090E6BBE011
:1003E60090E6B3F090E6BAE090E6B4F002057F75C9
:1003F6003D01433A0190E6BAE0750C00F50DA3E025
:10040600FEEE420C90E6BEE0750E00F50FA3E0FE90
:10041600EE420E90E6B8E064C060030204E7E50F22
:10042600450E700302057F90E6A0E020E1F9C3E5E2
:100436000F9440E50E94005008850E10850F11802C
:100446000675100075114090E6B9E0B4A335E4F5E1
:1004560012F513C3E5139511E5129510505EE50DDF
:100466002513F582E50C3512F583E0FF744025135C
:10047600F582E434E7F583EFF00513E51370D40550
:100486001280D0E4F512F513C3E5139511E5129524
:1004960010501874402513F582E434E7F58374CDC3
:1004A600F00513E51370E1051280DDAD117AE779E9
:1004B600407F40AB07AF0DAE0C120D90E490E68A7C
:1004C600F090E68BE511F0250DF50DE510350CF5F0
:1004D6000CC3E50F9511F50FE50E9510F50E020408
:1004E6002490E6B8E06440600302057FE50F450E00
:1004F600700302057FE490E68AF090E68BF090E6C2
:10050600A0E020E1F990E68BE0751000F51190E689
:10051600B9E0B4A335E4F512F513C3E5139511E577
:10052600129510503674402513F582E434E7F583AE
:10053600E0FFE50D2513F582E50C3512F583EFF0A6
:100546000513E51370D4051280D0AD117AE7794012
:100556007F40AB07AF0DAE0C120F7FE511250DF5F1
:100566000DE510350CF50CC3E50F9511F50FE50EED
:0A0576009510F50E0204F2D322C323
:010580002258
:1010CC00C0E0C083C08290E6B5E04401F0D2015389
:0F10DC0091EF90E65D7401F0D082D083D0E032C6
:10113B00C0E0C083C0825391EF90E65D7404F0D0A1
:06114B0082D083D0E032E7
:10115100C0E0C083C0825391EF90E65D7402F0D08D
:0611610082D083D0E032D1
:100EDB00C0E0C083C08290E680E030E70E8521251C
:100EEB00852226852927852A28800C852925852A70
:100EFB00268521278522285391EF90E65D7410F00B
:070F0B00D082D083D0E03258
:10112300C0E0C083C082D2035391EF90E65D7408A0
:08113300F0D082D083D0E0323D
:100F1200C0E0C083C08290E680E030E70E852125E4
:100F2200852226852927852A28800C852925852A38
:100F3200268521278522285391EF90E65D7420F0C3
:070F4200D082D083D0E03221
:01002A0032A3
:01004200328B
:01004A003283
:01005200327B
:0111D40032E8
:0111D50032E7
:0111D60032E6
:0111D70032E5
:0111D80032E4
:0111D90032E3
:0111DA0032E2
:0111DB0032E1
:0111DC0032E0
:0111DD0032DF
:0111DE0032DE
:0111DF0032DD
:0111E00032DC
:0111E10032DB
:0111E20032DA
:0111E30032D9
:0111E40032D8
:0111E50032D7
:0111E60032D6
:0111E70032D5
:0111E80032D4
:0111E90032D3
:0111EA0032D2
:0111EB0032D1
:0111EC0032D0
:0111ED0032CF
:0111EE0032CE
:0111EF0032CD
:0111F00032CC
:0111F10032CB
:0111F20032CA
:0111F30032C9
:040E9C00AA06AC05F1
:100EA000E4FD7E000DEE2400F582E43400F583EAD3
:100EB000F00E0D74002EF582E43400F583EFF00D92
:100EC00074002402F582E43400F583ECF07A007BB0
:0B0ED00000AF3A121107AF3A020F49C1
:0A0F7F008E148F158D168A178B183B
:100F8900E4F519E519C3951650200515E515AE14B4
:100F99007002051414FFE5182519F582E43517F5D3
:0A0FA90083E0FD120E9C051980D9AB
:010FB300221B
:0A0D90008E148F158D168A178B182C
:100D9A00E4FDF519E53D6012E514FF7E000DEE2431
:100DAA0000F582E43400F583EFF0AE050D74002EF1
:100DBA00F582E43400F583E515F07A007B00AF3A5A
:0E0DCA00121107AB18AA17AD16AF3A0210EBC4
:0811C000E4F51FD2E9D2AF22D1
:100F490090E678E020E6F9C2E990E678E04480F09E
:100F5900EF25E090E679F090E678E030E0F990E668
:100F690078E04440F090E678E020E6F990E678E011
:060F790030E1D6D2E922AE
:100FE800A90790E678E020E6F9E51F702390E678F7
:100FF800E04480F0E925E090E679F08D1AAF03A986
:1010080007751B018A1C891DE4F51E751F01D32273
:02101800C322F1
:100FB400A90790E678E020E6F9E51F702590E67829
:100FC400E04480F0E925E0440190E679F08D1AAF21
:100FD40003A907751B018A1C891DE4F51E751F03EF
:040FE400D322C3222F
:03004B000207A603
:1007A600C0E0C083C082C085C084C086758600C094
:1007B600D075D000C000C001C002C003C006C0078B
:1007C60090E678E030E206751F0602089090E6781B
:1007D600E020E10CE51F64026006751F0702089021
:1007E600E51F24FE605F14603624FE700302088154
:1007F60024FC700302088D24086003020890AB1BDA
:10080600AA1CA91DAF1E051E8F827583001208AE95
:1008160090E679F0E51E651A7070751F05806B907D
:10082600E679E0AB1BAA1CA91DAE1E8E827583005D
:100836001208DB751F02E51A6401704E90E678E037
:100846004420F08045E51A24FEB51E0790E678E0C0
:100856004420F0E51A14B51E0A90E678E04440F00C
:10086600751F0090E679E0AB1BAA1CA91DAE1E8E73
:10087600827583001208DB051E800F90E678E0443F
:1008860040F0751F008003751F005391DFD007D01D
:1008960006D003D002D001D000D0D0D086D084D0EC
:0808A60085D082D083D0E0323E
:1010EB00120FB4E51F24FA600E146006240770F388
:0C10FB00D322E4F51FD322E4F51FD3221A
:10110700120FE8E51F24FA600E146006240770F337
:0C111700D322E4F51FD322E4F51FD322FD
:03000000020BFDF3
:0C0BFD00787FE4F6D8FD75813D020C44C1
:1008AE00BB010CE58229F582E5833AF583E02250FF
:1008BE0006E92582F8E622BBFE06E92582F8E22249
:0D08CE00E58229F582E5833AF583E4932263
:1008DB00F8BB010DE58229F582E5833AF583E8F053
:1008EB00225006E92582C8F622BBFE05E92582C8FF
:0208FB00F222E7
:1008FD00BC000BBE0029EF8DF084FFADF022E4CCDF
:10090D00F875F008EF2FFFEE33FEEC33FCEE9DECA7
:10091D00984005FCEE9DFE0FD5F0E9E4CEFD22EDED
:10092D00F8F5F0EE8420D21CFEADF075F008EF2F37
:10093D00FFED33FD4007985006D5F0F222C398FD28
:05094D000FD5F0EA22C5
:10095200D083D082F8E4937012740193700DA3A334
:1009620093F8740193F5828883E473740293686048
:06097200EFA3A3A380DF48
:10116700E4FFFE120978600C0FEF70010E09E970B9
:05117700F20A80EF22E6
:100C0900020B6CE493A3F8E493A34003F68001F28A
:100C190008DFF48029E493A3F85407240CC8C333EC
:100C2900C4540F4420C8834004F456800146F6DFBB
:100C3900E4800B010204081020408090002EE47E1D
:100C4900019360BCA3FF543F30E509541FFEE493B0
:100C5900A360010ECF54C025E060A840B8E493A377
:100C6900FAE493A3F8E493A3C8C582C8CAC583CAA2
:100C7900F0A3C8C582C8CAC583CADFE9DEE780BE5A
:0100320000CD
:10097800BB010689828A83E0225002E722BBFE027D
:09098800E32289828A83E49322B0
:00000001FF
