:10112D000012010002000000400516608001000160
:10113D000200010A06000200000040010009022021
:10114D0000010100A0FA0904000002FF00000007E1
:10115D0005020200020007058602000200090220B6
:10116D0000010100A0FA0904000002FF00000007C1
:10117D000501024000000705810240000014030034
:10118D000000000000000000000000000000000052
:10119D000026034100430043004500530020004951
:1011AD00002F004F002000500072006F006400758A
:1011BD000063007400730020035500530042002D9E
:1011CD000041004F00310036002D00310036004146
:0911DD0000000000000000000009
:100F99005553422D414F31362D313641005553427B
:100FA9002D414F31362D313645005553422D414F94
:100FB90031362D313241005553422D414F31362DB5
:100FC900313245005553422D414F31362D384100BC
:100FD9005553422D414F31362D3845005553422D39
:100FE900414F31362D3441005553422D414F313651
:100FF9002D3445005553422D414F31322D31364163
:10100900005553422D414F31322D3136450055534C
:10101900422D414F31322D313241005553422D413C
:101029004F31322D313245005553422D414F313226
:101039002D3841005553422D414F31322D3845004D
:101049005553422D414F31322D3441005553422DD4
:10105900414F31322D3445005553422D414F2D4FCB
:0510690054484552004F
:101F0A000161800162FF016000016400C115C11412
:031F1A00015E2045
:10060700758055759005C2A675B1AAC2A4D2A47506
:1006170080AA75900AD2A675B155C2A4D2A47580D6
:1006270055759005C2A675B180C2A4D2A475805530
:10063700759005C2A675B1AAC2A4D2A47580AA7581
:10064700900AD2A675B155C2A4D2A422E4F5B690F9
:10065700400404F075B4BFAE05EF25E02481F582B0
:10066700E43431F583EEF0F580AE03EF25E0248224
:10067700F582E43431F5832275B6FF904004E4F047
:1006870075B4FF22758055759005C2A675B1A0C2D5
:10069700A4D2A422E490E68AF090E6BEE090E68B2E
:1006A700F022853A80853990E538540F456144300A
:1006B700F5A02274022534F534E43533F533E4FA32
:1006C700F9F8E52E2401F52EEA352DF52DE9352C1F
:1006D700F52CE8352BF52B22A3E0FFE4FCFDFE12F9
:1006E7000D81E52E4FF52EE52D4EF52DE52C4DF51B
:1006F7002CE52B4CF52B22FD74402FF582E434E7D3
:10070700F583227810AF2EAE2DAD2CAC2B020D6DDC
:1007170074412FF582E434E7F58322EDF0759830C4
:1007270075380C22EEF0F590EF540FFFE5A054F06A
:100737004FF5A0C2B122D2B0C2A5C2B2D2B2D2A5E1
:1007470022C3E5309532F530E52F9531F52F222577
:10075700E02481F582E43431F5832225E024A6F5EF
:1007670082E43431F5832225E024A5F582E434318F
:10077700F5832274422FF58274E73EF583E022E485
:10078700F5B6904004F075B4FF22E4F0A374FFF0CF
:10079700A3F0E4FF22E53425E0FFE53333FE22C36F
:0907A700E5349532E53395312269
:06231D00D2A775618022C9
:06232300C2A7E4F56122EF
:0922EB00A2A7B392A7636180224F
:101A3C00EF5407FE7401A806088002C333D8FCFEDD
:101A4C00EF131313541FFFED6013EF1460080470B1
:101A5C00239040018003904002E04EF022EF14608E
:101A6C00080470109040018003904002E0FFEEF4F7
:041A7C00FEEF5EF02B
:011A80002243
:101C8500EF54F824F8600B2408700C904001E0FE36
:101C95008005904002E0FEEF5407FF7401A8070895
:101CA5008002C333D8FC5206EE60047F0180027FB8
:011CB500002E
:011CB600220B
:10223F00904001E0120D39904002E0900001020D34
:01224F004B43
:1011E600120CF390317FF0904001F0900001120D47
:0A11F6000C903180F0904002F022CE
:0F2260009040077401F0121F43904007E4F022F2
:10204400C2A5AFB1E5B130E603D38001C3921AD281
:0F205400A5EA494B6004EF120D39A21AE433FFDD
:01206300225A
:1019A9007EFF12078680191219ECEF6D602F122243
:1019B900EBE56460047F2080027F28E53D5F700CC1
:1019C900FB7A00793D122044AD0780DB1219ECAD9A
:1019D90007122044EF6D6005122260E4FE12067FB3
:0219E900AF0647
:0B19EB00227B007A00793D122044228C
:0A22D70012067F12060712068B2282
:1021C40012067F120634758055759005C2A675B146
:0621D40020C2A4D2A422E7
:0B22B600E56460030221C41222D7225D
:101EE4005307077E00120607E4F580EFC4F8540F89
:101EF400C868FF8F90E5614430F5A075B130C2A485
:061F0400D2A41219A9226B
:0218AF008F3870
:1018B100E4F53AE538C39420400375382012067FD9
:1018C100E5387019E4F539AF397E00121EE4EF42B4
:1018D1003A0539E539C3940840EDAF3A22120607BB
:1018E100E4F580E53830E0047F8080027F008F904E
:1018F100E538C3131206B375B130C2A4D2A41219CC
:01190100A93C
:0119020022C2
:101F5400E4F52B752BFFF55EAF5E1218AFEF70053D
:101F6400855E2B8009055EE55EC3942040EA12225B
:031F740060AF2B30
:011F77002247
:1019030012067F1222B68F2FE4F52EE4F52D852DD6
:1019130080852E90E52F1206B3C2A6852DB1C2A4F1
:10192300D2A41219A9852D80852E90E52F1206B316
:10193300D2A6852EB1C2A4D2A41219A9052DE52DD4
:1019430070CC1222EB052EE52E70C0122323122237
:03195300607F00B2
:01195600226E
:1018000012067F1222B68F2FE4F52EE4F52D852DDA
:1018100080852E90E52F1206B3120691852DB1C258
:10182000A4D2A41219A9852D80852E90E52F120629
:10183000B3D2A6120693852EB1C2A4D2A41219A9BE
:10184000052DE52D70C81222EB052EE52E70BC1279
:0718500023231222607F0038
:01185700226E
:0F226F008F2CE5646003021800AF2C12190322B4
:10220500E4F52BAF2B12226F052BE52BC394104061
:03221500F27F0055
:0122180022A3
:101696008F388D398B3A12067F1216E512064312E1
:1016A60019A912068B1219A91206A9853CB1C2A462
:1016B600D2A41219A91216E51206431219A9120686
:1016C6008B1219A91206A9853BB1D2A6C2A4D2A42F
:1016D6001219A9E4F5B690400404F075B4BF22755A
:1016E6008055759005C2A675B1AAC2A4D2A41219D6
:0216F600A92227
:101E0C001207868B808D90EF1206B1C2A5AFB1ADD3
:101E1C0007D2A5D2A6C2A5AFB1EFFEEEFCD2A5E4C7
:0B1E2C00F5B604F075B4BFAE04AF05BE
:011E37002288
:10217F00EDC39F50028002AF05AD07EDD39B400426
:07218F00AF038002AF05223F
:101AC200903100E06401702C74112FF582E43431FE
:101AD200F583E0FEEBD39E4006AB067DFF801574D6
:101AE200012FF582E43431F583E0FEEBC39E50040E
:0E1AF200AB06E4FD12065312072B12073D222D
:07231600AA04EAFB021AC24F
:0C22AA0012065312072BC2B012073F228D
:10000E0090317E120791EF120756E4F0120672E459
:0B001E00F00FBF10F19031A174FFF053
:0100290022B4
:1014E1009031DE74FBF09031DF7450F075B2FF750E
:1014F100B3FF75B4FF7580FF7590FF75A0FF75B0E0
:1015010007E4F5B175B507F5B690317EE09040037B
:10151100F090317FE0904001F0903180E090400206
:10152100F09031A1E0F46031E4FCEC120756E0FDEB
:10153100EC120673E0FBAF04121AC20CBC10EB9064
:1015410031A1E0540125E0FF904000E054FD440446
:091551004F9031A1F0904000F030
:01155A00226E
:01002A0022B3
:01004A002293
:10219600121C85EF24FF9216301902B216AF05A263
:0721A60016E433FD021A3CB0
:1021AD009031A2120791EF120762E4F0EF12076E61
:0621BD00E4F00FBF10F07A
:0121C30022F9
:101DAD009031A3E0904001F09031A4E0904002F01A
:101DBD009031A2E0904003F0E4FCEC12076EE0FDE0
:0F1DCD00EC120762E0FBAF04121AC20CBC10EB61
:011DDC0022E4
:0E229C00904006E05401F564E05402F5602223
:100DE6007AE779407F40AB077D017F037E00121BC7
:100DF6007590E740E0541FF5624470901138F0E5B5
:100E060062540FB410004002C1B6900E1625E0736E
:100E1600C136C13EC146C14EC156C15EC166C16E34
:100E2600C176C17EC186C18EC196C19EC1A6C1AE24
:100E36007BFF7A0F7999807E7BFF7A0F79A6807681
:100E46007BFF7A0F79B3806E7BFF7A0F79C080665D
:100E56007BFF7A0F79CD805E7BFF7A0F79D980563A
:100E66007BFF7A0F79E5804E7BFF7A0F79F180461A
:100E76007BFF7A0F79FD803E7BFF7A10790A8036F8
:100E86007BFF7A107917802E7BFF7A1079248026D3
:100E96007BFF7A107931801E7BFF7A10793D8016B0
:100EA6007BFF7A107949800E7BFF7A107955800690
:0A0EB6007BFF7A10796112185822B0
:1020C2007E317F00AB07AA067D217F007E1D121B99
:0C20D20075903100E064016002E4F0222F
:01005200228B
:101F9C00301408C214121F54122323301514C21506
:101FAC00E55FB4FF051222058005AF5F12226F12A8
:031FBC00232322BA
:08146600E4FEED440190400595
:0B146E001207231538E538600280F8F3
:0B1479001207241538E538600280F8E7
:0B1484001207241538E538600280F8DC
:0A148F00E599C4131354031206FE7E
:0B1499001207221538E538600280F8C9
:1014A400AE99EEC413135403FD120717EDF0EE25A5
:0C14B400E025E0FD1206FFE04D1206FEF0
:0B14C0001207221538E538600280F8A2
:1014CB00AE99120717E0FFEE25E025E0FEEF4EF098
:0514DB00904005EBF05C
:0114E00022E9
:1007B00090E6BFE0FE90E6BEE07C002400FFEC3E49
:1007C000C313EF13F9438780E4FAECC3995030E583
:1007D000606008AF02E4FBFD121466AF027B02E426
:1007E000FD1214660A0AE5606007AF027D0212146A
:0F07F00066AF02E4FB7D021214660A0A0C80CB8E
:0107FF0022D7
:10005600E4F535D217120EC05002613B90E6B9E0C6
:1000660024EE700241F7245D700221A624FE700280
:1000760041C324F87002215324CF7002219124F445
:100086007002216624496002613990E6BEE0701272
:1000960090E6BCE0FF90E6BAE0FDA3E0FB121AC2D0
:1000A60041F290E6BEE064116007E064226002213E
:1000B6005112069B90E6A0E020E1F9E4F533F53411
:1000C60090E740E0F535E535602F30E01CAF34C0F1
:1000D6000712079C74412FF58274E73EF583E0FD15
:1000E60012077AFBD0071222AA0534E534700205FE
:1000F60033E535C313F53580CD90E6BEE0D39411D4
:10010600403F75330075340890E751E0F535E53525
:10011600602F30E01CAF34C00712079C12077AFD2F
:1001260074432FF58274E73EF583E0FBD007122275
:10013600AA0534E53470020533E535C313F5358079
:10014600CD53A0F0D2B112073D613B41F21207B088
:1001560090E6BFE012069C90E6A0E04480F0613B8A
:1001660090E6BCE004700DD21490E74074FCF012E7
:10017600069B801090E6BCE0FF1218AF90E740EFB8
:10018600F0122323E490E68AF041F2D21590E6BC01
:10019600E0F55F90E74074F0F0E490E68AF041F213
:1001A600E4F52EF52DF52CF52B90E6BAE0FFE52EBD
:1001B6004FF52EE52DF52DE52CF52CE52BF52B78B9
:1001C600081206DF78101206DF90E6BEE0752F00F3
:1001D600F530A3E0FEEE422F90E6B8E030E777E593
:1001E60030452F7002613B90E6A0E020E1F9C3E5BF
:1001F600309440E52F94005008852F3185303280A9
:1002060006753100753240E4F533F5341207A65011
:0102160035B2
:1002170012070AE4C007780812070CAD07E52EFF9E
:10022700AB07D007121E0C8E368F37AD3474402DB6
:10023700120702EFF0E536FF74412D12071AEFF0AF
:100247001206BA80C6E490E68AF090E68BE532F0B3
:1002570012074821E55330FEE530452F7002613B18
:10026700E490E68AF090E68BF090E6A0E020E1F9D2
:1002770090E68BE054FE753100F532E4F533F53442
:100287001207A6503212070AE4C007AF2EAE2DADF3
:100297002CAC2B7808120D6DAD07E52EFFAB07AF21
:1002A70034120717E0F53B1206FFE0F53CD00712C2
:1002B70016961206BA80C9120748415F90E6B8E061
:1002C70030E70E904000E090E740F0E490E68A8047
:1002D7001990E6BAE0540125E0FF904000E054FD94
:1002E70044044F9031A1F0904000F01206A08044E2
:1002F70012069B90E6A0E020E1F990E6BAE05401EF
:10030700C43333335480FF90E742E054034F9031B6
:100317007EF0F535904003F090E740E090317FF0B4
:10032700904001F090E741E0903180F0904002F07A
:050337008002D322C387
:01033C00229E
:01233E00227C
:0423290000000000B0
:101F1D00021D232902080000011001010C01010A14
:011F2D0001B2
:10099500E0FFAE3E053E74402EF582E434E7F58374
:1009A50022E490E68AF090E6BEE090E68BF0229095
:1009B500E740F0E490E68AF090E68B22FF7E000D9A
:1009C500EE251EF582E4351DF58322E0FE74D82F51
:1009D500F582E43431F58322253EF53EE541353D8A
:1009E500F53DC3E5409542F540E53F9541F53F228C
:1009F5007586005391EF90E65D22E52425E0242BD2
:100A0500F582E43431F583E0FE547FFFEE2224A223
:100A15007C007B01F9EC2274C82FF582E43431F5B2
:100A2500832274C62EF582E43431F583E0227DA558
:100A35007A317B217F017E1F22F074DA2FF582E463
:100A45003431F5832290E6BEE0640122C3E5449586
:100A550042E54395412274DC2FF582E43431F58378
:100A650022F583EFF00539E5392290E6BEE0640210
:100A750022F583EFF090E741E0FFEE25E022E53E29
:100A85002544F582E53D3543F58322854E54854F52
:100A95005585585685595722855854855955854E3B
:100AA50056854F572290E6A0E04480F022AD427A69
:100AB500E77B40AF3EAE3D2290313BE0FFE524C3EE
:020AC5009F226E
:10221900903124E07006903123E060030200361209
:03222900002E2262
:102023007E007FA57D007B017A317921120DBA9064
:1020330031217409F0E4A3F012000E1214E102221C
:012043007E1E
:102064007D02120A35121B75903121E0B40904A3D4
:10207400E06003022023120A33121B751214E122BA
:0F227E00120A33121C1C7DA57F007E1F0217FD64
:1017570012221990E6BEE0F540754202E540604B63
:10176700C39440500585404180037541401209B834
:10177700E541F090E6A0E020E1F9E4F53FE53FC35D
:101787009541501E7440253F12099EE0FFAE420569
:1017970042EE2421120A153431FAEF120D39053FB2
:0E17A70080DBC3E5409541F54080B102221978
:0F228D00D3E551950EE550950D40031222C12265
:01233F00227B
:101FBF00903126E0FE903125E07C002400F50EECF8
:101FCF003EF50D450E7007C28CC2A9C21822D28CE5
:031FDF00D2A92262
:01234000227A
:101B3B001209AB90E6A0E020E1F9E4FF74422FF527
:101B4B0082E434E7F583E0FEEF120A133431FAEE48
:101B5B00120D390FBF24E590E740E0903125F0904E
:0A1B6B00E741E0903126F0021FBFB1
:0B22C100121DADE4F550F551D21822BB
:10216700E4F550F551C28CC2A9538EF75389F14358
:082177008901122340021FBF81
:101CE900E50945086017E50915097002150814C3C7
:101CF90094FFE5086480948050160223233017105E
:101D09007508057509FF12231DC217E4F550F55131
:011D190022A7
:10106E0090E6B8E030E75CE4F53E90312512099544
:10107E00EFF0903126120995EFF0E4F53DE53DC312
:10108E00942450207E007B0174A2253DF9EE34316C
:10109E00FA120CF3FF7440253E12099EEFF0053D47
:1010AE00053E80D9120997E551F0E550120996EFE9
:1010BE00F0A218E433120996EFF0C2181209A61224
:1010CE000AAA221209AB90E6A0E020E1F990E6BE52
:1010DE00E064247049E4F53EAF3E053E74402F12A5
:1010EE00099EE0903125F0AF3E053E74402F120967
:1010FE009EE0903126F0E4F53DE53DC39424501B6F
:10110E007440253E12099EE0FFE53D120A1334316C
:0E111E00FAEF120D39053D053E80DE121FBFAF
:01112C0022A0
:04004600751001220E
:1016F80012221990E6BEE0F540E4F542E540604E5E
:10170800C39440500585404180037541401209B893
:10171800E541F090E6A0E020E1F9E4F53FE53FC3BC
:10172800954150217440253F12099EE0FFAE4205C5
:1017380042EE7C007B01243CF9EC3431FAEF120DC7
:0E17480039053F80D8C3E5409541F54080AE9D
:011756002270
:101957001510E510704B90313CE0F51012002AE4A9
:10196700F52490317DE0FFE524C39F5031E5242520
:10197700E0243DF582E43431F583E0F525E52425BF
:10198700E0243EF582E43431F583E0F526547FFD0B
:10199700E526339219AF25122196052480C412003B
:0119A7004AF5
:0119A800221C
:102116001209AB90E6A0E020E1F990E740E09031AB
:0B21260027F090E741E0903128F02204
:10163300150CE50C705C903127E0F50C7B017A31D9
:1016430079E012223FE4FFFE74E02EF582E43431A8
:10165300F583E0FD120A276DF97D01E4FCECC394E8
:10166300085029E95D6013120A1CE014F0120A1CE9
:10167300E07011120A276DF08000903128E0FB1210
:101683000A1CEBF00CED25E0FD0F80D10EEE640299
:0216930070B62F
:011695002232
:10222C001209AB90E6A0E020E1F990E740E0903194
:03223C0029F02264
:1021DA00E4FF1209D2E4F0120A5B74FF120A3EE429
:0521EA00F00FBF02ED43
:0121EF0022CD
:101A8100150AE50A703A903129E0F50A7B017A31AD
:101A910079D812223FE4FF120A5BC083C082120987
:101AA100D0E0FDEE5DD082D083120A3EC083C082B9
:101AB1001209D0E0FDEE4DD082D083F00FBF02D7E6
:011AC1002202
:04004E00750F012207
:1015CE00150FE50F6027E4F524120ABD5056741569
:1015DE002524F8E6601316E6700F1209FF30E704B3
:1015EE007D0080027D01121A3C052480DC90312A98
:1015FE00E0F50FE4F524120ABD5029E52425E02478
:10160E002CF582E43431F583E0FF74152524F8A619
:10161E00071209FF30E7047D0180027D00121A3C9B
:04162E00052480D23D
:011632002295
:101EBB001209AB90E6A0E020E1F9E4FF74402F1289
:101ECB00099EE0FEEF7C007B01242AF9EC3431FA09
:081EDB00EE120D390FBF12E4F5
:011EE30022DC
:10033D00E4F53E90E6B8E030E76790E6BEE0FF708A
:10034D000490E68BF0BF010D90E74074A5F090E6A8
:10035D008B7401F01FEF604590E6A0E020E1F9EF0E
:10036D00C3944050048F3D8003753D40E4FEEEC3C1
:10037D00953D501CAD3E053E7C007B0174212DF951
:10038D00EC3431FA120CF3FD12099BEDF00E80DE08
:10039D001209B8E53DF0C3EF953DFF80B8120AAAEA
:1003AD002290E6BFE0FF90E6BEE04F707490E6BD90
:1003BD00E0704D90E6BCE024EF6023249F60302474
:1003CD00FD603324F360342472703590E6BAE06436
:1003DD00CE702DA3E064AC702712227E802290E6B1
:1003ED00BAE0B4CE1BA3E0B4AC161220238011E406
:1003FD0090313BF0800A750F018005E490317DF05E
:10040D0090E6BDE064806002C10690E6BCE0640148
:10041D006002C10690E6BAE0903123F090E6BB8110
:10042D00D690E6BFE06002C10690E6BDE0FE90E624
:10043D00BCE07C002400FFEC3EFE6002C106EF1222
:10044D000D9404832004832104832204832304B5A3
:10045D002F04DE4104EB5104F553051161051B63B7
:10046D0005377105447305607405A28105AD8305DB
:10047D00C7840000060690E6BEE0B4A3031217572A
:10048D0090E6BCE030E0031214E190E6BCE020E120
:10049D0002C10690E6BAE064CE6002C106A3E06434
:1004AD00AC6002C10602227E120A6F6002C106E034
:1004BD0090E68BF090E6A0E020E1F912221990E78A
:1004CD0040E0903123F090E741E0903124F002229A
:1004DD001990E6BEE064266002C106021B3B120ABB
:1004ED006F6002C106022116120A4A6002C106E0BF
:1004FD0090E68BF090E6A0E020E1F990E740E090E7
:10050D003127F022120A4A6002C10602222C120A79
:10051D004A6002C106E090E68BF090E6A0E020E193
:10052D00F990E740E0903129F02290E6BEE06412A8
:10053D006002C106021EBB120A4A6002C106E090AB
:10054D00E68BF090E6A0E020E1F990E740E09031F5
:10055D002AF022120A6F6002C10690313BE0C3946B
:10056D00084002C1061209AB90E6A0E020E1F99027
:10057D00E740E0FF90313BE0FE25E02429F582E4E1
:10058D003431120A76242AF582E43431F583EFF002
:10059D0090313B806190E6BEE06442705C0216F8DB
:1005AD00120A4A7054E090E68BF090E6A0E020E14C
:1005BD00F990E740E090313CF022120A6F703A90CA
:1005CD00317DE0C3942050311209AB90E6A0E020BC
:1005DD00E1F990E740E0FF90317DE0FE25E0243B1E
:1005ED00F582E43431120A76243CF582E43431F597
:0905FD0083EFF090317DE004F081
:0106060022D1
:1021310090E6047480F00000007402F00000007466
:0B21410006F0000000E4F000000022A7
:012341002279
:101B0000E4F52B7AE779407F40AB077D087FF87ECC
:101B10001D121B75E4F52B7440252B12099EE0FD68
:101B2000E52B75F002A4248CF9741135F08982F547
:0A1B300083EDF0052BE52BB408DD72
:011B3A002288
:1017B50090E678E05410FFC4540F4450F51113E43B
:1017C50033F51390E600E054E74410F0438E201201
:1017D500002E12229C12230E121B00120DE6D210AF
:1017E5001220641200461221671221DA12004E12ED
:0817F50022191223230220C275
:101FE200120052121CE912228DE5B090E68020E721
:0E1FF20006E04408F08004E054F7F0021F9C63
:061858008B2B8A2C892D68
:10185E00E4F52E1221F08F2FE52F25E024029011B2
:10186E00C4F0E4F52EAF2FEF3395E0FEC3E52E9FC7
:10187E00EE6480F87480985027AB2BAA2CA92D8586
:10188E002E82758300120D0CFDE52E75F002A42438
:10189E00C6F9741135F08982F583EDF0052E80C5F9
:0118AE002217
:061BAE008E4B8F4CAC05CC
:101BB400E4FDE5136007E54B1209C1EFF0AE050D36
:101BC400E51E2E1209C8E54CF0AF050DE51E2F12D7
:101BD40009C8ECF0AB1EAA1DAF111220FAAF110216
:021BE4001BE6FE
:0317FD00021BAE1E
:0A1C1C008E458F468D478A488B499C
:101C2600E4F54AE54AC3954750200546E546AE45E4
:101C36007002054514FFE549254AF582E43548F565
:0A1C460083E0FD1217FD054A80D966
:011C50002271
:0A1B75008E458F468D478A488B4944
:101B7F00E4FDF54AE5136007E5451209C1EFF0AE44
:101B8F00050DE51E2E1209C8E546F0AB1EAA1DAFC6
:0F1B9F00111220FAAB49AA48AD47AF110220DE60
:100AC70090E6BAE0753D00F53EA3E0FEEE423D90AC
:100AD700E6BEE0753F00F540A3E0FEEE423F90E63C
:100AE700B8E064C060026192E540453F700261EA88
:100AF70090E6A0E020E1F9C3E5409440E53F94008B
:100B07005008853F41854042800675410075424047
:100B170090E6B9E064A3704490E6BCE0B4011BA37F
:100B2700E0701790E6BBE030E71090E7407403F001
:100B3700A37401F0A37403F08046E4F543F544126F
:100B47000A51503C120A83E0FF7440254412099E63
:100B5700EFF00544E54470E7054380E3E4F543F52A
:100B670044120A5150147440254412099E74CDF062
:100B77000544E54470EB054380E7120AB2121B7582
:100B87001209B8E542F01209DD41EF90E6B8E064DA
:100B9700407050E540453F604A1209B8F090E6A022
:100BA700E020E1F990E68BE0754100F54290E6B967
:100BB700E0B4A322E4F543F544120A51501E7440F1
:100BC700254412099EE0FF120A83EFF00544E5442D
:100BD70070E7054380E3120AB2121C1CE5421209B2
:030BE700DD619A33
:010BEA0022E8
:1012B80090E6B8E020E70261487440240112099ED4
:1012C8007409F07440240212099EE4F07440240367
:1012D80012099EE4F07440240412099E7401F0740B
:1012E80040240512099E7402F07440240612099ED7
:1012F800E4F07440240712099E7410F07440240826
:1013080012099E74FFF07440240912099E74FFF0BC
:101318007440240A12099E7408F07440240B1209C0
:101328009E7420F07440240C12099E740FF07440CF
:10133800240D12099E740FF090E74014F01209A6CC
:011348002282
:0B22CC00E50E450D7003D38001C32216
:02233400D322B2
:02233600D322B0
:0800030090E6BAE0F50BD322F0
:0922F400E50B1209B404F0D32239
:0823060090E6BAE0F512D322C3
:0922FD00E5121209B404F0D32229
:02233800D322AE
:02233A00D322AC
:02233C00D322AA
:100EC00090E6B9E0120D940EFA100EFA110F2114EB
:100ED0000F75150EEB2E0EE63C0EF53F0EF0A20E32
:100EE000F0A300000F9512033DE19712106EE197F9
:100EF000120AC7E1971212B8E19790E6B8E030E71E
:100F00000B7B017AE7794012223FE18D1209AB9009
:100F1000E6A0E020E1F97B017AE779401211E6E1F1
:100F200097E4F53974D825391209D5E0FF744025C6
:100F30003912099E120A68B402EAE4F53974DC2514
:100F400039120A5EE0FF74422539F582E434E71273
:100F50000A66B402E8E4F53974DA2539120A42E087
:100F6000FF74442539F582E434E7120A66B402E8D6
:100F70001221DA8018E4F53974C62539120A2AFFDD
:100F80007440253912099E120A68B402EB1209A6B0
:080F9000120AAA8002C322D359
:010F98002236
:101E9000C0E0C083C082C085C084C08675860090C3
:101EA000E6B5E04401F0D2111209F87401F0D086D1
:0B1EB000D084D085D082D083D0E032F7
:10208400C0E0C083C082C085C084C0861209F574D4
:0F20940004F0D086D084D085D082D083D0E032C3
:1020A300C0E0C083C082C085C084C0861209F574B5
:0F20B30002F0D086D084D085D082D083D0E032A6
:101D1A00C0E0C083C082C085C084C086758600903A
:101D2A00E680E030E705120A908003120A9D120944
:101D3A00F87410F0D086D084D085D082D083D0E0D9
:011D4A003266
:101F7800C0E0C083C082C085C084C086758600D298
:101F8800131209F87408F0D086D084D085D082D096
:041F980083D0E032E0
:101D4B00C0E0C083C082C085C084C0867586009009
:101D5B00E680E030E705120A908003120A9D120913
:101D6B00F87420F0D086D084D085D082D083D0E098
:011D7B003235
:012342003268
:012343003267
:012344003266
:012345003265
:012346003264
:012347003263
:012348003262
:012349003261
:01234A003260
:01234B00325F
:01234C00325E
:01234D00325D
:01234E00325C
:01234F00325B
:01235000325A
:012351003259
:012352003258
:012353003257
:012354003256
:012355003255
:012356003254
:012357003253
:012358003252
:012359003251
:01235A003250
:01235B00324F
:01235C00324E
:01235D00324D
:01235E00324C
:01235F00324B
:01236000324A
:012361003249
:012362003248
:012363003247
:012364003246
:012365003245
:0A22E10000010202030304040505D6
:101D7C00EC4EFEED4F24E1F58274223EF583E493A4
:101D8C00FF3395E0FEEF24A1FFEE34E68F82F5835E
:101D9C002290E6BCE0547EFF7E00E0D394807C0071
:011DAC002214
:03000B0002214C83
:10214C00C0E0C0D0054DE54DB43C0B0551E55170D8
:0B215C00020550754D00D0D0D0E032DD
:10134900E4F52AF529F528F527C213C210C212C2FD
:10135900111217B575521175532E755A11755B40D7
:10136900754E11754F4A75581175596A755C117525
:101379005D8AD2E843D82090E668E04409F090E617
:101389005CE0443DF0D2AFD21A121DDD90E680E058
:1013990054F7F0538EF8C213301105120800C21128
:1013A9003013291222CC5024C213121F2F201016D9
:1013B90090E682E030E704E020E1EF90E682E03059
:1013C900E604E020E0E4121E38122334121FE28002
:0113D900C74C
:1008000090E6B9E0B40C004002218190081125E087
:100810007301A301F42181214A2181218101292130
:1008200081019E0199018F01941223364002218D8E
:1008300090E6BBE024FE602214603324FD601114B6
:10084000602224067047E55290E6B3F0E553803706
:10085000E55A90E6B3F0E55B802DE55490E6B3F001
:10086000E5558023E55690E6B3F0E557801990E60C
:10087000BAE0FF121E64AA06A9077B01EA494B6091
:100880000CEE90E6B3F0EF90E6B4F0218D218612E5
:1008900022FD218D122306218D120003218D1222AB
:1008A000F4218D1223384002218D90E6B8E0247F98
:1008B000601514601924027039A210E43325E0FF9A
:1008C000A212E4334F8018E490E740F08016121D26
:1008D0009D40047D0180027D00121D7CE05401904A
:1008E000E740F0E4A3F090E68AF090E68B7402F023
:1008F000218D218612233A4002218D90E6B8E02412
:10090000FE601324026002218D90E6BAE0B4010477
:10091000C210218D218690E6BAE0702C121D9D40F8
:10092000047D0180027D00121D7CE054FEF090E603
:10093000BCE05480131313541FFFE0540F2F90E6B4
:1009400083F0E04420F08045803C12233C503E90F0
:10095000E6B8E024FE601A2402703290E6BAE0B4F1
:100960000104D210802790E6BAE0B40202801E8013
:1009700015121D9D40047D0180027D00121D7C80AA
:1009800008120056500790E6A0E04401F090E6A05F
:04099000E04480F0CF
:010994002240
:0300330002232D78
:04232D0053D8EF3260
:102000009031DEEFF0F5CB8FCDAF05A3EFF0F5CA41
:102010008FCCE4F5C8758E19D2BDD2AFD2ADD2CA7D
:03202000F56B223B
:0D003600903124E0FF903123E0FD02200016
:03233100AF6B226D
:10225000AD07AC06C3E49DFBE49CFFEBFD02200050
:05002E00C2CAC2AD22B0
:03002B0002155B60
:10155B00C0E0C0F0C083C082C085C084C0867586E1
:10156B0000C0D075D000C000C001C002C003C004D1
:10157B00C005C006C007903127E0600312163390F8
:10158B003129E06003121A8190313BE060031215A0
:10159B00CE90317DE0600990313CE0600312195729
:1015AB00C2CFD007D006D005D004D003D002D001D3
:1015BB00D000D0D0D086D084D085D082D083D0F04C
:0315CB00D0E0323B
:101E380090E682E030E004E020E60B90E682E030B5
:101E4800E119E030E71590E680E04401F07F147E68
:0C1E5800001219F690E680E054FEF02223
:101F2F0090E682E044C0F090E681F0438701000024
:041F3F00000000227C
:101DDD00301A0990E680E0440AF0800790E680E032
:101DED004408F07FDC7E051219F690E65D74FFF075
:0F1DFD0090E65FF05391EF90E680E054F7F0220C
:101F43007400F58690FDA57C05A3E582458370F9B1
:011F5300226B
:08230E00E4F56AD2E9D2AF2226
:101BE60090E678E020E6F9C2E990E678E04480F0F5
:101BF600EF25E090E679F090E678E030E0F990E6BF
:101C060078E04440F090E678E020E6F990E678E067
:061C160030E1D6D2E92204
:101CB700A90790E678E020E6F9E56A702390E678D0
:101CC700E04480F0E925E090E679F08D65AF03A95F
:101CD700077566018A678968E4F569756A01D32221
:021CE700C32216
:101C5100A90790E678E020E6F9E56A702590E67834
:101C6100E04480F0E925E0440190E679F08D65AF2C
:101C710003A9077566018A678968E4F569756A03CE
:041C8100D322C32285
:03004B00020BEBBA
:100BEB00C0E0C083C082C085C084C086758600C04B
:100BFB00D075D000C000C001C002C003C006C00742
:100C0B0090E678E030E206756A06020CD590E6783D
:100C1B00E020E10CE56A64026006756A07020CD5F8
:100C2B00E56A24FE605F14603624FE7003020CC676
:100C3B0024FC7003020CD224086003020CD5AB66B3
:100C4B00AA67A968AF6905698F82758300120D0CBD
:100C5B0090E679F0E56965657070756A05806B9053
:100C6B00E679E0AB66AA67A968AE698E82758300E8
:100C7B00120D4B756A02E5656401704E90E678E0E3
:100C8B004420F08045E56524FEB5690790E678E0E1
:100C9B004420F0E56514B5690A90E678E04440F02D
:100CAB00756A0090E679E0AB66AA67A968AE698EB3
:100CBB0082758300120D4B0569800F90E678E04436
:100CCB0040F0756A008003756A005391DFD007D03E
:100CDB0006D003D002D001D000D0D0D086D084D0A3
:080CEB0085D082D083D0E032F5
:021E6400A907CC
:101E6600AE5CAF5D8F828E83A3E064037017AD0115
:101E760019ED7001228F828E83E07C002FFDEC3EEF
:091E8600FEAF0580DF7E007F0045
:011E8F002230
:1020DE00121C51E56A24FA600E146006240770F390
:0C20EE00D322E4F56AD322E4F56AD32281
:1020FA00121CB7E56A24FA600E146006240770F30E
:0C210A00D322E4F56AD322E4F56AD32264
:1019F6008E2B8F2C90E600E054187012E52C2401F3
:101A0600FFE4352BC313F52BEF13F52C801590E669
:101A160000E05418FFBF100BE52C25E0F52CE52B54
:101A260033F52BE52C152CAE2B7002152B4E6005CD
:061A3600121F4380EE22A6
:03004300021200A6
:0300530002120096
:10120000021E90000220A30002208400021F78002A
:10121000021D1A00021D4B0002234200022343005C
:101220000223440002234500022346000223470014
:10123000022348000223490002234A0002234B00F4
:1012400002234C000223430002234D0002234E00E0
:1012500002234F00022350000223510002235200B8
:1012600002235300022343000223430002234300CE
:101270000223540002235500022356000223570084
:10128000022358000223590002235A0002235B0064
:1012900002235C0002235D0002235E0002235F0044
:1012A0000223600002236100022362000223630024
:0812B000022364000223650023
:030000000213DA0E
:0C13DA00787FE4F6D8FD75816C021421C8
:100CF300BB010689828A83E0225002E722BBFE02FF
:090D0300E32289828A83E4932231
:100D0C00BB010CE58229F582E5833AF583E022509C
:100D1C0006E92582F8E622BBFE06E92582F8E222E6
:0D0D2C00E58229F582E5833AF583E4932200
:100D3900BB010689828A83F0225002F722BBFE0199
:020D4900F32293
:100D4B00F8BB010DE58229F582E5833AF583E8F0DE
:100D5B00225006E92582C8F622BBFE05E92582C88A
:020D6B00F22272
:100D6D00E86010ECA2E713FCED13FDEE13FEEF139C
:040D7D00FFD8F02289
:100D8100E8600FEFC333FFEE33FEED33FDEC33FCD0
:030D9100D8F12274
:100D9400D083D082F8E4937012740193700DA3A3EE
:100DA40093F8740193F5828883E473740293686002
:060DB400EFA3A3A380DF02
:1021F000E4FFFE120CF3600C0FEF70010E09E970A2
:05220000F20A80EF224C
:100DBA00EF4E6012EF60010EEDBB010B89828A8350
:100DCA00F0A3DFFCDEFA2289F05007F709DFFCA95D
:0C0DDA00F022BBFEFCF309DFFCA9F022B4
:1013E600021349E493A3F8E493A34003F68001F2C1
:1013F60008DFF48029E493A3F85407240CC8C33308
:10140600C4540F4420C8834004F456800146F6DFD6
:10141600E4800B0102040810204080901F0AE47E3D
:10142600019360BCA3FF543F30E509541FFEE493CB
:10143600A360010ECF54C025E060A840B8E493A392
:10144600FAE493A3F8E493A3C8C582C8CAC583CABD
:10145600F0A3C8C582C8CAC583CADFE9DEE780BE75
:011F2E0000B2
:00000001FF
