:04002E0043B1402278
:0400460053B1BF22D1
:04004E0063B1402238
:0100320022AB
:01004A002293
:01005200228B
:01203D002280
:01203E00227F
:10174300EF5407FE7401A806088002C333D8FCFED9
:10175300EF131313541FFFED601EEF14600E14609C
:101763000F14601024037031EE428022EE42902267
:10177300EE42A022EE42B022EF14600F1460111467
:10178300601324037013EEF4528022EEF45290227D
:09179300EEF452A022EEF452B073
:01179C00222A
:1019F600EF54F824F8601024F8601024F8601024DE
:101A060018700EAE80800AAE908006AEA08002AE40
:101A1600B0EF5407FF7401A807088002C333D8FC4F
:0B1A26005206EE60047F0180027F008A
:011A31002292
:10000E00E5801202B5900001E5901202C790000241
:0D001E00E5A01202C7900003E5B00202C782
:101C7B0012026F902861F0F580900001120288909B
:101C8B002862F0F590900002120288902863F0F51C
:0E1C9B00A0900003120288902864F0F5B02299
:101D520090286074FFF090285FF090285EF0902841
:101D62005DF0902864F0902863F0902862F090284B
:031D720061F022FB
:10153100E4F5B2F5B3F5B4F5B590285DE0FF908020
:1015410000F090285EE0FE908001F090285FE0FDC1
:10155100908002F0902860E0FC908003F08FB28EC2
:10156100B38DB48CB5902861E0F580A3E0F590A32C
:10157100E0F5A0A3E0F5B090285DE0F4908004F0E0
:1015810090285EE0F4908005F090285FE0F4908070
:1015910006F0902860E0F4908007F075B1BF75B651
:0215A1004422E2
:101F83008F598D5A300603020D9EAD5AAF59120D6B
:021F9300BD226D
:01203F00227E
:01204000227D
:0D00360090286574FFF0A3F0A3F0A3F02262
:1015A300E4F5B2F5B3F5B4F5B5902865E0FF9080A6
:1015B30000F0902866E0FE908001F0902867E0FD3F
:1015C300908002F0902868E0FC908003F08FB28E48
:1015D300B38DB48CB5902869E0F580A3E0F590A3B2
:1015E300E0F5A0A3E0F5B0902865E0F4908004F066
:1015F300902866E0F4908005F0902867E0F49080EE
:0C16030006F0902868E0F4908007F022C8
:100EE500D204120BAA5003020FCD90E6B9E0245E9E
:100EF5007003020FC6147003020FC624916003022B
:100F05000FCBE490E68AF090E6BEE090E68BF09099
:100F1500E6A0E020E1F9E4F5B2F5B3F5B4F5B59056
:100F2500E744E090285DF0908000F090E745E09080
:100F3500285EF0908001F090E746E090285FF09001
:100F45008002F090E747E0902860F0908003F090F1
:100F5500E744E0F5B2A3E0F5B3A3E0F5B4A3E0F50B
:100F6500B590E740E0902861F0F58090E741E0908A
:100F75002862F0F59090E742E0902863F0F5A090A4
:100F8500E743E0902864F0F5B090E744E0F4908002
:100F950004F090E745E0F4908005F090E746E0F432
:100FA500908006F090E747E0F4908007F090E6BA6D
:100FB500E025E025E05404FFE5B154FB4FF5B18091
:0A0FC500071208CE8002D322C322D7
:100CCE00120100020000004005160480010001021E
:100CDE0000010A0600020000004001000902200087
:100CEE00010100A0FA0904000002FF000000070540
:100CFE00020200020007058602000200090220001F
:100D0E00010100A0FA0904000002FF00000007051F
:100D1E00010240000007058102400000140300009C
:100D2E0000000000000000000000000000000000B5
:100D3E0026034100430043004500530020004900B4
:100D4E002F004F002000500072006F0064007500ED
:100D5E0063007400730018035500530042002D0009
:100D6E00440049004F002D003300320049000000BE
:100D7E0080818283848586879091929394959697AD
:100D8E00A0A1A2A3A4A5A6A7B0B1B2B3B4B5B6B79D
:100D9E00C0D0C0E0EF900D7E93900DB5F0ED900DAC
:100DAE007E93900DB7F0A2009200D0E0D0D022C07A
:100DBE00D0C0E0EF900D7E93900DD4F0ED900D7EAF
:0F0DCE0093900DD7F0A200B39200D0E0D0D022C6
:101EDE005641707220323520323031364030393A28
:0B1EEE0034343A3434000000000000DF
:101FB90002371EF502210000012901012501012333
:011FC9000116
:101EF900902803E0FF7006902802E060089028020D
:091F0900E0FD021E6F12202D22E2
:101D98007E007F6D7D007B017A28790012037290A6
:101DA80028007409F0E4A3F0121D52121531021D27
:011DB800D951
:101E53007D02121846902800E0B40904A3E0600351
:0C1E6300021D987D6D12184612153122E8
:101DD9009028007409F0E4A3F07A287B007D6D7FD8
:0F1DE900017E1F121B4E7D6D7F007E1F02202A80
:10160F00121EF990E6BEE0F545754702E5456057B5
:10161F00C3944050058545468003754640E490E6E7
:10162F008AF090E68BE546F090E6A0E020E1F9E441
:10163F00F544E544C39546502574402544F582E4AE
:10164F0034E7F583E0FFAE470547EE7C007B0124CE
:10165F0000F9EC3428FAEF1202B5054480D4C3E543
:0A166F00459546F54580A5021EF9D9
:1011B80090E6B8E030E745E4F545F544E544C394E6
:1011C8000850247E007B01745D2544F9EE3428FA2A
:1011D80012026FFF74402545F582E434E7F583EF8A
:1011E800F00544054580D5E490E68AF090E6BEE037
:1011F80090E68BF090E6A0E04480F02290E6BEE016
:1012080090E68BF090E6A0E020E1F990E6BEE0647D
:10121800086003C20422E4F544F545E544C3940894
:10122800502474402545F582E434E7F583E0FFE572
:10123800447C007B01245DF9EC3428FAEF1202B5F6
:101248000544054580D590E6BAE0B4CE08A3E0B4DD
:05125800AC03121DD9DA
:01125D00226E
:0F1FDB00D3E53A9527E53995264003121FEA22F0
:01204100227C
:101D7500902805E0FE902804E07C002400F527EC7F
:101D85003EF52645277007C28CC2A9C20522D28C12
:031D9500D2A922AE
:01204200227B
:1019730090E6BEE090E68BF090E6A0E020E1F9E48B
:10198300FF74422FF582E434E7F583E0FEEF7C0039
:101993007B012465F9EC3428FAEE1202B50FBF0877
:1019A300E090E740E0902804F090E741E0902805BC
:0419B300F0021D75AC
:0F1FEA001215A3E4F52CF52DF539F53AD20522A1
:101E1700C205E4F52CF52DF539F53AC28CC2A95364
:0E1E27008EF75389F1438901122042021D7586
:101A3200E52245216019E52215227002152114C301
:101A420094FFE52164809480501C12004680173078
:101A520004147521057522FF12002EC204E4F52C30
:0B1A6200F52DF539F53A300502D204ED
:011A6D002256
:100A6F0090E6B8E020E703020B24E4F54590280454
:100A7F00E0FFAE45054574402EF582E434E7F5837B
:100A8F00EFF0902805E0FFAE45054574402EF58246
:100A9F00E434E7F583EFF0E4F544E544C3940850FC
:100AAF00247E007B0174652544F9EE3428FA120286
:100ABF006FFF74402545F582E434E7F583EFF005C9
:100ACF0044054580D5AE45054574402EF582E43486
:100ADF00E7F583E53AF0E539FFAE45054574402E5D
:100AEF00F582E434E7F583EFF0A205E433FFAE457A
:100AFF00054574402EF582E434E7F583EFF0C20527
:100B0F00E490E68AF090E6BEE090E68BF090E6A0E7
:100B1F00E04480F02290E6BEE090E68BF090E6A0F5
:100B2F00E020E1F9C20590E6BEE0640A6003C2046A
:100B3F0022E4F545AF45054574402FF582E434E7CF
:100B4F00F583E0902804F0AF45054574402FF582FA
:100B5F00E434E7F583E0902805F0E4F544E544C379
:100B6F009408502474402545F582E434E7F583E07A
:100B7F00FFE5447C007B012465F9EC3428FAEF1281
:100B8F0002B50544054580D5121D7590E6BAE0B44F
:0A0B9F00CE08A3E0B4AC03121DD988
:010BA9002229
:04201E0075290122FD
:10167900121EF990E6BEE0F545E4F547E5456057E9
:10168900C3944050058545468003754640E490E67D
:101699008AF090E68BE546F090E6A0E020E1F9E4D7
:1016A900F544E544C39546502574402544F582E444
:1016B90034E7F583E0FFAE470547EE7C007B012464
:1016C9001BF9EC3428FAEF1202B5054480D4C3E5BE
:0716D900459546F54580A58B
:0116E00022E7
:1010AE001529E529704B90281BE0F52912203FE405
:1010BE00F51D90285CE0FFE51DC39F5031E51D2511
:1010CE00E0241CF582E43428F583E0F51EE51D25A9
:1010DE00E0241DF582E43428F583E0F51F547FFDEE
:1010EE00E51F339206AF1E121F83051D80C412200A
:0110FE0040B1
:0110FF0022CE
:101DB90090E6BEE090E68BF090E6A0E020E1F99095
:101DC900E740E0902806F090E741E0902807F022EC
:1014A6001525E5256003021530902806E0F5257B15
:1014B600017A28799F12000EE4FFFE749F2EF582B2
:1014C600E43428F583E0FD746D2EF582E43428F5C6
:1014D60083E06DF97D01E4FCECC394085046E95DB8
:1014E600602974712FF582E43428F583E014F074D2
:1014F600712FF582E43428F583E07020746D2EF5A3
:1015060082E43428F583E06DF08000902807E0FB44
:1015160074712FF582E43428F583EBF00CED25E0A9
:0A152600FD0F80B40EEE6404709116
:011530002298
:101F120090E6BEE090E68BF090E6A0E020E1F9903A
:081F2200E740E0902808F022DE
:101CA900E4FF74912FF582E43428F583E4F0749B02
:101CB9002FF582E43428F58374FFF074972FF582A9
:0B1CC900E43428F583E4F00FBF04D7DB
:011CD40022ED
:1016E1001523E523705B902808E0F5237B017A2818
:1016F100799112000EE4FF749B2FF582E43428F5F2
:1017010083C083C082E0FE74912FF582E43428F512
:1017110083E0FDEE5DD082D083F074972FF582E4F3
:101721003428F583C083C082E0FE74912FF582E4F2
:101731003428F583E0FDEE4DD082D083F00FBF0455
:01174100B6F1
:011742002284
:0420220075280122FA
:1012FB001528E528603DE4F55B90281AE0FFE55BD7
:10130B00C39F507C742F255BF8E6602316E6701F95
:10131B00E55B25E0240AF582E43428F583E0FE54EE
:10132B007FFFEE30E7047D0080027D01121743053D
:10133B005B80C6902809E0F528E4F55B90281AE05D
:10134B00FFE55BC39F5039E55B25E0240BF582E499
:10135B003428F583E0FF742F255BF8A607E55B25A2
:10136B00E0240AF582E43428F583E0FE547FFFEE97
:10137B0030E7047D0180027D00121743055B80BCC2
:01138B00223F
:101BB70090E6BEE090E68BF090E6A0E020E1F9E445
:101BC700FF74402FF582E434E7F583E0FEEF7C00F5
:101BD7007B012409F9EC3428FAEE1202B50FBF1283
:011BE700E01D
:011BE80022DA
:04125E008E448F45E6
:10126200E4F546E54564024544700C90E741F0E53B
:1012720045154570021544E54564014544701690D4
:10128200E740746DF090E6BEE090E68BF0E5451520
:101292004570021544E5454544605D90E6A0E020B6
:1012A200E1F9C3E5459440E54494005004AD45801E
:1012B200027D40E4FFEFC39D5025AE460546EE7524
:1012C20083007B012400F9E5833428FA12026FFEC1
:1012D20074402FF582E434E7F583EEF00F80D6E414
:1012E20090E68AF090E68BEDF0FFC3E5459FF54569
:0812F200E5449400F544809DE1
:0112FA0022D1
:10039E0090E6B8E030E76390E6BFE0FE90E6BEE0A0
:1003AE00FDEDFF4E7002804D90E6BDE0FD90E6BC87
:1003BE00E04D700302125E90E6BDE060030206A8F7
:1003CE0090E6BCE01460030206A87547FF75481E50
:1003DE007549DE754A00754B1E7B017AE77941122D
:1003EE0017F47B017AE77940121F6EEF0490E74015
:1003FE00F090E6BEE090E68BF02290E6BFE0FF9034
:10040E00E6BEE04F707790E6BDE0704D90E6BCE042
:10041E0024EF6023249F603024FD603324F3603486
:10042E002472703590E6BAE064CE702DA3E064AC11
:10043E007027121DD9802290E6BAE0B4CE1BA3E03D
:10044E00B4AC16121D988011E490281AF0800A752B
:10045E0028018005E490285CF090E6BDE0648060A1
:10046E00030206A890E6BCE0640160030206A890B1
:10047E00E6BAE0902802F090E6BB02053B90E6BF9C
:10048E00E060030206A890E6BDE0FE90E6BCE07CCC
:10049E00002400FFEC3E60030206A8EF12034C049A
:1004AE00E12004E12104E12204E12305162F054396
:1004BE0041055151055F53057F61058D6305AD7192
:1004CE0005BB7305DB74063081063B83065884003A
:1004DE000006A890E6BEE0B46B0312160F90E6BCC1
:1004EE00E030E00312153190E6BCE020E103020695
:1004FE00A890E6BAE064CE60030206A8A3E064AC5E
:10050E0060030206A8021DD990E6BEE064026003F5
:10051E000206A8E090E68BF090E6A0E020E1F9124A
:10052E001EF990E740E0902802F090E741E0902815
:10053E0003F0021EF990E6BEE0640A60030206A80C
:10054E0002197390E6BEE0640260030206A8021D63
:10055E00B990E6BEE0640160030206A8E090E68B67
:10056E00F090E6A0E020E1F990E740E0902806F058
:10057E002290E6BEE0640160030206A8021F1290FC
:10058E00E6BEE0640160030206A8E090E68BF09000
:10059E00E6A0E020E1F990E740E0902808F02290F4
:1005AE00E6BEE0641260030206A8021BB790E6BE28
:1005BE00E0640160030206A8E090E68BF090E6A0EE
:1005CE00E020E1F990E740E0902809F02290E6BEA5
:1005DE00E0640260030206A890281AE0C394084063
:1005EE00030206A890E6BEE090E68BF090E6A0E04F
:1005FE0020E1F990E740E0FF90281AE0FE25E02484
:10060E0008F582E43428F583EFF090E741E0FFEE41
:10061E0025E02409F582E43428F583EFF090281ABA
:10062E00807590E6BEE06442707002167990E6BE68
:10063E00E064017065E090E68BF090E6A0E020E1CA
:10064E00F990E740E090281BF02290E6BEE06402AD
:10065E00704890285CE0C39420503F90E6BEE09036
:10066E00E68BF090E6A0E020E1F990E740E0FF9005
:10067E00285CE0FE25E0241AF582E43428F583EFA9
:10068E00F090E741E0FFEE25E0241BF582E43428EC
:0A069E00F583EFF090285CE004F013
:0106A800222F
:101EC30090E6047480F00000007402F000000074D7
:0B1ED30006F0000000E4F00000002218
:01204300227A
:1019B700E4F53F7AE779407F40AB077D087FF87E03
:1019C7001D12184EE4F53F7440253FF582E434E7D5
:1019D700F583E0FDE53F75F002A4242CF9740D357D
:0E19E700F08982F583EDF0053FE53FB408D9A5
:0119F50022CF
:101A6E0090E678E05410FFC4540F4450F52A13E466
:101A7E0033F52E438E201200321220161219B71291
:101A8E00004AD200121E53121E1712201E121CA93B
:0C1A9E00122022121EF912004602005213
:101E350012203D121A32121FDBE5B190E68020E731
:0E1E450006E04408F08004E054F7F002203E6E
:06179D008B548A558956A9
:1017A300E4F557121F6E8F58E55825E02402900D7B
:1017B30064F0E4F557AF58EF3395E0FEC3E5579F68
:1017C300EE6480F87480985027AB54AA55A95685C7
:1017D3005782758300120288FDE55775F002A42431
:1017E30066F9740D35F08982F583EDF0055780C5F0
:0117F30022D3
:0618E2008E528F53AC058D
:1018E800E4FDE52E6012E552FF7E000DEE2538F589
:1018F80082E43537F583EFF0AE050DE5382EF58235
:10190800E43537F583E553F0AF050DE5382FF5825B
:10191800E43537F583ECF0AB38AA37AF2A121EA7A7
:05192800AF2A021B18AC
:03202A000218E2B7
:0A1B4E008E4C8F4D8D4E8A4F8B5048
:101B5800E4F551E551C3954E5020054DE54DAE4C89
:101B68007002054C14FFE5502551F582E4354FF518
:0A1B780083E0FD12202A055180D9F8
:011B82002240
:081846007A287B007F017E1F60
:0A184E008E4C8F4D8D4E8A4F8B504B
:10185800E4FDF551E52E6012E54CFF7E000DEE2506
:1018680038F582E43537F583EFF0AE050DE5382E0F
:10187800F582E43537F583E54DF0AB38AA37AF2A62
:0E188800121EA7AB50AA4FAD4EAF2A021E8B08
:1008CE0090E6BAE0754400F545A3E0FEEE42449092
:1008DE00E6BEE0754600F547A3E0FEEE424690E622
:1008EE00B8E064C060030209DBE5474546700302C9
:1008FE000A6E90E6A0E020E1F9C3E5479440E54694
:10090E00940050088546488547498006754800750D
:10091E00494090E6B9E064A3705890E6BCE0B4019B
:10092E001BA3E0701790E6BBE030E71090E7407431
:10093E0003F0A37401F0A37403F0806CE4F54AF5A0
:10094E004BC3E54B9549E54A9548505CE545254B2B
:10095E00F582E544354AF583E0FF7440254BF58278
:10096E0074E7354AF583EFF0054BE54B70D3054A36
:10097E0080CFE4F54AF54BC3E54B9549E54A9548DA
:10098E0050197440254BF58274E7354AF58374CDC2
:10099E00F0054BE54B70E0054A80DCAD497AE77B0C
:1009AE0040AF45AE4412184EE490E68AF090E68BC6
:1009BE00E549F02545F545E5483544F544C3E54799
:1009CE009549F547E5469548F5460208F790E6B88D
:1009DE00E064406003020A6EE54745467003020A72
:1009EE006EE490E68AF090E68BF090E6A0E020E1CF
:1009FE00F990E68BE0754800F54990E6B9E0B4A3AE
:100A0E0036E4F54AF54BC3E54B9549E54A95485012
:100A1E00337440254BF58274E7354AF583E0FFE5E4
:100A2E0045254BF582E544354AF583EFF0054BE558
:100A3E004B70D3054A80CFAD497AE77B40AF45AEC8
:100A4E0044121B4EE5492545F545E5483544F54428
:100A5E00C3E5479549F547E5469548F5460209E64B
:010A6E002265
:0B1FF900E52745267003D38001C322BA
:02203300D322B6
:02203500D322B4
:0800030090E6BAE0F524D322D7
:101F950090E740E524F0E490E68AF090E68B04F0C3
:021FA500D32245
:08200E0090E6BAE0F52BD322A5
:101FA70090E740E52BF0E490E68AF090E68B04F0AA
:021FB700D32233
:02203700D322B2
:02203900D322B0
:02203B00D322AE
:100FCF00E4FF90E6B8E020E7030210AD0F0F744086
:100FDF002401F582E434E7F5837409F00F7440249B
:100FEF0002F582E434E7F583E4F00F74402403F54F
:100FFF0082E434E7F583E4F00F74402404F582E4CF
:10100F0034E7F5837404F00F74402405F582E4345B
:10101F00E7F5837404F00F74402406F582E434E797
:10102F00F583E4F00F74402407F582E434E7F58389
:10103F00E4F00F74402408F582E434E7F58374FF7D
:10104F00F00F74402409F582E434E7F58374FFF060
:10105F000F7440240AF582E434E7F5837408F00F27
:10106F007440240BF582E434E7F5837420F00F7499
:10107F0040240CF582E434E7F583741FF00F7440BD
:10108F00240DF582E434E7F583741FF090E740EF09
:0E109F00F0E490E68AF090E6BEE090E68BF07A
:0110AD002220
:100BAA0090E6B9E012034C0BF1100BF1110C1F1473
:100BBA000C90150BDF280BD92E0BD33C0BEB3F0BFC
:100BCA00E5A20BE5A300000CCA12039E020CCC128C
:100BDA000A6F020CCC1211B8020CCC1208CE020C0D
:100BEA00CC120FCF020CCC90E6B8E030E70C7B01B8
:100BFA007AE7794012000E020CB490E6BEE090E665
:100C0A008BF090E6A0E020E1F97B017AE7794012C7
:100C1A001C7B020CCCE4F54074912540F582E43447
:100C2A0028F583E0FF74402540F582E434E7F58334
:100C3A00EFF00540E540B404DFE4F540749B25403D
:100C4A00F582E43428F583E0FF74442540F582E414
:100C5A0034E7F583EFF00540E540B404DFE4F540FE
:100C6A0074972540F582E43428F583E0FF7448251B
:100C7A0040F582E434E7F583EFF00540E540B4043B
:100C8A00DF121CA98024E4F540746D2540F582E446
:100C9A003428F583E0FF74402540F582E434E7F513
:100CAA0083EFF00540E540B404DFE490E68AF09073
:100CBA00E6BEE090E68BF090E6A0E04480F0800289
:030CCA00C322D36F
:010CCD002204
:101DF800C0E0C083C08290E6B5E04401F0D2015350
:0F1E080091EF90E65D7401F0D082D083D0E0328C
:101F4200C0E0C083C0825391EF90E65D7404F0D08C
:061F520082D083D0E032D2
:101F5800C0E0C083C0825391EF90E65D7402F0D078
:061F680082D083D0E032BC
:101AAA00C0E0C083C08290E680E030E70E85090D71
:101ABA00850A0E85110F851210800C85110D85126D
:101ACA000E85090F850A105391EF90E65D7410F0A8
:071ADA00D082D083D0E0327E
:101F2A00C0E0C083C082D2035391EF90E65D74088B
:081F3A00F0D082D083D0E03228
:101AE100C0E0C083C08290E680E030E70E85090D3A
:101AF100850A0E85110F851210800C85110D851236
:101B01000E85090F850A105391EF90E65D7420F060
:071B1100D082D083D0E03246
:012044003269
:012045003268
:012046003267
:012047003266
:012048003265
:012049003264
:01204A003263
:01204B003262
:01204C003261
:01204D003260
:01204E00325F
:01204F00325E
:01205000325D
:01205100325C
:01205200325B
:01205300325A
:012054003259
:012055003258
:012056003257
:012057003256
:012058003255
:012059003254
:01205A003253
:01205B003252
:01205C003251
:01205D003250
:01205E00324F
:01205F00324E
:01206000324D
:01206100324C
:01206200324B
:01206300324A
:012064003249
:012065003248
:012066003247
:012067003246
:101E6F00E4F5C8E58E54074438F58E8FCB8FCDAF90
:0C1E7F00058FCA8FCCD2BDD2ADD2CA22D2
:101C1B00AB07AA06A905A8047F007E1B7D377C4B6A
:101C2B00120151AB07AA06A905A804E4FFFE7D80AB
:101C3B007C471200591201EEAD07AC06AF04021E31
:011C4B006F29
:101FCB00AD07AC06C3E49DFBE49CFFEBFD021E6F6B
:03202D00C2CA2202
:03002B0002203080
:03203000C2CF32EA
:0A20040000010202030304040505B5
:03000B0002189642
:10189600C0E0C0F0C0D075D000C000C004C005C014
:1018A60006C0070508E508B40621053AE53A7002C0
:1018B6000539AE39FF7C007D0A1202E9ED4C70084D
:1018C600052DE52D7002052C750800D007D006D031
:0C18D60005D004D000D0D0D0F0D0E0321B
:10138C00E4F53EF53DF53CF53BC203C200C202C29A
:10139C0001121A6E750B0C750CCE75130C7514E0CE
:1013AC0075090C750AEA75110D75120A75150D750E
:1013BC00162AD2E843D82090E668E04409F090E67B
:1013CC005CE0443DF0D2AFD207121C4C90E680E0BA
:1013DC0054F7F0C2033001051206A9C201300329EB
:1013EC00121FF95024C203121D2D20001690E68204
:1013FC00E030E704E020E1EF90E682E030E604E044
:0E140C0020E0E4121CD5122033121E3580C7DA
:1006A90090E6B9E0700302075A1470030207D724D1
:1006B900FE700302085A24FB7003020754147003E6
:1006C90002074E146073146076240560030208BAA9
:1006D90012203540030208C690E6BBE024FE6022E2
:1006E90014603324FD601114602224067048E50B60
:1006F90090E6B3F0E50C8037E51390E6B3F0E51426
:10070900802DE50D90E6B3F0E50E8023E50F90E628
:10071900B3F0E510801990E6BAE0FF121D01AA06B0
:10072900A9077B01EA494B600DEE90E6B3F0EF9023
:10073900E6B4F00208C60208BF121FA70208C612D3
:10074900200E0208C61200030208C6121F950208ED
:10075900C612203740030208C690E6B8E0247F603D
:100769001514601924027063A200E43325E0FFA286
:1007790002E4334F8041E490E740F0803F90E6BCCB
:10078900E0547EFF7E00E0D394807C0040047D012C
:1007990080027D00EC4EFEED4F2404F58274203E6C
:1007A900F583E493FF3395E0FEEF24A1FFEE34E6F1
:1007B9008F82F583E0540190E740F0E4A3F090E6DE
:1007C9008AF090E68B7402F00208C60208BF122074
:1007D9003940030208C690E6B8E024FE60162402F8
:1007E90060030208C690E6BAE0B40105C200020837
:1007F900C60208BF90E6BAE0705590E6BCE0547EA8
:10080900FF7E00E0D394807C0040047D0180027D5E
:1008190000EC4EFEED4F2404F58274203EF583E48E
:1008290093FF3395E0FEEF24A1FFEE34E68F82F5C6
:1008390083E054FEF090E6BCE05480131313541F78
:10084900FFE0540F2F90E683F0E04420F0806E80A3
:100859006512203B506790E6B8E024FE601A240236
:10086900705B90E6BAE0B40104D200805090E6BA19
:10087900E0B402028047803E90E6BCE0547EFF7EF1
:1008890000E0D394807C0040047D0180027D00EC6F
:100899004EFEED4F2404F58274203EF583E493FF68
:1008A9003395E0FEEF24A1FFEE34E68F82F58380D5
:1008B90008120EE5500790E6A0E04401F090E6A08A
:0408C900E04480F097
:0108CD002208
:0300330002202682
:0420260053D8EF326A
:101CD50090E682E030E004E020E60B90E682E0301A
:101CE500E119E030E71590E680E04401F07F147ECD
:0C1CF5000012192D90E680E054FEF02251
:101D2D0090E682E044C0F090E681F0438701000028
:041D3D000000002280
:101C4C0030070990E680E0440AF0800790E680E0D7
:101C5C004408F07FDC7E0512192D90E65D74FFF0D0
:0F1C6C0090E65FF05391EF90E680E054F7F0229E
:08201600E4F51CD2E9D2AF226F
:101B180090E678E020E6F9C2E990E678E04480F0C3
:101B2800EF25E090E679F090E678E030E0F990E68D
:101B380078E04440F090E678E020E6F990E678E036
:061B480030E1D6D2E922D3
:101BE900A90790E678E020E6F9E51C702390E678ED
:101BF900E04480F0E925E090E679F08D17AF03A97C
:101C0900077518018A19891AE4F51B751C01D32275
:021C1900C322E4
:101B8300A90790E678E020E6F9E51C702590E67851
:101B9300E04480F0E925E0440190E679F08D17AF49
:101BA30003A9077518018A19891AE4F51B751C0323
:041BB300D322C32254
:03004B00020DDDC6
:100DDD00C0E0C083C082C085C084C086758600C057
:100DED00D075D000C000C001C002C003C006C0074E
:100DFD0090E678E030E206751C06020EC790E678A4
:100E0D00E020E10CE51C64026006751C07020EC7AC
:100E1D00E51C24FE605F14603624FE7003020EB8DC
:100E2D0024FC7003020EC424086003020EC7AB1825
:100E3D00AA19A91AAF1B051B8F8275830012028890
:100E4D0090E679F0E51B65177070751C05806B9049
:100E5D00E679E0AB18AA19A91AAE1B8E827583002C
:100E6D001202C7751C02E5176401704E90E678E01A
:100E7D004420F08045E51724FEB51B0790E678E089
:100E8D004420F0E51714B51B0A90E678E04440F0D5
:100E9D00751C0090E679E0AB18AA19A91AAE1B8E45
:100EAD00827583001202C7051B800F90E678E0441F
:100EBD0040F0751C008003751C005391DFD007D0E6
:100ECD0006D003D002D001D000D0D0D086D084D0AF
:080EDD0085D082D083D0E03201
:021D0100A90730
:101D0300AE15AF168F828E83A3E064037017AD0107
:101D130019ED7001228F828E83E07C002FFDEC3E53
:091D2300FEAF0580DF7E007F00A9
:011D2C002294
:101E8B00121B83E51C24FA600E146006240770F302
:0C1E9B00D322E4F51CD322E4F51CD32272
:101EA700121BE9E51C24FA600E146006240770F380
:0C1EB700D322E4F51CD322E4F51CD32256
:10192D008E3F8F4090E600E054187012E540240180
:10193D00FFE4353FC313F53FEF13F540801590E6F7
:10194D0000E05418FFBF100BE54025E0F540E53FE2
:10195D0033F53FE5401540AE3F7002153F4E600533
:06196D00121D4180EE2274
:101D41007400F58690FDA57C05A3E582458370F9B5
:011D5100226F
:03004300021100A7
:0300530002110097
:10110000021DF800021F5800021F4200021F2A00A1
:10111000021AAA00021AE10002204400022045003F
:101120000220460002204700022048000220490019
:1011300002204A0002204B0002204C0002204D00F9
:1011400002204E000220450002204F0002205000E5
:1011500002205100022052000220530002205400BD
:1011600002205500022045000220450002204500D3
:101170000220560002205700022058000220590089
:1011800002205A0002205B0002205C0002205D0069
:1011900002205E0002205F00022060000220610049
:1011A0000220620002206300022064000220650029
:0811B000022066000220670026
:1000560002025AE86480F8E933E83360110460F07C
:10006600ED33EC337009E8FCE9FDEAFEEBFF220410
:1000760060DED3EB9FEA9EE99DE8C2E78CF0C2F70B
:1000860095F0400CE8CCF8E9CDF9EACEFAEBCFFBD7
:1000960012022585D0F05804700320D5B3E8047009
:1000A600075002B2D502026492D5EC0460F7E4CCA4
:1000B600C0E0C398F8603B94186008400DD0E0FBA0
:1000C60002023CE4FBFAC9FC8028E830E406E4C9F5
:1000D600FBE4CAFCE830E305E4C9CACBFCE85407F4
:1000E6006010F8C3E913F9EA13FAEB13FBEC13FCFF
:1000F600D8F130F52FC3E49CFCEF9BFFEE9AFEEDA2
:1001060099FDD0E0FBEF4E4D4C701222DB0302024C
:1001160061EC2CFCEF33FFEE33FEED33FDED30E703
:10012600EB02023CEF2BFFEE3AFEED39FDD0E0FB91
:1001360050130BBB0003020264ED13FDEE13FEEF3A
:0801460013FFEC13FC02023C64
:10014E00020264EC5D046005E85904700302025A71
:10015E00120225580460F6EC4860F2EC7004FDFEC5
:10016E00FF22C860DB2481C85009C3986002500684
:10017E000202619850CAF582E9294B4A7005AB829A
:10018E0002025075F0007C1A7880C3EF9BEE9AED58
:10019E0099400DC3EF9BFFEE9AFEED99FDE842F0FC
:1001AE00DC23ACF0D0E0FFD0E0FED0E0FDAB82204F
:1001BE00E7101BEB60BAEC2CFCEF33FFEE33FEEDD9
:1001CE0033FD02023CE803F830E705C0F075F0009D
:1001DE00EF2FFFEE33FEED33FD40B830E7C280AABD
:1001EE00EDD2E7CD33EC3392D524814006E4FFFE09
:1001FE00FDFC22FCE4CFCECDCC24E0501174FF8068
:10020E00EDC3CC13CCCD13CDCE13CECF13CF047004
:07021E00F030D5DE02033EC3
:10022500E9D2E7C933E833F892D5EDD2E7CD33EC1F
:0702350033FC5002B2D52298
:10023C00EC30E7100FBF000C0EBE00080DBD000423
:10024C000BEB6014A2D5EB13FCED92E7FD2274FFCF
:10025C00FCFDFEFF22E480F8A2D574FF13FC7D8028
:03026C00E480EF3C
:0300000002141ACD
:0C141A00787FE4F6D8FD75815C02146157
:10026F00BB010689828A83E0225002E722BBFE028D
:09027F00E32289828A83E49322C0
:10028800BB010CE58229F582E5833AF583E022502B
:1002980006E92582F8E622BBFE06E92582F8E22275
:0D02A800E58229F582E5833AF583E493228F
:1002B500BB010689828A83F0225002F722BBFE0128
:0202C500F32222
:1002C700F8BB010DE58229F582E5833AF583E8F06D
:1002D700225006E92582C8F622BBFE05E92582C819
:0202E700F22201
:1002E900BC000BBE0029EF8DF084FFADF022E4CCF9
:1002F900F875F008EF2FFFEE33FEEC33FCEE9DECC2
:10030900984005FCEE9DFE0FD5F0E9E4CEFD22ED07
:10031900F8F5F0EE8420D21CFEADF075F008EF2F51
:10032900FFED33FD4007985006D5F0F222C398FD42
:050339000FD5F0EA22DF
:0E033E00C3E49FFFE49EFEE49DFDE49CFC22D0
:10034C00D083D082F8E4937012740193700DA3A340
:10035C0093F8740193F5828883E473740293686054
:06036C00EFA3A3A380DF54
:1017F4008B448A458946E4F54CF54DE54B154BAED3
:101804004A7002154A4E6033AB47AA48A9491202EE
:101814006FFFAB44AA45A946054DE54DAC4C70029B
:10182400054C14F5828C83EF1202C7EF60CD74016E
:101834002549F549E43548F54880C0AB44AA45A993
:0218440046223A
:101F6E00E4FFFE12026F600C0FEF70010E09E970B4
:051F7E00F20A80EF22D1
:10037200EF4E6012EF60010EEDBB010B89828A83A2
:10038200F0A3DFFCDEFA2289F05007F709DFFCA9AF
:0C039200F022BBFEFCF309DFFCA9F02206
:1014260002138CE493A3F8E493A34003F68001F23D
:1014360008DFF48029E493A3F85407240CC8C333C7
:10144600C4540F4420C8834004F456800146F6DF96
:10145600E4800B0102040810204080901FB9E47E4E
:10146600019360BCA3FF543F30E509541FFEE4938B
:10147600A360010ECF54C025E060A840B8E493A352
:10148600FAE493A3F8E493A3C8C582C8CAC583CA7D
:10149600F0A3C8C582C8CAC583CADFE9DEE780BE35
:011FCA000016
:00000001FF
