:0A158800000102020303040405053C
:1006CF00E4F52DF52CF52BF52AC20AC207C209C293
:1006DF0008120A837E0F7F008E448F45754C0F756D
:1006EF004D1275420F75431C754A0F754B3C754E75
:1006FF000F754F6AEE54E07003020815752E0075E2
:10070F002F808E308F31C3749E9FFF740F9ECF2426
:10071F0002CF3400FEE48F298E28F527F526F52524
:10072F00F524F523F522AF29AE28AD27AC26AB254E
:10073F00AA24A923A822C3120D725026E52F25251E
:10074F00F582E52E3524F58374CDF0E5252401F5EA
:10075F0025E43524F524E43523F523E43522F52269
:10076F0080C4E4F525F524F523F522AF29AE28AD95
:10077F0027AC26AB25AA24A923A822C3120D725099
:10078F0033E5312525F582E5303524F583E0FFE5A6
:10079F002F2525F582E52E3524F583EFF0E5252469
:1007AF0001F525E43524F524E43523F523E435223A
:1007BF00F52280B7852E44852F4574002480FF7461
:1007CF000F34FFFEC3E54D9FF54DE54C9EF54CC331
:1007DF00E5479FF547E5469EF546C3E5499FF54931
:1007EF00E5489EF548C3E5439FF543E5429EF54234
:1007FF00C3E54B9FF54BE54A9EF54AC3E54F9FF581
:10080F004FE54E9EF54ED2E843D82090E668E0447F
:10081F0009F090E65CE0443DF0D2AF90E680E02036
:10082F00E105D20B12125190E680E054F7F0538E8F
:10083F00F8C20A3008051204ABC208300A29121593
:10084F00FB5024C20A12132C20071690E682E030C8
:10085F00E704E020E1EF90E682E030E604E020E0FC
:0C086F00E41212AD1215FD12098380C7BF
:1004AB0090E6B9E0700302055C1470030205D924D1
:1004BB00FE700302065C24FB7003020556147003E6
:1004CB00020550146073146076240560030206BBAA
:1004DB001215FF40030206C790E6BBE024FE602224
:1004EB0014603324FD601114602224067048E54427
:1004FB0090E6B3F0E5458037E54C90E6B3F0E54D7B
:10050B00802DE54690E6B3F0E5478023E54890E67D
:10051B00B3F0E549801990E6BAE0FF1212D9AA06AA
:10052B00A9077B01EA494B600DEE90E6B3F0EF9023
:10053B00E6B4F00206C70206C01214C80206C712C0
:10054B0015920206C71213750206C71214B60206DD
:10055B00C712160140030206C790E6B8E0247F607D
:10056B001514601924027063A207E43325E0FFA27F
:10057B0009E4334F8041E490E740F0803F90E6BCC4
:10058B00E0547EFF7E00E0D394807C0040047D012C
:10059B0080027D00EC4EFEED4F2488F58274153EF3
:1005AB00F583E493FF3395E0FEEF24A1FFEE34E6F1
:1005BB008F82F583E0540190E740F0E4A3F090E6DE
:1005CB008AF090E68B7402F00206C70206C0121680
:1005DB000340030206C790E6B8E024FE601624022F
:1005EB0060030206C790E6BAE0B40105C207020633
:1005FB00C70206C090E6BAE0705590E6BCE0547EA8
:10060B00FF7E00E0D394807C0040047D0180027D5E
:10061B0000EC4EFEED4F2488F58274153EF583E415
:10062B0093FF3395E0FEEF24A1FFEE34E68F82F5C6
:10063B0083E054FEF090E6BCE05480131313541F78
:10064B00FFE0540F2F90E683F0E04420F0806D80A4
:10065B0064121605506690E6B8E024FE6019240279
:10066B00705A90E6BAE0B40104D207804F90E6BA14
:10067B00E064026047803E90E6BCE0547EFF7E0063
:10068B00E0D394807C0040047D0180027D00EC4E21
:10069B00FEED4F2488F58274153EF583E493FF330A
:1006AB0095E0FEEF24A1FFEE34E68F82F583800800
:1006BB00120080500790E6A0E04401F090E6A0E025
:0306CB004480F078
:0106CE002209
:030033000215E8CB
:0415E80053D8EF32B3
:100B8100608028000101010101010107000000004E
:100B9100000000000707070707070707000000001C
:100BA1000000003F010101010101010700000000F7
:100BB10000000000070707070707070700000000FC
:100BC1000000003F8F01070101010107010003023D
:100BD100020202000701070707070707F200F200F8
:100BE1000000003F0F010F01010101070102050093
:100BF100000000000706070707070707F000F000DD
:100C01000000003F60242887000000000000000071
:100C110000000000000000000000000000000000D3
:100C2100000000000000000000000000472880E0F4
:060C3100000007BA4E00AE
:100C680090E60174BAF090E6F574FFF0902880E001
:100C780090E6F3F0902881E090E6C3F0902882E0B7
:100C880090E6C1F0902883E090E6C2F0902885E0D5
:100C980090E6C0F0902886E090E6F4F075AF07740F
:100CA80028F59A7400F59B759DE4E4F59EFF90E69F
:100CB8007BE090E67CF00FBF80F4E490E671F0F5FD
:100CC800B490E672E0547FF053B67F000000E490E1
:100CD800E6C4F000000090E6C5F0902887E090E6B2
:100CE800C6F0902888E090E6C7F0902889E090E662
:100CF800C8F090288AE090E6C9F090288BE090E64A
:100D0800CAF090288CE090E6CBF090288DE090E631
:0A0D1800CCF090288EE090E6CDF0BC
:010D220022AE
:100F0000120100020000004005160F8000000102DF
:100F100000010A0600020000004001000902200052
:100F200001010080320904000002FF0000000705F3
:100F300002020002000705860200020009022E00DC
:100F400001010080320904000004FF0000000705D1
:100F50000202400000070504024000000705860267
:100F600040000007058802400000040309040C0348
:100F70004100430043004500530024035500530043
:100F800042002D00440049004F002D003100360082
:100F90004100000000000000000000000000000010
:03004300020E00AA
:03005300020E009A
:100E000002141D000214630002144D000214350088
:100E100002114A00020DC200020DFF000216070077
:100E2000021608000216090002160A0002160B003C
:100E300002160C0002160D0002160E0002160F001C
:100E40000216100002160700021611000216120008
:100E500002161300021614000216150002161600E0
:100E600002161700021607000216070002160700F6
:100E7000021618000216190002161A0002161B00AC
:100E800002161C0002161D0002161E0002161F008C
:100E9000021620000216210002162200021623006C
:100EA000021624000216250002162600021627004C
:080EB0000216280002162900B9
:1012AD0090E682E030E004E020E60B90E682E0304C
:1012BD00E119E030E71590E680E04401F07F147EFF
:0C12CD00001210CA90E680E054FEF022EF
:10132C0090E682E044C0F090E681F0438701000033
:04133C00000000228B
:10125100300B0990E680E0440AF0800790E680E0D8
:101261004408F07FDC7E051210CA90E65D74FFF041
:0F12710090E65FF05391EF90E680E054F7F022A3
:0212D900A90763
:1012DB00AE4EAF4F8F828E83A3E064037017AD01C8
:1012EB0019ED7001228F828E83E07C002FFDEC3E86
:0912FB00FEAF0580DF7E007F00DC
:0113040022C6
:1010CA008E328F3390E600E054187012E533240113
:1010DA00FFE43532C313F532EF13F533801590E68A
:1010EA0000E05418FFBF100BE53325E0F533E53275
:1010FA0033F532E5331533AE32700215324E6005E0
:06110A0012134080EE22EA
:101340007400F58690FDA57C05A3E582458370F9C0
:01135000227A
:101110005553422D44494F2D313648005553422DE9
:101120004449313641005553422D444F3136410038
:101130005553422D44494F2D313641005553422DD0
:0A1140004F544845522D455252000D
:100C3700C100C103C101C105C184C182020D000009
:100C47004228AE00004128AD000214000001110047
:100C5700010B570116080118034228AB0000C10613
:0215FB00D322F9
:0215FD00D322F7
:0215FF00D322F5
:1013750000000090E6247402F0000000E490E625E9
:0E138500F0000000D20390E6BAE0F51AD32281
:1014B60090E740E51AF0E490E68AF090E68B04F0B7
:0214C600D3222F
:0815920090E6BAE0F50AD3224D
:1014C80090E740E50AF0E490E68AF090E68B04F0B5
:0214D800D3221D
:02160100D322F2
:02160300D322F0
:02160500D322EE
:0615490053B4F053B23F61
:07154F00908000E50BF02283
:1014FC00530BBF12154F430B4012154F6380202224
:0615C600530BDF02154F7C
:0615CC00430B2002154F45
:0615D200530BEF02154F60
:0615D800430B1002154F49
:1014DA00E51820E1064380025380FB530BF70215FF
:0114EA004FB2
:1014EB00E51820E1064380045380FD430B080215E9
:0114FB004FA1
:0715AA005380EF5318FE22ED
:101403005380F7E50B30E3085380FD4380048006E7
:0A1413004380025380FB5318FD22B2
:0715B10043801043180122E2
:0715B80043800E43180222DC
:0C1570005316FE530BFBE4F5B602154FBA
:0D155600431601430B0412154F75B6FF221A
:0C157C005316FD530BFD53B40F02154F26
:0D156300431602430B0212154F43B4F02251
:1014A3005316FB431608530BFE12154943B401436D
:0314B300B2C022A2
:10150C004316045316F7430B0112154943B40E222C
:0315EC0002150CD9
:0315EF000214A340
:0315F200AFB12274
:0315F5008FB12291
:0715BF00E5A0C4540FFF2258
:0F152C00EF540FC454F0FFE5A0540F4FF5A02269
:08159A00E5A0540EC313FF226B
:0E153B00EF540725E0FFE5A054F14FF5A02284
:0F151C00E58054C0C4135407FFE5A054014FFFEE
:01152B00229D
:1013E800EF5406C43354E0FEEF5401FFE580543F48
:0A13F8004EF580E5A054FE4FF5A06D
:0114020022C7
:0415DE007F02DFFEAB
:0115E20022E6
:0415E3007F28DFFE80
:0115E70022E1
:04128000AB07AA0608
:10128400EB7802C333CE33CED8F9FBAA067D0EEA3F
:101294003392A1EB25E0FBEA33FAD2A21215DEC2A7
:0812A400A21215DEDDE9AF0323
:0112AC00221F
:10139300E4FE7D08D2A21215DEEE25E0FEA2A0E453
:0C13A300334206C2A21215DEDDEAAF06DE
:0113AF00221B
:0315F80002152CAD
:101351001215F85305EFAF05EFAD03F512EDF513D7
:10136100C2A3FFAE121212808F17D2A31215E3C2CD
:04137100A3AF1722ED
:101305001215F8430510AF05EF751300F512C2A3CA
:10131500AF13FE1212808F17D2A31215DEC2A3AF30
:071325001C1213938F172225
:10147900750B5312154F1214A312157C1214EB128B
:051489001570021403C0
:06102C008B328A33893487
:10103200E4F53512148E8F36E53625E02402900F42
:101042007AF0E4F535AF36EF3395E0FEC3E5359F30
:10105200EE6480F87480985027AB32AA33A93485A5
:101062003582758300120D23FDE53575F002A42447
:101072007CF9740F35F08982F583EDF0053580C572
:01108200224B
:100A83001215A290E678E05410C4540F4450F50CAC
:100A930013E433F51B7AE779407F40AB077D017F91
:100AA300037E00120EB890E740E0540FF519900F43
:100AB3000AF024F3601214601714601C24037020DE
:100AC3007BFF7A117910801E7BFF7A11791C8016C7
:100AD3007BFF7A117926800E7BFF7A1179308006AD
:100AE3007BFF7A11793C12102C1215B11215B81232
:100AF300157012157C1214A31214DA90E600E05458
:100B0300E74410F000000090E61274A0F00000002B
:100B1300E490E613F000000090E61474E0F00000A7
:100B230000E490E615F090E6047480F00000007491
:100B330002F00000007406F0000000E4F000000082
:100B430090E618F00000007411F000000090E61A1F
:100B53007409F0000000120C68E490E672F090E66D
:100B630071F000000090E6D204F000000090E6E28D
:0E0B730004F0D2071214FC43B23E5380DF227E
:10098300E4FDFC200146E5BB30E741E5AB20E13C5B
:1009930000000090E690E0FC00000090E691E0FD8E
:1009A300000000ECC313FCED13FDEC90E6D0F00067
:1009B3000000AF05EF90E6D1F0000000E4F5BB00C6
:1009C3000000E5BB30E7030080F80000300151E58B
:1009D300BB30E728E5117024E5AC20E043000000BC
:1009E30090E6D07402F0000000E490E6D1F000003D
:1009F3000075110175BB060000008024E5BB30E7DC
:100A03001FE511B4011A00000090E6AFE064026034
:100A13000690E6B0E0600690E6487406F0E4F5114F
:100A2300300642208637200034D2001214FC90E6B0
:100A3300047480F00000007402F00000007406F0FB
:100A4300000000E4F000000090E6917480F00000E4
:100A530000F0000000F0000000F000000030860508
:100A6300300002C200E58070047F0180027F00EF46
:0F0A730090E68030E005E04408F022E054F7F010
:010A82002251
:10008000E4F532F53390E6B9E0120D83017010010A
:100090009C1100CC1200C01302173402283502282C
:1000A000360222380325A20325A301F3B402EFBBD5
:1000B0000306BC0269BD01C1C001DFC1000004A785
:1000C00090E740E516F0A3E5180201B5E490E68A52
:1000D000F090E6BEE090E68BF090E6A0E020E1F93B
:1000E00090E744E030E00512155680031215709039
:1000F000E744E030E105121563800312157C90E7B8
:1001000044E030E20512150C80031214A390E7447A
:10011000E030E3051215EF80031215EC90E740E0A4
:10012000FF1215F5A3E0FF12152CA3E0FF12153BFB
:10013000A3E0FF1213E890E6BDE0FF90E6BCE04FBD
:10014000700C90E6BAE075F003A490E745F090E7F4
:1001500045E030E0051215B180031215AA90E7457D
:10016000E030E1061215B80204A91214030204A932
:1001700090E6BEE090E68BF090E6A0E020E1F990FA
:10018000E740E0FF1215F5A3E0FF12152CA3E0FFF6
:1001900012153BA3E0FF1213E80204A91215F29016
:1001A000E740EFF01215BFA3EFF012159AA3EFF09E
:1001B00012151CA3EFF0E490E68AF090E6BEE08012
:1001C0001790E6BDE0FF90E6BCE0FD90E6BAE0FBEC
:1001D000121351E490E68AF090E68BF00204A990A5
:1001E000E6BDE0FF90E6BCE0FD12130590E740EFAE
:1001F000F08069E5BB5480FF90E6F4E054044F9032
:10020000E740F0E4A3F0A3F0A3F090E68AF090E6D4
:100210008B7404F00204A9D20690E68B7401F002FC
:1002200004A990E6F574FFF0C2061214FC90E604EF
:100230007480F00000007482F00000007486F0000A
:100240000000E4F000000090E6917480F0000000EF
:10025000F0000000F0000000F0000000E490E68AEA
:10026000F090E68B04F00204A9E490E68AF090E6B0
:10027000BEE090E68BF090E6A0E020E1F990E74147
:10028000E09028ABF090E742E09028ACF090E74097
:10029000E030E00C1215D29028ACE04403F0800A64
:1002A0001215D89028ACE04402F07A287BAB7D028E
:1002B0007F171213CC90E743E09028ABF090E7440F
:1002C000E09028ACF090E740E030E10C1215C690C9
:1002D00028ACE04403F0800A1215CC9028ACE0442E
:1002E00002F07A287BAB7D027F161213CC802CC2E1
:1002F000011214EB90E6F574FFF0E490E68AF090BA
:10030000E68B04F08015D2011214DA90E6F574FF42
:10031000F0E490E68AF090E68B04F090E6A0E044EA
:1003200080F00204A990E6BAE0753400F535A3E048
:10033000FEEE423490E6BEE0753600F537A3E0FEEF
:10034000EE423690E6B8E064C06003020411E5377F
:10035000453670030204A990E6A0E020E1F9C3E568
:10036000379440E536940050088536388537398013
:100370000675380075394090E6B9E0B4A335E4F568
:100380003AF53BC3E53B9539E53A9538505EE5359E
:10039000253BF582E534353AF583E0FF7440253B93
:1003A000F582E434E7F583EFF0053BE53B70D405D7
:1003B0003A80D0E4F53AF53BC3E53B9539E53A950B
:1003C0003850187440253BF582E434E7F58374CD4A
:1003D000F0053BE53B70E1053A80DDAD397AE77920
:1003E000407F40AB07AF35AE34120EB8E490E68ADA
:1003F000F090E68BE539F02535F535E5383534F5FF
:1004000034C3E5379539F537E5369538F5360203C7
:100410004E90E6B8E0644060030204A9E537453633
:1004200070030204A9E490E68AF090E68BF090E66F
:10043000A0E020E1F990E68BE0753800F53990E610
:10044000B9E0B4A335E4F53AF53BC3E53B9539E5AE
:100450003A953850367440253BF582E434E7F5830D
:10046000E0FFE535253BF582E534353AF583EFF0DD
:10047000053BE53B70D4053A80D0AD397AE7794049
:100480007F40AB07AF35AE341211B6E5392535F5EF
:1004900035E5383534F534C3E5379539F537E53684
:0A04A0009538F53602041CD322C380
:0104AA00222F
:10141D00C0E0C083C082D2085391EF90E65D7401A5
:08142D00F0D082D083D0E03240
:10144D00C0E0C083C0825391EF90E65D7404F0D08C
:06145D0082D083D0E032D2
:10146300C0E0C083C0825391EF90E65D7402F0D078
:0614730082D083D0E032BC
:10114A00C0E0C083C082854A46854B478547828571
:10115A004683A37402F085424885434985498285BE
:10116A004883A37407F05391EF90E65D7410F0D0B2
:06117A0082D083D0E032B8
:10143500C0E0C083C082D20A5391EF90E65D740884
:08144500F0D082D083D0E03228
:100DC200C0E0C083C08290E680E030E720854246E2
:100DD200854347854782854683A37402F0854A4846
:100DE200854B49854982854883A37407F05391EF67
:0D0DF20090E65D7420F0D082D083D0E03216
:010DFF0032C1
:0116070032B0
:0116080032AF
:0116090032AE
:01160A0032AD
:01160B0032AC
:01160C0032AB
:01160D0032AA
:01160E0032A9
:01160F0032A8
:0116100032A7
:0116110032A6
:0116120032A5
:0116130032A4
:0116140032A3
:0116150032A2
:0116160032A1
:0116170032A0
:01161800329F
:01161900329E
:01161A00329D
:01161B00329C
:01161C00329B
:01161D00329A
:01161E003299
:01161F003298
:011620003297
:011621003296
:011622003295
:011623003294
:011624003293
:011625003292
:011626003291
:011627003290
:01162800328F
:01162900328E
:06108300AB07AA06AC0554
:10108900E4FDE51B600F7E000DEE24B0F582E4342B
:1010990028F583EAF0AE050D74B02EF582E4342804
:1010A900F583EBF0AF050D74B02FF582E43428F524
:1010B90083ECF07A287BB0AF0C1213CCAF0C021181
:0110C90080A6
:0A11B6008E3C8F3D8D3E8A3F8B403A
:1011C000E4F541E541C3953E5020053DE53DAE3C8B
:1011D0007002053C14FFE5402541F582E4353FF5FA
:0A11E00083E0FD121083054180D961
:0111EA0022E2
:0A0EB8008E3C8F3D8D3E8A3F8B403B
:100EC200E4FDF541E51B6012E53CFF7E000DEE24DA
:100ED200B0F582E43428F583EFF0AE050D74B02E40
:100EE200F582E43428F583E53DF07A287BB0AF0C37
:0E0EF2001213CCAB40AA3FAD3EAF0C0213B0C2
:0815A200E4F555D2E9D2AF22B5
:1011800090E678E020E6F9C2E990E678E04480F065
:10119000EF25E090E679F090E678E030E0F990E62F
:1011A00078E04440F090E678E020E6F990E678E0D8
:0611B00030E1D6D2E92275
:10121F00A90790E678E020E6F9E555702390E67887
:10122F00E04480F0E925E090E679F08D50AF03A916
:10123F00077551018A528953E4F554755501D3222C
:02124F00C322B8
:1011EB00A90790E678E020E6F9E555702590E678BA
:1011FB00E04480F0E925E0440190E679F08D50AFB2
:10120B0003A9077551018A528953E4F554755503A7
:04121B00D322C322F5
:03004B0002087B2D
:10087B00C0E0C083C082C085C084C086758600C0BE
:10088B00D075D000C000C001C002C003C006C007B5
:10089B0090E678E030E20675550602096590E67839
:1008AB00E020E10CE5556402600675550702096509
:1008BB00E55524FE605F14603624FE700302095672
:1008CB0024FC700302096224086003020965AB5122
:1008DB00AA52A953AF5405548F82758300120D236E
:1008EB0090E679F0E55465507070755505806B9006
:1008FB00E679E0AB51AA52A953AE548E82758300B0
:10090B00120D50755502E5506401704E90E678E07B
:10091B004420F08045E55024FEB5540790E678E07E
:10092B004420F0E55014B5540A90E678E04440F0CA
:10093B0075550090E679E0AB51AA52A953AE548E8F
:10094B0082758300120D500554800F90E678E044B9
:10095B0040F075550080037555005391DFD007D0DB
:10096B0006D003D002D001D000D0D0D086D084D016
:08097B0085D082D083D0E03268
:1013B0001211EBE55524FA600E146006240770F351
:0C13C000D322E4F555D322E4F555D322E6
:1013CC0012121FE55524FA600E146006240770F300
:0C13DC00D322E4F555D322E4F555D322CA
:03000000020FA04C
:0C0FA000787FE4F6D8FD758155020FE75C
:100D2300BB010CE58229F582E5833AF583E0225085
:100D330006E92582F8E622BBFE06E92582F8E222CF
:0D0D4300E58229F582E5833AF583E49322E9
:100D5000F8BB010DE58229F582E5833AF583E8F0D9
:100D6000225006E92582C8F622BBFE05E92582C885
:020D7000F2226D
:100D7200EB9FF5F0EA9E42F0E99D42F0E89C45F0D7
:010D8200224E
:100D8300D083D082F8E4937012740193700DA3A3FF
:100D930093F8740193F5828883E473740293686013
:060DA300EFA3A3A380DF13
:10148E00E4FFFE120DA9600C0FEF70010E09E9705A
:05149E00F20A80EF22BC
:100FAC000206CFE493A3F8E493A34003F68001F286
:100FBC0008DFF48029E493A3F85407240CC8C33346
:100FCC00C4540F4420C8834004F456800146F6DF15
:100FDC00E4800B0102040810204080900B81E47E19
:100FEC00019360BCA3FF543F30E509541FFEE4930A
:100FFC00A360010ECF54C025E060A840B8E493A3D1
:10100C00FAE493A3F8E493A3C8C582C8CAC583CAFB
:10101C00F0A3C8C582C8CAC583CADFE9DEE780BEB3
:010C6700008C
:100DA900BB010689828A83E0225002E722BBFE0248
:090DB900E32289828A83E493227B
:00000001FF
