:1001000012010002000000400516038001000102F8
:020110000001EC
:0A0114000A0600020000004001008E
:1001200009021200010100A0FA0904000000FF000A
:020130000000CD
:1001340009021200010100A0FA0904000000FF00F6
:100144000000120341004200430044004500460001
:100154004700480026034100430043004500530084
:10016400200049002F004F002000500072006F0053
:10017400640075006300740073001E03550053008F
:1001840042002D00440049004F002D003900360084
:0A0194000000000000000000000061
:1015DE005553422D44494F2D3438005553422D4416
:1015EE00494F2D3936004143434553205553422D23
:0115FE0000EC
:0226B900C10757
:1011D8007B007A00792212197AE4FD74222DF8E650
:1011E800FF745B2DF8E66FF9E4FC74017E00A80437
:1011F800088005C333CE33CED8F9FFE9FBEF5B7027
:101208000302128F745B2DF8E6FB7A0074017E00EE
:10121800A804088005C333CE33CED8F9FFEE5AFEB2
:10122800EF5B4E6023ED75F008A42CFF25E024D079
:10123800F582E43428F583E0FAA3E0FBEF25E02407
:1012480015F582E4342A8021ED75F008A42CFF25D9
:10125800E024D0F582E43428F583E0FAA3E0FBEF3C
:1012680025E02400F582E43428F583EAF0A3EBF0C6
:10127800ED75F008A42C25E024D0F582E43428F597
:1012880083E4F0A3F08040ED75F008A42C25E02459
:10129800D0F582E43428F583E0FEA3E02401FFE4DE
:1012A8003EFEC3EF94FEEE94FF500280047EFF7F63
:1012B800FEED75F008A42C25E024D0F582E434284E
:1012C800F583EEF0A3EFF00CEC640860030211F272
:1012D80074222DF8E6FF745B2DF8A6070DED640C5B
:0512E80060030211E3A8
:0112ED0022DE
:0813F6008B338A3489358D36F2
:1013FE007D02E4F537E53675F008A4FCE537C394B5
:10140E000840030214B3EC25E02415F582E4342AD7
:10141E00F583A3E0AB33AA34A935AE050D8E8275E4
:10142E0083001207A5EC25E02415F582E4342AF595
:10143E0083E0AE050D8E827583001207A5EC25E0C4
:10144E002400F582E43428F583A3E0AE050D8E82E8
:10145E007583001207A5EC25E02400F582E43428FC
:10146E00F583E0AE050D8E827583001207A5EC257F
:10147E00E024D0F582E43428F583A3E0AE050D8E8A
:10148E00827583001207A5EC25E024D0F582E434A2
:10149E0028F583E0AE050D8E827583001207A50533
:1014AE00370C02140A745B2536F8E6AB33AA34A95E
:1014BE0035AE050D8E827583001207A5ED120793CA
:1014CE00AB33AA34A935900001E41207A5E490E6E7
:1014DE008AF090E6BEE090E68BF090E6A0E04480C5
:0114EE00F00D
:0114EF0022DA
:1022FA003007031211D8902996E0600312186F90E4
:10230A002998E06003121A649029AAE0600312195E
:10231A00F39029ECE060099029ABE06003121CA756
:01232A002290
:04002E0043B1202298
:0400460053B1DF22B1
:04004E0063B1202258
:101FDD00EF5407FE7401A806088002C333D8FCFE37
:101FED00EF131313540FFFD3940540020F0FED6041
:101FFD000DE42FF582E43480F583E04EF022E42FDA
:0F200D00F582E43480F583E0FFEEF4FEEF5EF041
:01201C0022A1
:061BA1008B388A39893AF5
:101BA700E4FFAB38AA39A93A8F827583001207661A
:101BB700FE74EF2FF582E43429F583EEF0E42FF578
:101BC70082E43480F583EEF0300825EF2406F582B1
:101BD700E433F583120766FE74F52FF582E43429A2
:101BE700F583EEF074082FF582E43480F583EEF088
:041BF7000FBF06AE68
:011BFB0022C7
:1023B900EF131313541FFEE42EF582E43480F583E2
:1023C900E0FEEF5407FF7401A807088002C333D861
:0C23D900FC5206EE60047F0180027F00D1
:0123E50022D5
:10197A00908000E0120793908001E0900001120726
:10198A00A5908002E09000021207A5908003E090E3
:10199A0000031207A5908004E09000041207A590A6
:1019AA008005E09000051207A530083C908008E009
:1019BA009000061207A5908009E09000071207A57B
:1019CA0090800AE09000081207A590800BE0900032
:1019DA00091207A590800CE090000A1207A59080D2
:0919EA000DE090000B1207A5228C
:10000E0030080F900001120766F4540F9029EEF09D
:0D001E00F59012074DF49029EDF0F58022C9
:10243E00E4FF74EF2FF582E43429F58374FFF07412
:10244E00F52FF582E43429F58374FFF00FBF06E211
:0A245E009029ED74FFF0A3740FF055
:012468002251
:101C53007580FF75900F75B2FF75B31F75B6209031
:101C630029EDE0F580A3E0540FF590E4FF74EF2F26
:101C7300F582E43429F583E0FEE42FF582E4348031
:101C8300F583EEF030081874F52FF582E43429F566
:101C930083E0FE74082FF582E43480F583EEF00FC1
:031CA300BF06CAAF
:011CA600221B
:1018FA00EF131313541FFEED131313541FFC530756
:10190A000753050774C42EF582E43428F583E0FBF7
:10191A007A0074017E00A807088005C333CE33CE4F
:10192A00D8F9FFEE5AFEEF5B4E6003D38001C392F3
:10193A0005300402B20530051A74C42CF582E43469
:10194A0028F583E0FF7401A805088002C333D8FC98
:10195A004FF02274C42CF582E43428F583E0FFAEFC
:0F196A00057401A806088002C333D8FCF45FF0AF
:01197900224B
:10211300E4FFE42FF582E43480F583E0FE74C42FFA
:10212300F582E43428F583EEF030081874082FF5AF
:1021330082E43480F583E0FE74CA2FF582E4342808
:08214300F583EEF00FBF06CAA0
:01214B002271
:10214C00E4FF74C42FF582E43428F583E0FEE42F19
:10215C00F582E43480F583EEF030081874CA2FF55C
:10216C0082E43428F583E0FE74082FF582E4348091
:08217C00F583EEF00FBF06CA67
:012184002238
:10218500E4FF74FD2FF582E43429F583E0FEE42FA6
:10219500F582E43480F583EEF030081874032FF5EA
:1021A50082E4342AF583E0FE74082FF582E4348056
:0821B500F583EEF00FBF06CA2E
:0121BD0022FF
:1024FF00E4FF74FD2FF582E43429F58374FFF03087
:10250F00080D74032FF582E4342AF58374FFF00F5E
:03251F00BF06DF15
:012522002296
:0100320022AB
:101E7E007AE779407F40AB077D017F037E00121D1C
:101E8E005390E740E064D06005E090010AF090E7DF
:101E9E0040E024FD600F0470147BFF7A1579DE128A
:101EAE001BFCC208227BFF7A1579E980067BFF7A3C
:091EBE001579F4121BFCD2082274
:10201D00E4FFEF25E02415F582E4342AF583E4F09E
:10202D00A3F0EF25E02400F582E43428F583E4F0F5
:10203D00A3F0EF25E024D0F582E43428F583E4F015
:0F204D00A3F00FBF60CC7B007A00795B02197A99
:1026E50090E600E054E74410F0E58E54F84407F511
:0426F5008E02201D14
:01004A002293
:01005200228B
:1008B500D209120F205003020B5890E6B9E024EE3E
:1008C5006056147003020ABA24F4700302098E24D8
:1008D500EF7003020AC924126003020B5690E6B8B2
:1008E500E030E72490E6BDE0FF7B017AE7794090B0
:1008F500E6BCE0FD1213F690E6BAE064016003027F
:100905000B5812201D020B5890E6BAE0B40103D330
:100915008001C39207020B58E490E68AF090E6BE88
:10092500E090E68BF090E6A0E020E1F93008047F46
:100935000C80027F068F3290E6BDE0FF90E6BCE0BA
:100945004F701B74402532F9E434E7FA7B01C0038C
:10095500C002C0018B367537E67538BA8019744008
:100965002532F9E434E7FA7B01C003C002C0018BEC
:10097500367537E7753841D001D002D00312000E25
:100985007B017AE77940020AB490E6B8E030E73BAC
:100995003008047F0280027F0190E740EFF03008C5
:1009A500047F0C80027F0690E741EFF09029EDE08F
:1009B50090E742F0E490E68AF090E6BEE090E68BA0
:1009C500F090E6A0E04480F0020B587B017A2A798A
:1009D5000912197A90E6BEE090E68BF090E6A0E069
:1009E50020E1F990E740E0300832FF90E742E05F10
:1009F500FF90E740E0FE9029EDE05E4F9028C0F0C3
:100A050090E741E0FF90E743E05FFF90E741E0FEBC
:100A15009029EEE05E4F9028C1F08016F4FF9029F2
:100A2500EDE0F45FFF90E740E0FEA3E05E4F902825
:100A3500C0F0E4F5323008047F0C80027F06E53211
:100A4500C39F50553008047F0C80027F06E5322F86
:100A55002442F582E434E7F583E0FF74422532F55C
:100A650082E434E7F583E0FEEF5EFF74422532F55C
:100A750082E434E7F583E0F4FE74092532F582E477
:100A8500342AF583E05E4FFF74092532F582E4349C
:100A95002AF583EFF00532809C7536017537287588
:100AA50038C27B017A2879C012000E7A2A79091298
:100AB5001BA1020B58E580F490E740F0E590F45453
:100AC5001FA3807DE4F53274EF2532F582E43429E5
:100AD500F583E0FF74402532F582E434E7F583EFD2
:100AE500F030081A74F52532F582E43429F583E0EF
:100AF500FF74462532F582E434E7F583EFF00532DD
:100B0500E532B406C29029EDE0F4FFA208E4FC3317
:100B1500FD90E74675F00612082AEC75F006A42547
:100B250083F583EFF09029EEE0F4541FFF90E7473B
:100B350075F006ED12082AEC75F006A42583F583F9
:100B4500EFF0E490E68AF090E6BEE090E68BF08068
:040B550002D322C3E2
:010B59002279
:10266D005646656220323820323031374031323AA9
:0B267D0032323A32350000000000004D
:1026BB000217268402080000010F01010C01010A18
:0426CB00010114FFF6
:10268800902993E0FF7006902992E06008902992C3
:09269800E0FD0225FE122770226C
:102546007E007F797D007B017A2979901208899037
:102556002990740AF0E4A3F012243E121C530225BB
:0125660087ED
:1025E2007D02121D4B902990E0B40A04A3E060031F
:0C25F2000225467D79121D4B121C53225D
:10258700902990740AF0E4A3F07A297B907D797FF3
:0F259700017E1F12222D7D797F007E1F02276D8E
:101ACF0012268890E6BEE0F543754502E543605760
:101ADF00C3944050058543448003754440E490E629
:101AEF008AF090E68BE544F090E6A0E020E1F9E47F
:101AFF00F542E542C39544502574402542F582E4F2
:101B0F0034E7F583E0FFAE450545EE7C007B01240D
:101B1F0090F9EC3429FAEF120793054280D4C3E50C
:0A1B2F00439544F54380A502268883
:1000560090E6B8E030E745E4F539F538E538C3947D
:100066000E50247E007B0174ED2538F9EE3429FA12
:1000760012074DFF74402539F582E434E7F583EF26
:10008600F00538053980D5E490E68AF090E6BEE0C2
:1000960090E68BF090E6A0E04480F02290E6BEE089
:1000A60090E68BF090E6A0E020E1F990E6BEE064F1
:1000B6000E6003C20922E4F538F539E538C3940E1B
:1000C600502474402539F582E434E7F583E0FFE5F2
:1000D600387C007B0124EDF9EC3429FAEF12079302
:1000E6000538053980D590E6BAE0B4CE08A3E0B469
:0500F600AC0312258798
:0100FB0022E2
:0F272D00D3E51A950EE519950D400312273C22AE
:0115FF0022C9
:10252300902995E0FE902994E07C002400F50EECC0
:102533003EF50D450E7007C28CC2A9C20A22D28C89
:03254300D2A922F8
:01277B00223B
:101F990090E6BEE090E68BF090E6A0E020E1F9E45F
:101FA900FF74422FF582E434E7F583E0FEEF7C000D
:101FB9007B0124FBF9EC3429FAEE1207930FBF0ECB
:101FC900E090E740E0902994F090E741E09029956E
:041FD900F0022523CA
:0F273C00122185E4F512F513F519F51AD20A22C8
:1025A600C20AE4F512F513F519F51AC28CC2A9533D
:0E25B6008EF75389F143890112277B022523FA
:10209B00E50945086019E50915097002150814C30F
:1020AB0094FFE50864809480501C12004680173022
:1020BB0009147508057509FF12002EC209E4F51203
:0B20CB00F513F519F51A300A02D209CE
:0120D60022E7
:10109D0090E6B8E020E703021152E4F53990299467
:1010AD00E0FFAE39053974402EF582E434E7F5835F
:1010BD00EFF0902995E0FFAE39053974402EF58299
:1010CD00E434E7F583EFF0E4F538E538C3940E50DA
:1010DD00247E007B0174FB2538F9EE3429FA1207C2
:1010ED004DFF74402539F582E434E7F583EFF005C3
:1010FD0038053980D5AE39053974402EF582E43482
:10110D00E7F583E51AF0E519FFAE39053974402E80
:10111D00F582E434E7F583EFF0A20AE433FFAE394C
:10112D00053974402EF582E434E7F583EFF0C20AF9
:10113D00E490E68AF090E6BEE090E68BF090E6A0B3
:10114D00E04480F02290E6BEE090E68BF090E6A0C1
:10115D00E020E1F9C20A90E6BEE064106003C20926
:10116D0022E4F539AF39053974402FF582E434E7BF
:10117D00F583E0902994F0AF39053974402FF5824D
:10118D00E434E7F583E0902995F0E4F538E538C3CC
:10119D00940E502474402539F582E434E7F583E04C
:1011AD00FFE5387C007B0124FBF9EC3429FAEF12C2
:1011BD0007930538053980D512252390E6BAE0B49A
:0A11CD00CE08A3E0B4AC031225879E
:0111D70022F5
:0400FC00750F012259
:101B390012268890E6BEE0F543E4F545E543605793
:101B4900C3944050058543448003754440E490E6BE
:101B59008AF090E68BE544F090E6A0E020E1F9E414
:101B6900F542E542C39544502574402542F582E487
:101B790034E7F583E0FFAE450545EE7C007B0124A3
:101B8900ABF9EC3429FAEF120793054280D4C3E587
:071B9900439544F54380A5CC
:011BA0002222
:101CA700150FE50F704B9029ABE0F50F122113E4E8
:101CB700F5229029ECE0FFE522C39F5031E522256C
:101CC700E024ACF582E43429F583E0F523E5222509
:101CD700E024ADF582E43429F583E0F524547FFD53
:101CE700E524339204AF231218FA052280C4122187
:011CF7004CA0
:011CF80022C9
:1025670090E6BEE090E68BF090E6A0E020E1F990DF
:10257700E740E0902996F090E741E0902997F02214
:10186F00150CE50C60030218F9902996E0F50C7B36
:10187F00017A2B796712197AE4FFFE74672EF582CD
:10188F00E4342BF583E0FD74D52EF582E4342AF58C
:10189F0083E06DF97D01E4FCECC394085046E95DEB
:1018AF00602974E12FF582E4342AF583E014F07493
:1018BF00E12FF582E4342AF583E0702074D52EF5FC
:1018CF0082E4342AF583E06DF08000902997E0FBE5
:1018DF0074E12FF582E4342AF583EBF00CED25E06B
:0A18EF00FD0F80B40EEE640C709142
:0118F90022CC
:1026A10090E6BEE090E68BF090E6A0E020E1F990A4
:0826B100E740E0902998F022B7
:1021BE00E4F515FF74412FF582E4342BF583E0FE30
:1021CE00745B2FF582E4342BF583EEF074412FF51A
:1021DE0082E4342BF583E0FE744F2FF582E4342B2A
:0821EE00F583EEF00FBF0CCCED
:0121F60022C6
:101A6400150AE50A7064902998E0F50A7B017A2B3F
:101A7400794112197AE4FF745B2FF582E4342BF573
:101A840083C083C082E0FE74412FF582E4342BF5D9
:101A940083E0FDEE5DD082D083F0744F2FF582E4B5
:101AA400342BF583C083C082E0FE74412FF582E4B9
:101AB400342BF583E0FDEE4DD082D083F00FBF0CC4
:0A1AC400B6E515C394FF50020515A6
:011ACE0022F5
:042765007514FF22C6
:1019F300E4F5220514F5229029AAE0FFE522C39F0E
:101A03005054E52225E0249BF582E43429F583E054
:101A1300C39514501EE52225E0249AF582E4342967
:101A2300F583E0FE547FFFEE30E7047D0080207DE8
:101A330001801CE52225E0249AF582E43429F5830C
:101A4300E0FE547FFFEE30E7047D0180027D00124B
:101A53001FDD052280A1902999E0B51403E4F51454
:011A63002260
:1022960090E6BEE090E68BF090E6A0E020E1F9E45F
:1022A600FF74402FF582E434E7F583E0FEEF7C000F
:1022B6007B012499F9EC3429FAEE1207930FBF1229
:0122C600E037
:0122C70022F4
:0416B8008E428F438C
:1016BC00E4F544E54364024542700C90E741F0E5E3
:1016CC0043154370021542E5436401454270169080
:1016DC00E7407479F090E6BEE090E68BF0E54315B8
:1016EC004370021542E5434542605D90E6A0E02060
:1016FC00E1F9C3E5439440E54294005004AD4380C6
:10170C00027D40E4FFEFC39D5025AE440544EE75C9
:10171C0083007B012490F9E5833429FA12074DFEEE
:10172C0074402FF582E434E7F583EEF00F80D6E4B5
:10173C0090E68AF090E68BEDF0FFC3E5439FF5430E
:08174C00E5429400F542809D86
:011754002272
:10019E0090E6B8E030E76390E6BFE0FE90E6BEE0A2
:1001AE00FDEDFF4E7002804D90E6BDE0FD90E6BC89
:1001BE00E04D70030216B890E6BDE0600302053311
:1001CE0090E6BCE01460030205337545FF754626C4
:1001DE0075476D75480075491E7B017AE7794112A6
:1001EE001CF97B017AE779401226D0EF0490E740A4
:1001FE00F090E6BEE090E68BF02290E6BFE0FF9036
:10020E00E6BEE04F707790E6BDE0704D90E6BCE044
:10021E0024EF6023249F603024FD603324F3603488
:10022E002472703590E6BAE064CE702DA3E064AC13
:10023E007027122587802290E6BAE0B4CE1BA3E089
:10024E00B4AC161225468011E49029AAF0800A75E6
:10025E0014FF8005E49029ECF090E6BDE064806028
:10026E000302053390E6BCE064016003020533909F
:10027E00E6BAE0902992F090E6BB02034D90E6BFFD
:10028E00E0600302053390E6BDE0FE90E6BCE07C44
:10029E00002400FFEC3EFEEF8EF012085C02F3002D
:1002AE002002F3002102F3002202F30023032800B0
:1002BE002F03550041036300510371005303910056
:1002CE0061039F006303BF007103CD007303ED0054
:1002DE007404430081045100830471008404C880B7
:1002EE00010000053390E6BEE0B47703121ACF90FA
:1002FE00E6BCE030E003121C5390E6BCE020E103C4
:10030E0002053390E6BAE064CE6003020533A3E043
:10031E0064AC600302053302258790E6BEE06402FA
:10032E006003020533E090E68BF090E6A0E020E15A
:10033E00F912268890E740E0902992F090E741E08C
:10034E00902993F002053090E6BEE064106003023F
:10035E000533021F9990E6BEE06402600302053386
:10036E0002256790E6BEE064016003020533E0906B
:10037E00E68BF090E6A0E020E1F990E740E09029CE
:10038E0096F02290E6BEE064016003020533022679
:10039E00A190E6BEE064016003020533E090E68BB7
:1003AE00F090E6A0E020E1F990E740E0902998F087
:1003BE002290E6BEE064126003020533022296909C
:1003CE00E6BEE064016003020533E090E68BF09038
:1003DE00E6A0E020E1F990E740E0902999F0229024
:1003EE00E6BEE0640260030205339029AAE0C394DE
:1003FE0008400302053390E6BEE090E68BF090E6EF
:10040E00A0E020E1F990E740E0FF9029AAE0FE2568
:10041E00E02498F582E43429F583EFF090E741E08B
:10042E00FFEE25E02499F582E43429F583EFF09070
:10043E0029AA0204C490E6BEE064426003020533BA
:10044E00021B3990E6BEE064016003020533E090C2
:10045E00E68BF090E6A0E020E1F990E740E09029ED
:10046E00ABF02290E6BEE0640260030205339029F1
:10047E00ECE0C39420400302053390E6BEE090E624
:10048E008BF090E6A0E020E1F990E740E0FF9029A4
:10049E00ECE0FE25E024AAF582E43429F583EFF0A2
:1004AE0090E741E0FFEE25E024ABF582E43429F538
:1004BE0083EFF09029ECE004F02290E6BEE090E6A7
:1004CE008BF090E6A0E020E1F990E6BEE0640470C7
:0104DE0054C9
:1004DF0090E740E0FCA3E0FDA3E0FEA3E0F53B8E38
:1004EF003A8D398C38FBAA3AA939A8387F007E1B80
:1004FF007D377C4B12062F8F3F8E3E8D3D8C3CAB54
:10050F003FAA3EA93DA83CE4FFFE7D807C47120533
:10051F00371206CC8E408F41EF902992F0E540A321
:04052F00F012268818
:0105330022A5
:1026520090E6047480F00000007402F00000007440
:0B26620006F0000000E4F00000002281
:01277C00223A
:10205C00E4F5327AE779407F40AB077D087FF87E64
:10206C001D121D53E4F53274402532F582E434E739
:10207C00F583E0FDE53275F002A42448F9740135CE
:0E208C00F08982F583EDF00532E532B408D913
:01209A002223
:1020D70090E678E05410FFC4540F4450F51013E411
:1020E70033F516438E2012003212275D12205C1240
:1020F7001E7ED2001225E21225A61200FC1221BE76
:0C2107001227651226881200460226E509
:1025C40012004A12209B12272DE5B190E68020E7E5
:0E25D40006E04408F08004E054F7F0020052E4
:061BFC008B328A338934AC
:101C0200E4F5351226D08F36E53625E02402900120
:101C12007EF0E4F535AF36EF3395E0FEC3E5359F50
:101C2200EE6480F87480985027AB32AA33A93485C9
:101C32003582758300120766FDE53575F002A4242E
:101C420080F9740135F08982F583EDF0053580C5A0
:011C5200226F
:061E33008E488F49AC054A
:101E3900E4FDE5166012E548FF7E000DEE2518F574
:101E490082E43517F583EFF0AE050DE5182EF5821E
:101E5900E43517F583E549F0AF050DE5182FF5824F
:101E6900E43517F583ECF0AB18AA17AF1012263634
:051E7900AF100221F78B
:03276D00021E3316
:0A222D008E428F438D448A458B4694
:10223700E4F547E547C3954450200543E543AE42DF
:102247007002054214FFE5462547F582E43545F55A
:0A22570083E0FD12276D054780D9D2
:01226100225A
:081D4B007A297B907F017E1FC5
:0A1D53008E408F418D428A438B447D
:101D5D00E4FDF545E5166012E540FF7E000DEE252C
:101D6D0018F582E43517F583EFF0AE050DE5182E65
:101D7D00F582E43517F583E541F0AB18AA17AF10DE
:0E1D8D00122636AB44AA43AD42AF1002261A0E
:100D7F0090E6BAE0753800F539A3E0FEEE42389000
:100D8F00E6BEE0753A00F53BA3E0FEEE423A90E690
:100D9F00B8E064C06003020E8CE53B453A70030275
:100DAF000F1F90E6A0E020E1F9C3E53B9440E53A40
:100DBF0094005008853A3C853B3D8006753C007594
:100DCF003D4090E6B9E064A3705890E6BCE0B401F2
:100DDF001BA3E0701790E6BBE030E71090E740747C
:100DEF0003F0A37401F0A37403F0806CE4F53EF5F7
:100DFF003FC3E53F953DE53E953C505CE539253FCA
:100E0F00F582E538353EF583E0FF7440253FF582E6
:100E1F0074E7353EF583EFF0053FE53F70D3053EB0
:100E2F0080CFE4F53EF53FC3E53F953DE53E953C6C
:100E3F0050197440253FF58274E7353EF58374CD24
:100E4F00F0053FE53F70E0053E80DCAD3D7AE77B86
:100E5F0040AF39AE38121D53E490E68AF090E68B1E
:100E6F00E53DF02539F539E53C3538F538C3E53B37
:100E7F00953DF53BE53A953CF53A020DA890E6B85D
:100E8F00E064406003020F1FE53B453A7003020F19
:100E9F001FE490E68AF090E68BF090E6A0E020E168
:100EAF00F990E68BE0753C00F53D90E6B9E0B4A310
:100EBF0036E4F53EF53FC3E53F953DE53E953C50A5
:100ECF00337440253FF58274E7353EF583E0FFE547
:100EDF0039253FF582E538353EF583EFF0053FE5DF
:100EEF003F70D3053E80CFAD3D7AE77B40AF39AE43
:100EFF003812222DE53D2539F539E53C3538F538E1
:100F0F00C3E53B953DF53BE53A953CF53A020E9727
:010F1F0022AF
:0B003600E50E450D7003D38001C322CE
:02004100D322C8
:02277300D3226F
:0800030090E6BAE0F50BD322F0
:1026F90090E740E50BF0E490E68AF090E68B04F071
:02270900D322D9
:0827550090E6BAE0F511D32271
:10270B0090E740E511F0E490E68AF090E68B04F058
:02271B00D322C7
:02277500D3226D
:02277700D3226B
:02277900D32269
:1014F000E4FF90E6B8E020E7030215DD0F0F74402B
:101500002401F582E434E7F583740AF00F74402473
:1015100002F582E434E7F583E4F00F74402403F528
:1015200082E434E7F583E4F00F74402404F582E4A8
:1015300034E7F5837402F00F74402405F582E43437
:10154000E7F583740CF00F74402406F582E434E769
:10155000F583E4F00F74402407F582E434E7F58363
:10156000E4F00F74402408F582E434E7F58374FF57
:10157000F00F74402409F582E434E7F58374FFF03A
:101580000F7440240AF582E434E7F5837408F00F01
:101590007440240BF582E434E7F5837420F00F7473
:1015A00040240CF582E434E7F583745FF00F744057
:1015B000240DF582E434E7F583745FF00F74402462
:1015C0000EF582E434E7F5837401F090E740EFF024
:0D15D000E490E68AF090E6BEE090E68BF035
:0115DD0022EB
:100F200090E6B9E01208360F67100F67110FAB1487
:100F3000105F150F55280F4F2E0F493C0F613F0FC3
:100F40005BA20F5BA30000109912019E02109B127E
:100F5000109D02109B12005602109B120D7F021072
:100F60009B1214F002109B90E6B8E030E70C7B0176
:100F70007AE7794012197A02108390E6BEE0701089
:100F800090E6BCE0FF90E6BAE0FD121FDD02109B88
:100F900090E6BEE090E68BF090E6A0E020E1F97BE1
:100FA000017AE77940121BA102109BC2AF90E77053
:100FB000E515F0E4F5157B017AE7796412197AE416
:100FC000F53474412534F582E4342BF583E0FF7465
:100FD000402534F582E434E7F583EFF00534E53459
:100FE000B40CDF90E6BCE06027E4F534745B253494
:100FF000F582E4342BF583E0F4FF744C2534F5825C
:10100000E434E7F583EFF00534E534B40CDE8024F6
:10101000E4F534745B2534F582E4342BF583E0FF8A
:10102000744C2534F582E434E7F583EFF00534E5BC
:1010300034B40CDFE4F534744F2534F582E4342BFA
:10104000F583E0FF74582534F582E434E7F583EF47
:10105000F00534E534B40CDF1221BED2AF8024E4B5
:10106000F53474D52534F582E4342AF583E0FF7431
:10107000402534F582E434E7F583EFF00534E534B8
:10108000B40CDFE490E68AF090E6BEE090E68BF0E8
:0C10900090E6A0E04480F08002C322D370
:01109C002231
:10238B00C0E0C083C082C085C084C08675860090C3
:10239B00E6B5E04401F0D2015391EF90E65D740194
:0E23AB00F0D086D084D085D082D083D0E032AE
:10249000C0E0C083C082C085C084C08675860053FA
:1024A00091EF90E65D7404F0D086D084D085D08220
:0524B000D083D0E032F2
:1024B500C0E0C083C082C085C084C08675860053D5
:1024C50091EF90E65D7402F0D086D084D085D082FD
:0524D500D083D0E032CD
:101EC700C0E0C083C082C085C084C086758600908C
:101ED700E680E030E70E854D51854E528555538596
:101EE7005654800C855551855652854D53854E5411
:101EF7005391EF90E65D7410F0D086D084D085D0F2
:061F070082D083D0E0321D
:10246900C0E0C083C082C085C084C086758600D2A2
:10247900035391EF90E65D7408F0D086D084D0853F
:07248900D082D083D0E032C5
:101F0D00C0E0C083C082C085C084C0867586009045
:101F1D00E680E030E70E854D51854E52855553854F
:101F2D005654800C855551855652854D53854E54CA
:101F3D005391EF90E65D7420F0D086D084D085D09B
:061F4D0082D083D0E032D7
:01277D003229
:01277E003228
:01277F003227
:012780003226
:012781003225
:012782003224
:012783003223
:012784003222
:012785003221
:012786003220
:01278700321F
:01278800321E
:01278900321D
:01278A00321C
:01278B00321B
:01278C00321A
:01278D003219
:01278E003218
:01278F003217
:012790003216
:012791003215
:012792003214
:012793003213
:012794003212
:012795003211
:012796003210
:01279700320F
:01279800320E
:01279900320D
:01279A00320C
:01279B00320B
:01279C00320A
:01279D003209
:01279E003208
:01279F003207
:0127A0003206
:0A274B000001020203030404050567
:03000B00021D9B38
:101D9B00C0E0C0F0C0D075D000C000C004C005C00A
:101DAB0006C007054CE54CB40621051AE51A70026E
:101DBB000519AE19FF7C007D0A1207C7ED4C7008A0
:101DCB000513E51370020512754C00D007D006D031
:0C1DDB0005D004D000D0D0D0F0D0E03211
:10175500E4F531F530F52FF52EC203C200C202C201
:10176500011220D7754F0175500075570175581432
:10177500754D01754E2075550175563475590175B0
:101785005A46D2E843D82090E668E04409F090E64E
:101795005CE0443DF0D2AFD20612235C90E680E0D7
:1017A50054F7F0C203300105120B5AC20130032968
:1017B5001200365024C2031224DA20001690E68265
:1017C500E030E704E020E1EF90E682E030E604E077
:0E17D50020E0E41223E61200411225C480C772
:100B5A0090E6B9E07003020C0B147003020C8824AF
:100B6A00FE7003020D0B24FB7003020C05147003C4
:100B7A00020BFF14607314607624056003020D6B88
:100B8A001227734003020D7790E6BBE024FE602231
:100B9A0014603324FD601114602224067048E54F66
:100BAA0090E6B3F0E5508037E55790E6B3F0E558A4
:100BBA00802DE55190E6B3F0E5528023E55390E6A7
:100BCA00B3F0E554801990E6BAE0FF122412AA069F
:100BDA00A9077B01EA494B600DEE90E6B3F0EF906E
:100BEA00E6B4F0020D77020D7012270B020D771290
:100BFA002755020D77120003020D771226F9020D0E
:100C0A00771227754003020D7790E6B8E0247F60DB
:100C1A001514601924027063A200E43325E0FFA2D0
:100C2A0002E4334F8041E490E740F0803F90E6BC15
:100C3A00E0547EFF7E00E0D394807C0040047D0176
:100C4A0080027D00EC4EFEED4F244BF58274273E68
:100C5A00F583E493FF3395E0FEEF24A1FFEE34E63B
:100C6A008F82F583E0540190E740F0E4A3F090E628
:100C7A008AF090E68B7402F0020D77020D7012274B
:100C8A00774003020D7790E6B8E024FE601624024E
:100C9A006003020D7790E6BAE0B40105C200020DC6
:100CAA0077020D7090E6BAE0705590E6BCE0547E8B
:100CBA00FF7E00E0D394807C0040047D0180027DA9
:100CCA0000EC4EFEED4F244BF58274273EF583E48B
:100CDA0093FF3395E0FEEF24A1FFEE34E68F82F511
:100CEA0083E054FEF090E6BCE05480131313541FC3
:100CFA00FFE0540F2F90E683F0E04420F0806E80EE
:100D0A0065122779506790E6B8E024FE601A24023B
:100D1A00705B90E6BAE0B40104D200805090E6BA63
:100D2A00E0B402028047803E90E6BCE0547EFF7E3B
:100D3A0000E0D394807C0040047D0180027D00ECB9
:100D4A004EFEED4F244BF58274273EF583E493FF64
:100D5A003395E0FEEF24A1FFEE34E68F82F583801F
:100D6A00081208B5500790E6A0E04401F090E6A00A
:040D7A00E04480F0E1
:010D7E002252
:0300330002276938
:0427690053D8EF3220
:1025FE00E4F5C8E58E54074438F58E8FCB8FCDAFFA
:0C260E00058FCA8FCCD2BDD2ADD2CA223B
:10232B00AB07AA06A905A8047F007E1B7D377C4B53
:10233B0012062FAB07AA06A905A804E4FFFE7D80B1
:10234B007C471205371206CCAD07AC06AF0402254D
:01235B00FE83
:10271D00AD07AC06C3E49DFBE49CFFEBFD0225FE7B
:03277000C2CA22B8
:03002B00021DE7CC
:101DE700C0E0C0F0C083C082C085C084C08675864D
:101DF70000C0D075D000C000C001C002C003C0043D
:101E0700C005C006C0071222FAC2CFD007D006D03D
:101E170005D004D003D002D001D000D0D0D086D0D6
:0C1E270084D085D082D083D0F0D0E0328F
:03004300021600A2
:0300530002160092
:1016000002238B000224B50002249000022469000A
:10161000021EC700021F0D0002277D0002277E0068
:1016200002277F0002278000022781000227820014
:1016300002278300022784000227850002278600F4
:101640000227870002277E000227880002278900E0
:1016500002278A0002278B0002278C0002278D00B8
:1016600002278E0002277E0002277E0002277E00CE
:1016700002278F0002279000022791000227920084
:101680000227930002279400022795000227960064
:1016900002279700022798000227990002279A0044
:1016A00002279B0002279C0002279D0002279E0024
:0816B00002279F000227A000A1
:1023E60090E682E030E004E020E60B90E682E03002
:1023F600E119E030E71590E680E04401F07F147EB5
:0C24060000121F5390E680E054FEF0220C
:1024DA0090E682E044C0F090E681F0438701000074
:0424EA0000000022CC
:10235C0030060990E680E0440AF0800790E680E0C1
:10236C004408F07FDC7E05121F5390E65D74FFF08D
:0F237C0090E65FF05391EF90E680E054F7F02287
:08275D00E4F56CD2E9D2AF22D1
:1021F70090E678E020E6F9C2E990E678E04480F0DE
:10220700EF25E090E679F090E678E030E0F990E6A7
:1022170078E04440F090E678E020E6F990E678E050
:0622270030E1D6D2E922ED
:1022C800A90790E678E020E6F9E56C702390E678B7
:1022D800E04480F0E925E090E679F08D67AF03A946
:1022E800077568018A69896AE4F56B756C01D32200
:0222F800C322FF
:10226200A90790E678E020E6F9E56C702590E6781B
:10227200E04480F0E925E0440190E679F08D67AF13
:1022820003A9077568018A69896AE4F56B756C03AD
:04229200D322C3226E
:03004B000212EEB0
:1012EE00C0E0C083C082C085C084C086758600C041
:1012FE00D075D000C000C001C002C003C006C00738
:10130E0090E678E030E206756C060213D890E67827
:10131E00E020E10CE56C64026006756C070213D8E0
:10132E00E56C24FE605F14603624FE70030213C960
:10133E0024FC70030213D5240860030213D8AB6893
:10134E00AA69A96AAF6B056B8F8275830012076657
:10135E0090E679F0E56B65677070756C05806B9043
:10136E00E679E0AB68AA69A96AAE6B8E82758300D6
:10137E001207A5756C02E5676401704E90E678E081
:10138E004420F08045E56724FEB56B0790E678E0D3
:10139E004420F0E56714B56B0A90E678E04440F01F
:1013AE00756C0090E679E0AB68AA69A96AAE6B8E9F
:1013BE00827583001207A5056B800F90E678E044D6
:1013CE0040F0756C008003756C005391DFD007D030
:1013DE0006D003D002D001D000D0D0D086D084D099
:0813EE0085D082D083D0E032EB
:02241200A90718
:10241400AE59AF5A8F828E83A3E064037017AD0167
:1024240019ED7001228F828E83E07C002FFDEC3E3B
:09243400FEAF0580DF7E007F0091
:01243D00227C
:10261A00122262E56C24FA600E146006240770F335
:0C262A00D322E4F56CD322E4F56CD3223B
:102636001222C8E56C24FA600E146006240770F3B3
:0C264600D322E4F56CD322E4F56CD3221F
:101F53008E328F3390E600E054187012E53324017B
:101F6300FFE43532C313F532EF13F533801590E6F2
:101F730000E05418FFBF100BE53325E0F533E532DD
:101F830033F532E5331533AE32700215324E600548
:061F93001224EE80EE2294
:1024EE007400F58690FDA57C05A3E582458370F901
:0124FE0022BB
:10053400020738E86480F8E933E83360110460F0B6
:10054400ED33EC337009E8FCE9FDEAFEEBFF22042D
:1005540060DED3EB9FEA9EE99DE8C2E78CF0C2F728
:1005640095F0400CE8CCF8E9CDF9EACEFAEBCFFBF4
:1005740012070385D0F05804700320D5B3E8047043
:10058400075002B2D502074292D5EC0460F7E4CCDE
:10059400C0E0C398F8603B94186008400DD0E0FBBD
:1005A40002071AE4FBFAC9FC8028E830E406E4C92F
:1005B400FBE4CAFCE830E305E4C9CACBFCE8540711
:1005C4006010F8C3E913F9EA13FAEB13FBEC13FC1C
:1005D400D8F130F52FC3E49CFCEF9BFFEE9AFEEDBF
:1005E40099FDD0E0FBEF4E4D4C701222DB03020765
:1005F4003FEC2CFCEF33FFEE33FEED33FDED30E743
:10060400EB02071AEF2BFFEE3AFEED39FDD0E0FBCB
:1006140050130BBB0003020742ED13FDEE13FEEF74
:0806240013FFEC13FC02071A9E
:10062C00020742EC5D046005E859047003020738C8
:10063C00120703580460F6EC4860F2EC7004FDFEFF
:10064C00FF22C860DB2481C85009C39860025006A1
:10065C0002073F9850CAF582E9294B4A7005AB82D4
:10066C0002072E75F0007C1A7880C3EF9BEE9AED92
:10067C0099400DC3EF9BFFEE9AFEED99FDE842F019
:10068C00DC23ACF0D0E0FFD0E0FED0E0FDAB82206C
:10069C00E7101BEB60BAEC2CFCEF33FFEE33FEEDF6
:1006AC0033FD02071AE803F830E705C0F075F000D7
:1006BC00EF2FFFEE33FEED33FD40B830E7C280AADA
:1006CC00EDD2E7CD33EC3392D524814006E4FFFE26
:1006DC00FDFC22FCE4CFCECDCC24E0501174FF8085
:1006EC00EDC3CC13CCCD13CDCE13CECF13CF047022
:0706FC00F030D5DE02081CFE
:10070300E9D2E7C933E833F892D5EDD2E7CD33EC3C
:0707130033FC5002B2D522B5
:10071A00EC30E7100FBF000C0EBE00080DBD000440
:10072A000BEB6014A2D5EB13FCED92E7FD2274FFEC
:10073A00FCFDFEFF22E480F8A2D574FF13FC7D8045
:03074A00E480EF59
:030000000217E301
:0C17E300787FE4F6D8FD75816C02182AAE
:10074D00BB010689828A83E0225002E722BBFE02AA
:09075D00E32289828A83E49322DD
:10076600BB010CE58229F582E5833AF583E0225048
:1007760006E92582F8E622BBFE06E92582F8E22292
:0D078600E58229F582E5833AF583E49322AC
:10079300BB010689828A83F0225002F722BBFE0145
:0207A300F3223F
:1007A500F8BB010DE58229F582E5833AF583E8F08A
:1007B500225006E92582C8F622BBFE05E92582C836
:0207C500F2221E
:1007C700BC000BBE0029EF8DF084FFADF022E4CC16
:1007D700F875F008EF2FFFEE33FEEC33FCEE9DECDF
:1007E700984005FCEE9DFE0FD5F0E9E4CEFD22ED25
:1007F700F8F5F0EE8420D21CFEADF075F008EF2F6F
:10080700FFED33FD4007985006D5F0F222C398FD5F
:050817000FD5F0EA22FC
:0E081C00C3E49FFFE49EFEE49DFDE49CFC22ED
:0C082A00A42582F582E5F03583F58322D9
:10083600D083D082F8E4937012740193700DA3A351
:1008460093F8740193F5828883E473740293686065
:06085600EFA3A3A380DF65
:10085C00D083D082F8E4937012740193700DA3A32B
:10086C0093F8740193F5828883E473740293B5F062
:0D087C00067403936860E9A3A3A3A380D8CA
:101CF9008B428A438944E4F54AF54BE5491549AED7
:101D090048700215484E6033AB45AA46A9471207E9
:101D19004DFFAB42AA43A944054BE54BAC4A7002BF
:101D2900054A14F5828C83EF1207A5EF60CD740183
:101D39002547F547E43546F54680C0AB42AA43A995
:021D4900442232
:1026D000E4FFFE12074D600C0FEF70010E09E97068
:0526E000F20A80EF2268
:10088900EF4E6012EF60010EEDBB010B89828A8386
:10089900F0A3DFFCDEFA2289F05007F709DFFCA993
:0C08A900F022BBFEFCF309DFFCA9F022EA
:1017EF00021755E493A3F8E493A34003F68001F2A4
:1017FF0008DFF48029E493A3F85407240CC8C333FB
:10180F00C4540F4420C8834004F456800146F6DFC9
:10181F00E4800B01020408102040809026B9E47E7A
:10182F00019360BCA3FF543F30E509541FFEE493BE
:10183F00A360010ECF54C025E060A840B8E493A385
:10184F00FAE493A3F8E493A3C8C582C8CAC583CAB0
:10185F00F0A3C8C582C8CAC583CADFE9DEE780BE68
:0126CF00000A
:00000001FF
