:0A00360000010202030304040505A3
:100B5600E4F50BF50AF509F508C203C200C202C2A4
:100B66000112110B754B0A754CB875530A7554CAA8
:100B760075490A754AD475510A7552F475550B753F
:100B86005614D2E843D82090E668E04409F090E68F
:100B96005CE0443DF0D2AFD20412000390E680E060
:100BA60054F7F0538EF8C203300105120577C201DF
:100BB6003003291200405024C2031210642000168C
:100BC60090E682E030E704E020E1EF90E682E03054
:100BD600E604E020E0E4120FE51209FD120C748031
:010BE600C747
:010BE70022EB
:1005770090E6B9E0B40C004002E1D990058825E087
:1005870073C13AC1DDE1D9E16DE1D9E1D9A1A0E1BA
:10059700D9C135C130C126C12B1211684002E1E52E
:1005A70090E6BBE024FE602A14604324FD60151426
:1005B700602E24067060E54B90E6B3F0E54C90E6BC
:1005C700B4F0E1E5E55390E6B3F0E55490E6B4F016
:1005D700E1E5E54D90E6B3F0E54E90E6B4F0E1E5F0
:1005E700E54F90E6B3F0E55090E6B4F0E1E590E62C
:1005F700BAE0FF121011AA06A9077B01EA494B606E
:100607000CEE90E6B3F0EF90E6B4F0E1E590E6A0EB
:10061700E04401F0E1E590E6A0E04401F0E1E512F5
:100627001130E1E5121150E1E51209F5E1E512118A
:100637001EE1E512116A4002E1E590E6B8E0247F89
:10064700602914603924026002C1D4A200E433FF98
:1006570025E0FFA202E4334F90E740F0E4A3F090D7
:10066700E68AF090E68B7402F0E1E5E490E740F06B
:10067700A3F090E68AF090E68B7402F0E1E590E64D
:10068700BCE0547EFF7E00E0D3948040067C007D72
:100697000180047C007D00EC4EFEED4F2436F58290
:1006A70074003EF583E493FF3395E0FEEF24A1FF4A
:1006B700EE34E68F82F583E0540190E740F0E4A33F
:1006C700F090E68AF090E68B7402F0E1E590E6A000
:1006D700E04401F0E1E512116C4002E1E590E6B873
:1006E700E024FE601A24026002E1E590E6BAE0B475
:1006F7000104C200E1E590E6A0E04401F0E1E590E5
:10070700E6BAE0705890E6BCE0547EFF7E00E0D386
:10071700948040067C007D0180047C007D00EC4EC7
:10072700FEED4F2436F58274003EF583E493FF33E4
:1007370095E0FEEF24A1FFEE34E68F82F583E054C7
:10074700FEF090E6BCE05480FF131313541FFFE044
:10075700540F2F90E683F0E04420F0E1E590E6A007
:10076700E04401F0807812116E507390E6B8E024EF
:10077700FE60202402706790E6BAE0B40104D2005C
:10078700805C90E6BAE06402605490E6A0E0440121
:10079700F0804B90E6BCE0547EFF7E00E0D394806F
:1007A70040067C007D0180047C007D00EC4EFEED60
:1007B7004F2436F58274003EF583E493FF3395E0CA
:1007C700FEEF24A1FFEE34E68F82F583E04401F0CB
:1007D700800C120056500790E6A0E04401F090E626
:0507E700A0E04480F0D9
:0107EC0022EA
:0300330002004682
:0400460053D8EF326A
:100AB800120100020000004005162080010001021A
:100AC80000010A060002000000400100090220009F
:100AD800010100A0320904000002FF000000070520
:100AE8000202000200070586020002000902200037
:100AF800010100A0320904000002FF000000070500
:100B080001024000000705810240000004030904B7
:100B180026034100430043004500530020004900DC
:100B28002F004F002000500072006F006400750015
:100B380063007400730016035500530042002D0033
:0E0B48004300540052002D0031003500000023
:100FE50090E682E030E004E020E60B90E682E03017
:100FF500E119E030E71590E680E04401F07F147ECA
:0C10050000120E4A90E680E054FEF0223B
:1010640090E682E044C0F090E681F04387010000FE
:041074000000002256
:1000030030040990E680E0440AF0800790E680E03F
:100013004408F07FDC7E05120E4A90E65D74FFF023
:0F00230090E65FF05391EF90E680E054F7F02203
:02101100A9072D
:10101300AE55AF568F828E83A3E064037017AD0184
:1010230019ED7001228F828E83E07C002FFDEC3E50
:09103300FEAF0580DF7E007F00A6
:01103C002291
:100E4A008E0C8F0D90E600E054187012E50D240107
:100E5A00FFE4350CC313F50CEF13F50D801590E67E
:100E6A0000E05418FFBF100BE50D25E0F50DE50C69
:100E7A0033F50CE50D150DAE0C7002150C4E600520
:060E8A0012107880EE2238
:101078007400F58690FDA57C05A3E582458370F98B
:011088002245
:03004300020A00AE
:03005300020A009E
:100A0000020FB7000210AE000210890002103D0074
:100A1000020E9000020ED6000200320002004200D8
:100A200002004A00020052000209FF000211700099
:100A300002117100021172000211730002117400A0
:100A400002117500020042000211760002117700C7
:100A5000021178000211790002117A0002117B0064
:100A600002117C000200420002004200020042002B
:100A700002117D0002117E0002117F000211800030
:100A80000211810002118200021183000211840010
:100A900002118500021186000211870002118800F0
:100AA0000211890002118A0002118B0002118C00D0
:080AB00002118D0002118E00FD
:0D1142000127FF0128000125000221000007
:10110B00D200121158E4F5B175B63FF5287527FFDB
:03111B00F5252295
:04004E0043B1202278
:0411600053B1DF2286
:0411640063B1202231
:100D6700EF75F00384FEEF75F00384ADF07401A80E
:100D770005088002C333D8FCFCEE75F008A4FEEC2E
:100D870025E0FC24E0FC74032EF582E43480F5832F
:100D9700ECF0AF06EF2DFFE433FEE42FF58274800D
:0D0DA7003EF583E030E7047F0180027F000D
:010DB400221C
:100CF300908000E0F529E0F52AA3E0F52BE0F52C40
:100D0300A3E0F52DE0F52E908008E0F52FE0F53017
:100D1300A3E0F531E0F532A3E0F533E0F53490805C
:100D230010E0F535E0F536A3E0F537E0F538A3E05C
:100D3300F539E0F53A908018E0F53BE0F53CA3E0A7
:100D4300F53DE0F53EA3E0F53FE0F540908020E07F
:100D5300F541E0F542A3E0F543E0F544A3E0F545B2
:040D6300E0F546224F
:100C7400E527F46029E52814600C047021AF2712DD
:100C84000D678F288018AF27120D67EF700D120CB7
:100C9400F3E4F52805251211648003121164E52696
:100CA4006038E5224521700675212F7522FFE52263
:100CB400152270021521E52245217007F52612112F
:100CC400608017AE21AF227C0B7DFF120944EF2018
:100CD400E005121160800312004EE5B120E7089090
:0E0CE400E680E04408F02290E680E054F7F04D
:010CF20022DF
:02004000D322C9
:0209FD00D32203
:02116800D32290
:0809F50090E6BAE0F547D322B9
:10111E0090E740E547F0E490E68AF090E68B04F025
:02112E00D322CA
:0811500090E6BAE0F523D3227A
:1011300090E740E523F0E490E68AF090E68B04F037
:02114000D322B8
:02116A00D3228E
:02116C00D3228C
:02116E00D3228A
:1000560075260190E678E05410FFC4540F4450F51D
:100066002413E433F54890E6B9E0120999020A2010
:1000760002CF2102EF22034C2300A42400FC25001A
:10008600C42605752805752C05752D05752E03F1F5
:10009600A203F1A303EBA903C2AC00000573E4902D
:1000A600E68BF0F52890E6BAE0B4FF057527FFA1C8
:1000B6007590E6BAE075F00F8485F027A175E4F532
:1000C60012F513AF1374292FF8E6FE74402FF5824C
:1000D600E434E7F583EEF00513E5137002051264C8
:1000E6001E451270DE90E75EE525F0E4F52590E604
:1000F6008B741FF0A17590800374DEF090800BF076
:10010600908013F090801BF0908023F0908000E0A8
:1001160090E740F0908000E090E741F0908001E0A9
:1001260090E742F0908001E090E743F0908002E093
:1001360090E744F0908002E090E745F0908008E078
:1001460090E746F0908008E090E747F0908009E05D
:1001560090E748F0908009E090E749F090800AE047
:1001660090E74AF090800AE090E74BF0908010E02C
:1001760090E74CF0908010E090E74DF0908011E011
:1001860090E74EF0908011E090E74FF0908012E0FB
:1001960090E750F0908012E090E751F0908018E0E0
:1001A60090E752F0908018E090E753F0908019E0C5
:1001B60090E754F0908019E090E755F090801AE0AF
:1001C60090E756F090801AE090E757F0908020E094
:1001D60090E758F0908020E090E759F0908021E079
:1001E60090E75AF0908021E090E75BF0908022E063
:1001F60090E75CF0908022E090E75DF090E68B74EB
:100206001EF0A17590E6BEE0B4022190E6BBE0FFC9
:10021600C4333354C0FF90E6BAE075F008A4240353
:10022600F582E5F03480F583EFF0805390E6BEE08A
:100236006403704B90E6BBE0FF7401A807088002D8
:10024600C333D8FCFF25E044C0FF90E6BAE075F062
:1002560008A42403F582E5F03480F583EFF090E6F8
:10026600BAE075F008A4FFA3E07C002FFFEC35F0A0
:10027600FEE42FF58274803EF583E090E742F0902D
:10028600E6BAE075F008A4FFA3E07C002FFFEC358A
:10029600F0FEE42FF58274803EF583E090E740F0AF
:1002A60090E6BAE075F008A4FFA3E02FFFEC35F066
:1002B600FEE42FF58274803EF583E090E741F090EE
:1002C600E6BEE090E68BF0A175E490E68BF090E652
:1002D600BBE0FF90E6BAE075F008A42403F582E5DA
:1002E600F03480F583EFF0A175E490E68BF090E6AC
:1002F600BCE0FD90E6BBE0FFC4131354037A005440
:1003060003FB90E6BAE075F008A42BFFEA35F0FE91
:10031600E42FF58274803EF583EDF090E6BDE0FDB6
:1003260090E6BBE0FFC413135403FB90E6BAE075F6
:10033600F008A42BFFEA35F0FEE42FF58274803E28
:10034600F583EDF0A175E490E68BF090E6BBE0FF57
:1003560090E6BAE075F008A42403F582E5F034804F
:10036600F583EFF090E6BCE0FD90E6BBE0FFC4133A
:100376001354037A005403FB90E6BAE075F008A420
:100386002BFFEA35F0FEE42FF58274803EF583ED0F
:10039600F090E6BDE0FD90E6BBE0FFC41313540306
:1003A600FB90E6BAE075F008A42BFFEA35F0FEE410
:1003B6002FF58274803EF583EDF0A17590E6B5E0E9
:1003C60054FEF090E6BFE090E68AF090E6BEE0903C
:1003D600E68BF090E6BBE090E6B3F090E6BAE090EC
:1003E600E6B4F0A17575480143240190E6BAE075BC
:1003F6000C00F50DA3E0FEE4EE420C90E6BEE075BF
:100406000E00F50FA3E0FEE4EE420E90E6B8E064BF
:10041600C0600281DEE50F450E7002A17590E6A070
:10042600E020E1F9C3E50F9440E50E9400500885FD
:100436000E10850F11800675100075114090E6B9F3
:10044600E0B4A335E4F512F513C3E5139511E512EF
:1004560095105060E50D2513F582E50C3512F583F0
:10046600E0FF74402513F582E434E7F583EFF005E9
:1004760013E5137002051280D0E4F512F513C3E5F7
:10048600139511E5129510501874402513F582E462
:1004960034E7F58374CDF00513E513700205128079
:1004A600DDAD117AE779407EE77F40AB07AF0DAE51
:1004B6000C120DB5E490E68AF090E68BE511F02576
:1004C6000DF50DE510350CF50CC3E50F9511F50F7F
:1004D600E50E9510F50E811B90E6B8E064406002CB
:1004E600A175E50F450E7002A175E490E68AF090BD
:1004F600E68BF090E6A0E020E1F990E68BE075103F
:1005060000F51190E6B9E0B4A335E4F512F513C38E
:10051600E5139511E5129510503874402513F582B0
:10052600E434E7F583E0FFE50D2513F582E50C35A8
:1005360012F583EFF00513E5137002051280D0ADB6
:10054600117AE779407EE77F40AB07AF0DAE0C121C
:100556000F1CE511250DF50DE510350CF50CC3E561
:100566000F9511F50FE50E9510F50E81E8D322C310
:010576002262
:100FB700C0E0C083C082C085C084C08675860090AB
:100FC700E6B5E04401F0D2015391EF90E65D74017C
:0E0FD700F0D086D084D085D082D083D0E03296
:10108900C0E0C083C082C085C084C0867586005315
:1010990091EF90E65D7404F0D086D084D085D0823B
:0510A900D083D0E0320D
:1010AE00C0E0C083C082C085C084C08675860053F0
:1010BE0091EF90E65D7402F0D086D084D085D08218
:0510CE00D083D0E032E8
:100E9000C0E0C083C082C085C084C08675860090D3
:100EA000E680E030E70E85494D854A4E85514F85F5
:100EB0005250800C85514D85524E85494F854A5080
:100EC0005391EF90E65D7410F0D086D084D085D039
:060ED00082D083D0E03265
:10103D00C0E0C083C082C085C084C086758600D2E2
:10104D00035391EF90E65D7408F0D086D084D0857F
:07105D00D082D083D0E03205
:100ED600C0E0C083C082C085C084C086758600908D
:100EE600E680E030E70E85494D854A4E85514F85AF
:100EF6005250800C85514D85524E85494F854A503A
:100F06005391EF90E65D7420F0D086D084D085D0E2
:060F160082D083D0E0321E
:01003200329B
:01004200328B
:01004A003283
:01005200327B
:0109FF0032C5
:01117000324C
:01117100324B
:01117200324A
:011173003249
:011174003248
:011175003247
:011176003246
:011177003245
:011178003244
:011179003243
:01117A003242
:01117B003241
:01117C003240
:01117D00323F
:01117E00323E
:01117F00323D
:01118000323C
:01118100323B
:01118200323A
:011183003239
:011184003238
:011185003237
:011186003236
:011187003235
:011188003234
:011189003233
:01118A003232
:01118B003231
:01118C003230
:01118D00322F
:01118E00322E
:060E0000AB07AA06AC05D9
:100E0600E4FDE5486010EA7E000DEE2400F582E47C
:100E16003400F583EAF0EBAE050D74002EF582E49E
:100E26003400F583EBF0AF050D74002FF582E43442
:100E360000F583ECF07A007B00AF241210EFAF24AC
:030E46001209BFCF
:010E49002286
:0A0F1C008E148F158D168A178B189E
:100F2600E4F519E519C3951650200515E515AE1417
:100F36007002051414FFE5182519F582E43517F536
:0A0F460083E0FD120E00051980D9AA
:010F5000227E
:0A0DB5008E148F158D168A178B1807
:100DBF00E4FDF519E5486012E514FF7E000DEE2401
:100DCF0000F582E43400F583EFF0E515AE050D7400
:100DDF00002EF582E43400F583E515F07A007B00F0
:100DEF00AF241210EFAB18AA17AD16AF241210D301
:010DFF0022D1
:08115800E4F51FD2E9D2AF2239
:1009BF0090E678E020E6F9C2E990E678E04480F02E
:1009CF00EF25E090E679F090E678E030E0F990E6F8
:1009DF0078E04440F090E678E020E6F990E678E0A1
:0609EF0030E1D6D2E9223E
:100F8500A90790E678E020E6F9E51F702390E6785A
:100F9500E04480F0E925E090E679F08D1AAF03A9E9
:100FA50007751B018A1C891DE4F51E751F01D322D7
:020FB500C32255
:100F5100A90790E678E020E6F9E51F702590E6788C
:100F6100E04480F0E925E0440190E679F08D1AAF84
:100F710003A907751B018A1C891DE4F51E751F0352
:040F8100D322C32292
:03004B000207EDBC
:1007ED00C0E0C083C082C085C084C086758600C04D
:1007FD00D075D000C000C001C002C003C006C00744
:10080D0090E678E030E206751F060208D790E6788C
:10081D00E020E10CE51F64026006751F070208D792
:10082D00E51F24FE605F14603624FE70030208C8C5
:10083D0024FC70030208D4240860030208D7AB1B04
:10084D00AA1CA91DAF1E051E8F827583001208F507
:10085D0090E679F0E51E651A7070751F05806B9036
:10086D00E679E0AB1BAA1CA91DAE1E8E8275830016
:10087D00120922751F02E51A6401704E90E678E0A8
:10088D004420F08045E51A24FEB51E0790E678E079
:10089D004420F0E51A14B51E0A90E678E04440F0C5
:1008AD00751F0090E679E0AB1BAA1CA91DAE1E8E2C
:1008BD0082758300120922051E800F90E678E044B0
:1008CD0040F0751F008003751F005391DFD007D0D6
:1008DD0006D003D002D001D000D0D0D086D084D0A5
:0808ED0085D082D083D0E032F7
:1010D300120F51E51F24FA600E146006240770F303
:0C10E300D322E4F51FD322E4F51FD32232
:1010EF00120F85E51F24FA600E146006240770F3B3
:0C10FF00D322E4F51FD322E4F51FD32216
:03000000020BE808
:0C0BE800787FE4F6D8FD758156020C2FD2
:1008F500BB010CE58229F582E5833AF583E02250B8
:1009050006E92582F8E622BBFE06E92582F8E22201
:0D091500E58229F582E5833AF583E493221B
:10092200F8BB010DE58229F582E5833AF583E8F00B
:10093200225006E92582C8F622BBFE05E92582C8B7
:02094200F2229F
:10094400BC000BBE0029EF8DF084FFADF022E4CC97
:10095400F875F008EF2FFFEE33FEEC33FCEE9DEC60
:10096400984005FCEE9DFE0FD5F0E9E4CEFD22EDA6
:10097400F8F5F0EE8420D21CFEADF075F008EF2FF0
:10098400FFED33FD4007985006D5F0F222C398FDE1
:050994000FD5F0EA227E
:10099900D083D082F8E4937012740193700DA3A3ED
:1009A90093F8740193F5828883E473740293686001
:0609B900EFA3A3A380DF01
:100BF400020B56E493A3F8E493A34003F68001F2B6
:100C040008DFF48029E493A3F85407240CC8C33301
:100C1400C4540F4420C8834004F456800146F6DFD0
:100C2400E4800B0102040810204080901142E47E0D
:100C3400019360BCA3FF543F30E509541FFEE493C5
:100C4400A360010ECF54C025E060A840B8E493A38C
:100C5400FAE493A3F8E493A3C8C582C8CAC583CAB7
:100C6400F0A3C8C582C8CAC583CADFE9DEE780BE6F
:01114F00009F
:00000001FF
