:101CFE005553422D44494F2D3332005553422D44F6
:101D0E00494F2D3234005553422D4F544845520001
:1012C600EF75F00CA4248CF582E43428F58375F0D0
:1012D60004EE120D45E4F0EEC4333354C04432FD3F
:1012E600EF75F00CA4248BF582E43428F58375F0B1
:1012F60004EE020D45F0A374FFF0A3F0A3F0A3F0F3
:1013060022E0F580A3E0F590A3E0F5A0A3E0F5B018
:1013160022E490E68AF090E6BEE090E68BF022ABFF
:0813260031AA32A933020CCBFD
:0400460043B1202280
:04004E0053B1DF22A9
:041F6F0063B1202218
:01004A002293
:101843007AE779407F40AB077D017F037E00121961
:101853003090E740E0FF900AB6F024FB600C2404CC
:1018630070107BFF7A1C79FE800E7BFF7A1D79094D
:0C18730080067BFF7A1D791412162F22CC
:031F8300021843FE
:01005200228B
:011F9400222A
:011F95002229
:10157D00EF5407FE7401A806088002C333D8FCFEA1
:10158D00EF131313541FFFED601EEF14600E146064
:10159D000F14601024037031EE428022EE4290222F
:1015AD00EE42A022EE42B022EF14600F146011142F
:1015BD00601324037013EEF4528022EEF452902245
:0A15CD00EEF452A022EEF452B02218
:10187F00EF54F824F8601024F8601024F860102456
:10188F0018700EAE80800AAE908006AEA08002AEB9
:10189F00B0EF5407FF7401A807088002C333D8FCC8
:0C18AF005206EE60047F0180027F0022E0
:10000E00E580120D11900001E590120D2390000273
:0D001E00E5A0120D23900003E5B0020D23B4
:101B0300120CCB90285EF0F580900001120CE4904B
:101B1300285FF0F590900002120CE4902860F0F535
:0E1B2300A0900003120CE4902861F0F5B022AF
:1015D7008B318A328933120CCBFF30E0047EFF80D7
:1015E700027E008EB2EF30E1047FFF80027F008F22
:1015F700B3121325FF30E2047EFF80027E008EB413
:10160700EF30E3047FFF80027F008FB5AB34AA354C
:10161700A936120CCB5401C454F0FF121325540FF2
:081627004F90285DF0F5B1229F
:1011D5007E007FAF7D007B017A287900120D779024
:1011E50028007409F0E412130090285D1212FBE444
:1011F5009028861212FBE4902805F0902804F090C0
:101205002807F0902806F0902808F0A3F090281AF7
:10121500F0A3F090285CF0FFE4FEEF75F00CA42439
:1012250063F582E434281212F2E4F0EEC433335449
:10123500C04432FDEF75F00CA42462F582E4342835
:101245001212F2EDF01212C6EDF00EBE03CC0FEF46
:05125500640370C422D7
:1016D80090E600E054E7F075B63F90285E121307D5
:1016E80090285DE0FF30E0047EFF80027E008EB22D
:1016F800EF30E1047FFF80027F008FB390285DE028
:10170800FF30E2047EFF80027E008EB4EF30E304F7
:101718007FFF80027F008FB590285DE0F5B1021F42
:01172800447C
:101ED2008F248D25300603020B84AD25AF24120B0F
:021EE200A32239
:011F96002228
:011F97002227
:101E01009028861212FDE4FFE4FE1212C6EDF00ED8
:081E1100BE02F70FBF03F1222E
:10172900902887121307902886E0FF30E0047EFF97
:1017390080027E008EB2EF30E1047FFF80027F00DD
:101749008FB3902886E0FF30E2047EFF80027E009E
:101759008EB4EF30E3047FFF80027F008FB59028BD
:0D17690086E0F5B17B017A28798B02125AD7
:100E6200D2041203325003020F1990E6B9E024EDC6
:100E7200600E24E3607214606F241F6003020F1778
:100E820090E6B8E030E723E5B1540F90E740F0E593
:100E9200B130E4047F0180027F0090E741EFF07BF4
:100EA200017AE7794212000E805F12131790E6A0D2
:100EB200E020E1F990E6BDE0FF90E6BCE04F700B68
:100EC2007534017535E67536BA80097534017535A4
:100ED200E77536417B017AE779441215D77B017AAF
:100EE200E77940121B03802F7B017AE779401200D9
:100EF2000EE5B1540F90E744F0E5B130E4047F0110
:100F020080027F0090E745EFF012131790E6A0E011
:090F12004480F08002D322C322C6
:100AAB000012010002000000400516018001000148
:100ABB000200010A060002000000400100090220AA
:100ACB0000010100A0FA0904000002FF000000076A
:100ADB00050202000200070586020002000902203F
:100AEB0000010100A0FA0904000002FF000000074A
:100AFB0005010240000007058102400000140300BD
:100B0B0000000000000000000000000000000000DA
:100B1B0000260341004300430045005300200049D9
:100B2B00002F004F002000500072006F0064007512
:100B3B000063007400730020035500530042002D26
:100B4B0000440049004F002D00330032000000002C
:100B5B0000000000000000000080818283848586F5
:100B6B00879091929394959697A0A1A2A3A4A5A6E2
:100B7B00A7B0B1B2B3B4B5B6B7C0D0C0E0EF900B6D
:100B8B006493900B9BF0ED900B6493900B9DF0A2F4
:100B9B00009200D0E0D0D022C0D0C0E0EF900B6428
:100BAB0093900BBAF0ED900B6493900BBDF0A200F9
:080BBB00B39200D0E0D0D0227B
:041F7B000000000062
:101EE400021D1F7B02080000011001010C01010A00
:011EF40001EC
:1005F000E0FFAE32053274402EF582E434E7F58335
:100600002275F00CE53D120D45E53C75F00CA42576
:1006100083F583E5822FF582E5833EF58322E4901E
:10062000E68AF090E6BEE090E68BF022EC75F008EA
:10063000A4FFED7A002FFFEA35F0FEE42FF5827477
:10064000803EF5832275F009E52BA4F58285F083C1
:1006500075F003E52D120D45E5822290E740F0E4A8
:1006600090E68AF090E68B22AA34A93575F00CE565
:1006700037A4F58285F08375F004E536120D450246
:100680000CE4FF7E000DEE251EF582E4351DF5839A
:100690002275F008A42403F582E5F03480F5832266
:1006A000E0FE74D32FF582E43428F583222532F559
:1006B00032E5353531F531C3E5349536F534E5337A
:1006C0009535F53322E490E68BF090E6BAE0FFA38F
:1006D000E02235F0FAE53675F004A429F9EA35F0A0
:1006E000FA22F583EFF0052BE52B22EC25E0240A16
:1006F000F582E43428F583E0FE547FFFEE22539127
:10070000EF90E65D2224867C007B01F9EC2274B335
:100710002FF582E43428F5832274AF2EF582E43479
:1007200028F583E0227DAF7A287B007F017E1F229F
:10073000F074D72FF582E43428F5832290E6BEE0EA
:10074000640122C3E5389536E53795352274DB2FF1
:10075000F582E43428F58322E92FF9EE3AFA020C07
:10076000CB90E6BEE0640222F583EFF090E741E033
:10077000FFEE25E022E5322538F582E5313537F503
:10078000832285474D85484E85514F85525022859D
:10079000514D85524E85474F85485022AC07C413B2
:1007A000135403FD22AF047E007C00754200F54324
:1007B0002290E6A0E04480F02275F00CE539120D9D
:1007C00045E53822AD367AE77B40AF32AE3122E5DF
:0907D000302402F9E4352FFA226D
:101BB6008B3AA905E912079CEC120691E9F0120688
:101BC6002CE53AF012063BE53BF0AB01E53A12078D
:0B1BD600A5E53B754400F5450218042E
:101E4700AB05EB12079EEF120691EBF07E007C00CC
:051E57007A00021B31BE
:101C2F008D32A903E53212079C12062CE9F0120639
:101C3F003BE534F0AB32E91207A5E534754400F506
:041C4F00450218042E
:1013FA00A9077401A805088002C333D8FC25E04474
:10140A00C0FF75F008E9120694EFF0E975F008A438
:10141A00FFED7583002FFFE583120638E0FC744266
:10142A002BF582E434E7F583ECF012063BE0FF7417
:10143A00402B1205F9EFF0E975F008A47C002DFFA6
:10144A00EC120638E0FF74412BF582E434E7F583A9
:03145A00EFF0228E
:10125A008B338A348935E4F537E4F536E53775F0AA
:10126A000CA4AB332535F9E5341206D290000112ED
:10127A000CE4602A120668FCE53775F00CA429F91B
:10128A00EA1206D2900002120CE4FD900003120C3E
:10129A00E4F53BAB05AD04AF37121BB6800BAB339D
:1012AA00120668FDAF37121E470536E536C39402AB
:0C12BA0040AA0537E537C39403409E228C
:101E8600902803E07006902802E0600302003612F4
:031E9600002E22F9
:101CDD007E007FAF7D007B017A287900120D779011
:101CED0028007409F0E4A3F01211D51216D8021FC2
:011CFD0006E0
:101D1E007D02120727121930902800E0B40904A39F
:101D2E00E06003021CDD1207251219301216D822AC
:0F1F06001207251219D77DAF7F007E1F021F869D
:10151F00121E8690E6BEE0F534753602E534604B58
:10152F00C394405005853435800375354012065FEE
:10153F00E535F090E6A0E020E1F9E4F533E533C3BB
:10154F009535501E744025331205F9E0FFAE360570
:10155F0036EE24001207073428FAEF120D11053367
:0E156F0080DBC3E5349535F53480B1021E866D
:091F44007B017A28796202125A2D
:101804008E3C8F3D8C3E8D3F8A408B41E53FAE3E02
:101814007802C333CE33CED8F9FF90286312060181
:101824007401F0902864120601E543F090286512D3
:0F1834000601E545F0902862120601E541F02219
:101B31008E388F398C3A8D3BE53BAE3A7802C33310
:101B4100CE33CED8F9FF9028631207B912060BE401
:0D1B5100F09028621207B912060BEBF0228B
:0F1F1500D3E54A950EE549950D4003121F24228E
:011F98002226
:101C5300902805E0FE902804E07C002400F50EECBB
:101C63003EF50D450E7007C28CC2A9C20522D28C67
:031C7300D2A922D1
:011F99002225
:1018F60012062390E6A0E020E1F9E4FF74422FF5FA
:1019060082E434E7F583E0FEEF1207053428FAEEA9
:10191600120D110FBF29E590E740E0902804F090E2
:0A192600E741E0902805F0021C5391
:0B1F2400121729E4F549F54AD2052206
:101E1900E4F549F54AC28CC2A9538EF75389F143B7
:081E29008901121F99021C53EC
:101A7200E50945086017E50915097002150814C340
:101A820094FFE50864809480501602004E300410E2
:101A92007508057509FF120046C204E4F549F54AC6
:011AA2002221
:100DA30090E6B8E030E75CE4F5329028041205F0F1
:100DB300EFF09028051205F0EFF0E4F531E531C3CB
:100DC300942950207E007B0174862531F9EE342866
:100DD300FA120CCBFF744025321205F9EFF00531FE
:100DE300053280D91205F2E54AF0E5491205F1EF23
:100DF300F0A205E4331205F1EFF0C20512061E124C
:100E030007B12212062390E6A0E020E1F990E6BEA6
:100E1300E064297049E4F532AF32053274402F1291
:100E230005F9E0902804F0AF32053274402F120523
:100E3300F9E0902805F0E4F531E531C39429501B1E
:100E4300744025321205F9E0FFE531120705342815
:0F0E5300FAEF120D110531053280DE121C532209
:041F730075100122C2
:1014C000121E8690E6BEE0F534E4F536E534604E53
:1014D000C394405005853435800375354012065F4E
:1014E000E535F090E6A0E020E1F9E4F533E533C31B
:1014F00095355021744025331205F9E0FFAE3605CD
:1015000036EE7C007B01241BF9EC3428FAEF120D37
:0F15100011053380D8C3E5349535F53480AE220C
:101686001510E510704B90281BE0F510121F96E41C
:10169600F52190285CE0FFE521C39F5031E5212527
:1016A600E0241CF582E43428F583E0F522E52125C3
:1016B600E0241DF582E43428F583E0F523547FFD0C
:1016C600E523339206AF22121ED2052180C4121FD3
:0216D600972259
:101DB00012062390E6A0E020E1F990E740E09028A9
:0B1DC00006F090E741E0902807F022B9
:10145D00150CE50C705C902806E0F50C7B017A28E4
:10146D0079DF12000EE4FFFE74DF2EF582E43428DE
:10147D00F583E0FD1207196DF97D01E4FCECC394D1
:10148D00085029E95D601312070EE014F012070EE3
:10149D00E070111207196DF08000902807E0FB1223
:1014AD00070EEBF00CED25E0FD0F80D10EEE640480
:0314BD0070B622E4
:101E990012062390E6A0E020E1F990E740E09028BF
:031EA90008F0221C
:101E3100E4FF1206A2E4F012074D74FF120730E42A
:061E4100F00FBF04ED22CA
:100FBD00150AE50A703A902808E0F50A7B017A28AF
:100FCD0079D312000EE4FF12074DC083C0821206C2
:100FDD00A0E0FDEE5DD082D083120730C083C082C9
:100FED001206A0E0FDEE4DD082D083F00FBF04D7E6
:010FFD0022D1
:041F7700750F0122BF
:10132E00150FE50F6029E4FC90281AE0FFECC39F2F
:10133E00505574152CF8E6601316E6700F1206EB76
:10134E0030E7047D0080027D0112157D0C80D9905E
:10135E002809E0F50FE4FC90281AE0FFECC39F503B
:10136E0026EC25E0240BF582E43428F583E0FF74A7
:10137E00152CF8A6071206EB30E7047D0180027DDE
:08138E000012157D0C80D02235
:101BE10012062390E6A0E020E1F9E4FF74402F12F1
:101BF10005F9E0FEEF7C007B012409F9EC3428FAB9
:091C0100EE120D110FBF12E422D6
:10005600E4F53290E6B8E030E76790E6BEE0FF7080
:100066000490E68BF0BF010D90E74074AFF090E688
:100076008B7401F01FEF604590E6A0E020E1F9EFF8
:10008600C3944050048F318003753140E4FEEEC3C3
:100096009531501CAD3205327C007B0174002DF980
:1000A600EC3428FA120CCBFD1205F6EDF00E80DECC
:1000B60012065FE531F0C3EF9531FF80B81207B144
:1000C6002290E6BFE0FF90E6BEE04F707790E6BD77
:1000D600E0704D90E6BCE024EF6023249F6030245E
:1000E600FD603324F360342472703590E6BAE06420
:1000F600CE702DA3E064AC7027121F06802290E616
:10010600BAE0B4CE1BA3E0B4AC16121CDD8011E439
:1001160090281AF0800A750F018005E490285CF09B
:1001260090E6BDE06480600302033190E6BCE064C3
:1001360001600302033190E6BAE0902802F090E6EF
:10014600BB0201F890E6BFE0600302033190E6BD12
:10015600E0FE90E6BCE07C002400FFEC3EFE60037F
:10016600020331EF120D5101A12001A12101A122AB
:1001760001A12301D62F020041020E51021953029A
:100186003661024163025E71026C7302897402CDAC
:100196008102D88302F2840000033190E6BEE0B407
:1001A600AD0312151F90E6BCE030E0031216D8909E
:1001B600E6BCE020E10302033190E6BAE064CE60DB
:1001C60003020331A3E064AC6003020331021F069D
:1001D6001207616003020331E090E68BF090E6A01F
:1001E600E020E1F9121E8690E740E0902802F090A8
:1001F600E741E0902803F0021E8690E6BEE0642BFD
:1002060060030203310218F612076160030203312C
:10021600021DB012073C6003020331E090E68BF04A
:1002260090E6A0E020E1F990E740E0902806F02271
:1002360012073C6003020331021E9912073C600359
:10024600020331E090E68BF090E6A0E020E1F99021
:10025600E740E0902808F02290E6BEE064126003D2
:10026600020331021BE112073C6003020331E090F6
:10027600E68BF090E6A0E020E1F990E740E09028D8
:1002860009F022120761600302033190281AE0C3C5
:100296009408400302033112062390E6A0E020E111
:1002A600F990E740E0FF90281AE0FE25E02408F5E3
:1002B60082E434281207682409F582E43428F58399
:1002C600EFF090281A806190E6BEE06442705C020E
:1002D60014C012073C7054E090E68BF090E6A0E064
:1002E60020E1F990E740E090281BF02212076170A8
:1002F6003A90285CE0C39420503112062390E6A081
:10030600E020E1F990E740E0FF90285CE0FE25E080
:10031600241AF582E43428120768241BF582E43493
:0C03260028F583EFF090285CE004F02242
:101DCB0090E6047480F00000007402F000000074D0
:0B1DDB0006F0000000E4F00000002211
:011F9A002224
:1018BB00E4F52A7AE779407F40AB077D087FF87E15
:1018CB001D121930E4F52A7440252A1205F9E0FDA2
:1018DB00E52A75F002A4240AF9740B35F08982F518
:0B18EB0083EDF0052AE52AB408DD2299
:1017760090E678E05410FFC4540F4450F51113E47A
:1017860033F51390E600E054E74410F0438E201240
:10179600002E12004A121F671218BB121F83D200B6
:1017A600121D1E121F73121E19121E31121F7712DE
:0817B6001E8612004E020052D3
:101D3E00121F94121A72121F15E5B190E68020E759
:0E1D4E0006E04408F08004E054F7F0021F9510
:10162F008B2A8A2B892CE4F52D121E718F2EE52E15
:10163F0025E02402900B42F0E4F52DAF2EEF339509
:10164F00E0FEC3E52D9FEE6480F87480985027ABC1
:10165F002AAA2BA92C852D82758300120CE4FDE597
:10166F002D75F002A42444F9740B35F08982F583AB
:07167F00EDF0052D80C522EE
:101969008E3F8F40AC05E4FDE5136007E53F1206A5
:1019790082EFF0AE050DE51E2E120689E540F0AFA7
:10198900050DE51E2F120689ECF0AB1EAA1DAF113D
:08199900121D94AF110219A107
:031F8600021969D4
:1019D7008E398F3A8D3B8A3C8B3DE4F53EE53EC31D
:1019E700953B5020053AE53AAE397002053914FFA8
:1019F700E53D253EF582E4353CF583E0FD121F8683
:051A0700053E80D9221C
:101930008E398F3A8D3B8A3C8B3DE4FDF53EE513B5
:101940006007E539120682EFF0AE050DE51E2E1296
:101950000689E53AF0AB1EAA1DAF11121D94AB3DEE
:09196000AA3CAD3BAF11021D7859
:1009830090E6BAE0753100F532A3E0FEEE42319015
:10099300E6BEE0753300F534A3E0FEEE423390E6A5
:1009A300B8E064C06003020A51E5344533700302C2
:1009B3000AAA90E6A0E020E1F9C3E5349440E533C8
:1009C30094005008853335853436800675350075B7
:1009D300364090E6B9E064A3704490E6BCE0B4010D
:1009E3001BA3E0701790E6BBE030E71090E740747C
:1009F30003F0A37401F0A37403F08046E4F537F524
:100A030038120743503C120775E0FF744025381233
:100A130005F9EFF00538E53870E7053780E3E4F5CD
:100A230037F5381207435014744025381205F9740A
:100A3300CDF00538E53870EB053780E71207C412AF
:100A4300193012065FE536F01206AD0209AC90E6E6
:100A5300B8E064407051E5344533604B12065FF0F3
:100A630090E6A0E020E1F990E68BE0753500F536DD
:100A730090E6B9E0B4A322E4F537F5381207435002
:100A83001E744025381205F9E0FF120775EFF005D3
:100A930038E53870E7053780E31207C41219D7E544
:080AA300361206AD020A5922C9
:100F1B00E4FF90E6B8E020E703020FBC0F0F74402C
:100F2B0024011205F97409F00F744024021205F91B
:100F3B00E4F00F744024031205F9E4F00F7440241D
:100F4B00041205F97401F00F744024051205F974AD
:100F5B0004F00F744024061205F97403F00F74406B
:100F6B0024071205F9E4F00F744024081205F974F4
:100F7B00FFF00F744024091205F974FFF00F744051
:100F8B00240A1205F97408F00F7440240B1205F9AA
:100F9B007420F00F7440240C1205F9741FF00F74B9
:100FAB0040240D1205F9741FF090E740EFF0120684
:020FBB001E22F4
:0B1F2F00E50E450D7003D38001C322B6
:020FFE00D322FC
:021F8C00D3225E
:0800030090E6BAE0F50BD322F0
:091F4D00E50B12065B04F0D3223F
:081F5F0090E6BAE0F512D3226E
:091F5600E51212065B04F0D3222F
:021F8E00D3225C
:021F9000D3225A
:021F9200D32258
:1003320090E6B9E0120D5103851003851103AB1449
:1003420003FF1504191F054120055321055D2205F0
:10035200742305022505742703732E036D3C037F66
:100362003F0379A20379A3000005EC1200560205AF
:10037200EE120DA30205EE1209830205EE120F1B07
:100382000205EE90E6B8E030E70C7B017AE77940AF
:1003920012000E02042012062390E6A0E020E1F9EA
:1003A2007B017AE779400204FCE4F52B74D3252B18
:1003B2001206A5E0FF7440252B1205F91206E4B4DB
:1003C20004EAE4F52B74DB252B120750E0FF74449A
:1003D200252BF582E434E71206E2B404E8E4F52BB7
:1003E20074D7252B120734E0FF7448252BF582E4DD
:1003F20034E71206E2B404E8121E318021E4F52B40
:1004020074AF252B12071CFF7440252B1205F9121D
:1004120006E4B404EB800790E6B8E030E708E49025
:10042200E68AF002054A7B017AF0790212000E1286
:1004320006238B2E752FE775304090E6A0E020E171
:10044200F9E4F52BAB2EE5302401F9E4352FFA7EE1
:1004520000E9252B12075AFFAA2FA930852B827596
:100462008300120CE4FE5FFFEEF4FE745D252BF5B3
:1004720082E43428F583E05E4FFF7400252BF58279
:10048200E434F01206E2B401BBE490F001F0F52B83
:10049200AB2E1207CFAF2B7E00120758FDE530249A
:1004A20006F9E4352FFA1207585DFF1207CFE52B44
:1004B200FD7C0029F9EC3AFA120CCBF4FE7B0174B4
:1004C200022DF9EC34F0FA120CCB5E4FFFE52B242F
:1004D20002F9EC34F0FAEF120D11052BE52BB404FE
:1004E200AF79017534017535F07536017B017AF00B
:1004F200191215D77B017AF07902121B030205EE5D
:1005020090E6BEE0B41B047F0180027F008F2AE4E4
:10051200FAF52CE4F52BE52BC39403501CAF02AB88
:100522002CAD2B1213FA052BE52A60047F038002FF
:100532007F02EF252CF52C80DD0ABA03D680091242
:1005420006CAFDE4FB1213FA1206231207B10205D2
:10055200EE1206C5FD121E470205EE1206C5FEC4C6
:1005620013135403FDA3E0FBA3E0F534121C2F0286
:1005720005EE90E6BEE070111206CAFDA3E0FBA3F1
:10058200E0F53B121BB60205EE90E6BEE0641B707E
:100592005BE090E68BF090E6A0E020E1F9E4F52B39
:1005A200E4F52D1206452440F582E58334E7F58310
:1005B200E0FD1206452441F582E58334E7F583E048
:1005C200FB1206452442F582E58334E7F583E0F524
:1005D2003BAF2B121BB6052DE52DC3940340C4057A
:0E05E2002BE52BC3940340B88002C322D32222
:101D5C00C0E0C083C08290E6B5E04401F0D201122D
:0C1D6C0006FE7401F0D082D083D0E0327B
:101EAC00C0E0C083C0821206FE7404F0D082D083DE
:031EBC00D0E03241
:101EBF00C0E0C083C0821206FE7402F0D082D083CD
:031ECF00D0E0322E
:101C9900C0E0C083C08290E680E030E70512078289
:101CA900800312078F1206FE7410F0D082D083D001
:021CB900E03217
:101E5C00C0E0C083C082D2031206FE7408F0D082A8
:051E6C00D083D0E0323C
:101CBB00C0E0C083C08290E680E030E70512078267
:101CCB00800312078F1206FE7420F0D082D083D0CF
:021CDB00E032F5
:011F9B003213
:011F9C003212
:011F9D003211
:011F9E003210
:011F9F00320F
:011FA000320E
:011FA100320D
:011FA200320C
:011FA300320B
:011FA400320A
:011FA5003209
:011FA6003208
:011FA7003207
:011FA8003206
:011FA9003205
:011FAA003204
:011FAB003203
:011FAC003202
:011FAD003201
:011FAE003200
:011FAF0032FF
:011FB00032FE
:011FB10032FD
:011FB20032FC
:011FB30032FB
:011FB40032FA
:011FB50032F9
:011FB60032F8
:011FB70032F7
:011FB80032F6
:011FB90032F5
:011FBA0032F4
:011FBB0032F3
:011FBC0032F2
:011FBD0032F1
:011FBE0032F0
:101C76009028E3EFF0F5CB8FCDAF05A3EFF0F5CAD3
:101C86008FCCE4F5C8758E19D2BDD2AFD2ADD2CA0B
:031C9600F55D22D7
:0D003600902803E0FF902802E0FD021C76F8
:031F8900AF5D2227
:101EF600AD07AC06C3E49DFBE49CFFEBFD021C763C
:05002E00C2CAC2AD22B0
:03002B0002139627
:10139600C0E0C0F0C083C082C0D075D000C000C01D
:1013A60001C002C003C004C005C006C007902806DD
:1013B600E0600312145D902808E06003120FBD90F0
:1013C600281AE0600312132E90285CE0600990282A
:1013D6001BE06003121686C2CFD007D006D005D018
:1013E60004D003D002D001D000D0D0D082D083D098
:0413F600F0D0E03221
:0A1F3A000001020203030404050580
:101AA300EC4EFEED4F243AF582741F3EF583E4932A
:101AB300FF3395E0FEEF24A1FFEE34E68F82F5833A
:101AC3002290E6BCE0547EFF7E00E0D394807C004D
:011AD30022F0
:03000B00021DE6ED
:101DE600C0E0C0D00546E546B43C0B054AE54A705E
:0B1DF600020549754600D0D0D0E03255
:1010B800E4F529F528F527F526C203C200C202C2C5
:1010C80001121776754B0A754CAC75530A7554BEE8
:1010D80075470A7548C875510A7552E875550B75F4
:1010E8005608D2E843D82090E668E04409F090E634
:1010F8005CE0443DF0D2AFD207121AD490E680E00B
:1011080054F7F0538EF8C2033001051207D9C20113
:10111800300329121F2F5024C203121C0A20001664
:1011280090E682E030E704E020E1EF90E682E030EC
:10113800E604E020E0E4121B5E120FFE121D3E8062
:01114800C7DF
:1007D90090E6B9E0700302088A1470030208DE2467
:1007E900FE700302093824FB7003020884147003A5
:1007F90002087E1460731460762405600302096F91
:10080900121F8C400302097B90E6BBE024FE6022A4
:1008190014603324FD601114602224067048E54BEE
:1008290090E6B3F0E54C8037E55390E6B3F0E55434
:10083900802DE54D90E6B3F0E54E8023E54F90E637
:10084900B3F0E550801990E6BAE0FF121B8AAA06B8
:10085900A9077B01EA494B600DEE90E6B3F0EF90F2
:10086900E6B4F002097B020974121F5602097B12D1
:100879001F5F02097B12000302097B121F4D020947
:100889007B121F8E400302097B90E6B8E0247F604B
:10089900151460192402703AA200E43325E0FFA27E
:1008A90002E4334F8018E490E740F08016121AC42E
:1008B90040047D0180027D00121AA3E0540190E7F3
:1008C90040F0E4A3F090E68AF090E68B7402F0021F
:1008D900097B020974121F90400302097B90E6B854
:1008E900E024FE60162402600302097B90E6BAE068
:1008F900B40105C20002097B02097490E6BAE070EE
:100909002C121AC440047D0180027D00121AA3E052
:1009190054FEF090E6BCE05480131313541FFFE01B
:10092900540F2F90E683F0E04420F08045803C127C
:100939001F92503E90E6B8E024FE601A24027032FD
:1009490090E6BAE0B40104D200802790E6BAE0B498
:100959000202801E8015121AC440047D0180027DA6
:1009690000121AA38008120E62500790E6A0E04414
:0A09790001F090E6A0E04480F022B7
:03003300021F7F2A
:041F7F0053D8EF3212
:101B5E0090E682E030E004E020E60B90E682E03092
:101B6E00E119E030E71590E680E04401F07F147E45
:0C1B7E00001217BE90E680E054FEF0223A
:101C0A0090E682E044C0F090E681F043870100004C
:041C1A0000000022A4
:101AD40030070990E680E0440AF0800790E680E051
:101AE4004408F07FDC7E051217BE90E65D74FFF0BB
:0F1AF40090E65FF05391EF90E680E054F7F02218
:081F6700E4F55CD2E9D2AF22DF
:1019A10090E678E020E6F9C2E990E678E04480F03C
:1019B100EF25E090E679F090E678E030E0F990E606
:1019C10078E04440F090E678E020E6F990E678E0AF
:0619D10030E1D6D2E9224C
:101A4000A90790E678E020E6F9E55C702390E67857
:101A5000E04480F0E925E090E679F08D57AF03A9E6
:101A6000077558018A59895AE4F55B755C01D322E0
:021A7000C3228F
:101A0C00A90790E678E020E6F9E55C702590E67889
:101A1C00E04480F0E925E0440190E679F08D57AF81
:101A2C0003A9077558018A59895AE4F55B755C035B
:041A3C00D322C322CC
:03004B00020BC3E2
:100BC300C0E0C083C082C085C084C086758600C073
:100BD300D075D000C000C001C002C003C006C0076A
:100BE30090E678E030E206755C06020CAD90E6789C
:100BF300E020E10CE55C64026006755C07020CAD65
:100C0300E55C24FE605F14603624FE7003020C9ED4
:100C130024FC7003020CAA24086003020CADAB5839
:100C2300AA59A95AAF5B055B8F82758300120CE446
:100C330090E679F0E55B65577070755C05806B90A5
:100C4300E679E0AB58AA59A95AAE5B8E8275830048
:100C5300120D23755C02E5576401704E90E678E04F
:100C63004420F08045E55724FEB55B0790E678E025
:100C73004420F0E55714B55B0A90E678E04440F071
:100C8300755C0090E679E0AB58AA59A95AAE5B8E21
:100C930082758300120D23055B800F90E678E04494
:100CA30040F0755C008003755C005391DFD007D082
:100CB30006D003D002D001D000D0D0D086D084D0CB
:080CC30085D082D083D0E0321D
:021B8A00A907A9
:101B8C00AE55AF568F828E83A3E064037017AD0100
:101B9C0019ED7001228F828E83E07C002FFDEC3ECC
:091BAC00FEAF0580DF7E007F0022
:011BB500220D
:101D7800121A0CE55C24FA600E146006240770F34E
:0C1D8800D322E4F55CD322E4F55CD32206
:101D9400121A40E55C24FA600E146006240770F3FE
:0C1DA400D322E4F55CD322E4F55CD322EA
:1017BE008E2A8F2B90E600E054187012E52B240130
:1017CE00FFE4352AC313F52AEF13F52B801590E6A7
:1017DE0000E05418FFBF100BE52B25E0F52BE52A92
:1017EE0033F52AE52B152BAE2A7002152A4E60050D
:0617FE00121C1E80EE2209
:101C1E007400F58690FDA57C05A3E582458370F9D9
:011C2E002293
:03004300021000A8
:0300530002100098
:10100000021D5C00021EBF00021EAC00021E5C003E
:10101000021C9900021CBB00021F9B00021F9C00C7
:10102000021F9D00021F9E00021F9F00021FA000C2
:10103000021FA100021FA200021FA300021FA400A2
:10104000021FA500021F9C00021FA600021FA7008E
:10105000021FA800021FA900021FAA00021FAB0066
:10106000021FAC00021F9C00021F9C00021F9C007C
:10107000021FAD00021FAE00021FAF00021FB00032
:10108000021FB100021FB200021FB300021FB40012
:10109000021FB500021FB600021FB700021FB800F2
:1010A000021FB900021FBA00021FBB00021FBC00D2
:0810B000021FBD00021FBE007B
:03000000021149A1
:0C114900787FE4F6D8FD75815E021190FD
:100CCB00BB010689828A83E0225002E722BBFE0227
:090CDB00E32289828A83E493225A
:100CE400BB010CE58229F582E5833AF583E02250C5
:100CF40006E92582F8E622BBFE06E92582F8E2220F
:0D0D0400E58229F582E5833AF583E4932228
:100D1100BB010689828A83F0225002F722BBFE01C1
:020D2100F322BB
:100D2300F8BB010DE58229F582E5833AF583E8F006
:100D3300225006E92582C8F622BBFE05E92582C8B2
:020D4300F2229A
:0C0D4500A42582F582E5F03583F58322B9
:100D5100D083D082F8E4937012740193700DA3A331
:100D610093F8740193F5828883E473740293686045
:060D7100EFA3A3A380DF45
:101E7100E4FFFE120CCB600C0FEF70010E09E9704C
:051E8100F20A80EF22CF
:100D7700EF4E6012EF60010EEDBB010B89828A8393
:100D8700F0A3DFFCDEFA2289F05007F709DFFCA9A0
:0C0D9700F022BBFEFCF309DFFCA9F022F7
:101155000210B8E493A3F8E493A34003F68001F2E8
:1011650008DFF48029E493A3F85407240CC8C3339B
:10117500C4540F4420C8834004F456800146F6DF6A
:10118500E4800B0102040810204080901EE4E47EF8
:10119500019360BCA3FF543F30E509541FFEE4935F
:1011A500A360010ECF54C025E060A840B8E493A326
:1011B500FAE493A3F8E493A3C8C582C8CAC583CA51
:1011C500F0A3C8C582C8CAC583CADFE9DEE780BE09
:011EF50000EC
:00000001FF
