:1008B800120100020000004005163180010001020B
:1008C80000010A06000200000040010009022000A1
:1008D800010100A0320904000002FF000000070522
:1008E8000202000200070586020002000902200039
:1008F800010100A0320904000002FF000000070502
:1009080001024000000705810240000004030904B9
:1009180026034100430043004500530020004900DE
:100928002F004F002000500072006F006400750017
:100938006300740073001C035500530042002D002F
:100948004900490052004F0034002D0043004F0079
:040958004D0000004E
:03004300020800B0
:03005300020800A0
:100800000207DF00020D7C00020D6600020D4E00A3
:10081000020B3E00020B7500020032000200520083
:10082000020DEE00020DEF00020DF000020DF100CE
:10083000020DF200020DF300020DF400020DF500AE
:10084000020DF60002005200020DF700020DF80042
:10085000020DF900020DFA00020DFB00020DFC0072
:10086000020DFD0002005200020052000200520080
:10087000020DFE00020DFF00020E0000020E01003C
:10088000020E0200020E0300020E0400020E05001A
:10089000020E0600020E0700020E0800020E0900FA
:1008A000020E0A00020E0B00020E0C00020E0D00DA
:0808B000020E0E00020E0F0003
:0A0DB6000001020203030404050516
:10095C00E4F50BF50AF509F508C203C200C202C2A0
:10096C0001120CFA7523087524B8752B08752CCA5E
:10097C007521087522D4752908752AF4752D097509
:10098C002E14D2E843D82090E668E04409F090E6B3
:10099C005CE0443DF0D2AFD20412000390E680E05C
:1009AC0054F7F0538EF8C2033001051203A1C201B3
:1009BC003003291207FE5024C203120CD520001656
:1009CC0090E682E030E704E020E1EF90E682E03050
:1009DC00E604E020E0E4120C7D120DE4120B06801C
:0109EC00C743
:1003A10090E6B9E070030204521470030204CF24F2
:1003B100FE700302055224FB700302044C14700307
:1003C100020446146073146076240560030205B1CB
:1003D100120DE640030205BD90E6BBE024FE60225B
:1003E10014603324FD601114602224067048E52353
:1003F10090E6B3F0E5248037E52B90E6B3F0E52CE9
:10040100802DE52590E6B3F0E5268023E52790E6EB
:10041100B3F0E528801990E6BAE0FF120CA9AA060C
:10042100A9077B01EA494B600DEE90E6B3F0EF902E
:10043100E6B4F00205BD0205B6120DA40205BD1217
:100441000DC80205BD120DC00205BD120D920205B7
:10045100BD120DE840030205BD90E6B8E0247F60BF
:100461001514601924027063A200E43325E0FFA291
:1004710002E4334F8041E490E740F0803F90E6BCD6
:10048100E0547EFF7E00E0D394807C0040047D0137
:1004910080027D00EC4EFEED4F24B6F582740D3ED8
:1004A100F583E493FF3395E0FEEF24A1FFEE34E6FC
:1004B1008F82F583E0540190E740F0E4A3F090E6E9
:1004C1008AF090E68B7402F00205BD0205B6120DAA
:1004D100EA40030205BD90E6B8E024FE601624025E
:1004E10060030205BD90E6BAE0B40105C200020551
:1004F100BD0205B690E6BAE0705590E6BCE0547EC8
:10050100FF7E00E0D394807C0040047D0180027D69
:1005110000EC4EFEED4F24B6F582740D3EF583E4FA
:1005210093FF3395E0FEEF24A1FFEE34E68F82F5D1
:1005310083E054FEF090E6BCE05480131313541F83
:10054100FFE0540F2F90E683F0E04420F0806D80AF
:1005510064120DEC506690E6B8E024FE60192402A6
:10056100705A90E6BAE0B40104D200804F90E6BA26
:10057100E064026047803E90E6BCE0547EFF7E006E
:10058100E0D394807C0040047D0180027D00EC4E2C
:10059100FEED4F24B6F582740D3EF583E493FF33EF
:1005A10095E0FEEF24A1FFEE34E68F82F58380080B
:1005B100120056500790E6A0E04401F090E6A0E05A
:0305C1004480F083
:0105C4002214
:0300330002004E7A
:04004E0053D8EF3262
:04004600022F000085
:040DD80043B02022E2
:040DDC0053B0DF220F
:040DE00063B02022BA
:0600360090E740E0F580B8
:07003C0053B0FD43B00222A6
:100CFA00D200120DD07580FF75B2FFE4F5B3F5B0DE
:0C0D0A0075B5FF75B002120DDC02003C54
:100B0600E5336033E530452F7006752F2F7530FFBE
:100B1600E53015307002152FE530452F7004F5339A
:100B2600800FAE2FAF307C0B7DFF12071CEF20E04D
:070B360003020DDC120DD8D3
:010B3D002295
:0207FE00D32204
:020DE400D32218
:020DE600D32216
:080DC00090E6BAE0F534D322FD
:100D920090E740E534F0E490E68AF090E68B04F0C8
:020DA200D3225A
:080DC80090E6BAE0F531D322F8
:100DA40090E740E531F0E490E68AF090E68B04F0B9
:020DB400D32248
:020DE800D32214
:020DEA00D32212
:020DEC00D32210
:1000560075330190E678E05410FFC4540F4450F510
:100066003213E433F53590E6B9E012077101C007A3
:1000760001481001661101721201DD2001E3210120
:10008600E323039F28039F2C039F2D039F2E018BA1
:1000960030018B31021BA2021BA30215A901EBAC96
:1000A600039FF000B6F100BFF2039FF30000039D2B
:1000B60090E6BAE0F5800201E390E6BEE0750E0038
:1000C600F50FA3E0FEEE420EE50F450E700490E636
:1000D6008BF0E50F450E700302039F90E6A0E0202B
:1000E600E1F9C3E50F9440E50E94005008850E1023
:1000F600850F118006751000751140E4F512F51391
:10010600C3E5139511E5129510501DAF13C3E50F06
:100116009FFE74402FF582E434E7F583EEF0051375
:10012600E51370DC051280D8E490E68AF090E68B41
:10013600E511F0C3E50F9511F50FE50E9510F50ED7
:10014600809090E6BEE0D39400500302039FE090B7
:10015600E68BF090E6A0E020E1F912003602039F5C
:1001660090E740E580F0A3E590F0801690E6BEE0CB
:10017600D39400500302039F90E6A0E020E1F91219
:100186000036E4802F90E740E580F0A3E590F0A3E9
:10019600E5A0F0A3E5B0F0E5B130E0047F01800210
:1001A6007F0090E6BAEFF090E7457469F0E4A3F0BB
:1001B600A3F0A3F090E68AF0801D90E6BAE0FF1265
:1001C6000CA9AA06A9077B01EA494B6008EE90E64E
:1001D600B3F0EF8033D32290E6BEE08001E490E6F0
:1001E6008BF002039F90E6B5E054FEF090E6BFE088
:1001F60090E68AF090E6BEE090E68BF090E6BBE0F3
:1002060090E6B3F090E6BAE090E6B4F002039F758C
:10021600350143320190E6BAE0750C00F50DA3E016
:10022600FEEE420C90E6BEE0750E00F50FA3E0FE72
:10023600EE420E90E6B8E064C06003020307E50FE5
:10024600450E700302039F90E6A0E020E1F9C3E5A6
:100256000F9440E50E94005008850E10850F11800E
:100266000675100075114090E6B9E0B4A335E4F5C3
:1002760012F513C3E5139511E5129510505EE50DC1
:100286002513F582E50C3512F583E0FF744025133E
:10029600F582E434E7F583EFF00513E51370D40532
:1002A6001280D0E4F512F513C3E5139511E5129506
:1002B60010501874402513F582E434E7F58374CDA5
:1002C600F00513E51370E1051280DDAD117AE779CB
:1002D600407F40AB07AF0DAE0C120797E490E68A5D
:1002E600F090E68BE511F0250DF50DE510350CF5D2
:1002F6000CC3E50F9511F50FE50E9510F50E0202EC
:100306004490E6B8E06440600302039FE50F450EA3
:10031600700302039FE490E68AF090E68BF090E685
:10032600A0E020E1F990E68BE0751000F51190E66B
:10033600B9E0B4A335E4F512F513C3E5139511E559
:10034600129510503674402513F582E434E7F58390
:10035600E0FFE50D2513F582E50C3512F583EFF088
:100366000513E51370D4051280D0AD117AE77940F4
:100376007F40AB07AF0DAE0C120BE2E511250DF574
:100386000DE510350CF50CC3E50F9511F50FE50ECF
:0A0396009510F50E020312D322C3E6
:0103A000223A
:1007DF00C0E0C083C08290E6B5E04401F0D201537F
:0F07EF0091EF90E65D7401F0D082D083D0E032BC
:100D6600C0E0C083C0825391EF90E65D7404F0D07A
:060D760082D083D0E032C0
:100D7C00C0E0C083C0825391EF90E65D7402F0D066
:060D8C0082D083D0E032AA
:100B3E00C0E0C083C08290E680E030E70E852125BC
:100B4E00852226852927852A28800C852925852A10
:100B5E00268521278522285391EF90E65D7410F0AB
:070B6E00D082D083D0E032F9
:100D4E00C0E0C083C082D2035391EF90E65D740879
:080D5E00F0D082D083D0E03216
:100B7500C0E0C083C08290E680E030E70E85212585
:100B8500852226852927852A28800C852925852AD9
:100B9500268521278522285391EF90E65D7420F064
:070BA500D082D083D0E032C2
:01003200329B
:01005200327B
:010DEE0032D2
:010DEF0032D1
:010DF00032D0
:010DF10032CF
:010DF20032CE
:010DF30032CD
:010DF40032CC
:010DF50032CB
:010DF60032CA
:010DF70032C9
:010DF80032C8
:010DF90032C7
:010DFA0032C6
:010DFB0032C5
:010DFC0032C4
:010DFD0032C3
:010DFE0032C2
:010DFF0032C1
:010E000032BF
:010E010032BE
:010E020032BD
:010E030032BC
:010E040032BB
:010E050032BA
:010E060032B9
:010E070032B8
:010E080032B7
:010E090032B6
:010E0A0032B5
:010E0B0032B4
:010E0C0032B3
:010E0D0032B2
:010E0E0032B1
:010E0F0032B0
:060A7900AB07AA06AC0564
:100A7F00E4FDE535600F7E000DEE2400F582E434D1
:100A8F0000F583EAF0AE050D74002EF582E4340014
:100A9F00F583EBF0AF050D74002FF582E43400F50C
:100AAF0083ECF07A007B00AF32120D32AF32020BC3
:010ABF00AC8A
:0A0BE2008E148F158D168A178B18DC
:100BEC00E4F519E519C3951650200515E515AE1455
:100BFC007002051414FFE5182519F582E43517F574
:0A0C0C0083E0FD120A79051980D972
:010C160022BB
:0A0797008E148F158D168A178B182B
:1007A100E4FDF519E5356012E514FF7E000DEE2438
:1007B10000F582E43400F583EFF0AE050D74002EF0
:1007C100F582E43400F583E515F07A007B00AF3261
:0E07D100120D32AB18AA17AD16AF32020D167C
:100C7D0090E682E030E004E020E60B90E682E03082
:100C8D00E119E030E71590E680E04401F07F147E35
:0C0C9D0000120AC090E680E054FEF02235
:100CD50090E682E044C0F090E681F0438701000091
:040CE50000000022E9
:1000030030040990E680E0440AF0800790E680E03F
:100013004408F07FDC7E05120AC090E65D74FFF0B1
:0F00230090E65FF05391EF90E680E054F7F02203
:080DD000E4F51FD2E9D2AF22C5
:100BAC0090E678E020E6F9C2E990E678E04480F03F
:100BBC00EF25E090E679F090E678E030E0F990E609
:100BCC0078E04440F090E678E020E6F990E678E0B2
:060BDC0030E1D6D2E9224F
:100C4B00A90790E678E020E6F9E51F702390E67897
:100C5B00E04480F0E925E090E679F08D1AAF03A926
:100C6B0007751B018A1C891DE4F51E751F01D32214
:020C7B00C32292
:100C1700A90790E678E020E6F9E51F702590E678C9
:100C2700E04480F0E925E0440190E679F08D1AAFC1
:100C370003A907751B018A1C891DE4F51E751F038F
:040C4700D322C322CF
:03004B000205C5E6
:1005C500C0E0C083C082C085C084C086758600C077
:1005D500D075D000C000C001C002C003C006C0076E
:1005E50090E678E030E206751F060206AF90E678E1
:1005F500E020E10CE51F64026006751F070206AFE7
:10060500E51F24FE605F14603624FE70030206A019
:1006150024FC70030206AC240860030206AFAB1B82
:10062500AA1CA91DAF1E051E8F827583001206CD5B
:1006350090E679F0E51E651A7070751F05806B9060
:10064500E679E0AB1BAA1CA91DAE1E8E8275830040
:100655001206FA751F02E51A6401704E90E678E0FD
:100665004420F08045E51A24FEB51E0790E678E0A3
:100675004420F0E51A14B51E0A90E678E04440F0EF
:10068500751F0090E679E0AB1BAA1CA91DAE1E8E56
:10069500827583001206FA051E800F90E678E04405
:1006A50040F0751F008003751F005391DFD007D000
:1006B50006D003D002D001D000D0D0D086D084D0CF
:0806C50085D082D083D0E03221
:020CA900A90799
:100CAB00AE2DAF2E8F828E83A3E064037017AD0140
:100CBB0019ED7001228F828E83E07C002FFDEC3EBC
:090CCB00FEAF0580DF7E007F0012
:010CD40022FD
:100D1600120C17E51F24FA600E146006240770F300
:0C0D2600D322E4F51FD322E4F51FD322F2
:100D3200120C4BE51F24FA600E146006240770F3B0
:0C0D4200D322E4F51FD322E4F51FD322D6
:100AC0008E0C8F0D90E600E054187012E50D240195
:100AD000FFE4350CC313F50CEF13F50D801590E60C
:100AE00000E05418FFBF100BE50D25E0F50DE50CF7
:100AF00033F50CE50D150DAE0C7002150C4E6005AE
:060B0000120CE980EE2258
:100CE9007400F58690FDA57C05A3E582458370F91E
:010CF90022D8
:030000000209ED05
:0C09ED00787FE4F6D8FD758135020A34ED
:1006CD00BB010CE58229F582E5833AF583E02250E2
:1006DD0006E92582F8E622BBFE06E92582F8E2222C
:0D06ED00E58229F582E5833AF583E4932246
:1006FA00F8BB010DE58229F582E5833AF583E8F036
:10070A00225006E92582C8F622BBFE05E92582C8E1
:02071A00F222C9
:10071C00BC000BBE0029EF8DF084FFADF022E4CCC1
:10072C00F875F008EF2FFFEE33FEEC33FCEE9DEC8A
:10073C00984005FCEE9DFE0FD5F0E9E4CEFD22EDD0
:10074C00F8F5F0EE8420D21CFEADF075F008EF2F1A
:10075C00FFED33FD4007985006D5F0F222C398FD0B
:05076C000FD5F0EA22A8
:10077100D083D082F8E4937012740193700DA3A317
:1007810093F8740193F5828883E47374029368602B
:06079100EFA3A3A380DF2B
:1009F90002095CE493A3F8E493A34003F68001F2AF
:100A090008DFF48029E493A3F85407240CC8C333FE
:100A1900C4540F4420C8834004F456800146F6DFCD
:100A2900E4800B0102040810204080900046E47E17
:100A3900019360BCA3FF543F30E509541FFEE493C2
:100A4900A360010ECF54C025E060A840B8E493A389
:100A5900FAE493A3F8E493A3C8C582C8CAC583CAB4
:100A6900F0A3C8C582C8CAC583CADFE9DEE780BE6C
:01004A0000B5
:00000001FF
