:1001000012010002000000400516108001000102EB
:020110000001EC
:0A0114000A0600020000004001008E
:1001200009022000010100A0FA0904000002FF00FA
:100130000000070502020002000705860200020017
:1001420009022000010100A0FA0904000002FF00D8
:10015200000007050102400000070581024000007F
:100164001403000000000000000000000000000074
:1001740000000000260341004300430045005300F3
:10018400200049002F004F002000500072006F0033
:100194006400750063007400730026035500530067
:1001A40042002D004900440049004F002D00310059
:1001B40036002000460061006D0069006C00790083
:1001C40000008081828384858687909192939495A0
:1001D4009697A0A1A2A3A4A5A6A7B0B1B2B3B4B5A3
:1001E400B6B7C0D0C0E0EF9001C6939001FDF0ED2A
:1001F4009001C6939001FFF0A2009200D0E0D0D00D
:1002040022C0D0C0E0EF9001C69390021CF0ED90A4
:1002140001C69390021FF0A200B39200D0E0D0D0A8
:0102240022B7
:100056005553422D4949524F2D3136005553422DA5
:1000660049492D3136005553422D524F2D31360018
:100076005553422D4949524F2D38005553422D496B
:10008600492D38005553422D4949524F2D303400E1
:100096005553422D4944494F2D3136005553422D73
:1000A60049492D31362D4F454D005553422D494472
:1000B6004F2D3136005553422D4944494F2D3800B6
:1000C6005553422D49492D382D4F454D0055534224
:1000D6002D4944494F2D34005553422D49492D345D
:1000E6002D4F454D005553422D49492D4F544845F6
:0200F6005200B6
:101BA50090E740E580F0A3E590F0A3E5A0F0A3E57C
:101BB500B0F0E42290E68AF090E6BEE090E68BF085
:081BC50090E6A0E04480F0224C
:04002E0043B1402278
:0400460053B1BF22D1
:04004E0063B1402238
:071F120053B1F543B10A22AF
:10175C00EF5407FE7401A806088002C333D8FCFEC0
:10176C00EF131313541FFFED6011EF146008047096
:10177C001BEE42808016EE42908011EF146009043B
:0F178C00700AEEF452808004EEF45290021F12A5
:1017D800EF54F824F8601024F8601024F8601024FE
:1017E80018700EAE80800AAE908006AEA08002AE61
:1017F800B0EF5407FF7401A807088002C333D8FC70
:0B1808005206EE60047F0180027F00AA
:0118130022B2
:10000E00E580120484900001E5901204969000029F
:0D001E00E5A0120496900003E5B0020496E0
:101DD10012043E78B6F6F58090000112045778B7E8
:061DE100F6F590021F124E
:101BCD00785EE660031210997860E66003121642A3
:101BDD007872E6600312168D78B4E660087873E6C5
:061BED00600312171A222A
:0100320022AB
:031F2100020EF7B6
:01004200229B
:01004A002293
:01005200228B
:100EF7007AE779407F40AB077D017F037E001218B8
:100F07008B90E740E0541FF51B90010AE0451BF06A
:100F1700E51B540FB410004003020FC2900F2AF8CC
:100F2700282873020F5A020F62020F6A020FC202C9
:100F37000F72020F7A020F82020FC2020F8A020F8C
:100F470092020F9A020FC2020FA2020FAA020FB259
:100F5700020FBA7BFF7A00795680667BFF7A0079A9
:100F670062805E7BFF7A00796C80567BFF7A00791E
:100F770076804E7BFF7A00798180467BFF7A007905
:100F87008A803E7BFF7A00799680367BFF7A0079EC
:100F9700A2802E7BFF7A0079B080267BFF7A0079CA
:100FA700BB801E7BFF7A0079C680167BFF7A0079AB
:100FB700D3800E7BFF7A0079DE80067BFF7A00798B
:050FC700EB12154D22A4
:0800030078B576FF0876FF22B4
:101CF60078B5E6F58008E6F59075B2FF75B3FFE4B2
:0D1D0600F5B4F5B575B18A75B67F021F12F0
:101E77008F248D253006030201E6AD25AF2412021B
:021E8700052232
:011F35002289
:031F2400021F1287
:0800F80078B976FF0876FF22BB
:0C00360078B9E6F58008E6F590021F128C
:1018FC0090E6B8E030E707121BA5121BB92290E660
:10190C00BEE0D39400401EE090E68BF090E6A0E0A1
:10191C0020E1F990E740E078B5F6F580A3E008F611
:06192C00F590121F1222CB
:101B5100D204120CDA402290E6B9E024D0600C14D1
:101B61006009241F70111218FC800E121BA590E64B
:0B1B7100BAF0121BB98002D322C3227D
:101D9E005646656220323820323031374031323A81
:0B1DAE0032343A343100000000000025
:101E270002171DB502080000010F01010C01010A8C
:041E3700010114FF92
:100A5E00E6FFAE30053074402EF582E434E7F583C0
:100A6E0022E490E68AF090E6BEE090E68BF02290CB
:100A7E00E740F0E490E68AF090E68B22E0FE7424E4
:100A8E002FF582E43420F583E022FF7444252BF504
:100A9E0082E434E7F583EFF0052BE52B22FF7E0091
:100AAE000DEE2518F582E43517F583222530F53045
:100ABE00E533352FF52FC3E5329534F532E5319513
:100ACE0033F5312274402536F58274E73535F583DA
:100ADE002224B97C007B00F9EC22742E252BF582A2
:100AEE00E43420F583225391EF90E65D2274042FB7
:100AFE00F582E43420F5832274002EF582E434204E
:100B0E00F583E0227D657A007B587F017E1F22E40B
:100B1E00F512F513F519F51A2290E6BEE0640122DE
:100B2E00C3E5369534E535953322742A2FF582E4E4
:100B3E003420F58322E52125E02462F8E6FE547F79
:100B4E00FFEE2290E6BEE0640222E5302536F58205
:100B5E00E52F3535F58322854448854549854C4A30
:100B6E00854D4B22854C48854D4985444A85454BDC
:100B7E002290E6A0E04480F022AD347AE77B40AFCD
:100B8E0030AE2F227C007B00F9EC2290E740E0F69D
:100B9E00A3E008F6227B017AE779402290E740E055
:100BAE00FFE6FE25E022F8A607A3E0FFEE25E022F1
:101DFD00785BE6FF700418E66007785AE6FD021D71
:051E0D002F121F2A2224
:101C7C007E007F657D007B007A00795812056E78B6
:0F1C8C0058760AE408F6120003121CF6021DE750
:101C9B007D02120B1412188B7858E6B40A0408E66E
:0F1CAB006003021C7C120B1212188B121CF62203
:101DE7007858760AE408F6120B1212199E7D657F61
:061DF700007E1F021F2701
:10149300121DFD90E6BEE0F53A753C02E53A604B5D
:1014A300C394405005853A3B8003753B40120A8143
:1014B300E53BF090E6A0E020E1F9E4F539E539C336
:1014C300953B501E74402539120A67E0FFAE3C0578
:1014D3003CEE2458120AE13400FAEF120484053971
:0E14E30080DBC3E53A953BF53A80B1021DFD72
:10140B0090E6B8E030E733E4F530F52FE52FC394E1
:10141B000450207E007B0074B5252FF9EE3400FAC2
:10142B0012043EFF74402530120A67EFF0052F05BA
:10143B003080D9120A6F120B7F22120A7490E6A029
:10144B00E020E1F990E6BEE064046003C20422E40C
:10145B00F52FF530E52FC39404501D744025301241
:10146B000A67E0FFE52F24B5120B923400FAEF1256
:10147B000484052F053080DC90E6BAE0B4CE08A3D7
:07148B00E0B4AC03121DE701
:011492002237
:0F1EBB00D3E51A950EE519950D4003121EDF228F
:011F36002288
:101C5C00785DE6FE18E67C002400F50EEC3EF50DF2
:101C6C00450E7007C28CC2A9C20522D28CD2A92201
:011F37002287
:101A9B00120A7490E6A0E020E1F9E4FF74422FF5FE
:101AAB0082E434E7F583E0FEEF120ADF3400FAEE4E
:0F1ABB001204840FBF04E5785C120B99021C5CC7
:091EDF00120036120B1DD205227F
:101DB900C205120B1DC28CC2A9538EF75389F14378
:081DC9008901121F37021C5CA6
:10193200E50945086019E50915097002150814C37F
:1019420094FFE5086480948050161200468011309E
:10195200040E7508057509FF12002EC204120B1D34
:05196200300502D20473
:01196700225D
:100FCC0090E6B8E030E759E4F530785C120A5EEF51
:100FDC00F008120A5EEFF0E4F52FE52FC3940450ED
:100FEC00207E007B0074B9252FF9EE3400FA120430
:100FFC003EFF74402530120A67EFF0052F05308054
:10100C00D9120A60E51AF0E519120A5FEFF0A20591
:10101C00E433120A5FEFF0C205120A6F120B7F2243
:10102C00120A7490E6A0E020E1F9C20590E6BEE059
:10103C0064066003C20422E4F530AF30053074401E
:10104C002F120A67E0785CF6AF30053074402F122F
:10105C000A67E008F6E4F52FE52FC39404501B74DF
:10106C00402530120A67E0FFE52F120ADF3400FA40
:10107C00EF120484052F053080DE121C5C90E6BA5A
:0C108C00E0B4CE08A3E0B4AC03121DE7F2
:011098002235
:0410FA00750F01224B
:1014F100121DFD90E6BEE0F53AE4F53CE53A604B9D
:10150100C394405005853A3B8003753B40120A81E4
:10151100E53BF090E6A0E020E1F9E4F539E539C3D7
:10152100953B501E74402539120A67E0FFAE3C0519
:101531003CEE2473120B923400FAEF120484053945
:0B15410080DBC3E53A953BF53A80B132
:01154C00227C
:10171A00150FE50F703B7873E6F50F121F35E4F5E8
:10172A0021E521C378B4965025E52125E02474F8F3
:10173A00E6F522E52125E02475F8E6F523547FFD38
:10174A00E523339206AF22121E77052180D3121F9A
:01175A00246A
:01175B00226B
:101E9B00120A7490E6A0E020E1F9785E120B992209
:10109900150CE50C705A785EE6F50C7B017A20791F
:1010A9003212000EE4FFFE74322EF582E43420F58C
:1010B90083E0FD120B066DF97D01E4FCECC3940895
:1010C9005028E95D6013120AFBE014F0120AFBE0F4
:1010D9007010120B066DF08000785FE6FB120AFBB8
:1010E900EBF00CED25E0FD0F80D20EEE640470B735
:0110F90022D4
:101E8900120A7490E6A0E020E1F990E740E078605A
:021E9900F6222F
:101CBA00E4F515FF120A8CFE742E2F120AECEEF0D0
:0D1CCA00120A8CFE120B38EEF00FBF04E77B
:011CD70022EA
:10164200150AE50A70447860E6F50A7B017A20798A
:101652002412000EE4FF742E2F120AECC083C08203
:10166200120A8AFDEE5DD082D083F0120B38C0835D
:10167200C082120A8AFDEE4DD082D083F00FBF04E1
:0A168200D5E515C394FF50020515CD
:01168C00223B
:041F19007514FF221A
:10168D00E4F5210514F521E521C3787296502EE578
:10169D002125E02463F8E6C39514500E120B433058
:1016AD00E7047D0080107D01800C120B4330E704B0
:1016BD007D0180027D0012175C052180CAE514783A
:0616CD0061667002F514D5
:0116D30022F4
:101B7C00120A7490E6A0E020E1F9E4FF74402F1201
:101B8C000A67E0FEEF7C007B002461F9EC3400FA7C
:081B9C00EE1204840FBF12E4F5
:011BA400221E
:041263008E398F3AF7
:10126700E4F53BE53A64024539700C90E741F0E557
:101277003A153A70021539E53A640145397010900C
:10128700E7407465120A73E53A153A70021539E5B5
:101297003A4539605490E6A0E020E1F9C3E53A9475
:1012A70040E53994005004AD3A80027D40E4FFEFF9
:1012B700C39D5021AE3B053BEE7583007B00245850
:1012C700F9E5833400FA12043EFE74402F120A67D0
:1012D700EEF00F80DA120A81EDF0FFC3E53A9FF5D1
:0912E7003AE5399400F53980A6BE
:0112F00022DB
:10059A0090E6B8E030E76090E6BFE0FE90E6BEE0A5
:1005AA00FDEDFF4E7002804A90E6BDE0FD90E6BC8C
:1005BA00E04D700302126390E6BDE060030208B3E7
:1005CA0090E6BCE01460030208B3753CFF753D1D5C
:1005DA00753E9E753F0075401E7B017AE779411290
:1005EA0015A4120BA3121E3CEF0490E740F090E60C
:1005FA00BEE090E68BF02290E6BFE0FF90E6BEE018
:10060A004F706D90E6BDE0704B90E6BCE024EF6061
:10061A0023249F603024FD603224F36033247270F7
:10062A003390E6BAE064CE702BA3E064AC70251276
:10063A001DE7802090E6BAE0B4CE19A3E0B4AC146A
:10064A00121C7C800FE47872F680097514FF80040E
:10065A00E478B4F690E6BDE0648060030208B390E3
:10066A00E6BCE0640160030208B390E6BA0207310F
:10067A0090E6BFE060030208B390E6BDE0FE90E6B4
:10068A00BCE07C002400FFEC3EFEEF8EF012054138
:10069A0006E2002006E2002106E2002206E200232A
:1006AA000717002F073A0041074800510753005324
:1006BA00076F0061077A00630796007107A4007349
:1006CA0007C0007407F2008108000083081C008438
:1006DA00084E8001000008B390E6BEE0B46303123E
:1006EA00149390E6BCE030E003121CF690E6BCE0FE
:1006FA0020E1030208B390E6BAE064CE6003020880
:10070A00B3A3E064AC60030208B3021DE7120B5105
:10071A0060030208B3E090E68BF090E6A0E020E1E7
:10072A00F9121DFD90E740E0785AF6A3E00208AE00
:10073A0090E6BEE0640660030208B3021A9B120B3D
:10074A005160030208B3021E9B120B2760030208C2
:10075A00B3E090E68BF090E6A0E020E1F990E74064
:10076A00E0785EF622120B2760030208B3021E89A4
:10077A00120B2760030208B3E090E68BF090E6A024
:10078A00E020E1F990E740E07860F62290E6BEE0EA
:10079A00641260030208B3021B7C120B2760030277
:1007AA0008B3E090E68BF090E6A0E020E1F990E74C
:1007BA0040E07861F622120B5160030208B37872A6
:1007CA00E6C3940840030208B3E090E68BF090E693
:1007DA00A0E020E1F97872120BAA2460120BB4246B
:1007EA0061F8A6077872062290E6BEE064426003CA
:1007FA000208B30214F1120B2760030208B3E09057
:10080A00E68BF090E6A0E020E1F990E740E078730B
:10081A00F622120B5160030208B378B4E6C394209F
:10082A0040030208B3E090E68BF090E6A0E020E1F6
:10083A00F978B4120BAA2472120BB42473F8A6071F
:10084A0078B40622120A7490E6A0E020E1F990E654
:06085A00BEE064047053CF
:1008600090E740E0FCA3E0FDA3E0FEA3E0F5328EBC
:10087000318D308C2FFBAA31A930A82F7F007E1B31
:100880007D377C4B1203208F368E358D348C33AB05
:1008900036AA35A934A833E4FFFE7D807C471202D6
:1008A000281203BD8E378F38EF785AF6E53708F6F1
:0308B000121DFD19
:0108B3002222
:101D830090E6047480F00000007402F00000007418
:0B1D930006F0000000E4F00000002259
:011F38002286
:10185000E4F52A7AE779407F40AB077D087FF87E80
:101860001D12188BE4F52A7440252A120A67E0FD40
:10187000E52A75F002A42466F9740135F08982F531
:0A18800083EDF0052AE52AB408DD27
:01188A00223B
:1018140090E678E05410FFC4540F4450F51013E4DC
:1018240033F516438E20120032121F0A121850127A
:101834001F21D200121C9B121DB91210FA121CBADD
:0C184400121F19121DFD12004602004286
:101CD80012004A121932121EBBE5B190E68020E7C5
:0E1CE80006E04408F08004E054F7F0020052D9
:06154D008B2A8A2B892C79
:10155300E4F52D121E3C8F2EE52E25E0240290018A
:101563009EF0E4F52DAF2EEF3395E0FEC3E52D9FFE
:10157300EE6480F87480985027AB2AAA2BA92C8597
:101583002D82758300120457FDE52D75F002A42406
:10159300A0F9740135F08982F583EDF0052D80C53E
:0115A3002225
:0618C4008E3F8F40AC05D1
:1018CA00E4FDE5166007E53F120AABEFF0AE050D41
:1018DA00E5182E120AB2E540F0AF050DE5182F12F1
:1018EA000AB2ECF0AB18AA17AF10121D67AF1002BC
:0218FA0019686B
:031F27000218C4D9
:0A199E008E398F3A8D3B8A3C8B3D59
:1019A800E4F53EE53EC3953B5020053AE53AAE39AD
:1019B8007002053914FFE53D253EF582E4353CF516
:0A19C80083E0FD121F27053E80D9C1
:0119D20022F2
:0A188B008E378F388D398A3A8B3B77
:10189500E4FDF53CE5166007E537120AABEFF0AE5F
:1018A500050DE5182E120AB2E538F0AB18AA17AFE8
:0F18B50010121D67AB3BAA3AAD39AF10021D4BA5
:100BBE0090E6BAE0752F00F530A3E0FEEE422F90DE
:100BCE00E6BEE0753100F532A3E0FEEE423190E66E
:100BDE00B8E064C06003020C84E532453170030254
:100BEE000CD990E6A0E020E1F9C3E5329440E5315E
:100BFE009400500885313385323480067533007584
:100C0E00344090E6B9E064A3704090E6BCE0B401D5
:100C1E001BA3E0701790E6BBE030E71090E740743E
:100C2E0003F0A37401F0A37403F0803EE4F535F5F0
:100C3E0036120B2E5034120B58E0FF120AD2EFF080
:100C4E000536E53670EB053580E7E4F535F53612F9
:100C5E000B2E5010120AD274CDF00536E53670EF19
:100C6E00053580EB120B8712188B120A81E534F0D2
:100C7E00120ABA020BE790E6B8E06440704DE53216
:100C8E0045316047120A81F090E6A0E020E1F9902C
:100C9E00E68BE0753300F53490E6B9E0B4A31EE4BC
:100CAE00F535F536120B2E501A120AD2E0FF120B42
:100CBE0058EFF00536E53670EB053580E7120B87F9
:0B0CCE0012199EE534120ABA020C8CC9
:010CD90022F8
:0B1ECA00E50E450D7003D38001C3221C
:0210FE00D322FB
:021F2D00D322BD
:081EFA0090E6BAE0F50BD322DB
:091EE800E50B120A7D04F0D3227F
:081F020090E6BAE0F511D322CC
:091EF100E511120A7D04F0D32270
:021F2F00D322BB
:021F3100D322B9
:021F3300D322B7
:1011B800E4FF90E6B8E020E7030212620F0F7440E4
:1011C8002401120A67740AF00F74402402120A6795
:1011D800E4F00F74402403120A67E4F00F7440240B
:1011E80004120A67E4F00F74402405120A677404B5
:1011F800F00F74402406120A67E4F00F74402407C5
:10120800120A67E4F00F74402408120A6774FFF0AA
:101218000F74402409120A6774FFF00F7440240AFF
:10122800120A677408F00F7440240B120A677420BE
:10123800F00F7440240C120A67740FF00F744024E6
:101248000D120A67741FF00F7440240E120A677497
:0A12580001F090E740EFF0120A6F7A
:011262002269
:100CDA0090E6B9E012051B0D21100D21110D5A14D1
:100CEA000DCB150D0F280D092E0D033C0D1B3F0DC5
:100CFA0015A20D15A300000DEB12059A020DED12B7
:100D0A000FCC020DED12140B020DED120BBE020DEB
:100D1A00ED1211B8020DED90E6B8E030E709120BBA
:100D2A00A312000E020DE390E6BEE0701090E6BC3E
:100D3A00E0FF90E6BAE0FD12175C020DED120A74AC
:100D4A0090E6A0E020E1F9120BA3121DD1020DEDED
:100D5A00C2AF90E750E515F0E4F5157B017AE77923
:100D6A004C12000EE4F52B7424252B120A8FFF7403
:100D7A0040252B120A67120AA4B404EB90E6BCE0E1
:100D8A006010E4F52B120AE8E0F4120A98B404F5AC
:100D9A00800DE4F52B120AE8E0120A98B404F6E48E
:100DAA00F52B742A252B120B3BE0FF7448252BF5F3
:100DBA0082E434E7120AA2B404E8121CBAD2AF8061
:100DCA0018E4F52B7400252B120B09FF7440252B10
:100DDA00120A67120AA4B404EB120A6F120B7F807C
:040DEA0002C322D34B
:010DEE0022E2
:101D1300C0E0C083C08290E6B5E04401F0D2011276
:0C1D23000AF47401F0D082D083D0E032CA
:101E5100C0E0C083C082120AF47404F0D082D0833F
:031E6100D0E0329C
:101E6400C0E0C083C082120AF47402F0D082D0832E
:031E7400D0E03289
:101C1800C0E0C083C08290E680E030E705120B6523
:101C28008003120B72120AF47410F0D082D083D0A1
:021C3800E03298
:101E1200C0E0C083C082D203120AF47408F0D082F8
:051E2200D083D0E03286
:101C3A00C0E0C083C08290E680E030E705120B6501
:101C4A008003120B72120AF47420F0D082D083D06F
:021C5A00E03276
:011F39003275
:011F3A003274
:011F3B003273
:011F3C003272
:011F3D003271
:011F3E003270
:011F3F00326F
:011F4000326E
:011F4100326D
:011F4200326C
:011F4300326B
:011F4400326A
:011F45003269
:011F46003268
:011F47003267
:011F48003266
:011F49003265
:011F4A003264
:011F4B003263
:011F4C003262
:011F4D003261
:011F4E003260
:011F4F00325F
:011F5000325E
:011F5100325D
:011F5200325C
:011F5300325B
:011F5400325A
:011F55003259
:011F56003258
:011F57003257
:011F58003256
:011F59003255
:011F5A003254
:011F5B003253
:011F5C003252
:0A1ED50000010202030304040505E6
:101A3900EC4EFEED4F24D5F582741E3EF583E493FA
:101A4900FF3395E0FEEF24A1FFEE34E68F82F583A4
:101A59002290E6BCE0547EFF7E00E0D394807C00B7
:011A6900225A
:03000B000215F6E5
:1015F600C0E0C0F0C0D075D000C000C004C005C0B7
:1016060006C0070543E543B40621051AE51A70022C
:101616000519AE19FF7C007D0A1204B8ED4C70085E
:101626000513E51370020512754300D007D006D0E6
:0C16360005D004D000D0D0D0F0D0E032BD
:1012F100E4F529F528F527F526C203C200C202C28A
:1013010001121814754601754700754E01754F1489
:10131100754401754520754C01754D427550017537
:101321005164D2E843D82090E668E04409F090E6A1
:101331005CE0443DF0D2AFD207121ACA90E680E0D9
:1013410054F7F0C2033001051208B4C20130032979
:10135100121ECA5024C203121BF320001690E6820B
:10136100E030E704E020E1EF90E682E030E604E0DF
:0E13710020E0E4121AF91210FE121CD880C7F8
:1008B40090E6B9E070030209651470030209B924D3
:1008C400FE7003020A1324FB700302095F14700311
:1008D40002095914607314607624056003020A4AFD
:1008E400121F2D4003020A5690E6BBE024FE60224C
:1008F40014603324FD601114602224067048E54618
:1009040090E6B3F0E5478037E54E90E6B3F0E54F67
:10091400802DE54890E6B3F0E5498023E54A90E66A
:10092400B3F0E54B801990E6BAE0FF121B25AA0646
:10093400A9077B01EA494B600DEE90E6B3F0EF9016
:10094400E6B4F0020A56020A4F121EF1020A5612C7
:100954001F02020A56121EFA020A56121EE8020A60
:1009640056121F2F4003020A5690E6B8E0247F6017
:10097400151460192402703AA200E43325E0FFA2A2
:1009840002E4334F8018E490E740F08016121A5ABC
:1009940040047D0180027D00121A39E0540190E781
:1009A40040F0E4A3F090E68AF090E68B7402F00243
:1009B4000A56020A4F121F314003020A5690E6B843
:1009C400E024FE601624026003020A5690E6BAE0B0
:1009D400B40105C200020A56020A4F90E6BAE0705A
:1009E4002C121A5A40047D0180027D00121A39E04B
:1009F40054FEF090E6BCE05480131313541FFFE040
:100A0400540F2F90E683F0E04420F08045803C12A0
:100A14001F33503E90E6B8E024FE601A2402703280
:100A240090E6BAE0B40104D200802790E6BAE0B4BC
:100A34000202801E8015121A5A40047D0180027D34
:100A440000121A398008121B51500790E6A0E044A6
:090A540001F090E6A0E04480F0FE
:010A5D002276
:03003300021F1D8C
:041F1D0053D8EF3274
:101D2F00E4F5C8E58E54074438F58E8FCB8FCDAFD1
:0C1D3F00058FCA8FCCD2BDD2ADD2CA2213
:101A6A00AB07AA06A905A8047F007E1B7D377C4B1D
:101A7A00120320AB07AA06A905A804E4FFFE7D808D
:101A8A007C471202281203BDAD07AC06AF04021D43
:011A9A002F1C
:101EAB00AD07AC06C3E49DFBE49CFFEBFD021D2FCD
:031F2A00C2CA2206
:03002B0002179B1E
:10179B00C0E0C0F0C083C082C0D075D000C000C014
:1017AB0001C002C003C004C005C006C007121BCD98
:1017BB00C2CFD007D006D005D004D003D002D001C1
:0D17CB00D000D0D0D082D083D0F0D0E0325A
:101AF90090E682E030E004E020E60B90E682E030F8
:101B0900E119E030E71590E680E04401F07F147EAA
:0C1B1900001216D490E680E054FEF0228A
:101BF30090E682E044C0F090E681F0438701000064
:041C030000000022BB
:101ACA0030070990E680E0440AF0800790E680E05B
:101ADA004408F07FDC7E051216D490E65D74FFF0B0
:0F1AEA0090E65FF05391EF90E680E054F7F02222
:081F0A00E4F557D2E9D2AF2241
:1019680090E678E020E6F9C2E990E678E04480F075
:10197800EF25E090E679F090E678E030E0F990E63F
:1019880078E04440F090E678E020E6F990E678E0E8
:0619980030E1D6D2E92285
:101A0700A90790E678E020E6F9E557702390E67895
:101A1700E04480F0E925E090E679F08D52AF03A924
:101A2700077553018A548955E4F556755701D32232
:021A3700C322C8
:1019D300A90790E678E020E6F9E557702590E678C8
:1019E300E04480F0E925E0440190E679F08D52AFC0
:1019F30003A9077553018A548955E4F556755703AE
:041A0300D322C32205
:03004B00020DEFB4
:100DEF00C0E0C083C082C085C084C086758600C045
:100DFF00D075D000C000C001C002C003C006C0073C
:100E0F0090E678E030E206755706020ED990E67844
:100E1F00E020E10CE55764026006755707020ED912
:100E2F00E55724FE605F14603624FE7003020ECA7D
:100E3F0024FC7003020ED624086003020ED9AB53B4
:100E4F00AA54A955AF5605568F82758300120457C1
:100E5F0090E679F0E55665527070755705806B9086
:100E6F00E679E0AB53AA54A955AE568E827583002E
:100E7F00120496755702E5526401704E90E678E0C1
:100E8F004420F08045E55224FEB5560790E678E001
:100E9F004420F0E55214B5560A90E678E04440F04D
:100EAF0075570090E679E0AB53AA54A955AE568E0C
:100EBF00827583001204960556800F90E678E04401
:100ECF0040F075570080037557005391DFD007D05E
:100EDF0006D003D002D001D000D0D0D086D084D09D
:080EEF0085D082D083D0E032EF
:021B2500A9070E
:101B2700AE50AF518F828E83A3E064037017AD016F
:101B370019ED7001228F828E83E07C002FFDEC3E31
:091B4700FEAF0580DF7E007F0087
:011B50002272
:101D4B001219D3E55724FA600E146006240770F3BA
:0C1D5B00D322E4F557D322E4F557D3223D
:101D6700121A07E55724FA600E146006240770F369
:0C1D7700D322E4F557D322E4F557D32221
:1016D4008E2A8F2B90E600E054187012E52B24011B
:1016E400FFE4352AC313F52AEF13F52B801590E692
:1016F40000E05418FFBF100BE52B25E0F52BE52A7D
:1017040033F52AE52B152BAE2A7002152A4E6005F7
:06171400121C0780EE220A
:101C07007400F58690FDA57C05A3E582458370F9F0
:011C170022AA
:03004300021100A7
:0300530002110097
:10110000021D1300021E6400021E5100021E120086
:10111000021C1800021C3A00021F3900021F3A008C
:10112000021F3B00021F3C00021F3D00021F3E0049
:10113000021F3F00021F4000021F4100021F420029
:10114000021F4300021F3A00021F4400021F450015
:10115000021F4600021F4700021F4800021F4900ED
:10116000021F4A00021F3A00021F3A00021F3A0003
:10117000021F4B00021F4C00021F4D00021F4E00B9
:10118000021F4F00021F5000021F5100021F520099
:10119000021F5300021F5400021F5500021F560079
:1011A000021F5700021F5800021F5900021F5A0059
:0811B000021F5B00021F5C003E
:10022500020429E86480F8E933E83360110460F0DA
:10023500ED33EC337009E8FCE9FDEAFEEBFF22043F
:1002450060DED3EB9FEA9EE99DE8C2E78CF0C2F73A
:1002550095F0400CE8CCF8E9CDF9EACEFAEBCFFB06
:100265001203F485D0F05804700320D5B3E8047068
:10027500075002B2D502043392D5EC0460F7E4CC02
:10028500C0E0C398F8603B94186008400DD0E0FBCF
:1002950002040BE4FBFAC9FC8028E830E406E4C953
:1002A500FBE4CAFCE830E305E4C9CACBFCE8540723
:1002B5006010F8C3E913F9EA13FAEB13FBEC13FC2E
:1002C500D8F130F52FC3E49CFCEF9BFFEE9AFEEDD1
:1002D50099FDD0E0FBEF4E4D4C701222DB0302047A
:1002E50030EC2CFCEF33FFEE33FEED33FDED30E764
:1002F500EB02040BEF2BFFEE3AFEED39FDD0E0FBF0
:1003050050130BBB0003020433ED13FDEE13FEEF98
:0803150013FFEC13FC02040BC2
:10031D00020433EC5D046005E859047003020429FE
:10032D001203F4580460F6EC4860F2EC7004FDFE24
:10033D00FF22C860DB2481C85009C39860025006B3
:10034D000204309850CAF582E9294B4A7005AB82F8
:10035D0002041F75F0007C1A7880C3EF9BEE9AEDB6
:10036D0099400DC3EF9BFFEE9AFEED99FDE842F02B
:10037D00DC23ACF0D0E0FFD0E0FED0E0FDAB82207E
:10038D00E7101BEB60BAEC2CFCEF33FFEE33FEED08
:10039D0033FD02040BE803F830E705C0F075F000FB
:1003AD00EF2FFFEE33FEED33FD40B830E7C280AAEC
:1003BD00EDD2E7CD33EC3392D524814006E4FFFE38
:1003CD00FDFC22FCE4CFCECDCC24E0501174FF8097
:1003DD00EDC3CC13CCCD13CDCE13CECF13CF047034
:0703ED00F030D5DE02050D22
:1003F400E9D2E7C933E833F892D5EDD2E7CD33EC4F
:0704040033FC5002B2D522C7
:10040B00EC30E7100FBF000C0EBE00080DBD000452
:10041B000BEB6014A2D5EB13FCED92E7FD2274FFFE
:10042B00FCFDFEFF22E480F8A2D574FF13FC7D8057
:03043B00E480EF6B
:0300000002137F69
:0C137F00787FE4F6D8FD7581BC0213C62F
:10043E00BB010689828A83E0225002E722BBFE02BC
:09044E00E32289828A83E49322EF
:10045700BB010CE58229F582E5833AF583E022505A
:1004670006E92582F8E622BBFE06E92582F8E222A4
:0D047700E58229F582E5833AF583E49322BE
:10048400BB010689828A83F0225002F722BBFE0157
:02049400F32251
:10049600F8BB010DE58229F582E5833AF583E8F09C
:1004A600225006E92582C8F622BBFE05E92582C848
:0204B600F22230
:1004B800BC000BBE0029EF8DF084FFADF022E4CC28
:1004C800F875F008EF2FFFEE33FEEC33FCEE9DECF1
:1004D800984005FCEE9DFE0FD5F0E9E4CEFD22ED37
:1004E800F8F5F0EE8420D21CFEADF075F008EF2F81
:1004F800FFED33FD4007985006D5F0F222C398FD72
:050508000FD5F0EA220E
:0E050D00C3E49FFFE49EFEE49DFDE49CFC22FF
:10051B00D083D082F8E4937012740193700DA3A36F
:10052B0093F8740193F5828883E473740293686083
:06053B00EFA3A3A380DF83
:10054100D083D082F8E4937012740193700DA3A349
:1005510093F8740193F5828883E473740293B5F080
:0D056100067403936860E9A3A3A3A380D8E8
:1015A4008B398A3A893BE4F541F542E5401540AE72
:1015B4003F7002153F4E6033AB3CAA3DA93E120476
:1015C4003EFFAB39AA3AA93B0542E542AC41700261
:1015D400054114F5828C83EF120496EF60CD7401FB
:1015E400253EF53EE4353DF53D80C0AB39AA3AA928
:0215F4003B2298
:101E3C00E4FFFE12043E600C0FEF70010E09E97016
:051E4C00F20A80EF2204
:10056E00EF4E6012EF60010EEDBB010B89828A83A4
:10057E00F0A3DFFCDEFA2289F05007F709DFFCA9B1
:0C058E00F022BBFEFCF309DFFCA9F02208
:10138B000212F1E493A3F8E493A34003F68001F275
:10139B0008DFF48029E493A3F85407240CC8C33363
:1013AB00C4540F4420C8834004F456800146F6DF32
:1013BB00E4800B0102040810204080901E27E47E7D
:1013CB00019360BCA3FF543F30E509541FFEE49327
:1013DB00A360010ECF54C025E060A840B8E493A3EE
:1013EB00FAE493A3F8E493A3C8C582C8CAC583CA19
:1013FB00F0A3C8C582C8CAC583CADFE9DEE780BED1
:011E3B0000A6
:00000001FF
