:1011D7005553422D414F31362D313641005553423B
:1011E7002D414F31362D313645005553422D414F54
:1011F70031362D313241005553422D414F31362D75
:10120700313245005553422D414F31362D3841007B
:101217005553422D414F31362D3845005553422DF8
:10122700414F31362D3441005553422D414F313610
:101237002D3445005553422D414F31322D31364122
:10124700005553422D414F31322D3136450055530C
:10125700422D414F31322D313241005553422D41FC
:101267004F31322D313245005553422D414F3132E6
:101277002D3841005553422D414F31322D3845000D
:101287005553422D414F31322D3441005553422D94
:10129700414F31322D3445005553422D414F2D4F8B
:0512A70054484552000F
:10267800011C80011DFF011B00011F00C115C114B1
:0326880001192015
:061FFA00D2A7751C802235
:062A0900C2A7E4F51C2247
:0929CC00A2A7B392A7631C8022AC
:101FAB00EF5407FE7401A806088002C333D8FCFE69
:101FBB00EF131313541FFFED6016EF14600A047038
:101FCB002D904001E04EF022904002E04EF0222294
:101FDB00EF14600F047017904001E0FFEEF4FDEF7B
:0E1FEB005DF022904002E0FFEEF4FEEF5EF0AB
:011FF90022C5
:10248000EF54F824F8600B2408700C904001E0FE33
:102490008005904002E0FEEF5407FF7401A8070892
:1024A0008002C333D8FC5206EE60047F0180027FB5
:0124B000002B
:0124B1002208
:10295900904001E0120C5A904002E0900001120CE4
:022969006C22DE
:10287600120C1490317FF0904001F0900001120C80
:0A2886002D903180F0904002F02206
:0F297B009040077401F01226B1904007E4F0225B
:10277000C2A5AFB1E5B130E603D38001C3921AD24E
:0F278000A5EA494B6004EF120C5AA21AE433FF8A
:01278F002227
:101BA400753DFFE4F5B6904004F075B4FFFB7A0090
:101BB400793E122770AE077B007A00793E122770B7
:101BC400EF6E60361229CCE51F60047F2080027F0F
:101BD40028E53E5F700CFB7A00793E122770AE0751
:101BE40080D57B007A00793E122770AE07122770E9
:101BF400EF6E600612297BE4F53D75B6FF90400454
:071C0400E4F075B4FFAF3DF1
:011C0B0022B6
:101C0C0075B6FF904004E4F075B4FF75805575907F
:101C1C0005C2A675B1AAC2A4D2A47580AA75900AF1
:101C2C00D2A675B155C2A4D2A4758055759005C2C3
:101C3C00A675B180C2A4D2A4758055759005C2A6B4
:101C4C0075B1AAC2A4D2A47580AA75900AD2A67541
:101C5C00B155C2A4D2A4758055759005C2A675B1B4
:061C6C00A0C2A4D2A422D4
:1022950075B6FF904004E4F075B4FF7580557590F0
:1022A50005C2A675B1AAC2A4D2A47580AA75900A62
:1022B500D2A675B155C2A4D2A4758055759005C234
:0922C500A675B120C2A4D2A42226
:0C29B600E51F600412229522121C0C2266
:10177D005307077E00758055759005C2A675B1AAF1
:10178D00C2A4D2A47580AA75900AD2A675B155C20D
:10179D00A4D2A4758055759005C2A675B180C2A45A
:1017AD00D2A4758055759005C2A675B1AAC2A4D2F2
:1017BD00A47580AA75900AD2A675B155C2A4D2A4FB
:1017CD00E4F580EFC4F8540FC868FFEEC454F04838
:1017DD008F90E51C4430F5A075B130C2A4D2A4128F
:0317ED001BA42218
:020056008F38E1
:10005800E4F53AE538C39420400375382075B6FFB7
:10006800904004E4F075B4FFE538701BE4F539E519
:1000780039C39408500EAF397E0012177DEF423A0B
:10008800053980EBAF3A22758055759005C2A67583
:10009800B1AAC2A4D2A47580AA75900AD2A675B1D5
:1000A80055C2A4D2A4758055759005C2A675B180B5
:1000B800C2A4D2A4758055759005C2A675B1AAC20E
:1000C800A4D2A47580AA75900AD2A675B155C2A407
:1000D800D2A4E4F580E53830E0047F8080027F0018
:1000E8008F90E538C313451C4430F5A075B130C274
:0600F800A4D2A4121BA417
:0100FE0022DF
:10265200E4F52B752BFFF519E519C394205011AF42
:1026620019120056EF700585192B8004051980E8B0
:0526720012297BAF2BD3
:012677002240
:101D3A0075B6FF904004E4F075B4FF1229B68F2FF0
:101D4A00E4F52EE4F52D852D80852E90E52F451C92
:101D5A004430F5A0C2A6852DB1C2A4D2A4121BA4F8
:101D6A00852D80852E90E52F451C4430F5A0D2A6FE
:101D7A00852EB1C2A4D2A4121BA4052DE52D70C6CE
:101D8A001229CC052EE52E70BA122A0912297B7F58
:011D9A000048
:011D9B002225
:101B340075B6FF904004E4F075B4FF1229B68F2FF8
:101B4400E4F52EE4F52D852D80852E90E52F451C9A
:101B54004430F5A0C2A675B1A0C2A4D2A4852DB10B
:101B6400C2A4D2A4121BA4852D80852E90E52F45F6
:101B74001C4430F5A0D2A675B1A0C2A4D2A4852E6F
:101B8400B1C2A4D2A4121BA4052DE52D70B812294C
:0F1B9400CC052EE52E70AC122A0912297B7F009A
:011BA300221F
:1017F0008F2CE51F6004121B3422AF2C121D3A22DD
:1028F200E4F52BE52BC394105009AF2B1217F0050A
:052902002B80F07F00B6
:0129070022AD
:10137F008F388D398B3A75B6FF904004E4F075B411
:10138F00FF758055759005C2A675B1AAC2A4D2A4E7
:10139F00121BA47580AA75900AD2A675B155C2A466
:1013AF00D2A4121BA4758055759005C2A675B1A065
:1013BF00C2A4D2A4121BA4853A80853990E5385473
:1013CF000F451C4430F5A0853CB1C2A4D2A4121B1A
:1013DF00A4758055759005C2A675B1AAC2A4D2A4F2
:1013EF00121BA47580AA75900AD2A675B155C2A416
:1013FF00D2A4121BA4758055759005C2A675B1A015
:10140F00C2A4D2A4121BA4853A80853990E5385422
:10141F000F451C4430F5A0853BB1D2A6C2A4D2A47F
:0F142F00121BA4E4F5B690400404F075B4BF227C
:1021E500E4F5B6904004F075B4FF8B808D90EF5404
:1021F5000F451C4430F5A0C2A5AFB1AD077C00D298
:10220500A5D2A6C2A5AFB1EFFEE4EEFCD2A5E4F5DA
:0A221500B604F075B4BFAE04AF05C7
:01221F00229C
:10289000EDC39F50028002AF05AD07EDD39B40040E
:0928A000AF038002AF05AD072271
:10189000903100E06401704074112FF582E434311E
:1018A000F583E0FEEBD39E401074112FF582E434F3
:1018B00031F583E0FB7DFF801F74012FF582E43456
:1018C00031F583E0FEEBC39E500E74012FF582E4E8
:1018D0003431F583E0FBE4FDE4F5B690400404F018
:1018E00075B4BFAE05EF25E02481F582E43431F50F
:1018F00083EEF0F580AE03EF25E02482F582E43438
:1019000031F583EEF0F590EF540FFFE5A054F04F62
:0F191000F5A0C2B1D2B0C2A5C2B2D2B2D2A52246
:0929D500AB05EBECFB121890229B
:10209500E4F5B690400404F075B4BFAE05EF25E055
:1020A5002481F582E43431F583EEF0F580AE03EF5B
:1020B50025E02482F582E43431F583EEF0F590EFE6
:1020C500540FFFE5A054F04FF5A0C2B1C2B0C2A5B0
:0720D500C2B2D2B2D2A52273
:1022CE00E490317EF0A374FFF0A3F0E4FFEFC3942B
:1022DE0010501FEF25E02481F582E43431F583E4BC
:1022EE00F0EF25E02482F582E43431F583E4F00F3B
:0822FE0080DB9031A174FFF0B8
:0123060022B4
:101800009031DE74FBF09031DF7450F075B2FF75EB
:10181000B3FF75B4FF7580FF7590FF75A0FF75B0BD
:1018200007E4F5B175B507F5B690317EE090400359
:10183000F090317FE0904001F0903180E0904002E4
:10184000F09031A1E0F46047E4FCECC39410502424
:10185000EC25E02481F582E43431F583E0FDEC25CC
:10186000E02482F582E43431F583E0FBAF04121802
:10187000900C80D69031A1E05401FF25E0FF90400C
:0F18800000E054FD44044F9031A1F0904000F07F
:01188F002236
:01002A0022B3
:01004A002293
:1028C200122480EF24FF9216301902B216AF05A22D
:0828D20016E433FD121FAB22D6
:10244D00E49031A2F0A374FFF0A3F0E4FFEFC39486
:10245D0010501FEF25E024A6F582E43431F583E416
:10246D00F0EF25E024A5F582E43431F583E4F00F97
:02247D0080DB02
:01247F00223A
:102122009031A3E0904001F09031A4E0904002F0A1
:102132009031A2E0904003F0E4FCECC394105024F0
:10214200EC25E024A5F582E43431F583E0FDEC25AD
:10215200E024A6F582E43431F583E0FBAF041218E3
:04216200900C80D687
:012166002256
:0E29A800904006E05401F51FE05402F51B229A
:101000007AE779407EE77F40AB077D017F037E0072
:1010100012230790E740E0541FF51D447090010A29
:10102000F0E51D540FB41000400201F2901032257B
:10103000E0730152015C01660170017A0184018E46
:10104000019801A201AC01B601C001CA01D401DEC0
:1010500001E87BFF7A1179D7121EB0227BFF7A114B
:1010600079E4121EB0227BFF7A1179F1121EB022B0
:101070007BFF7A1179FE121EB0227BFF7A12790B68
:10108000121EB0227BFF7A127917121EB0227BFF4C
:101090007A127923121EB0227BFF7A12792F121E48
:1010A000B0227BFF7A12793B121EB0227BFF7A12AC
:1010B0007948121EB0227BFF7A127955121EB02297
:1010C0007BFF7A127962121EB0227BFF7A12796F4F
:1010D000121EB0227BFF7A12797B121EB0227BFF98
:1010E0007A127987121EB0227BFF7A127993121E30
:0C10F000B0227BFF7A12799F121EB02202
:10000E007E317F00AB07AA067D217F007E1D122365
:0C001E0007903100E064016002E4F02271
:01005200228B
:1026E600301408C214122652122A09301514C215C3
:1026F600E51AB4FF051228F28005AF1A1217F01278
:032706002A09227B
:1028A90090E600E054E7F07598103098FD90E60046
:0928B900E054E74410F0AF99224D
:020F7C00AE07BE
:100F7E00E4FCED4401904005F01228A91228A912B4
:100F8E0028A9E599C4131354035403FF74402EF596
:100F9E0082E434E7F583EFF01228A9AC99ECC41380
:100FAE001354035403FF74412EF582E434E7F583A2
:100FBE00EFF074402EF582E434E7F583E0FFEC2584
:100FCE00E025E0FDEF4DF01228A9AC9974412EF505
:100FDE0082E434E7F583E0FFEC25E025E0FEEF4EFA
:060FEE00F0904005EBF05D
:010FF40022DA
:06143E00AC07AA03A9059A
:10144400E4F574F575FEFFFDE94401904005F09064
:10145400E600E054E7F07598103098FD7598103068
:1014640098FD7598103098FD759810AE993098FDD8
:10147400759810AF993098FD90E600E054E7441059
:10148400F0AD99904005EAF0EEC4131354035403ED
:10149400FE74402CF582E434E7F583EEF0EFC413D8
:1014A4001354035403FE74412CF582E434E7F583AA
:1014B400EEF074402CF582E434E7F583E0FEEF258A
:1014C400E025E0FFEE4FF074412CF582E434E7F5BB
:0C14D40083E0FFED25E025E0FEEF4EF088
:0114E00022E9
:1021A800AE0790E600E054E7F0EE4401904005F0F9
:1021B8007598103098FD7598103098FD7598103006
:1021C80098FD7598103098FD7598103098FD9040DE
:0D21D80005EDF090E600E054E74410F02221
:0615B800AC07AA03A9051F
:1015BE00E4F540F541FEFFFDE94401904005F09051
:1015CE00E600E054E7F07598103098FD75981030ED
:1015DE0098FD7598103098FD759810AE993098FD5D
:1015EE00759810AF993098FD90E600E054E74410DE
:1015FE00F0AD99904005EAF0EEC41354075407FE7F
:10160E0074402CF582E434E7F583EEF0EFC4135406
:10161E00075407FE74412CF582E434E7F583EEF0AF
:10162E0074402CF582E434E7F583E0FEEF33333378
:10163E0054F8FFEE4FF074412CF582E434E7F58355
:0C164E00E0FFED33333354F8FEEF4EF0B4
:01165A00226D
:1007A500E4F53BF53CF53DF53EF53F90E600E054BC
:1007B500E74408F0438780753801E4F539F53AE5F3
:1007C50039C395385033E51B6006E4FDFF1221A8B7
:1007D5007B02E4FDAF3A1215B8053A053AE51B6010
:1007E500077D027F021221A8E4FB7D02AF3A1215B4
:0907F500B8053A053A053980C641
:0107FE0022D8
:101E5600E4F569F56AF56BF56CF56D90E600E0540E
:101E6600E74408F0438780756601E4F567F568E5A1
:101E760067C395665033E51B6006E4FDFF1221A893
:101E86007B02E4FDAF681215B805680568E51B60BE
:101E9600077D027F021221A8E4FB7D02AF681215BE
:091EA600B805680568056780C6EF
:011EAF002210
:1001C000E4F535D2171210FC5002C10E90E6B9E0EA
:1001D00024EE7002A1BD245D7002618224FE7002D3
:1001E000A17A24F87002610C24CF7002616524F4B6
:1001F0007002612824496002C10C90E6BEE0701ACA
:1002000090E6BCE0FF90E6BAE0FDA3E0FB12189098
:1002100090E6BEE090E68BF0C10E90E6BEE0641181
:100220006007E0642260026102E490E68AF090E6F2
:10023000BEE090E68BF090E6A0E020E1F9E4F53333
:10024000F53490E740E0F535E535604630E033AF12
:1002500034C007E53425E0FFE53333FE74412FF564
:100260008274E73EF583E0FDE53425E0FFE53333B6
:10027000FE74422FF58274E73EF583E0FBD007124F
:1002800020950534E53470020533E535C313F535A3
:1002900080B690E6BEE0D3941140567533007534B5
:1002A0000890E751E0F535E535604630E033AF348E
:1002B000C007E53425E0FFE53333FE74422FF582B5
:1002C00074E73EF583E0FDE53425E0FFE53333FEDA
:1002D00074432FF58274E73EF583E0FBD0071220CC
:1002E000950534E53470020533E535C313F53580E3
:1002F000B653A0F0D2B1D2B0C2A5C2B2D2B2D2A58A
:10030000C10E90E6BEE090E68BF0C10E1207A590FC
:10031000E6BFE090E68AF090E6BEE090E68BF090D3
:10032000E6A0E04480F0C10E90E6BCE0047017D275
:100330001490E74074FCF0E490E68AF090E6BEE0AA
:1003400090E68BF0801090E6BCE0FF12005690E73C
:1003500040EFF0122A09E490E68AF090E6BEE090C1
:10036000E68BF0C10ED21590E6BCE0F51A90E7409E
:1003700074F0F0E490E68AF090E6BEE090E68BF050
:10038000C10EE4F52EF52DF52CF52B90E6BAE0FF25
:10039000E4E52E4FF52EE52DF52DE52CF52CE52B7E
:1003A000F52BA3E0FFE4FCFDFE7808120CF7E52E28
:1003B0004FF52EE52D4EF52DE52C4DF52CE52B4C6E
:1003C000F52BA3E0FFE4FCFDFE7810120CF7E52E00
:1003D0004FF52EE52D4EF52DE52C4DF52CE52B4C4E
:1003E000F52B90E6BEE0752F00F530A3E0FEE4EEBD
:1003F000422F90E6B8E020E70281C4E530452F7037
:1004000002C10E90E6A0E020E1F9C3E5309440E59A
:100410002F94005008852F318530328006753100C9
:10042000753240E4F533F534C3E5349532E5339560
:03043000315077D1
:10043300AF2EAE2DAD2CAC2B7810120CE3EFE4C035
:1004430007AF2EAE2DAD2CAC2B7808120CE3EFE4E6
:10045300AD07E52EFFE4AB07D0071221E58E368FFB
:1004630037EF74402534F58274E73533F583EFF0C5
:10047300E536FF74412534F58274E73533F583EFB0
:01048300F088
:1004840074022534F534E43533F533E4FAF9F8E548
:100494002E2401F52EEA352DF52DE9352CF52CE821
:1004A400352BF52B8128E490E68AF090E68BE53233
:1004B400F0C3E5309532F530E52F9531F52F61FB2A
:1004C4005330FEE530452F7002C10EE490E68AF009
:1004D40090E68BF090E6A0E020E1F990E68BE05402
:1004E400FE753100F532E4F533F534C3E534953265
:1004F400E53395315071AF2EAE2DAD2CAC2B781069
:10050400120CE3EFE4C007AF2EAE2DAD2CAC2B786C
:1005140008120CE3EFE4AD07E52EFFE4AB077441EA
:100524002534F58274E73533F583E0F53B744025D3
:1005340034F58274E73533F583E0F53CD0071213C4
:100544007F74022534F534E43533F533E4FAF9F8ED
:10055400E52E2401F52EEA352DF52DE9352CF52C63
:10056400E8352BF52B8084C3E5309532F530E52F43
:100574009531F52F81C790E6B8E030E71790400039
:10058400E090E740F0E490E68AF090E6BEE090E682
:100594008BF0807690E6BAE05401FF25E0FF9040AE
:1005A40000E054FD44044F9031A1F0904000F090DD
:1005B400E6BEE090E68BF08051E490E68AF090E6A7
:1005C400BEE090E68BF090E6A0E020E1F990E6BA78
:1005D400E05401FFC43333335480FF90E742E054C6
:1005E400034F90317EF0F535904003F090E740E002
:1005F400FF90317FF0904001F090E741E0FF9031AF
:0B06040080F0904002F08002D322C37F
:01060F0022C8
:0100FF0022DE
:10010000120100020000004005166080010001029B
:020110000001EC
:0A0114000A0600020000004001008E
:1001200009022000010100A0FA0904000002FF00FA
:100130000000070502020002000705860200020017
:1001420009022000010100A0FA0904000002FF00D8
:10015200000007050102400000070581024000007F
:100164001403000000000000000000000000000074
:1001740000000000260341004300430045005300F3
:10018400200049002F004F002000500072006F0033
:10019400640075006300740073002003550053006D
:1001A40042002D0041004F00310036002D00310087
:0C01B400360041000000000000000000C8
:10285B005641756720303520323031354031303AB2
:0B286B0032363A32300000000000005E
:10268B0002622872024D0000015501015101014FF8
:01269B00013D
:100ABD00E0FFAE3E053E74402EF582E434E7F5834B
:100ACD0022E490E68AF090E6BEE090E68BF022906C
:100ADD00E740F0E490E68AF090E68B22FF7E000D71
:100AED00EE2563F582E43562F58322E0FE74D82F9E
:100AFD00F582E43431F58322253EF53EE541353D61
:100B0D00F53DC3E5409542F540E53F9541F53F2262
:100B1D0074402544F58274E73543F58322758600CC
:100B2D005391EF90E65D2224A27C007B01F9EC222B
:100B3D00E52425E0242BF582E43431F583E0FE54E1
:100B4D007FFFEE2274C82FF582E43431F5832274D1
:100B5D00C62EF582E43431F583E0227DA57A317B12
:100B6D00217F017E1F22E4F50BF50CF564F565225E
:100B7D00F074DA2FF582E43431F5832290E6BEE08D
:100B8D00640122C3E5449542E54395412274DC2F6F
:100B9D00F582E43431F58322F583EFF00539E5393B
:100BAD002290E6BEE0640222F583EFF090E741E08B
:100BBD00FFEE25E022E53E2544F582E53D3543F582
:100BCD00832285090F850A1085131185141222853C
:100BDD00130F851410850911850A122290E6A0E0E5
:100BED004480F022AD427AE77B40AF3EAE3D227CA1
:100BFD00007B01F9EC2290313BE0FFE524C39F22FD
:070C0D007B017AE779402228
:10293300903124E07006903123E0600302003612E8
:03294300002E2241
:10274F007E007FA57D007B017A317921120D3090BB
:10275F0031217409F0E4A3F01222CE1218000229DD
:01276F008ADF
:102790007D02120B6A122307903121E0B40904A3D1
:1027A000E0600302274F120B681223071218002261
:0F298A00120B681223E47DA57F007E1F022A1323
:101D9C0012293390E6BEE0F53E754002E53E604BFD
:101DAC00C394405005853E3F8003753F40120AE0C6
:101DBC00E53FF090E6A0E020E1F9E4F53DE53DC318
:101DCC00953F501E7440253D120AC6E0FFAE4005FB
:101DDC0040EE2421120B363431FAEF120C5A053D29
:0E1DEC0080DBC3E53E953FF53E80B102293312
:101A390090E6B8E030E733E4F53EF53DE53DC39483
:101A49002450207E007B01747E253DF9EE3431FA65
:101A5900120C14FF7440253E120AC6EFF0053D052D
:101A69003E80D9120ACE120BE922120AD390E6A0BF
:101A7900E020E1F990E6BEE064246003C21722E4A5
:101A8900F53EF53DE53DC39424501D7440253E12B5
:101A99000AC6E0FFE53D247E120BFC3431FAEF1251
:101AA9000C5A053D053E80DC90E6BAE0B4CE08A3A9
:071AB900E0B4AC0312298A1E
:011AC0002203
:0F299900D3E5659553E564955240031229DE227C
:0107FF0022D7
:10270900903126E0FE903125E07C002400F553EC61
:102719003EF55245537007C28CC2A9C21822D28C09
:03272900D2A92210
:012A23002290
:10225B00120AD390E6A0E020E1F9E4FF74422FF5D7
:10226B0082E434E7F583E0FEEF120B343431FAEEFF
:10227B00120C5A0FBF24E590E740E0903125F09007
:0A228B00E741E0903126F002270938
:0929DE00122122120B73D21822FF
:1028DA00C218120B73C28CC2A9538EF75389F143E3
:0828EA008901122A23022709CB
:10237800E54E454D6019E54E154E7002154D14C3D6
:1023880094FFE54D648094805016122A098011301C
:10239800170E754D05754EFF121FFAC217120B73F3
:0523A800301802D217FD
:0123AD00220D
:1012AC0090E6B8E030E75CE4F53E903125120ABDDB
:1012BC00EFF0903126120ABDEFF0E4F53DE53DC3A9
:1012CC00942450207E007B0174A2253DF9EE34312C
:1012DC00FA120C14FF7440253E120AC6EFF0053DBD
:1012EC00053E80D9120ABFE565F0E564120ABEEF2F
:1012FC00F0A218E433120ABEEFF0C218120ACE1292
:10130C000BE922120AD390E6A0E020E1F9C2189072
:10131C00E6BEE064266003C21722E4F53EAF3E054C
:10132C003E74402F120AC6E0903125F0AF3E053EC8
:10133C0074402F120AC6E0903126F0E4F53DE53DED
:10134C00C39424501B7440253E120AC6E0FFE53DB1
:10135C00120B343431FAEF120C5A053D053E80DE87
:10136C0012270990E6BAE0B4CE08A3E0B4AC03129D
:02137C00298ABC
:01137E00224C
:0400460075550122C9
:101DFA0012293390E6BEE0F53EE4F540E53E604B3D
:101E0A00C394405005853E3F8003753F40120AE067
:101E1A00E53FF090E6A0E020E1F9E4F53DE53DC3B9
:101E2A00953F501E7440253D120AC6E0FFAE40059C
:101E3A0040EE243C120BFC3431FAEF120C5A053DE9
:0B1E4A0080DBC3E53E953FF53E80B114
:011E5500226A
:101F07001555E555704B90313CE0F55512002AE424
:101F1700F52490317DE0FFE524C39F5031E524256A
:101F2700E0243DF582E43431F583E0F525E5242509
:101F3700E0243EF582E43431F583E0F526547FFD55
:101F4700E526339219AF251228C2052480C4120052
:011F57004A3F
:011F58002266
:10282500120AD390E6A0E020E1F990E740E090316C
:0B28350027F090E741E0903128F022EE
:101CD7001551E551705C903127E0F5517B017A3160
:101CE70079E0122959E4FFFE74E02EF582E43431DD
:101CF700F583E0FD120B5C6DF97D01E4FCECC39408
:101D0700085029E95D6013120B51E014F0120B51D2
:101D1700E07011120B5C6DF08000903128E0FB122F
:101D27000B51EBF00CED25E0FD0F80D10EEE6402B8
:021D370070B684
:011D39002287
:10294600120AD390E6A0E020E1F990E740E090314A
:0329560029F02243
:10290800E4FF120AFAE4F0120B9A74FF120B7DE44A
:05291800F00FBF02ED0D
:01291D002297
:10216700154FE54F703A903129E0F54F7B017A31F1
:1021770079D8122959E4FF120B9AC083C082120A38
:10218700F8E0FDEE5DD082D083120B7DC083C08264
:10219700120AF8E0FDEE4DD082D083F00FBF02D7D0
:0121A7002215
:04004E0075540122C2
:101C72001554E5546027E4F524120C035056745AA7
:101C82002524F8E6601316E6700F120B3D30E704C8
:101C92007D0080027D01121FAB052480DC90312A79
:101CA200E0F554E4F524120C035029E52425E02440
:101CB2002CF582E43431F583E0FF745A2524F8A62A
:101CC20007120B3D30E7047D0180027D00121FAB3D
:041CD200052480D293
:011CD60022EB
:10262900120AD390E6A0E020E1F9E4FF74402F12EA
:102639000AC6E0FEEF7C007B01242AF9EC3431FA6A
:08264900EE120C5A0FBF12E45F
:012651002266
:04191F008E3D8F3E2C
:10192300E4F53FE53E6402453D700C90E741F0E588
:101933003E153E7002153DE53E6401453D70109035
:10194300E74074A5120AD2E53E153E7002153DE547
:101953003E453D605490E6A0E020E1F9C3E53E94A6
:1019630040E53D94005004AD3E80027D40E4FFEF2E
:10197300C39D5021AE3F053FEE7583007B012421BB
:10198300F9E5833431FA120C14FE74402F120AC69F
:10199300EEF00F80DA120AE0EDF0FFC3E53E9FF5AB
:0919A3003EE53D9400F53D80A6EF
:0119AC002218
:1008000090E6B8E030E75E90E6BFE0FE90E6BEE03E
:10081000FDEDFF4E7002804890E6BDE0FD90E6BC25
:10082000E04D700302191F90E6BDE0600241BC90EC
:10083000E6BCE014600241BC7540FF75412875427A
:100840005B75430075441E7B017AE77941121F599D
:10085000120C0D12291EEF0490E740F090E6BEE066
:1008600090E68BF02290E6BFE0FF90E6BEE04F708E
:100870007490E6BDE0704D90E6BCE024EF60232468
:100880009F603024FD603324F3603424727035900F
:10089000E6BAE064CE702DA3E064AC702712298A1A
:1008A000802290E6BAE0B4CE1BA3E0B4AC161227C7
:1008B0004F8011E490313BF0800A7554018005E4CB
:1008C00090317DF090E6BDE06480600241BC90E62E
:1008D000BCE06401600241BC90E6BAE0903123F0D4
:1008E00090E6BB218C90E6BFE0600241BC90E6BD83
:1008F000E0FE90E6BCE07C002400FFEC3E6002419C
:10090000BCEF120D0A0939200939210939220939A8
:1009100023096B2F09944109A15109AB5309C76100
:1009200009D16309ED7109FA730A16740A58810A2C
:1009300063830A7D8400000ABC90E6BEE0B4A30392
:10094000121D9C90E6BCE030E00312180090E6BC5B
:10095000E020E10241BC90E6BAE064CE600241BC16
:10096000A3E064AC600241BC02298A120BAE6002B3
:1009700041BCE090E68BF090E6A0E020E1F912297E
:100980003390E740E0903123F090E741E09031244C
:10099000F002293390E6BEE06426600241BC0222E8
:1009A0005B120BAE600241BC022825120B8960026B
:1009B00041BCE090E68BF090E6A0E020E1F990E702
:1009C00040E0903127F022120B89600241BC0229DD
:1009D00046120B89600241BCE090E68BF090E6A0E5
:1009E000E020E1F990E740E0903129F02290E6BE66
:1009F000E06412600241BC022629120B89600241A8
:100A0000BCE090E68BF090E6A0E020E1F990E740B2
:100A1000E090312AF022120BAE600241BC90313BD3
:100A2000E0C39408400241BC120AD390E6A0E02043
:100A3000E1F990E740E0FF90313BE0FE25E024291A
:100A4000F582E43431120BB5242AF582E43431F511
:100A500083EFF090313B806190E6BEE06442705CD1
:100A6000021DFA120B897054E090E68BF090E6A01C
:100A7000E020E1F990E740E090313CF022120BAE2B
:100A8000703A90317DE0C394205031120AD390E641
:100A9000A0E020E1F990E740E0FF90317DE0FE2505
:100AA000E0243BF582E43431120BB5243CF582E4BA
:0C0AB0003431F583EFF090317DE004F06C
:010ABC002217
:1028400090E6047480F00000007402F00000007450
:0B28500006F0000000E4F00000002291
:012A2400228F
:10222000E4F52B7AE779407F40AB077D087FF87EA5
:102230001D122307E4F52B7440252B120AC6E0FD7E
:10224000E52B75F002A42466F9740135F08982F556
:0A22500083EDF0052BE52BB408DD4B
:01225A002261
:10204D0090E678E05410FFC4540F4450F55613E455
:10205D0033F55890E600E054E74410F0438E20121B
:10206D00002E1229A8122A01122220121000D210BD
:10207D001227901228DA12004612290812004E1269
:08208D002933122A0902000E9A
:1027CF00120052122378122999E5B090E68020E783
:0E27DF0006E04408F08004E054F7F00226E61D
:061EB0008B2B8A2C892D0A
:101EB600E4F52E12291E8F2FE52F25E0240290012E
:101EC6009EF0E4F52EAF2FEF3395E0FEC3E52E9F8F
:101ED600EE6480F87480985027AB2BAA2CA92D8528
:101EE6002E82758300120C2DFDE52E75F002A424BA
:101EF600A0F9740135F08982F583EDF0052E80C5D1
:011F060022B8
:062340008E4B8F4CAC0532
:10234600E4FDE5586007E54B120AE9EFF0AE050D2E
:10235600E5632E120AF0E54CF0AF050DE5632F128A
:102366000AF0ECF0AB63AA62AF56122809AF560228
:0223760023AE94
:032A13000223405B
:0A23E4008E458F468D478A488B49CD
:1023EE00E4F54AE54AC3954750200546E546AE4515
:1023FE007002054514FFE549254AF582E43548F596
:0A240E0083E0FD122A13054A80D96D
:0124180022A1
:0A2307008E458F468D478A488B49AA
:10231100E4FDF54AE5586007E545120AE9EFF0AE3C
:10232100050DE5632E120AF0E546F0AB63AA62AF34
:0F23310056122809AB49AA48AD47AF560227ED0F
:100D5C0090E6BAE0753D00F53EA3E0FEEE423D9014
:100D6C00E6BEE0753F00F540A3E0FEEE423F90E6A4
:100D7C00B8E064C06002C11FE540453F7002C1731A
:100D8C0090E6A0E020E1F9C3E5409440E53F9400F3
:100D9C005008853F418540428006754100754240B0
:100DAC0090E6B9E064A3704090E6BCE0B4011BA3EC
:100DBC00E0701790E6BBE030E71090E7407403F06A
:100DCC00A37401F0A37403F0803EE4F543F54412E0
:100DDC000B905034120BC2E0FF120B1DEFF00544C8
:100DEC00E54470EB054380E7E4F543F544120B90C2
:100DFC005010120B1D74CDF00544E54470EF054303
:100E0C0080EB120BF1122307120AE0E542F0120BF1
:100E1C0005A18490E6B8E06440704CE540453F6025
:100E2C0046120AE0F090E6A0E020E1F990E68BE0B3
:100E3C00754100F54290E6B9E0B4A31EE4F543F524
:100E4C0044120B90501A120B1DE0FF120BC2EFF064
:100E5C000544E54470EB054380E7120BF11223E4E3
:070E6C00E542120B05C1274E
:010E7300225C
:0B0FF500E55345527003D38001C32276
:022A1900D322C6
:022A1B00D322C4
:0800030090E6BAE0F550D322AB
:0929E700E550120ADC04F0D322D1
:0829F90090E6BAE0F557D32285
:0929F000E557120ADC04F0D322C1
:022A1D00D322C2
:022A1F00D322C0
:022A2100D322BE
:10165B0090E6B8E020E702C1EB74402401120AC601
:10166B007409F074402402120AC6E4F07440240397
:10167B00120AC6E4F074402404120AC67401F07412
:10168B00402405120AC67402F074402406120AC6DE
:10169B00E4F074402407120AC67410F07440240856
:1016AB00120AC674FFF074402409120AC674FFF0C4
:1016BB007440240A120AC67408F07440240B120AF0
:1016CB00C67420F07440240C120AC6740FF07440D8
:1016DB00240D120AC6740FF090E74014F0120ACED4
:0116EB0022DC
:1010FC0090E6B9E0120D0A113E10113E11115F1469
:10110C0011B315112F28112A2E11253C11393F111D
:10111C0034A21134A3000011D312080021D51212ED
:10112C00AC21D5121A3921D5120D5C21D512165BC2
:10113C0021D590E6B8E030E708120C0D12295921A0
:10114C00CB120AD390E6A0E020E1F9120C0D122884
:10115C007621D5E4F53974D82539120AFDE0FF74EF
:10116C00402539120AC6120BA7B402EAE4F5397409
:10117C00DC2539120B9DE0FF74422539F582E434ED
:10118C00E7120BA5B402E8E4F53974DA2539120B31
:10119C0081E0FF74442539F582E434E7120BA5B4E1
:1011AC0002E81229088018E4F53974C62539120BA7
:1011BC005FFF74402539120AC6120BA7B402EB125A
:0A11CC000ACE120BE98002C322D301
:0111D60022F6
:1025FE00C0E0C083C082C085C084C086758600904E
:10260E00E6B5E04401F0D211120B2D7401F0D08624
:0B261E00D084D085D082D083D0E03281
:1014E100C0E0C083C082C085C084C086120B2A744C
:0F14F10004F0D086D084D085D082D083D0E03272
:1027B000C0E0C083C082C085C084C086120B2A746A
:0F27C00002F0D086D084D085D082D083D0E03292
:1024E400C0E0C083C082C085C084C0867586009069
:1024F400E680E030E705120BCF8003120BDC120BF1
:102504002D7410F0D086D084D085D082D083D0E0D2
:012514003294
:1026C200C0E0C083C082C085C084C086758600D247
:1026D20013120B2D7408F0D086D084D085D082D00E
:0426E20083D0E0328F
:10251500C0E0C083C082C085C084C0867586009037
:10252500E680E030E705120BCF8003120BDC120BBF
:102535002D7420F0D086D084D085D082D083D0E091
:012545003263
:012A2500327E
:012A2600327D
:012A2700327C
:012A2800327B
:012A2900327A
:012A2A003279
:012A2B003278
:012A2C003277
:012A2D003276
:012A2E003275
:012A2F003274
:012A30003273
:012A31003272
:012A32003271
:012A33003270
:012A3400326F
:012A3500326E
:012A3600326D
:012A3700326C
:012A3800326B
:012A3900326A
:012A3A003269
:012A3B003268
:012A3C003267
:012A3D003266
:012A3E003265
:012A3F003264
:012A40003263
:012A41003262
:012A42003261
:012A43003260
:012A4400325F
:012A4500325E
:012A4600325D
:012A4700325C
:012A4800325B
:0A29C20000010202030304040505EE
:10254600EC4EFEED4F24C2F58274293EF583E493EA
:10255600FF3395E0FEEF24A1FFEE34E68F82F5838C
:102566002290E6BCE0547EFF7E00E0D394807C009F
:012576002242
:03000B00022000D0
:10200000C0E0C0F0C0D075D000C000C004C005C0A2
:1020100006C0070508E508B4060B0565E56570020E
:102020000564750800AE64AF657C007D0A120C8EF5
:10203000ED4C7008050CE50C7002050BD007D006BE
:0D204000D005D004D000D0D0D0F0D0E032D8
:1016EC00E4F52AF529F528F527C213C210C212C257
:1016FC001112204D750D01750E007515017516141E
:10170C00750901750A207513017514427517017559
:10171C001864D2E843D82090E668E04409F090E6DB
:10172C005CE0443DF0D2AFD21A12257790E680E00F
:10173C0054F7F0538EF8C213301105120610C21173
:10174C00301329120FF55024C21312269D201016A7
:10175C0090E682E030E704E020E1EF90E682E030B2
:10176C00E604E020E0E41225A6122A191227CF8005
:01177C00C7A5
:1006100090E6B9E0B40C004002E19190062125E09B
:1006200073C1B3E104E191E15AE191E191C139E192
:1006300091C1AEC1A9C19FC1A4122A1B4002E19D74
:1006400090E6BBE024FE602214603324FD601114A8
:10065000602224067047E50D90E6B3F0E50E803782
:10066000E51590E6B3F0E516802DE50F90E6B3F0C2
:10067000E5108023E51190E6B3F0E512801990E6CD
:10068000BAE0FF1225D2AA06A9077B01EA494B600E
:100690000CEE90E6B3F0EF90E6B4F0E19DE1961237
:1006A00029F0E19D1229F9E19D120003E19D122933
:1006B000E7E19D122A1D4002E19D90E6B8E0247F0B
:1006C000601514601924027039A210E43325E0FF8C
:1006D000A212E4334F8018E490E740F08016122510
:1006E0006740047D0180027D00122546E0540190A0
:1006F000E740F0E4A3F090E68AF090E68B7402F015
:10070000E19DE196122A1F4002E19D90E6B8E024A7
:10071000FE601324026002E19D90E6BAE0B4010499
:10072000C210E19DE19690E6BAE0702C1225674078
:10073000047D0180027D00122546E054FEF090E623
:10074000BCE05480131313541FFFE0540F2F90E6A6
:1007500083F0E04420F08045803C122A21503E90F6
:10076000E6B8E024FE601A2402703290E6BAE0B4E3
:100770000104D210802790E6BAE0B40202801E8005
:100780001512256740047D0180027D0012254680F8
:10079000081201C0500790E6A0E04401F090E6A0E6
:0407A000E04480F0C1
:0107A4002232
:03003300022A0F8F
:042A0F0053D8EF3277
:10272C009031DEEFF0F5CB8FCDAF05A3EFF0F5CA0E
:10273C008FCCE4F5C8758E19D2BDD2AFD2ADD2CA4A
:03274C00F57622FD
:0D003600903124E0FF903123E0FD02272CE3
:032A1600AF762276
:10296B00AD07AC06C3E49DFBE49CFFEBFD02272CFB
:05002E00C2CAC2AD22B0
:03002B00021AC1F5
:101AC100C0E0C0F0C083C082C085C084C086758676
:101AD10000C0D075D000C000C001C002C003C00466
:101AE100C005C006C007903127E06003121CD790E3
:101AF1003129E0600312216790313BE06003121C41
:101B01007290317DE0600990313CE06003121F0763
:101B1100C2CFD007D006D005D004D003D002D00167
:101B2100D000D0D0D086D084D085D082D083D0F0E0
:031B3100D0E032CF
:1025A60090E682E030E004E020E60B90E682E03040
:1025B600E119E030E71590E680E04401F07F147EF3
:0C25C600001220DC90E680E054FEF022C1
:10269D0090E682E044C0F090E681F04387010000AF
:0426AD000000002207
:10257700301A0990E680E0440AF0800790E680E090
:102587004408F07FDC7E051220DC90E65D74FFF0E6
:0F25970090E65FF05391EF90E680E054F7F0226A
:1026B1007400F58690FDA57C05A3E582458370F93C
:0126C10022F6
:082A0100E4F573D2E9D2AF2223
:1023AE0090E678E020E6F9C2E990E678E04480F025
:1023BE00EF25E090E679F090E678E030E0F990E6EF
:1023CE0078E04440F090E678E020E6F990E678E098
:0623DE0030E1D6D2E92235
:1024B200A90790E678E020E6F9E573702390E678C4
:1024C200E04480F0E925E090E679F08D6EAF03A953
:1024D20007756F018A708971E4F572757301D322F1
:0224E200C32213
:10241900A90790E678E020E6F9E573702590E6785B
:10242900E04480F0E925E0440190E679F08D6EAF53
:1024390003A907756F018A708971E4F572757303D1
:04244900D322C322B5
:03004B00020E742E
:100E7400C0E0C083C082C085C084C086758600C0BF
:100E8400D075D000C000C001C002C003C006C007B6
:100E940090E678E030E206757306020F5E90E6781D
:100EA400E020E10CE57364026006757307020F5ECF
:100EB400E57324FE605F14603624FE7003020F4F56
:100EC40024FC7003020F5B24086003020F5EAB6F07
:100ED400AA70A971AF7205728F82758300120C2DEE
:100EE40090E679F0E572656E7070757305806B90AD
:100EF400E679E0AB6FAA70A971AE728E8275830039
:100F0400120C6C757302E56E6401704E90E678E025
:100F14004420F08045E56E24FEB5720790E678E043
:100F24004420F0E56E14B5720A90E678E04440F08F
:100F340075730090E679E0AB6FAA70A971AE728EFA
:100F440082758300120C6C0572800F90E678E04481
:100F540040F075730080037573005391DFD007D0A0
:100F640006D003D002D001D000D0D0D086D084D017
:080F740085D082D083D0E03269
:0225D200A90757
:1025D400AE17AF188F828E83A3E064037017AD012A
:1025E40019ED7001228F828E83E07C002FFDEC3E7A
:0925F400FEAF0580DF7E007F00D0
:0125FD0022BB
:1027ED00122419E57324FA600E146006240770F3A1
:0C27FD00D322E4F573D322E4F573D32259
:102809001224B2E57324FA600E146006240770F3EB
:0C281900D322E4F573D322E4F573D3223C
:1020DC008E2B8F2C90E600E054187012E52C240106
:1020EC00FFE4352BC313F52BEF13F52C801590E67D
:1020FC0000E05418FFBF100BE52C25E0F52CE52B68
:10210C0033F52BE52C152CAE2B7002152B4E6005E0
:06211C001226B180EE2244
:03004300021500A3
:0300530002150093
:101500000225FE000227B0000214E1000226C200FC
:101510000224E40002251500022A2500022A2600E2
:10152000022A2700022A2800022A2900022A2A0069
:10153000022A2B00022A2C00022A2D00022A2E0049
:10154000022A2F00022A2600022A3000022A310035
:10155000022A3200022A3300022A3400022A35000D
:10156000022A3600022A2600022A2600022A260023
:10157000022A3700022A3800022A3900022A3A00D9
:10158000022A3B00022A3C00022A3D00022A3E00B9
:10159000022A3F00022A4000022A4100022A420099
:1015A000022A4300022A4400022A4500022A460079
:0815B000022A4700022A48004C
:030000000219AD35
:0C19AD00787FE4F6D8FD7581770219F40C
:100C1400BB010689828A83E0225002E722BBFE02DE
:090C2400E32289828A83E4932211
:100C2D00BB010CE58229F582E5833AF583E022507C
:100C3D0006E92582F8E622BBFE06E92582F8E222C6
:0D0C4D00E58229F582E5833AF583E49322E0
:100C5A00BB010689828A83F0225002F722BBFE0179
:020C6A00F32273
:100C6C00F8BB010DE58229F582E5833AF583E8F0BE
:100C7C00225006E92582C8F622BBFE05E92582C86A
:020C8C00F22252
:100C8E00BC000BBE0029EF8DF084FFADF022E4CC4A
:100C9E00F875F008EF2FFFEE33FEEC33FCEE9DEC13
:100CAE00984005FCEE9DFE0FD5F0E9E4CEFD22ED59
:100CBE00F8F5F0EE8420D21CFEADF075F008EF2FA3
:100CCE00FFED33FD4007985006D5F0F222C398FD94
:050CDE000FD5F0EA2231
:100CE300E86010ECA2E713FCED13FDEE13FEEF1327
:040CF300FFD8F02214
:100CF700E8600FEFC333FFEE33FEED33FDEC33FC5B
:030D0700D8F122FE
:100D0A00D083D082F8E4937012740193700DA3A378
:100D1A0093F8740193F5828883E47374029368608C
:060D2A00EFA3A3A380DF8C
:101F59008B3D8A3E893FE4F545F546E5441544AE97
:101F690043700215434E6033AB40AA41A942120C9B
:101F790014FFAB3DAA3EA93F0546E546AC457002B4
:101F8900054514F5828C83EF120C6CEF60CD74015A
:101F99002542F542E43541F54180C0AB3DAA3EA951
:021FA9003F22D5
:10291E00E4FFFE120C14600C0FEF70010E09E9704B
:05292E00F20A80EF2217
:100D3000EF4E6012EF60010EEDBB010B89828A83DA
:100D4000F0A3DFFCDEFA2289F05007F709DFFCA9E7
:0C0D5000F022BBFEFCF309DFFCA9F0223E
:1019B9000216ECE493A3F8E493A34003F68001F242
:1019C90008DFF48029E493A3F85407240CC8C3332F
:1019D900C4540F4420C8834004F456800146F6DFFE
:1019E900E4800B0102040810204080902678E47EF0
:1019F900019360BCA3FF543F30E509541FFEE493F3
:101A0900A360010ECF54C025E060A840B8E493A3B9
:101A1900FAE493A3F8E493A3C8C582C8CAC583CAE4
:101A2900F0A3C8C582C8CAC583CADFE9DEE780BE9C
:01269C00003D
:00000001FF
