:1008F700001201000200000040051602400000013E
:100907000200010A06000200000040010009021966
:100917000001010080320904000001FF0000030705
:1009270005020200020009021900010100803209D4
:1009370004000001FF000003070502024000000455
:100947000309040C0341004300430045005300180A
:10095700035500530042002D00440041003100328E
:10096700002D00380041000C0344004100430020E3
:0B0977000044006100740061000000FB
:03000000020200F9
:1002000090E6007412F0750800750900750B007512
:100210000A00750C00750D00750E00750F007581D4
:100220005F7A007B007C007D007E0075B00075B5B4
:100230000F7580FF75B20675B37FD296D282D2B3A6
:10024000C295743690C003F07582007490F074010A
:10025000F0D295C2B3C0E0D2B39040007480F0C237
:10026000B3D0E0D290D293D292D291C2927E027158
:10027000DFC2937E0271DFC2907E0271DFC2917E87
:100280000271DFD2927E0271DFD2937E0271DFD2E1
:10029000907E0271DFD2917E0271DFC2900090E603
:1002A000047480F00090E6047400F00090E604749A
:1002B00002F00090E6047404F00090E6047406F086
:1002C0000090E6047408F00090E6047400F00090DA
:1002D000E69074FFF00090E69174FFF090E68B7466
:1002E000FFF090E6A07480F090E6B57401F090E61F
:1002F00080E020E10BD2E3D2E1F075F000D5F0FD13
:1003000090E680E0C2E3F0E50FA2E5500271D9204B
:10031000B70BE509B4010675080075090090E6A35E
:10032000E020E202E17890E65DE030E204E4D2E22F
:10033000F020E00930E604E4D2E6F080CAE4D2E03E
:10034000F090E6A0E04480F090E6B9E0B406030245
:100350000866B40A0261E6B40B0261E6B409026100
:10036000E6B4080261E6B40102807BB4003C90E68A
:10037000B8E0B4801890E7407402F0A37400F090E5
:10038000E68A7400F090E68B7402F08059B4811311
:100390007400F0A3F090E68A7400F090E68B74028B
:1003A000F08043B48202803E803CB4B0028039B415
:1003B000B102813DB4B2028159B4B302816AB4B4CE
:1003C0000281EEB4B50281F0B4A20281F2B4A302BC
:1003D000A106B4CC02A1086107A280B3929422DCEA
:1003E000FEDDFCDEFA22A11290E6BAE0C0E030E7C2
:1003F00017C0E0D2B39040007480F0C2B3D0E07573
:100400000900D291D293D292D0E0C0E030E600D081
:10041000E0C0E030E017D2949040007401D2B3F015
:10042000750901C2B3E50FA2B492E0F50FD0E0C0A8
:10043000E0A2E5E50F92E5F50FD0E0A11290E6BC51
:10044000E0F50A90E6BDE0F50B90E6BBE05407F559
:100450000D120827750801A11290E6BCE0C5F090C6
:10046000E6BDE0C5F012080DA112758600D294D247
:10047000B39080107401F090E6BEE0B4001F90E6E7
:10048000BBE0F50090E6BAE0F50190E6BCE023F5AC
:1004900082758380E501F0A3E500F0804390E68B50
:1004A00074FFF090E6A0E05402B400F77585807503
:1004B000840090E740E0A38006A3A305840584B4EC
:1004C0000002801CC31350F1C0E0E00586F00586F1
:1004D000A30584E00586F00586A30584D0E080DFCF
:1004E000908012F09080107400F0C2B380248022BB
:1004F000802090E6B8E0B4C004B1208015B4400478
:10050000D149800E800C800A90E6BCE0A2E0928186
:10051000800090E68A4400F090E68B447FF061070B
:1005200090E6BEE0F9B400012290E6BAE0FAA3E05A
:10053000FBC0E0C082C08390E678E0D2E7F0D083D1
:10054000D082D0E090E67974A2F0C0E0C082C0838F
:1005500090E678E030E0FCA2E1D083D082D0E0EBFE
:10056000F0C0E0C082C08390E678E030E0FCA2E119
:0D057000D083D082D0E0EAF0C0E0C082C0AD
:10057D008390E678E030E0FCA2E1D083D082D0E039
:10058D0090E740AA827800C0E0C082C08390E678F0
:10059D00E0D2E7F0D083D082D0E090E67974A3F07A
:1005AD00C0E0C082C08390E678E030E0FCA2E1D0EC
:1005BD0083D082D0E0E0B90113C0E0C082C0839047
:1005CD00E678E0D2E5F0D083D082D0E0C0E0C08202
:1005DD00C08390E678E030E0FCA2E1D083D082D0F9
:1005ED00E0E9C398C0E0B40213C0E0C082C08390BC
:1005FD00E678E0D2E5F0D083D082D0E0B40113C02C
:10060D00E0C082C08390E678E0D2E6F0D083D0825D
:10061D00D0E090E679E090E7408A82F0080AD0E0D9
:10062D00B401A990E68BE9F0C0E0C083C08290E6EA
:10063D0078E020E6FCD082D083D0E02290E6BEE0C8
:10064D00F9B4001922C0E0C082C08390E678E0D2F0
:10065D00E6F0E020E6FCD083D082D0E02290E68B5D
:10066D0074FFF090E6A0E05402B400F790E6BAE013
:10067D00FAA3E0FBC0E0C082C08390E678E0D2E749
:10068D00F0D083D082D0E090E67974A2F0C0E0C0C3
:10069D0082C08390E678E030E0FCA2E1D083D08286
:1006AD00D0E0EBF0C0E0C082C08390E678E030E0AF
:1006BD00FCA2E1D083D082D0E0EAF0C0E0C082C0DD
:1006CD008390E678E030E0FCA2E1D083D082D0E0E8
:1006DD0090E7407A00E5822AF582E090E679F0C055
:1006ED00E0C082C08390E678E030E0FCA2E1D083E8
:1006FD00D082D0E00A19E9B400DBC0E0C082C0832B
:10070D0090E678E0D2E6F0E020E6FCD083D082D00F
:10071D00E0C0E0C082C08390E678E0D2E7F0D083FD
:10072D00D082D0E090E67974A2F0C0E0C082C083A0
:10073D0090E678E030E0FCA2E1D083D082D0E0C03A
:10074D00E0C082C08390E678E0D2E6F0E020E6FCDF
:10075D00D083D082D0E0C0E0C082C08390E678E044
:10076D00A2E1D083D082D0E050A722E50820E0029C
:10077D008019B29190E691E0F990E690E0F8B4001E
:10078D0006E9B400028004F1A8B2920090E69074DC
:10079D00FFF00090E69174FFF06107E50B543F44C4
:1007AD0040F5F0AA0AE9250AF50AE8350B543FF59C
:1007BD000B75860090F00085F0858A8409D902803A
:1007CD001CE0A30586F0A3E58530E70D758540E5B2
:1007DD000D045407F50D1208270586D9E408D80233
:1007ED00801DE0A30586F0A3E58530E70C758540F7
:1007FD00E50D045407F50D11270586D9E5D8E3223B
:10080D00D2B3C295C0E0743690C003F0758200D0AB
:10081D00E0F0E5F0F0D295C2B322C0E0E50D139201
:10082D00B01392B11392B2E50DB40021E50EB407E9
:10083D001CE50930E017E50F30B70EA2B4400520D6
:10084D00E00780F430E00280EF92E0F50F850D0EA9
:10085D00D0E0D291D293D2922290E6BBE0B4010FB8
:10086D0090E6B37408F090E6B474F8F0020307B4A0
:10087D00020F90E6B37409F090E6B47414F002031D
:10088D0007B4020F90E6B37409F090E6B4742DF03E
:10089D00020307B4033990E6BAE0B4000E90E6B354
:1008AD007409F090E6B47446F08035B4010E90E60C
:1008BD00B37409F090E6B4744AF08024B4020E903B
:1008CD00E6B37409F090E6B47456F080138011B459
:1008DD00060E90E6B37409F090E6B4740AF0800049
:0A08ED0090E6A0E04480F00203074B
:00000001FF
