:100AB8001201000200000040051602800100010238
:100AC80000010A060002000000400100090220009F
:100AD800010100A0320904000002FF000000070520
:100AE8000202000200070586020002000902200037
:100AF800010100A0320904000002FF000000070500
:100B080001024000000705810240000004030904B7
:100B180026034100430043004500530020004900DC
:100B28002F004F002000500072006F006400750015
:100B380063007400730016035500530042002D0033
:0E0B4800440049004F002D003400380000002A
:03004300020A00AE
:03005300020A009E
:100A0000020EC700020F7E00020F6800020F3800BE
:100A1000020D0100020D380002002A00020042000F
:100A200002004A00020052000209FF00020FE90022
:100A3000020FEA00020FEB00020FEC00020FED00C4
:100A4000020FEE0002004200020FEF00020FF00062
:100A5000020FF100020FF200020FF300020FF40088
:100A6000020FF500020042000200420002004200B4
:100A7000020FF600020FF700020FF800020FF90054
:100A8000020FFA00020FFB00020FFC00020FFD0034
:100A9000020FFE00020FFF00021000000210010012
:100AA00002100200021003000210040002100500F0
:080AB00002100600021007000D
:0A00360000010202030304040505A3
:100B5600E4F50DF50CF50BF50AC203C200C202C29C
:100B660001120F1E75480A7549B875500A7551CAA3
:100B760075460A7547D4754E0A754FF475520B754E
:100B86005314D2E843D82090E668E04409F090E692
:100B96005CE0443DF0D2AFD204120E4090E680E015
:100BA60054F7F0538EF8C203300105120490C201C7
:100BB6003003291200285024C20312000320001615
:100BC60090E682E030E704E020E1EF90E682E03054
:100BD600E604E020E0E4120E6F1200401209758070
:010BE600C747
:1004900090E6B9E070030205411470030205BE2422
:1004A000FE700302064124FB700302053B14700337
:1004B000020535146073146076240560030206A0FB
:1004C000120FE140030206AC90E6BBE024FE60227E
:1004D00014603324FD601114602224067048E5483E
:1004E00090E6B3F0E5498037E55090E6B3F0E5518A
:1004F000802DE54A90E6B3F0E54B8023E54C90E68D
:10050000B3F0E54D801990E6BAE0FF120E9BAA0603
:10051000A9077B01EA494B600DEE90E6B3F0EF903E
:10052000E6B4F00206AC0206A5120FA60206AC1253
:100530000FC90206AC120FC10206AC120F940206DC
:10054000AC120FE340030206AC90E6B8E0247F60F3
:100550001514601924027063A200E43325E0FFA2A1
:1005600002E4334F8041E490E740F0803F90E6BCE6
:10057000E0547EFF7E00E0D394807C0040047D0147
:1005800080027D00EC4EFEED4F2436F58274003E75
:10059000F583E493FF3395E0FEEF24A1FFEE34E60C
:1005A0008F82F583E0540190E740F0E4A3F090E6F9
:1005B0008AF090E68B7402F00206AC0206A5120FD8
:1005C000E540030206AC90E6B8E024FE6016240283
:1005D00060030206AC90E6BAE0B40105C200020670
:1005E000AC0206A590E6BAE0705590E6BCE0547EF9
:1005F000FF7E00E0D394807C0040047D0180027D7A
:1006000000EC4EFEED4F2436F58274003EF583E497
:1006100093FF3395E0FEEF24A1FFEE34E68F82F5E1
:1006200083E054FEF090E6BCE05480131313541F93
:10063000FFE0540F2F90E683F0E04420F0806D80BF
:1006400064120FE7506690E6B8E024FE60192402B9
:10065000705A90E6BAE0B40104D200804F90E6BA36
:10066000E064026047803E90E6BCE0547EFF7E007E
:10067000E0D394807C0040047D0180027D00EC4E3C
:10068000FEED4F2436F58274003EF583E493FF338C
:1006900095E0FEEF24A1FFEE34E68F82F58380081B
:1006A000120056500790E6A0E04401F090E6A0E06A
:0306B0004480F093
:0106B3002224
:0300330002004682
:0400460053D8EF326A
:040FB8000221000012
:04004E0043B1202278
:040FD90063B12022BE
:040FDD0053B1DF220B
:100F1E00D200120FD17580FF7590FF75B2FF75B3B9
:0A0F2E001F75B62012002E020FDD21
:10097500E5346035E5224521700675212F7522FF86
:10098500E522152270021521E52245217004F53472
:10099500800FAE21AF227C0B7DFF1208EEEF20E029
:1009A50005120FDD800312004EE5B190E68020E7C9
:0A09B50005E04408F022E054F7F0DA
:0109BF002215
:02002800D322E1
:02004000D322C9
:020FE100D32219
:080FC10090E6BAE0F53AD322F4
:100F940090E740E53AF0E490E68AF090E68B04F0BE
:020FA400D32256
:080FC90090E6BAE0F532D322F4
:100FA60090E740E532F0E490E68AF090E68B04F0B4
:020FB600D32244
:020FE300D32217
:020FE500D32215
:020FE700D32213
:1000560075340190E678E05410FFC4540F4450F50F
:100066003313E433F53B90E6B9E012094F01BC10B7
:1000760001BC1102321202A03002A031030AA2030F
:100086000AA30304A902DAAC0095C10000048C900F
:10009600E6B8E020E703020162E4F514F515AF15B2
:1000A600EF25E02428F808E6FE90E74075F005E520
:1000B60015120943E51475F005A42583F583EEF0C2
:1000C600EF25E02428F8E6FEEEFF3395E090E741C1
:1000D60075F005E515120943E51475F005A42583A9
:1000E600F583EFF0AF15EF25E0243CF808E6FE9027
:1000F600E74275F005E515120943E51475F005A408
:100106002583F583EEF0EF25E0243CF8E6FEEEFFCE
:100116003395E090E74375F005E515120943E514BC
:1001260075F005A42583F583EFF074232515F8E60D
:10013600FF90E74475F005E515120943E51475F0DF
:1001460005A42583F583EFF00515E5157002051462
:100156006405451460030200A40202CA90E6BEE0EC
:10016600D39400401FE090E68BF090E6A0E020E1FB
:10017600F990E740E0B40106120F5002048E120017
:100186002E02048EE4F514F515AF15EF25E02428AC
:10019600F8E4F608F6EF25E0243CF8E4F608F674F1
:1001A600232FF8E4F60515E51570020514640545D8
:1001B6001470D602048E90E6B8E030E730E4F51409
:1001C600F515E42515F58274803514F583E0FF7482
:1001D600402515F582E434E7F583EFF00515E515BE
:1001E600700205146406451470D80202CA90E6BE71
:1001F600E090E68BF090E6A0E020E1F9E4F514F556
:100206001574402515F582E434E7F583E0FFE4250F
:1002160015F58274803514F583EFF00515E5157034
:100226000205146406451470D802048E90E6BEE0FA
:1002360090E68BF090E6A0E020E1F990E6BDE0FFC5
:1002460090E6BCE04F701490E6BAE05401C454F056
:10025600F59090E746E0F4F580800F90E746E0F4ED
:10026600FFA3E04FF580E0F4F590E4F514F515747E
:10027600402515F582E434E7F583E0FFE42515F51E
:100286008274803514F583EFF00515E515700205C7
:10029600146406451470D802048E90E740E580F099
:1002A600A3E590F0A3E5A0F0A3E5B0F0E5B130E456
:1002B600047F0180027F0090E6BAEFF0E5B1540FAB
:1002C60090E744F0E490E68AF090E6BEE090E68B94
:1002D600F002048E90E6B5E054FEF090E6BFE090A2
:1002E600E68AF090E6BEE090E68BF090E6BBE09002
:1002F600E6B3F090E6BAE090E6B4F002048E753B01
:100306000143330190E6BAE0750E00F50FA3E0FE57
:10031600EE420E90E6BEE0751000F511A3E0FEEE8B
:10032600421090E6B8E064C060030203F6E51145AA
:1003360010700302048E90E6A0E020E1F9C3E511F7
:100346009440E5109400500885101285111380061C
:1003560075120075134090E6B9E0B4A335E4F514C0
:10036600F515C3E5159513E5149512505EE50F25B1
:1003760015F582E50E3514F583E0FF74402515F575
:1003860082E434E7F583EFF00515E51570D405141E
:1003960080D0E4F514F515C3E5159513E51495120B
:1003A600501874402515F582E434E7F58374CDF0D2
:1003B6000515E51570E1051480DDAD137AE7794082
:1003C6007F40AB07AF0FAE0E120C73E490E68AF0D7
:1003D60090E68BE513F0250FF50FE512350EF50EB9
:1003E600C3E5119513F511E5109512F510020333C7
:1003F60090E6B8E06440600302048EE51145107093
:100406000302048EE490E68AF090E68BF090E6A074
:10041600E020E1F990E68BE0751200F51390E6B95D
:10042600E0B4A335E4F514F515C3E5159513E51405
:100436009512503674402515F582E434E7F583E0CD
:10044600FFE50F2515F582E50E3514F583EFF0056A
:1004560015E51570D4051480D0AD137AE779407F81
:1004660040AB07AF0FAE0E120DA5E513250FF50F26
:10047600E512350EF50EC3E5119513F511E5109548
:0904860012F510020401D322C397
:01048F00224A
:100EC700C0E0C083C08290E6B5E04401F0D2015390
:0F0ED70091EF90E65D7401F0D082D083D0E032CD
:100F6800C0E0C083C0825391EF90E65D7404F0D076
:060F780082D083D0E032BC
:100F7E00C0E0C083C0825391EF90E65D7402F0D062
:060F8E0082D083D0E032A6
:100D0100C0E0C083C08290E680E030E70E85464AAD
:100D110085474B854E4C854F4D800C854E4A854FFE
:100D21004B85464C85474D5391EF90E65D7410F02D
:070D3100D082D083D0E03234
:100F3800C0E0C083C082D2035391EF90E65D74088D
:080F4800F0D082D083D0E0322A
:100D3800C0E0C083C08290E680E030E70E85464A76
:100D480085474B854E4C854F4D800C854E4A854FC7
:100D58004B85464C85474D5391EF90E65D7420F0E6
:070D6800D082D083D0E032FD
:01002A0032A3
:01004200328B
:01004A003283
:01005200327B
:0109FF0032C5
:010FE90032D5
:010FEA0032D4
:010FEB0032D3
:010FEC0032D2
:010FED0032D1
:010FEE0032D0
:010FEF0032CF
:010FF00032CE
:010FF10032CD
:010FF20032CC
:010FF30032CB
:010FF40032CA
:010FF50032C9
:010FF60032C8
:010FF70032C7
:010FF80032C6
:010FF90032C5
:010FFA0032C4
:010FFB0032C3
:010FFC0032C2
:010FFD0032C1
:010FFE0032C0
:010FFF0032BF
:0110000032BD
:0110010032BC
:0110020032BB
:0110030032BA
:0110040032B9
:0110050032B8
:0110060032B7
:0110070032B6
:0409C000AA06AC05D2
:1009C400E4FD7E000DEE2400F582E43400F583EAB4
:1009D400F00E0D74002EF582E43400F583EFF00D73
:1009E40074002402F582E43400F583ECF07A007B91
:0B09F40000AF33120F02AF33020D6F93
:0A0DA5008E168F178D188A198B1A0D
:100DAF00E4F51BE51BC3951850200517E517AE1684
:100DBF007002051614FFE51A251BF582E43519F5A7
:0A0DCF0083E0FD1209C0051B80D966
:010DD90022F7
:0A0C73008E168F178D188A198B1A40
:100C7D00E4FDF51BE53B6012E516FF7E000DEE244D
:100C8D0000F582E43400F583EFF0AE050D74002E0F
:100C9D00F582E43400F583E517F07A007B00AF337D
:0E0CAD00120F02AB1AAA19AD18AF33020EE6F1
:040FBC00021CFFFF15
:100F500075CDFC75CBFC75CC1475CA14E4F5C8D2FC
:080F6000BDD2CAD2AFD2AD220E
:05002E00C2CAC2AD22B0
:03002B000207BC0D
:1007BC00C0E0C083C082C0D075D000C000C003C0F0
:0707CC0004C005C006C007D0
:1007D300908001E0FE908000E0FDAC06E51DF4FF93
:1007E300E51CF45CF508EF5DF509E4FB900001EB13
:1007F300C394054003020884E5085583FEE50955C3
:10080300824E602DE58225E0FFE583335CFEEF5DDC
:100813004E60047F0180027FFF74352BF8EFF633BF
:1008230095E0FEEB25E02428F808EF26F618EE36CF
:10083300F6E582AE837802C333CE33CED8F9FFE533
:10084300085EFEE5095F4E6023EB25E02428F8E609
:10085300FE08E6FFEB25E0243CF8A60608A607748D
:10086300352BF8E6FF74232BF8EF26F60BE582AE63
:10087300837803C333CE33CED8F9F5828E83020750
:07088300F28C1C8D1DC2CF99
:10088A00D007D006D005D004D003D000D0D0D08273
:05089A00D083D0E03224
:100E6F0090E682E030E004E020E60B90E682E0308E
:100E7F00E119E030E71590E680E04401F07F147E41
:0C0E8F0000120CBB90E680E054FEF02244
:1000030090E682E044C0F090E681F043870100006F
:0400130000000022C7
:100E400030040990E680E0440AF0800790E680E0F4
:100E50004408F07FDC7E05120CBB90E65D74FFF069
:0F0E600090E65FF05391EF90E680E054F7F022B8
:080FD100E4F559D2E9D2AF2288
:100D6F0090E678E020E6F9C2E990E678E04480F07A
:100D7F00EF25E090E679F090E678E030E0F990E644
:100D8F0078E04440F090E678E020E6F990E678E0ED
:060D9F0030E1D6D2E9228A
:100E0E00A90790E678E020E6F9E559702390E67898
:100E1E00E04480F0E925E090E679F08D54AF03A927
:100E2E00077555018A568957E4F558755901D3222D
:020E3E00C322CD
:100DDA00A90790E678E020E6F9E559702590E678CB
:100DEA00E04480F0E925E0440190E679F08D54AFC3
:100DFA0003A9077555018A568957E4F558755903A9
:040E0A00D322C3220A
:03004B000206B4F6
:1006B400C0E0C083C082C085C084C086758600C087
:1006C400D075D000C000C001C002C003C006C0077E
:1006D40090E678E030E20675590602079E90E678C7
:1006E400E020E10CE5596402600675590702079E93
:1006F400E55924FE605F14603624FE700302078F00
:1007040024FC700302079B2408600302079EAB5578
:10071400AA56A957AF5805588F8275830012089FAF
:1007240090E679F0E55865547070755905806B90C2
:10073400E679E0AB55AA56A957AE588E8275830068
:100744001208CC755902E5546401704E90E678E0C5
:100754004420F08045E55424FEB5580790E678E03F
:100764004420F0E55414B5580A90E678E04440F08B
:1007740075590090E679E0AB55AA56A957AE588E44
:10078400827583001208CC0558800F90E678E04407
:1007940040F075590080037559005391DFD007D09C
:1007A40006D003D002D001D000D0D0D086D084D0DF
:0807B40085D082D083D0E03231
:020E9B00A907A5
:100E9D00AE52AF538F828E83A3E064037017AD0102
:100EAD0019ED7001228F828E83E07C002FFDEC3EC8
:090EBD00FEAF0580DF7E007F001E
:010EC6002209
:100EE600120DDAE55924FA600E146006240770F331
:0C0EF600D322E4F559D322E4F559D322AD
:100F0200120E0EE55924FA600E146006240770F3DF
:0C0F1200D322E4F559D322E4F559D32290
:100CBB008E0E8F0F90E600E054187012E50F240192
:100CCB00FFE4350EC313F50EEF13F50F801590E609
:100CDB0000E05418FFBF100BE50F25E0F50FE50EF4
:100CEB0033F50EE50F150FAE0E7002150E4E6005A7
:060CFB0012001780EE223A
:100017007400F58690FDA57C05A3E582458370F9FC
:0100270022B6
:03000000020BE709
:0C0BE700787FE4F6D8FD758159020C2ED1
:10089F00BB010CE58229F582E5833AF583E022500E
:1008AF0006E92582F8E622BBFE06E92582F8E22258
:0D08BF00E58229F582E5833AF583E4932272
:1008CC00F8BB010DE58229F582E5833AF583E8F062
:1008DC00225006E92582C8F622BBFE05E92582C80E
:0208EC00F222F6
:1008EE00BC000BBE0029EF8DF084FFADF022E4CCEE
:1008FE00F875F008EF2FFFEE33FEEC33FCEE9DECB7
:10090E00984005FCEE9DFE0FD5F0E9E4CEFD22EDFC
:10091E00F8F5F0EE8420D21CFEADF075F008EF2F46
:10092E00FFED33FD4007985006D5F0F222C398FD37
:05093E000FD5F0EA22D4
:0C094300A42582F582E5F03583F58322BF
:10094F00D083D082F8E4937012740193700DA3A337
:10095F0093F8740193F5828883E47374029368604B
:06096F00EFA3A3A380DF4B
:100BF300020B56E493A3F8E493A34003F68001F2B7
:100C030008DFF48029E493A3F85407240CC8C33302
:100C1300C4540F4420C8834004F456800146F6DFD1
:100C2300E4800B0102040810204080900FB8E47E9A
:100C3300019360BCA3FF543F30E509541FFEE493C6
:100C4300A360010ECF54C025E060A840B8E493A38D
:100C5300FAE493A3F8E493A3C8C582C8CAC583CAB8
:100C6300F0A3C8C582C8CAC583CADFE9DEE780BE70
:010FC0000030
:00000001FF
