:100D76001201000200000040051636800100010243
:100D860000010A06000200000040010009022000DE
:100D9600010100A0FA0904000002FF000000070597
:100DA6000202000200070586020002000902200076
:100DB600010100A0FA0904000002FF000000070577
:100DC60001024000000705810240000014030000F4
:100DD600000000000000000000000000000000000D
:100DE600260341004300430045005300200049000C
:100DF6002F004F002000500072006F006400750045
:100E06006300740073001C03550053004200500039
:100E16002D00490049003800490044004F003400C5
:100E2600410000008081828384858687A0A1A2A3D9
:100E3600A4A5A6A7C0D0C0E0EF900E2A93900E51AD
:100E4600F0ED900E2A93900E53F0A2009200D0E09F
:100E5600D0D022C0D0C0E0EF900E2A93900E70F052
:100E6600ED900E2A93900E73F0A200B39200D0E09C
:030E7600D0D022B7
:1019CD00555342502D49493849444F3441005049EF
:1019DD00434F2D49493849444F34410055534250E6
:0719ED002D49493845520065
:0400460043B1402260
:04004E0053B1BF22C9
:041CFA0043B1402290
:071CE50053B1FD43B10222DF
:101A1900EF5407FE7401A806088002C333D8FCFE00
:101A2900EF131313541FF522ED6004EE428022EEEA
:041A3900F4528022C1
:10191D00EF54F824F8600824087006AE808002AEFB
:10192D00A0EF5407FF7401A807088002C333D8FC49
:0C193D005206EE60047F0180027F002251
:0D003600E580120F9D900001E5A0020FAFC4
:0C1CA000120F5790285DF0F580021CE543
:01002A0022B3
:01004A002293
:1015F1007AE779407F40AB077D017F037E001215BA
:10160100A990E740E0B4D0037436F090E740E09051
:101611000D80F090E740E024C9600B0470107BFF5F
:101621007A1979CD800E7BFF7A1979DB80067BFFF1
:0A1631007A1979E91214F8021CE599
:01005200228B
:0110FF0022CE
:091CCC0090285D74FFF0A3F022E2
:101B990090285DE0F5807590FF75B2FF75B3FF750C
:061BA900B11475B6FF2225
:101C2C008F248D25300603020E3AAD25AF24120EFB
:021C3C0059222B
:011D1E0022A2
:011D1F0022A1
:071CEC0090285FE0F5802263
:071CF30090285F74FFF0224E
:1003790090E6BEE0FFC313F52BE4F52CD204120B73
:1003890053500302066790E6B9E024D06044146034
:1003990041248F700302066014700302066024E48E
:1003A900606224AD600302066590E6BEE0D3940066
:1003B9005003020667E090E68BF090E6A0E020E1AA
:1003C900F990E740E0F580121CE5E490E68AF00236
:1003D900066790E740E580F0A3E590F0A3E5A0F07B
:1003E900A3E5B0F0E5B130E0047F0180027F009021
:1003F900E6BAEFF090E7457469F0E4A3F0A3F0A33F
:10040900F002064B43878053B1F353B1FB75983023
:10041900752D0C152DE52D600280F8759830752D18
:100429000C152DE52D600280F8759830752D0C1589
:100439002DE52D600280F8759830752D0C152DE588
:100449002D600280F8759830752D0C152DE52D60FD
:100459000280F843B104E52CC3952B40030205251E
:1004690053B1F3759830752D0C152DE52D6002806B
:10047900F8759830752D0C152DE52D600280F875ED
:100489009830752D0C152DE52D600280F8E599C47D
:1004990013135403FF7440252CF582E434E7F583E4
:1004A900EFF0759830752D0C152DE52D600280F84B
:1004B90085992AE52AC413135403FF7441252CF5A1
:1004C90082E434E7F583EFF0E52A25E025E0FF74BF
:1004D90040252CF582E434E7F583E04FFF7440258D
:1004E9002CF582E434E7F583EFF0759830752D0C1F
:1004F900152DE52D600280F885992A7441252CF582
:1005090082E434E7F583E0FFE52A25E025E0FEEF04
:100519004EF043B104052C052C02045F43B1085386
:10052900B1FB759830752D0C152DE52D600280F8FD
:10053900759830752D0C152DE52D600280F875988C
:1005490030752D0C152DE52D600280F875983075E4
:100559002D0C152DE52D600280F8759830752D0C40
:10056900152DE52D600280F843B104E4F52CE52C46
:10057900C3952B400302064A43B10853B1FB759852
:1005890030752D0C152DE52D600280F875983075A4
:100599002D0C152DE52D600280F8759830752D0C00
:1005A900152DE52D600280F8E599C413135403FF56
:1005B900E52B252C2440F582E434E7F583EFF0752B
:1005C9009830752D0C152DE52D600280F885992A36
:1005D900E52AC413135403FFE52B252CFE2441F50A
:1005E90082E434E7F583EFF074402EF582E434E7D2
:1005F900F583E0FFE52A25E025E0FEEF4EFFE52B38
:10060900252C2440F582E434E7F583EFF075983022
:10061900752D0C152DE52D600280F885992AE52B9D
:10062900252C2441F582E434E7F583E0FFE52A250A
:10063900E025E0FEEF4EF043B104052C052C020540
:1006490077E490E68AF090E6BEE090E68BF090E6DB
:10065900A0E04480F0800712088E8002D322C322D2
:041D060000000000D9
:101C6200021D1D0602080000011001010C01010AFB
:011C72000170
:101C0600902803E07006902802E06003021C9312FD
:031C1600002E227B
:101A83007E007F617D007B017A287900120FF79039
:101A930028007409F0E4A3F0121CCC121B99021B5A
:011AA300AF93
:10000E007D021215A1902800E0B40904A3E060035C
:0C001E00021A837D611215A1121B9922A9
:101BAF007A287B007D617F017E1F1217F07D617F98
:061BBF00007E1F021D0E56
:10136000121C0690E6BEE0F536753802E536605789
:10137000C3944050058536378003753740E490E6C6
:101380008AF090E68BE537F090E6A0E020E1F9E402
:10139000F535E535C39537502574402535F582E49C
:1013A00034E7F583E0FFAE380538EE7C007B01249E
:1013B00000F9EC3428FAEF120F9D053580D4C3E50F
:0A13C000369537F53680A5021C06AD
:0F1C8400D3E547950EE546950D4003121CAC22A3
:011D200022A0
:101A3D00902805E0FE902804E07C002400F50EECD3
:101A4D003EF50D450E7007C28CC2A9C20522D28C7F
:031A5D00D2A922E9
:011D2100229F
:1016C90090E6BEE090E68BF090E6A0E020E1F9E438
:1016D900FF74422FF582E434E7F583E0FEEF7C00E6
:1016E9007B01245FF9EC3428FAEE120F9D0FBF023B
:1016F900E090E740E0902804F090E741E090280569
:04170900F0021A3D93
:0B1CAC00121CECE4F546F547D20522BF
:101B5100E4F546F547C28CC2A9538EF75389F14388
:081B61008901121D21021A3D49
:1018BD00E50945086017E50915097002150814C3F7
:1018CD0094FFE50864809480501602004E30041099
:1018DD007508057509FF120046C204E4F546F54783
:0118ED0022D8
:100A2C0090E6B8E020E703020AE1E4F534902804EC
:100A3C00E0FFAE34053474402EF582E434E7F583E0
:100A4C00EFF0902805E0FFAE34053474402EF582AB
:100A5C00E434E7F583EFF0E4F533E533C394025067
:100A6C00247E007B01745F2533F9EE3428FA120FD3
:100A7C0057FF74402534F582E434E7F583EFF00535
:100A8C0033053480D5AE34053474402EF582E4340D
:100A9C00E7F583E547F0E546FFAE34053474402EA8
:100AAC00F582E434E7F583EFF0A205E433FFAE34CE
:100ABC00053474402EF582E434E7F583EFF0C2057B
:100ACC00E490E68AF090E6BEE090E68BF090E6A02B
:100ADC00E04480F02290E6BEE090E68BF090E6A039
:100AEC00E020E1F990E6BEE06402705AE4F534AF20
:100AFC0034053474402FF582E434E7F583E0902814
:100B0C0004F0AF34053474402FF582E434E7F583F8
:100B1C00E0902805F0E4F533E533C39402502474D7
:100B2C00402534F582E434E7F583E0FFE5337C00BF
:100B3C007B01245FF9EC3428FAEF120F9D05330585
:070B4C003480D5121A3D228E
:041CFE00751001223A
:1013CA00121C0690E6BEE0F536E4F538E5366057BD
:1013DA00C3944050058536378003753740E490E65C
:1013EA008AF090E68BE537F090E6A0E020E1F9E498
:1013FA00F535E535C39537502574402535F582E432
:10140A0034E7F583E0FFAE380538EE7C007B012433
:10141A001BF9EC3428FAEF120F9D053580D4C3E589
:08142A00369537F53680A52246
:10154F001510E510704B90281BE0F510121D1EE4CE
:10155F00F52190285CE0FFE521C39F5031E521255F
:10156F00E0241CF582E43428F583E0F522E52125FB
:10157F00E0241DF582E43428F583E0F523547FFD44
:10158F00E523339206AF22121C2C052180C4121DB5
:02159F001F2209
:101AA40090E6BEE090E68BF090E6A0E020E1F990AD
:101AB400E740E0902806F090E741E0902807F02204
:1012D500150CE50C600302135F902806E0F50C7B06
:1012E500017A28797B120036E4FFFE747B2EF582A5
:1012F500E43428F583E0FD74612EF582E43428F5A5
:1013050083E06DF97D01E4FCECC394085046E95D8A
:10131500602974632FF582E43428F583E014F074B2
:10132500632FF582E43428F583E0702074612EF58F
:1013350082E43428F583E06DF08000902807E0FB17
:1013450074632FF582E43428F583EBF00CED25E08A
:0B135500FD0F80B40EEE6402709122C8
:101B690090E6BEE090E68BF090E6A0E020E1F990E7
:081B7900E740E0902808F0228B
:10194900E4FF74732FF582E43428F583E4F07477A7
:101959002FF582E43428F58374FFF074752FF5822E
:0C196900E43428F583E4F00FBF02D7221D
:10149600150AE50A705B902808E0F50A7B017A28B0
:1014A6007973120036E4FF74772FF582E43428F559
:1014B60083C083C082E0FE74732FF582E43428F57E
:1014C60083E0FDEE5DD082D083F074752FF582E463
:1014D6003428F583C083C082E0FE74732FF582E45E
:1014E6003428F583E0FDEE4DD082D083F00FBF02A5
:0214F600B6221C
:041D0200750F012236
:10102300150FE50F603DE4F52190281AE0FFE52157
:10103300C39F507C74152521F8E6602316E6701FC4
:10104300E52125E0240AF582E43428F583E0FE5403
:101053007FFFEE30E7047D0080027D01121A19053F
:101063002180C6902809E0F50FE4F52190281AE0C5
:10107300FFE521C39F5039E52125E0240BF582E4E8
:101083003428F583E0FF74152521F8A607E521250B
:10109300E0240AF582E43428F583E0FE547FFFEE72
:1010A30030E7047D0180027D00121A19052180BCFE
:0110B300221A
:1018590090E6BEE090E68BF090E6A0E020E1F9E4A6
:10186900FF74402FF582E434E7F583E0FEEF7C0056
:101879007B012409F9EC3428FAEE120F9D0FBF12EF
:02188900E0225B
:10005600E4F53490E6B8E030E77790E6BEE0FF706E
:100066000490E68BF0BF010D90E7407461F090E6D6
:100076008B7401F01FEF605190E6A0E020E1F9EFEC
:10008600C3944050048F338003753340E4FEEEC3BF
:1000960095335023AD3405347C007B0174002DF973
:1000A600EC3428FA120F57FD74402EF582E434E73B
:1000B600F583EDF00E80D7E490E68AF090E68BE5C6
:1000C60033F0C3EF9533FF80AC90E6A0E04480F0B8
:1000D6002290E6BFE0FF90E6BEE04F707790E6BD67
:1000E600E0704D90E6BCE024EF6023249F6030244E
:1000F600FD603324F360342472703590E6BAE06410
:10010600CE702DA3E064AC7027121BAF802290E660
:10011600BAE0B4CE1BA3E0B4AC16121A838011E485
:1001260090281AF0800A750F018005E490285CF08B
:1001360090E6BDE06480600302037890E6BCE0646C
:1001460001600302037890E6BAE0902802F090E698
:10015600BB02020B90E6BFE0600302037890E6BDA7
:10016600E0FE90E6BCE07C002400FFEC3EFE60036F
:10017600020378EF120FD101B12001B12101B122A2
:1001860001B12301E62F021341022151022F53022E
:100196004F61025D63027D71028B7302AB740300D3
:1001A60081030B830328840000037890E6BEE0B445
:1001B6005F0312136090E6BCE030E003121B9990D7
:1001C600E6BCE020E10302037890E6BAE064CE6084
:1001D60003020378A3E064AC6003020378021BAF5A
:1001E60090E6BEE064026003020378E090E68BF0DE
:1001F60090E6A0E020E1F9121C0690E740E0902886
:1002060002F090E741E0902803F0021C0690E6BE5B
:10021600E0640460030203780216C990E6BEE06457
:10022600026003020378021AA490E6BEE06401604D
:1002360003020378E090E68BF090E6A0E020E1F977
:1002460090E740E0902806F02290E6BEE064016068
:1002560003020378021B6990E6BEE06401600302B4
:100266000378E090E68BF090E6A0E020E1F990E7D5
:1002760040E0902808F02290E6BEE0641260030297
:10028600037802185990E6BEE06401600302037821
:10029600E090E68BF090E6A0E020E1F990E740E000
:1002A600902809F02290E6BEE0640260030203781B
:1002B60090281AE0C39408400302037890E6BEE053
:1002C60090E68BF090E6A0E020E1F990E740E0FFB1
:1002D60090281AE0FE25E02408F582E43428F58308
:1002E600EFF090E741E0FFEE25E02409F582E434E3
:1002F60028F583EFF090281A807590E6BEE06442F8
:1003060070700213CA90E6BEE064017065E090E684
:100316008BF090E6A0E020E1F990E740E090281B02
:10032600F02290E6BEE06402704890285CE0C39438
:1003360020503F90E6BEE090E68BF090E6A0E020ED
:10034600E1F990E740E0FF90285CE0FE25E0241A02
:10035600F582E43428F583EFF090E741E0FFEE25DF
:10036600E0241BF582E43428F583EFF090285CE066
:0303760004F0226E
:101B1B0090E6047480F00000007402F00000007482
:0B1B2B0006F0000000E4F000000022C3
:011D2200229E
:10170D00E4F52A7AE779407F40AB077D087FF87EC4
:10171D001D1215A9E4F52A7440252AF582E434E753
:10172D00F583E0FDE52A75F002A424D4F9740D3596
:0F173D00F08982F583EDF0052AE52AB408D92258
:10163B0090E678E05410FFC4540F4450F51113E4B6
:10164B0033F51390E600E054E74410F0438E20127C
:10165B00002E12002A121CDD12170D1215F1D200EA
:10166B0012000E121CFE121B51121949121D0212EE
:08167B001C0612004E02004A99
:101C19001200521218BD121C8490E680E054F7F0AD
:031C29000210FFA7
:1014F8008B2A8A2B892CE4F52D121BF18F2EE52ED1
:1015080025E02402900E0CF0E4F52DAF2EEF339574
:10151800E0FEC3E52D9FEE6480F87480985027ABF9
:101528002AAA2BA92C852D82758300120F70FDE540
:101538002D75F002A4240EF9740E35F08982F58316
:07154800EDF0052D80C52226
:1010B4008E418F42AC05E4FDE5136012E541FF7EED
:1010C400000DEE251EF582E4351DF583EFF0AE0527
:1010D4000DE51E2EF582E4351DF583E542F0AF05DE
:1010E4000DE51E2FF582E4351DF583ECF0AB1EAA49
:0B10F4001DAF11121AFFAF110217BA56
:031D0E000210B40C
:1017F0008E3B8F3C8D3D8A3E8B3FE4F540E540C3F8
:10180000953D5020053CE53CAE3B7002053B14FF86
:10181000E53F2540F582E4353EF583E0FD121D0EDF
:05182000054080D92203
:0815A1007A287B007F017E1F08
:1015A9008E3B8F3C8D3D8A3E8B3FE4FDF540E51334
:1015B9006012E53BFF7E000DEE251EF582E4351D28
:1015C900F583EFF0AE050DE51E2EF582E4351DF528
:1015D90083E53CF0AB1EAA1DAF11121AFFAB3FAA5F
:0815E9003EAD3DAF11021AE313
:10088E0090E6BAE0753300F534A3E0FEEE42339005
:10089E00E6BEE0753500F536A3E0FEEE423590E695
:1008AE00B8E064C06003020999E53645357003026D
:1008BE000A2B90E6A0E020E1F9C3E5369440E53539
:1008CE0094005008853537853638800675370075A3
:1008DE00384090E6B9E064A3705790E6BCE0B401EE
:1008EE001BA3E0701790E6BBE030E71090E7407472
:1008FE0003F0A37401F0A37403F0806AE4F539F5F4
:10090E003AC3E53A9538E5399537505AE534253AE4
:10091E00F582E5333539F583E0FF7440253AF582EB
:10092E00E434E7F583EFF0053AE53A70D405398003
:10093E00D0E4F539F53AC3E53A9538E539953750AF
:10094E00187440253AF582E434E7F58374CDF0054A
:10095E003AE53A70E1053980DDAD387AE77B40AF94
:10096E0034AE331215A9E490E68AF090E68BE538A2
:10097E00F02534F534E5373533F533C3E5369538A0
:10098E00F536E5359537F5350208B790E6B8E064EB
:10099E00406003020A2BE53645357003020A2BE44C
:1009AE0090E68AF090E68BF090E6A0E020E1F990D8
:1009BE00E68BE0753700F53890E6B9E0B4A335E480
:1009CE00F539F53AC3E53A9538E53995375032742D
:1009DE0040253AF582E434E7F583E0FFE534253A25
:1009EE00F582E5333539F583EFF0053AE53A70D403
:1009FE00053980D0AD387AE77B40AF34AE3312176D
:100A0E00F0E5382534F534E5373533F533C3E536BF
:0E0A1E009538F536E5359537F5350209A422F1
:100E7900E4FF90E6B8E020E703020F560F0F744035
:100E89002401F582E434E7F5837409F00F744024F2
:100E990002F582E434E7F583E4F00F74402403F5A6
:100EA90082E434E7F583E4F00F74402404F582E426
:100EB90034E7F583E4F00F74402405F582E434E760
:100EC900F5837402F00F74402406F582E434E7F5E3
:100ED90083E4F00F74402407F582E434E7F583E4F2
:100EE900F00F74402408F582E434E7F58374FFF0C9
:100EF9000F74402409F582E434E7F58374FFF00F99
:100F09007440240AF582E434E7F5837408F00F7419
:100F190040240BF582E434E7F5837420F00F744024
:100F2900240CF582E434E7F583740BF00F74402444
:100F39000DF582E434E7F5837403F090E740EFF0B0
:0E0F4900E490E68AF090E6BEE090E68BF0229F
:0B1CB700E50E450D7003D38001C32231
:021D1400D322D8
:021D1600D322D6
:0800030090E6BAE0F50BD322F0
:101C3E0090E740E50BF0E490E68AF090E68B04F036
:021C4E00D3229F
:081CD50090E6BAE0F512D322FB
:101C500090E740E512F0E490E68AF090E68B04F01D
:021C6000D3228D
:021D1800D322D4
:021D1A00D322D2
:021D1C00D322D0
:100B530090E6B9E0120FD10B91100B91110BBF145A
:100B63000C30150B7F2E0B793C0B8B3F0B85A20BA7
:100B730085A300000C6A120056020C6C120A2C02A8
:100B83000C6C12088E020C6C120E79020C6C90E63F
:100B9300B8E030E70C7B017AE77940120036020CAB
:100BA3005490E6BEE090E68BF090E6A0E020E1F9F9
:100BB3007B017AE77940121CA0020C6CE4F52F74D8
:100BC30073252FF582E43428F583E0FF7440252F45
:100BD300F582E434E7F583EFF0052FE52FB402DF68
:100BE300E4F52F7477252FF582E43428F583E0FFAD
:100BF3007442252FF582E434E7F583EFF0052FE502
:100C03002FB402DFE4F52F7475252FF582E4342821
:100C1300F583E0FF7444252FF582E434E7F583EF91
:100C2300F0052FE52FB402DF1219498024E4F52FD4
:100C33007461252FF582E43428F583E0FF744025A1
:100C43002FF582E434E7F583EFF0052FE52FB402A7
:100C5300DFE490E68AF090E6BEE090E68BF090E663
:0B0C6300A0E04480F08002C322D322F6
:101AC400C0E0C083C08290E6B5E04401F0D2015387
:0F1AD40091EF90E65D7401F0D082D083D0E032C4
:101BC500C0E0C083C0825391EF90E65D7404F0D00D
:061BD50082D083D0E03253
:101BDB00C0E0C083C0825391EF90E65D7402F0D0F9
:061BEB0082D083D0E0323D
:10174C00C0E0C083C08290E680E030E70E85444A5A
:10175C0085454B854E4C854F4D800C854E4A854FAB
:10176C004B85444C85454D5391EF90E65D7410F0DC
:07177C00D082D083D0E032DF
:101B8100C0E0C083C082D2035391EF90E65D740838
:081B9100F0D082D083D0E032D5
:10178300C0E0C083C08290E680E030E70E85444A23
:1017930085454B854E4C854F4D800C854E4A854F74
:1017A3004B85444C85454D5391EF90E65D7420F095
:0717B300D082D083D0E032A8
:011D2300328D
:011D2400328C
:011D2500328B
:011D2600328A
:011D27003289
:011D28003288
:011D29003287
:011D2A003286
:011D2B003285
:011D2C003284
:011D2D003283
:011D2E003282
:011D2F003281
:011D30003280
:011D3100327F
:011D3200327E
:011D3300327D
:011D3400327C
:011D3500327B
:011D3600327A
:011D37003279
:011D38003278
:011D39003277
:011D3A003276
:011D3B003275
:011D3C003274
:011D3D003273
:011D3E003272
:011D3F003271
:011D40003270
:011D4100326F
:011D4200326E
:011D4300326D
:011D4400326C
:011D4500326B
:011D4600326A
:0A1CC20000010202030304040505FB
:03000B00021B369F
:101B3600C0E0C0D00543E543B43C0B0547E547701C
:0B1B4600020546754300D0D0D0E0320D
:1011B800E4F529F528F527F526C203C200C202C2C4
:1011C8000112163B75480D75497675500D75518895
:1011D80075440D754592754E0D754FB275520D7566
:1011E80053D2D2E843D82090E668E04409F090E66C
:1011F8005CE0443DF0D2AFD2071218EE90E680E0F2
:1012080054F7F0538EF8C203300105120669C20183
:10121800300329121CB75024C2031219F4200016F7
:1012280090E682E030E704E020E1EF90E682E030EB
:10123800E604E020E0E4121975121D14121C19804E
:01124800C7DE
:1006690090E6B9E0700302071A1470030207972491
:10067900FE700302081A24FB7003020714147003A6
:1006890002070E1460731460762405600302087A69
:10069900121D16400302088690E6BBE024FE602284
:1006A90014603324FD601114602224067048E54863
:1006B90090E6B3F0E5498037E55090E6B3F0E551AF
:1006C900802DE54A90E6B3F0E54B8023E54C90E6B2
:1006D900B3F0E54D801990E6BAE0FF1219A1AA0618
:1006E900A9077B01EA494B600DEE90E6B3F0EF9064
:1006F900E6B4F002088602087F121C50020886122E
:100709001CD5020886120003020886121C3E020844
:1007190086121D18400302088690E6B8E0247F601F
:100729001514601924027063A200E43325E0FFA2C6
:1007390002E4334F8041E490E740F0803F90E6BC0B
:10074900E0547EFF7E00E0D394807C0040047D016C
:1007590080027D00EC4EFEED4F24C2F582741C3EF2
:10076900F583E493FF3395E0FEEF24A1FFEE34E631
:100779008F82F583E0540190E740F0E4A3F090E61E
:100789008AF090E68B7402F002088602087F121D37
:100799001A400302088690E6B8E024FE6016240297
:1007A900600302088690E6BAE0B40105C2000208B7
:1007B9008602087F90E6BAE0705590E6BCE0547E68
:1007C900FF7E00E0D394807C0040047D0180027D9F
:1007D90000EC4EFEED4F24C2F582741C3EF583E415
:1007E90093FF3395E0FEEF24A1FFEE34E68F82F507
:1007F90083E054FEF090E6BCE05480131313541FB9
:10080900FFE0540F2F90E683F0E04420F0806E80E3
:1008190065121D1C506790E6B8E024FE601A240298
:10082900705B90E6BAE0B40104D200805090E6BA59
:10083900E0B402028047803E90E6BCE0547EFF7E31
:1008490000E0D394807C0040047D0180027D00ECAF
:100859004EFEED4F24C2F582741C3EF583E493FFEE
:100869003395E0FEEF24A1FFEE34E68F82F5838015
:1008790008120379500790E6A0E04401F090E6A041
:05088900E04480F022B4
:03003300021D0AA1
:041D0A0053D8EF3289
:101A6000902879EFF0F5CB8FCDAF05A3EFF0F5CA55
:101A70008FCCE4F5C8758E19D2BDD2AFD2ADD2CA23
:031A8000F55A22F2
:0D1C9300902803E0FF902802E0FD021A6097
:031D1100AF5A22A4
:101C7400AD07AC06C3E49DFBE49CFFEBFD021A60D8
:05002E00C2CAC2AD22B0
:03002B000214328A
:10143200C0E0C0F0C083C082C0D075D000C000C080
:1014420001C002C003C004C005C006C00790280640
:10145200E060031212D5902808E0600312149690FF
:10146200281AE0600312102390285CE0600990289B
:101472001BE0600312154FC2CFD007D006D005D0B3
:1014820004D003D002D001D000D0D0D082D083D0FB
:04149200F0D0E03284
:03004300021100A7
:0300530002110097
:10110000021AC400021BDB00021BC500021B810087
:1011100002174C0002178300021D2300021D240049
:10112000021D2500021D2600021D2700021D2800A9
:10113000021D2900021D2A00021D2B00021D2C0089
:10114000021D2D00021D2400021D2E00021D2F0075
:10115000021D3000021D3100021D3200021D33004D
:10116000021D3400021D2400021D2400021D240063
:10117000021D3500021D3600021D3700021D380019
:10118000021D3900021D3A00021D3B00021D3C00F9
:10119000021D3D00021D3E00021D3F00021D4000D9
:1011A000021D4100021D4200021D4300021D4400B9
:0811B000021D4500021D46006E
:1019750090E682E030E004E020E60B90E682E0307D
:10198500E119E030E71590E680E04401F07F147E30
:0C1995000012168390E680E054FEF02261
:1019F40090E682E044C0F090E681F0438701000065
:041A040000000022BC
:1018EE0030070990E680E0440AF0800790E680E039
:1018FE004408F07FDC7E0512168390E65D74FFF0DF
:0F190E0090E65FF05391EF90E680E054F7F022FF
:081CDD00E4F559D2E9D2AF226F
:1017BA0090E678E020E6F9C2E990E678E04480F025
:1017CA00EF25E090E679F090E678E030E0F990E6EF
:1017DA0078E04440F090E678E020E6F990E678E098
:0617EA0030E1D6D2E92235
:10188B00A90790E678E020E6F9E559702390E67811
:10189B00E04480F0E925E090E679F08D54AF03A9A0
:1018AB00077555018A568957E4F558755901D322A6
:0218BB00C32246
:10182500A90790E678E020E6F9E559702590E67875
:10183500E04480F0E925E0440190E679F08D54AF6D
:1018450003A9077555018A568957E4F55875590353
:04185500D322C322B5
:03004B00020C6E36
:100C6E00C0E0C083C082C085C084C086758600C0C7
:100C7E00D075D000C000C001C002C003C006C007BE
:100C8E0090E678E030E206755906020D5890E67847
:100C9E00E020E10CE55964026006755907020D5813
:100CAE00E55924FE605F14603624FE7003020D4980
:100CBE0024FC7003020D5524086003020D58AB5539
:100CCE00AA56A957AF5805588F82758300120F7018
:100CDE0090E679F0E55865547070755905806B9003
:100CEE00E679E0AB55AA56A957AE588E82758300A9
:100CFE00120FAF755902E5546401704E90E678E01C
:100D0E004420F08045E55424FEB5580790E678E07F
:100D1E004420F0E55414B5580A90E678E04440F0CB
:100D2E0075590090E679E0AB55AA56A957AE588E84
:100D3E0082758300120FAF0558800F90E678E0445D
:100D4E0040F075590080037559005391DFD007D0DC
:100D5E0006D003D002D001D000D0D0D086D084D01F
:080D6E0085D082D083D0E03271
:0219A100A90794
:1019A300AE52AF538F828E83A3E064037017AD01F1
:1019B30019ED7001228F828E83E07C002FFDEC3EB7
:0919C300FEAF0580DF7E007F000D
:0119CC0022F8
:101AE300121825E55924FA600E146006240770F3D2
:0C1AF300D322E4F559D322E4F559D322A4
:101AFF0012188BE55924FA600E146006240770F350
:0C1B0F00D322E4F559D322E4F559D32287
:101683008E2A8F2B90E600E054187012E52B24016C
:10169300FFE4352AC313F52AEF13F52B801590E6E3
:1016A30000E05418FFBF100BE52B25E0F52BE52ACE
:1016B30033F52AE52B152BAE2A7002152A4E600549
:0616C300121A0880EE225D
:101A08007400F58690FDA57C05A3E582458370F9F1
:011A180022AB
:03000000021249A0
:0C124900787FE4F6D8FD75815B021290FE
:100F5700BB010689828A83E0225002E722BBFE0298
:090F6700E32289828A83E49322CB
:100F7000BB010CE58229F582E5833AF583E0225036
:100F800006E92582F8E622BBFE06E92582F8E22280
:0D0F9000E58229F582E5833AF583E493229A
:100F9D00BB010689828A83F0225002F722BBFE0133
:020FAD00F3222D
:100FAF00F8BB010DE58229F582E5833AF583E8F078
:100FBF00225006E92582C8F622BBFE05E92582C824
:020FCF00F2220C
:100FD100D083D082F8E4937012740193700DA3A3AF
:100FE10093F8740193F5828883E4737402936860C3
:060FF100EFA3A3A380DFC3
:101BF100E4FFFE120F57600C0FEF70010E09E97040
:051C0100F20A80EF2251
:100FF700EF4E6012EF60010EEDBB010B89828A8311
:10100700F0A3DFFCDEFA2289F05007F709DFFCA91D
:0C101700F022BBFEFCF309DFFCA9F02274
:101255000211B8E493A3F8E493A34003F68001F2E6
:1012650008DFF48029E493A3F85407240CC8C3339A
:10127500C4540F4420C8834004F456800146F6DF69
:10128500E4800B0102040810204080901C62E47E7B
:10129500019360BCA3FF543F30E509541FFEE4935E
:1012A500A360010ECF54C025E060A840B8E493A325
:1012B500FAE493A3F8E493A3C8C582C8CAC583CA50
:1012C500F0A3C8C582C8CAC583CADFE9DEE780BE08
:011C73000070
:00000001FF
